:020000040800F2
:10000000007800207D1D00083D1800083F180008FA
:1000100041180008431800084518000800000000B7
:100020000000000000000000000000004918000867
:1000300047180008000000004B1800084D18000881
:10004000CD1D0008CD1D0008CD1D0008CD1D0008E8
:100050004D3E0008CD1D0008CD1D0008CD1D000837
:10006000CD1D0008CD1D0008CD1D0008CD1D0008C8
:10007000CD1D0008CD1D0008CD1D0008CD1D0008B8
:10008000CD1D000800000000CD1D0008CD1D00089A
:1000900075540008253D0008CD1D0008CD1D000841
:1000A000CD1D0008CD1D0008CD1D0008CD1D000888
:1000B000CD1D0008CD1D0008CD1D0008CD1D000878
:1000C00071450008CD1D000881450008CD1D0008C0
:1000D000CD1D0008CD1D0008CD1D0008CD1D000858
:1000E000CD1D0008CD1D0008CD1D0008CD1D000848
:1000F000CD1D0008CD1D0008CD1D0008000000002A
:1001000000000000CD1D000800000000CD1D00080B
:10011000CD1D000800000000CD1D0008CD1D000809
:10012000CD1D0008CD1D0008CD1D0008CD1D000807
:10013000CD1D00080000000000000000CD1D0008DB
:10014000CD1D0008CD1D00080000000000000000CB
:10015000000000000000000000000000000000009F
:10016000000000000000000000000000CD1D00089D
:10017000CD1D00080000000000000000000000008D
:1001800000000000CD1D000800000000000000007D
:10019000000000000000000000000000000000005F
:1001A0000000000000000000CD1D0008CD1D00086B
:1001B000CD1D0008CD1D0008CD1D00080000000069
:1001C00000000000CD1D000800000000000000003D
:0801D000CD1D0008CD1D000843
:1004000020524556563235303232305231000000DB
:1004100000000000000000000000000000000000DC
:100420000000000053544D33324734333100000094
:1004300000000000000000000000000000000000BC
:080440000000000000000008AC
:1008000010B5054C237833B9044B13B10448AFF34A
:1008100000800123237010BD84030020000000002D
:10082000F407010808B5034B1BB103490348AFF3B4
:10083000008008BD0000000088030020F4070108C4
:1008400010F8012B11F8013B012A28BF9A42F7D07A
:10085000D01A7047000000000000000000000000F7
:1008600001F0FF01102A2BDB10F0070F08D010F861
:10087000013B013A8B422DD010F0070F42B3F6D165
:10088000F0B441EA012141EA014122F007047FF07E
:1008900000070023F0E80256083C85EA010586EAD5
:1008A000010685FA47F5A3FA87F586FA47F6A5FA11
:1008B00087F68EB9EED1F0BC01F0FF0102F007021D
:1008C00032B110F8013B013A83EA010313B1F8D1C8
:1008D0000020704701387047002D06BF35460338A9
:1008E000073815F0010F07D1013015F4807F02BFE2
:1008F000013015F4C03F0130F0BC0138704700BF33
:10090000034613F8012B002AFBD1181A013870474F
:1009100081F0004102E000BF83F0004330B54FEAB0
:1009200041044FEA430594EA050F08BF90EA020F1D
:100930001FBF54EA000C55EA020C7FEA645C7FEAB0
:10094000655C00F0E2804FEA5454D4EB5555B8BFD3
:100950006D420CDD2C4480EA020281EA030382EA44
:10096000000083EA010180EA020281EA0303362DD6
:1009700088BF30BD11F0004F4FEA01314FF4801CA9
:100980004CEA113102D0404261EB410113F0004FBB
:100990004FEA03334CEA133302D0524263EB430372
:1009A00094EA050F00F0A780A4F10104D5F1200E10
:1009B0000DDB02FA0EFC22FA05F2801841F100016B
:1009C00003FA0EF2801843FA05F359410EE0A5F13F
:1009D00020050EF1200E012A03FA0EFC28BF4CF070
:1009E000020C43FA05F3C01851EBE37101F0004526
:1009F00007D54FF0000EDCF1000C7EEB00006EEB33
:100A00000101B1F5801F1BD3B1F5001F0CD34908BC
:100A10005FEA30004FEA3C0C04F101044FEA445213
:100A200012F5800F80F09A80BCF1004F08BF5FEA9A
:100A3000500C50F1000041EB045141EA050130BD7A
:100A40005FEA4C0C404141EB0101013C28BFB1F58C
:100A5000801FE9D291F0000F04BF01460020B1FAD7
:100A600081F308BF2033A3F10B03B3F120020CDAAA
:100A70000C3208DD02F1140CC2F10C0201FA0CF088
:100A800021FA02F10CE002F11402D8BFC2F1200CED
:100A900001FA02F120FA0CFCDCBF41EA0C019040A3
:100AA000E41AA2BF01EB0451294330BD6FEA0404EC
:100AB0001F3C1CDA0C340EDC04F11404C4F12002D7
:100AC00020FA04F001FA02F340EA030021FA04F3E9
:100AD00045EA030130BDC4F10C04C4F1200220FA40
:100AE00002F001FA04F340EA0300294630BD21FA7E
:100AF00004F0294630BD94F0000F83F4801306BF44
:100B000081F480110134013D4EE77FEA645C18BF37
:100B10007FEA655C29D094EA050F08BF90EA020FCE
:100B200005D054EA000C04BF1946104630BD91EAC6
:100B3000030F1EBF0021002030BD5FEA545C05D1C9
:100B40004000494128BF41F0004130BD14F5800408
:100B50003CBF01F5801130BD01F0004545F0FE417C
:100B600041F470014FF0000030BD7FEA645C1ABFB1
:100B7000194610467FEA655C1CBF0B46024650EAE8
:100B8000013406BF52EA033591EA030F41F4002114
:100B900030BD00BF90F0000F04BF0021704730B59A
:100BA0004FF4806404F132044FF000054FF000016F
:100BB00050E700BF90F0000F04BF0021704730B530
:100BC0004FF4806404F1320410F0004548BF404205
:100BD0004FF000013EE700BF42004FEAE2014FEA5A
:100BE00031014FEA02701FBF12F07F4393F07F4F35
:100BF00081F06051704732F07F4208BF704793F038
:100C00007F4F04BF41F40021704730B54FF460744A
:100C100001F0004521F000411CE700BF50EA01024D
:100C200008BF704730B54FF000050AE050EA0102F6
:100C300008BF704730B511F0004502D5404261EB66
:100C400041014FF4806404F132045FEA915C3FF4A7
:100C5000D8AE4FF003025FEADC0C18BF03325FEA44
:100C6000DC0C18BF033202EBDC02C2F1200300FAF5
:100C700003FC20FA02F001FA03FE40EA0E0021FA1A
:100C800002F11444BDE600BF70B54FF0FF0C4CF408
:100C9000E06C1CEA11541DBF1CEA135594EA0C0FBA
:100CA00095EA0C0F00F0DEF82C4481EA030621EAF5
:100CB0004C5123EA4C5350EA013518BF52EA033530
:100CC00041F4801143F4801338D0A0FB02CE4FF0E2
:100CD0000005E1FB02E506F00042E0FB03E54FF012
:100CE0000006E1FB03569CF0000F18BF4EF0010E0A
:100CF000A4F1FF04B6F5007F64F5407404D25FEA06
:100D00004E0E6D4146EB060642EAC62141EA5551B8
:100D10004FEAC52040EA5E504FEACE2EB4F1FD0CFA
:100D200088BFBCF5E06F1ED8BEF1004F08BF5FEA78
:100D3000500E50F1000041EB045170BD06F000462A
:100D400046EA010140EA020081EA0301B4EB5C04D7
:100D5000C2BFD4EB0C0541EA045170BD41F48011CF
:100D60004FF0000E013C00F3AB8014F1360FDEBFF4
:100D7000002001F0004170BDC4F10004203C35DAD0
:100D80000C341BDC04F11404C4F1200500FA05F353
:100D900020FA04F001FA05F240EA020001F00042F4
:100DA00021F0004110EBD37021FA04F642EB06016A
:100DB0005EEA430E08BF20EAD37070BDC4F10C0494
:100DC000C4F1200500FA04F320FA05F001FA04F258
:100DD00040EA020001F0004110EBD37041F1000144
:100DE0005EEA430E08BF20EAD37070BDC4F120054F
:100DF00000FA05F24EEA020E20FA04F301FA05F2B7
:100E000043EA020321FA04F001F0004121FA04F25E
:100E100020EA020000EBD3705EEA430E08BF20EA2E
:100E2000D37070BD94F0000F0FD101F00046400068
:100E300041EB010111F4801F08BF013CF7D041EAEA
:100E4000060195F0000F18BF704703F000465200EE
:100E500043EB030313F4801F08BF013DF7D043EABF
:100E60000603704794EA0C0F0CEA135518BF95EA75
:100E70000C0F0CD050EA410618BF52EA4306D1D1FC
:100E800081EA030101F000414FF0000070BD50EA1B
:100E9000410606BF1046194652EA430619D094EAA5
:100EA0000C0F02D150EA013613D195EA0C0F05D18F
:100EB00052EA03361CBF104619460AD181EA0301E3
:100EC00001F0004141F0FE4141F470014FF000009B
:100ED00070BD41F0FE4141F4780170BD70B54FF036
:100EE000FF0C4CF4E06C1CEA11541DBF1CEA1355B6
:100EF00094EA0C0F95EA0C0F00F0A7F8A4EB050498
:100F000081EA030E52EA03354FEA013100F088808E
:100F10004FEA03334FF0805545EA131343EA126357
:100F20004FEA022245EA111545EA10654FEA00260C
:100F30000EF000419D4208BF964244F1FD0404F5C5
:100F4000407402D25B084FEA3202B61A65EB030521
:100F50005B084FEA32024FF480104FF4002CB6EBDE
:100F6000020E75EB030E22BFB61A754640EA0C005E
:100F70005B084FEA3202B6EB020E75EB030E22BF9E
:100F8000B61A754640EA5C005B084FEA3202B6EBDF
:100F9000020E75EB030E22BFB61A754640EA9C009E
:100FA0005B084FEA3202B6EB020E75EB030E22BF6E
:100FB000B61A754640EADC0055EA060E18D04FEA2C
:100FC000051545EA16754FEA06164FEAC30343EACC
:100FD00052734FEAC2025FEA1C1CC0D111F4801F99
:100FE0000BD141EA00014FF000004FF0004CB6E792
:100FF00011F4801F04BF01430020B4F1FD0C88BF31
:10100000BCF5E06F3FF6AFAEB5EB030C04BFB6EB3B
:10101000020C5FEA500C50F1000041EB045170BD2E
:101020000EF0004E4EEA113114EB5C04C2BFD4EB5B
:101030000C0541EA045170BD41F480114FF0000EDF
:10104000013C90E645EA060E8DE60CEA135594EA5B
:101050000C0F08BF95EA0C0F3FF43BAF94EA0C0F5E
:101060000AD150EA01347FF434AF95EA0C0F7FF4D3
:1010700025AF104619462CE795EA0C0F06D152EA27
:1010800003353FF4FDAE1046194622E750EA41060B
:1010900018BF52EA43067FF4C5AE50EA41047FF41C
:1010A0000DAF52EA43057FF4EBAE12E74FF0FF3C81
:1010B00006E000BF4FF0010C02E000BF4FF0010C52
:1010C0004DF804CD4FEA410C7FEA6C5C4FEA430CCB
:1010D00018BF7FEA6C5C1BD001B050EA410C0CBF1A
:1010E00052EA430C91EA030F02BF90EA020F00207C
:1010F000704710F1000F91EA030F58BF994208BFE3
:1011000090422CBFD8176FEAE37040F0010070479F
:101110004FEA410C7FEA6C5C02D150EA013C07D1F6
:101120004FEA430C7FEA6C5CD6D152EA033CD3D041
:101130005DF8040B704700BF8446104662468C463B
:101140001946634600E000BF01B5FFF7B7FF00286E
:1011500048BF10F1000F01BD4DF808EDFFF7F4FF97
:101160000CBF012000205DF808FB00BF4DF808ED22
:10117000FFF7EAFF34BF012000205DF808FB00BF45
:101180004DF808EDFFF7E0FF94BF012000205DF867
:1011900008FB00BF4DF808EDFFF7CEFF94BF01201C
:1011A00000205DF808FB00BF4DF808EDFFF7C4FF15
:1011B00034BF012000205DF808FB00BF4FEA410C5E
:1011C0007FEA6C5C02D150EA013C0AD14FEA430C41
:1011D0007FEA6C5C02D152EA033C02D14FF000007E
:1011E00070474FF0010070474FEA410212F50012BC
:1011F00015D211D56FF47873B3EB625212D94FEA5E
:10120000C12343F0004343EA505311F0004F23FA47
:1012100002F018BF404270474FF00000704750EA9C
:10122000013005D111F0004008BF6FF00040704759
:101230004FF00000704700BF4A0011D212F50012B3
:1012400011D20DD56FF47873B3EB62520ED44FEA1E
:10125000C12343F0004343EA505323FA02F070479E
:101260004FF00000704750EA013002D14FF0FF30DC
:1012700070474FF0000070474FEA4102B2F1E0437F
:1012800024BFB3F5001CDCF1FE5C0DD901F0004C6D
:101290004FEAC0024CEA5070B2F1004F40EB8300BD
:1012A00008BF20F00100704711F0804F21D113F1E9
:1012B0003872BCBF01F00040704741F480114FEA22
:1012C0005252C2F11802C2F1200C10FA0CF320FAAB
:1012D00002F018BF40F001004FEAC1234FEAD323C8
:1012E00003FA0CFC40EA0C0023FA02F34FEA430332
:1012F000CCE77FEA625307D150EA01331EBF4FF0BB
:10130000FE4040F44000704701F0004040F0FE40D5
:1013100040F40000704700BF53B94AB9002908BF24
:1013200000281CBF4FF0FF314FF0FF3000F0A0B994
:10133000ADF1080C6DE904CE00F03CF8DDF804E0F6
:10134000DDE9022304B0704738B5002200230446CB
:101350000D46FFF70BFF28B920462946BDE8384067
:1013600000F00AB8204605F1004100F005F84042BF
:1013700061EB410138BD00BFD0B50C4B00220646E1
:101380000F46FFF781FCFFF757FF0446FFF702FC0B
:10139000074B0022FFF778FC02460B4630463946E1
:1013A000FFF7BAFAFFF748FF2146D0BD0000F03D35
:1013B0000000F0412DE9F047089D0C46002B4ED16E
:1013C00094468C458646B2FA82F262D94AB1C2F19D
:1013D0002003914020FA03F30CFA02FC194300FAAF
:1013E00002FE4FEA1C471FFA8CF6B1FBF7F44FEAF6
:1013F0001E4307FB141143EA014304FB06F1994223
:101400000AD91CEB030304F1FF3080F012819942EA
:1014100040F20F81023C6344591A1FFA8EF3B1FB6C
:10142000F7F007FB101143EA014300FB06F69E426A
:101430000AD91CEB030300F1FF3180F0FC809E42CF
:1014400040F2F980634402389B1B40EA04400021CB
:101450001DB1D3400022C5E90032BDE8F0878B42C0
:1014600005D90DB1C5E9000100210846F5E7B3FA39
:1014700083F1002946D1A34202D39042C0F0F0800C
:10148000861A64EB03030120002DE6D0C5E9006352
:10149000E3E7002A40F09080A1EB0C044FEA1C48DF
:1014A0001FFA8CF70121B4FBF8F64FEA1E4308FB44
:1014B000164443EA044307FB06F0984208D91CEBA4
:1014C000030306F1FF3402D2984200F2CD80264693
:1014D0001C1A1FFA8EF3B4FBF8F008FB104443EA21
:1014E000044300FB07F79F4208D91CEB030300F1FC
:1014F000FF3402D29F4200F2B0802046DB1B40EA5C
:101500000640A5E7C1F120068B4022FA06F71F43EB
:1015100020FA06FC04FA01F343EA0C03F44000FA53
:1015200001F8380C4FEA1349B4FBF0FE1FFA87FCB0
:1015300000FB1E4449EA04440EFB0CF9A14502FAE3
:1015400001F20AD93C190EF1FF3A80F08480A145DE
:1015500040F28180AEF1020E3C44A4EB09041FFA74
:1015600083F9B4FBF0F300FB134449EA044403FBA2
:101570000CFCA44507D93C1903F1FF3067D2A44500
:1015800065D9023B3C4443EA0E40A0FB0293A4EB26
:101590000C049C42CE469C4651D34ED055B1B8EB7C
:1015A0000E0364EB0C0404FA06F6CB401E43CC4059
:1015B000C5E90064002150E7C2F1200320FA03F1DD
:1015C0000CFA02FC24FA03F394400C434FEA1C4843
:1015D00000FA02FE1FFA8CF7B3FBF8F008FB10319B
:1015E000230C43EA014300FB07F1994208D91CEBA5
:1015F000030300F1FF362CD299422AD90238634402
:101600005B1AA4B2B3FBF8F108FB113344EA0344BC
:1016100001FB07F3A34208D91CEB040401F1FF36D8
:1016200013D2A34211D902396444E41A41EA0041B9
:1016300039E70446F0E6084606E7C845AED2B9EBFE
:10164000020E63EB070C0138A8E73146EDE70346CD
:1016500099E73046D4E7D6467FE7634402384DE742
:101660000646234608460FE7023E634430E700BFC4
:10167000704700BF08B504F0CFFC08BD08B504F002
:10168000C5FC08BD72B6FEE710B5A4B03822002133
:1016900016A80CF027FB00241194129413941494B0
:1016A00015944422214668460CF01CFB204607F0A6
:1016B00055FF07F04BFF214AD2F8903023F0180372
:1016C000C2F89030252316934FF4803317930122EC
:1016D00018921C9202231D9303211E911F9228220F
:1016E0002092219304222292239316A807F0F0FF60
:1016F000E8B90F2311930323129300231393149338
:101700001593042111A808F099FA90B90C4B009395
:10171000002306934FF080720C920D934FF4807368
:101720001093684608F0B0FB28B924B010BDFFF74D
:10173000A9FFFFF7A7FFFFF7A5FF00BF00100240BA
:101740004030080000B58BB004F044FCFFF79CFF6C
:101750002B4B1A6E42F001021A661A6E02F0010259
:101760000192019A9A6D42F080529A659A6D02F048
:1017700080520292029ADA6C42F00102DA64DA6C68
:1017800002F001020392039ADA6C42F00202DA6478
:10179000DA6C02F002020492049ADA6C42F004025B
:1017A000DA64DA6C02F004020592059ADA6C42F00F
:1017B0000802DA64DA6C02F008020692069ADA6C21
:1017C00042F01002DA64DA6C02F010020792079A13
:1017D000DA6C42F02002DA64DA6C02F0200208923D
:1017E000089ADA6C42F04002DA64DB6C03F04003E2
:1017F0000993099B07F038FF01200BB05DF804FB4B
:101800000010024000B583B00B4B1A6E42F001028B
:101810001A661A6E02F001020092009A9A6D42F066
:1018200080529A659B6D03F080530193019B07F0F2
:101830001BFF03B05DF804FB00100240FEE7FEE76B
:10184000FEE7FEE7FEE770477047704708B504F013
:10185000D1FB03F007F908BD0120704708B50CF073
:10186000D1FA162303604FF0FF3008BD08B54FF0E2
:10187000FF31FFF7F3FFFEE770B50C461646002573
:1018800006E0AFF30080214601F8010B01350C465C
:10189000B542F6DB304670BD70B50C4616460025E5
:1018A00004E014F8010BAFF300800135B542F8DB1A
:1018B000304670BD4FF0FF3070474FF400534B601F
:1018C00000207047012070470020704710B5034684
:1018D0000C4A0D490D48006840B10C4800680344AB
:1018E000521A934206D8094A136010BD0748084CA3
:1018F0000460F2E70CF086FA0C2303604FF0FF302F
:10190000F3E700BF0078002000040000A0030020DF
:10191000C0540020044BD3F8882042F47002C3F86E
:101920008820024A9A60704700ED00E0000000083D
:1019300008B504F0DDFA00F053F800F065F8002077
:1019400008BD000010B50F4B1B78012B07D0022BF0
:1019500007D0012002F0D4FE40F6B83403E064243E
:1019600001E04FF47A74FFF789FE074B1B68C31A36
:10197000A34200D210BD044B1860002002F0FCFE10
:10198000F8E700BFB1030020A403002010B504460F
:1019900003F08AFC10B10123237010BD02232370D1
:1019A000FBE7000010B5FFF7CDFF0A4C2046FFF71C
:1019B000EDFF094B1A7823789A4203D0064A137038
:1019C000002010BD054B187810B100221A70F8E7FE
:1019D0000120F6E7B0030020B1030020040000203E
:1019E00008B50121084602F0EDFA00F077F900F0A1
:1019F00023F8034B034A1A60002002F085FF08BD5C
:101A0000AC030020A519000808B5FFF737FE02E077
:101A1000074800F095F9074B1B78012BF8D0022BF3
:101A200002D0FFF7BFFFF6E7014800F0B9F8F2E790
:101A3000AC030020B103002000B583B04FF4E131C6
:101A4000012003F0BFF80523009303230022114671
:101A5000104601F0FDF90020009040F223130246E9
:101A6000014601F0B9F9012003B05DF804FB000064
:101A700010B594B001238DF84C308DF84B3008220E
:101A80008DF84A200193ADF80820002308E0384A79
:101A900012681A4403F15001694401F8462C0133DD
:101AA000072BF4DD0A2201A9002001F0AFFAD0B91A
:101AB000002001F031FB10B901F04AFB60B10020B9
:101AC00001F02AFB0446002001F042FB03462246B7
:101AD0002849012003F09CF9274B1B68002B3ED1BD
:101AE000012014B010BD224B1968244AA2FB010248
:101AF000520B42F2107000FB12121A60511C196056
:101B00001F49012003F084F99DF84B3063B91D494A
:101B1000012003F07DF9BDF80830019A1A4901202F
:101B200003F076F900240EE01849012003F070F963
:101B3000F1E704F150036B4413F8462C14490120DB
:101B400003F066F90134BDF80830A342F1DC114A14
:101B5000137A52681049012003F05AF9A8E7064C9D
:101B600022680E49012003F053F900232360B7E7F0
:101B7000B4030020A8080108F40A00205917B7D1BF
:101B80006008010870080108800801087808010849
:101B900094080108F80A00209C080108BC08010804
:101BA000F0B597B00746404802F0FAFE00231493C0
:101BB00015933E4B5E6812E01490FFF759FF1AE050
:101BC000002001F0F3FB01F001FB08BB002001F055
:101BD0000BFA10BB159BE31AB3F57A7F5AD23B6818
:101BE000984700285BD0FFF749FD0446149BC31AB1
:101BF000B3F5FA7FE0D22D4B5968B142E0D02C48C2
:101C000000F01AFB002001F097FB284B5E68D7E735
:101C10002849012003F0FCF8D8E701A9002001F0D1
:101C200067FA254B1968254AA2FB0102520B42F2C2
:101C3000107000FB12121A60511C1960204901201B
:101C400003F0E6F89DF84B3063B91E49012003F01C
:101C5000DFF8BDF80830019A1B49012003F0D8F8DD
:101C600000250EE01949012003F0D2F8F1E705F153
:101C700058036B4413F84E2C1549012003F0C8F8A3
:101C80000135BDF80830AB42F1DC1249012003F008
:101C9000BFF89FE71594012002F06EFD9FE70E4804
:101CA00002F07EFE17B0F0BDC8080108F80A002057
:101CB000D8080108E8080108B40300205917B7D173
:101CC000FC0801087008010880080108780801086C
:101CD00094080108AC0E01080C09010808B54FF47E
:101CE000E131002000F014FA4FF4E131002002F05D
:101CF00069FF4FF4E131022002F064FF4FF4E1315B
:101D0000032002F05FFF012008BD10B503F0CCFAFC
:101D100038B9002400F014FAA0420AD100F064FCA3
:101D200010BD03F0E5FA012801D00024F2E70324F6
:101D3000F0E74FF4E131204600F0EAF9EEE7000069
:101D400038B505460B4802F02BFEFFF797FC04461A
:101D50002B68984750B1FFF791FC001B0128F7D979
:101D6000FFF78CFC0446FFF7D0FFF1E7024802F0D2
:101D700017FE38BD1C0901082C0901080D488546CD
:101D8000FFF7C8FD0C480D490D4A002302E0D45866
:101D9000C4500433C4188C42F9D30A4A0A4C0023B5
:101DA00001E013600432A242FBD30CF031F8FFF7DC
:101DB000BFFDFEE700780020000000208403002023
:101DC000201D010884030020BC540020FEE70346C8
:101DD0000020186058609A600120D860196170472F
:101DE00010B40024046044608360C260016101207B
:101DF0005DF8044B7047F0B500270CE00CEB0305D1
:101E000011F803E006F805E00133C5689D42F5D8F6
:101E1000294404600137974213D205686B1C84681B
:101E2000B3FBF4F604FB16344368A3420BD00669F7
:101E3000002EEED00029ECD0C36803FB05FC002384
:101E4000E3E70120F0BD0020FCE770B50C46164624
:101E5000002516E001EB0E0C1CF803C004F803C0CB
:101E60000133C2689A42F5D8144443680268934229
:101E700016D001338268B3FBF2F102FB11334360E9
:101E80000135B5420AD201690029EED0002CECD010
:101E90004368C26802FB03FE0023E2E7012070BD35
:101EA0000020FCE703690268C06800FB023070474D
:101EB000036842689B1A8268B3FBF2F002FB1030A1
:101EC0007047002380F8F23380F8F1333F2280F826
:101ED000F02380F8B033704738B5054690F8964146
:101EE00004EB441004EB40002844432205F56C71D8
:101EF00000F5CC700BF0BBFF95F89731072B02D89B
:101F0000013385F8973185F895410134634204F037
:101F1000070403F0070358BF5C4285F8964101238C
:101F200085F8943138BD002303E08CF8002001339C
:101F30009BB20F2B0BD800EB030CC25C3AB1A2F1A1
:101F40006101C9B21929F0D8203AD2B2EDE7102BBD
:101F500000D07047013B0022C254FAE7064BB3F8A9
:101F60007836984205D2044BD3F87C3653F82000DB
:101F700070470020704700BFB803002008B5034633
:101F8000094AB2F8782690420AD20846064AD2F8A0
:101F90007C2652F82310FEF753FC18B1002000E015
:101FA000002008BD0120FCE7B803002008B5084B5D
:101FB000B3F87836984202D39FED060A08BD044B69
:101FC000D3F87C36002153F820000AF0E5FFF5E74E
:101FD000B80300200000000008B5084BB3F87836BD
:101FE000984201D3002008BD044BD3F87C36002270
:101FF000114653F820000BF0A1F8F4E7B8030020D5
:1020000010B504460449007802F002FF0349207825
:1020100002F0FEFE10BD00BF3C09010840090108A6
:1020200038B590F8973143B304460D4690F8F12344
:1020300022BB94F8F22332BB012D29D094F99511DB
:10204000013194F8973191FBF3F203FB121184F8FC
:102050009511C9B201EB411301EB43012144432225
:1020600001F5CC7104F56C700BF001FF94F8F233BC
:1020700084F8F133002384F8943138BD0F49007897
:1020800002F0C6FED5E70E49207802F0C1FED3E784
:1020900094F894311BB194F9963184F8953194F900
:1020A000951194F897311944013991FBF3F203FB30
:1020B000121184F89511C9B2CCE700BF4809010894
:1020C0005009010870B582B006460024A0F81241FC
:1020D00000F58A75C0F8144101AA0C4900F56C702E
:1020E0000BF042FE234609E05C1CA4B245F8230035
:1020F00001AA064900200BF037FE23460028F3D141
:10210000A6F8123103B1012002B070BD58090108D0
:102110000A4B18701B7A1BB1084B5B688B4200D0CE
:1021200011B9064B187A704710B5044C616002F083
:1021300049FD2072014B187A10BD00BFB803002082
:10214000014B1878704700BFB803002038B5234B07
:102150005B7A03B938BD054690F8F1232049807AAF
:1021600002F056FE95F8F2231E49A87A02F050FEBE
:1021700095F8F0231C49A87A02F04AFE05F56C7226
:102180001A49A87A02F044FE95F995211849A87ACF
:1021900002F03EFE95F896211649A87A02F038FE24
:1021A00095F897211449A87A02F032FE00240CE039
:1021B00004EB441304EB430303F5CC732B44224696
:1021C0000E49A87A02F024FE013495F89731A34213
:1021D000EEDC0B49A87A02F01BFEBBE7B803002037
:1021E00060090108700901088009010890090108C7
:1021F000A0090108B0090108C0090108D0090108B7
:10220000AC0E010808B5024B187802F087FD08BD36
:10221000B803002008B5024B187802F09FFD08BDF6
:10222000B803002008B50A460146024B187802F0B0
:10223000C3FD08BDB80300200FB410B582B004ABD5
:1022400053F8042B0193084C4FF4807120460BF097
:102250003BFD0246214614F8110C02F0ADFD02B020
:10226000BDE8104004B07047C903002038B50546EA
:10227000FFF728FF08B9002038BD1648FFF7DCFF3C
:10228000D5F81401FFF74FFE0024B5F8F433A3424C
:10229000F1DD04EB8401890001F57E712944D5F854
:1022A0001401FEF7CDFA08B10134EEE7B5F81231AA
:1022B000013BA5F8783605F58C73C5F87C3604EB40
:1022C000840405EB8404D4F8083405F5CF609847FE
:1022D000D1E700BF0817010830B585B004468DF876
:1022E0000710037CABB9CBB21B2B30D01CD8082B0A
:1022F0004BD00D2B40F0848090F8F2330BBB0023C1
:1023000084F8F23384F8F13384F8B0332046FFF7D1
:1023100077FE237C013B032B00F2C880DFE813F03B
:10232000C400CC00CF0056017F2B69D190F8F1C3D7
:1023300090F8F2E3F445ECD2AEEB0C05EDB20122DD
:1023400012E0FFF7C9FD2046FFF790FFD7E7012312
:102350000374DEE70CEB0203591E234493F8B00329
:10236000631883F8B00301329542F3DC0EF1FF3EAF
:102370005FFA8EFE84F8F2E3A64400238EF8B033B1
:102380009449207802F044FDC3E790F8F2335BB340
:1023900090F8F10340B3834209D094F8F2C360454A
:1023A00022D2ACEB000E5FFA8EFE002211E0013B60
:1023B000DBB284F8F2332344002283F8B023ECE745
:1023C0008318591E234493F8B053631883F8B0530D
:1023D00001329645F4DC0CF1FF33DBB284F8F233C2
:1023E0002344002283F8B02394F8F133002B90D0DB
:1023F000013B84F8F1337849207802F009FD88E741
:1024000094F8F233591C94F8F023914281DA94F84D
:10241000F123934216D094F8F1C394F8F203844563
:10242000BFF477AFA0EB0C05EDB20022954224DD9E
:10243000831A591E214491F8B013234483F8B01332
:102440000132F3E701220DF10701207802F0B4FC1C
:1024500094F8F123A3189DF8071083F8B01394F8AB
:10246000F2330133DBB284F8F233013284F8F12322
:102470002344002283F8B023CDE79DF8072004EB26
:102480000C0383F8B0230130C0B284F8F2030CF1DE
:10249000010C84F8F1C32044002380F8B0334F4985
:1024A000207802F0B5FC34E7022323742046FFF7BE
:1024B0004DFE002005B030BD03232374F6E7002352
:1024C00023749DF80730442B26D09DF80730432B0A
:1024D00037D09DF80730412B4AD09DF80730422B6A
:1024E00050D09DF80730312B56D09DF80730342B53
:1024F000DCD194F8F13394F8F223934258D394F852
:10250000F12394F8F2339A4259D894F8F23384F8CC
:10251000F13304232374C9E794F8F123002AD4D0BB
:10252000013A84F8F1231B228DF808205B228DF8F4
:1025300009208DF80A30032202A9207802F03CFC21
:10254000C3E794F8F12394F8F2138A42C1D201321E
:1025500084F8F1231B228DF808205B228DF80920D6
:102560008DF80A30032202A9207802F025FCB0E79A
:1025700001212046FFF754FD04F56C71207802F02C
:1025800047FCAAE700212046FFF74AFD04F56C71DD
:10259000207802F03DFCA4E794F8F123104920785C
:1025A00002F036FC002384F8F133042323749CE703
:1025B000D21A92B20B49207802F02AFC9FE7D21A75
:1025C00092B20749207802F023FC9EE7002323748F
:1025D0006CE700BFE0090108E8090108F0090108FB
:1025E00048090108FC09010838B5094B1C7A0CB9E7
:1025F000204638BD187802F091FB0028F8D0044D31
:10260000287802F0ABFB01462846FFF765FEEFE7AE
:10261000B803002010B50F48FFF70EFE0E48FFF775
:102620000BFE00240CE004EB8403980000F57E70A0
:102630000A4B1844FFF700FE0648FFF7FDFD013482
:10264000064BB3F8F433A342EDDC0548FFF7F4FD85
:1026500010BD00BF08170108040A0108B8030020D4
:10266000280A01082DE9F04383B00388446873B158
:10267000012B12D810270022114620680AF05EFDB7
:1026800006462C48FFF7D8FDB04600241BE02A4838
:10269000FFF7D2FD03B0BDE8F08300221146606869
:1026A0000AF04CFD0746E6E731682448FFF7C4FD11
:1026B000624204F0030302F0030258BF5342032BAB
:1026C0000BD004360134BC42E4DA14F0030FEBD132
:1026D00031461B48FFF7B0FDE6E71A48FFF7ACFDAF
:1026E0004FF0000917E01848FFF7A6FD0135032D4C
:1026F0000DDC05F108036B4413F8041CA1F1200361
:10270000DBB25E2BEFD81148FFF796FDEEE708F13C
:10271000040809F10109B9F1030F04DCD8F800300D
:1027200001930025E3E70A48FFF786FD0120FEF745
:10273000A1FFC6E7640A01084C0A0108780A0108EB
:102740006C0A0108800A0108880A0108840A010845
:102750008C0A010808B5044B187802F0DFFA08B9B2
:10276000012008BD0020FCE7B80300202DE9F0415E
:10277000114BB3F8F4531F2D02D90020BDE8F081AE
:102780000E46AF0005EB8504A40004F57E74984660
:102790001C44014620460BF062FB2F4408EB8707E0
:1027A000C7F808642046FFF7BEFBB8F8F4330133DE
:1027B000A8F8F4330120E1E7B803002008B5124877
:1027C000002303724372037480F8953180F89631C8
:1027D00080F8973180F894310C4BC0F880360C4B60
:1027E000C0F884360B4BC0F888360B4BC0F88C36DB
:1027F000FFF767FB09490A48FFF7B8FF09490A488C
:10280000FFF7B4FF012008BDB8030020D91F00085E
:10281000AD1F00085D1F00087D1F00081526000879
:10282000940A0108652600089C0A0108022801D9BB
:102830000020704770B504460A4D460000EB400387
:1028400005EB8302918855F8230004F01FFD264410
:1028500005EB86052B7A984201D0002070BD01203F
:10286000FCE700BFC40B010838B500242EE02C2380
:1028700003FB042501236B70FEF700FF6860002254
:1028800003E023440021D97001324C4B1B88934252
:102890002ADD4B4B53F8223059780529F1D82344CF
:1028A0000121D970F0E7012932D0464A2C2000FBE3
:1028B0000422926A934231D2FEF7E0FE414B2C2271
:1028C00002FB0433986000221A730134022C73DC7B
:1028D000E0B2FFF7ABFF00283DD02C2304FB03F34D
:1028E000384AD35C002BC2D036492C2304FB03F3B7
:1028F000CA180120C854538803449BB25380D1693D
:102900000029D0D12F4A2C2000FB0422126AD1E7E3
:102910002C4A2C2000FB0422526ACBE7294B2C22A4
:1029200002FB043300225A800131D961012119765A
:1029300003E02344002159720132204B1B8893424B
:10294000BADD1F4B53F8223059780529F1D82344BA
:1029500001215972F0E72C2304FB03F3194AD35CDD
:1029600073B918492C2304FB03F3CD180022CA5471
:1029700001232B73EA612A76FEF780FE6861A4E7E3
:102980002C2303FB042501236B73FEF777FE2861DC
:10299000002203E02344002199710132074B1B8878
:1029A0009342DEDD064B53F8223059780529F1D8E1
:1029B000234401219971F0E738BD00BF680A002067
:1029C000480A00206C0A002010B58AB00024059443
:1029D00006940794089409942F4BDA6C42F0020293
:1029E000DA64DA6C02F002020392039ADA6C42F0C3
:1029F0000402DA64DB6C03F004030493049B0123F8
:102A000007930CE0254B04EB440203EB8201496879
:102A1000059105A953F8220004F0C0FA0134022CF4
:102A2000F0DD002012E01E4C2C2100FB01F16318A8
:102A300000225A8062541A735A73DA613C21196277
:102A4000FA215962C82199621A7601300228EADD1A
:102A5000002304E0134A002142F823100133072B1E
:102A6000F8DD02F06DF8041E11DB002300930E4B1D
:102A700002220A21204602F037F8204602F04EF8E2
:102A80000A490B48FFF772FE01200AB010BD094841
:102A900001F086FFF4E700BF00100240C40B0108FC
:102AA0006C0A0020480A002069280008D52B00087D
:102AB000D00A0108A00A01080346022808D8054ADE
:102AC000107830B12C2202FB03F3034AD05C70472C
:102AD00000207047050000206C0A0020032828BF52
:102AE0000320024B53F82000704700BFB40B0108CD
:102AF00002280ED8094B1B786BB182B0084B2C22F0
:102B000002FB00339A685B68D31A0193019802B004
:102B10007047002070470020704700BF050000206C
:102B20006C0A002084B004AB03E90700134A90420A
:102B300019D00EDCA2F50062904216D002F5806238
:102B4000904201D10E480CE0B0F1904F0FD10D48EA
:102B500007E00D4A90420CD002F5806290420AD103
:102B60000A4804B070470A48FBE70A48F9E70A48F0
:102B7000F7E70A48F5E70848F3E700BF000C00480C
:102B8000E80A0108D80A010800100048000B0108F3
:102B9000F00A0108E00A0108080B0108F80A010818
:102BA00010B590B004464022002168460BF09AF818
:102BB000002022466408A2EB440210A901EB800326
:102BC000013043F8402C002CF3D10138C0B210B0D2
:102BD00010BD00002DE9F04105460388012B0AD005
:102BE00000272B88012B2ED02B88012B49D0002FBA
:102BF00072D0BDE8F08143693D49002098470746FF
:102C00000028EED000261BE0F0B2FFF767FF014678
:102C10003848FFF711FB06EB4603374C04EB8304FF
:102C200094E80700FFF77EFF01463448FFF704FBF6
:102C30006068FFF7B5FF01463148FFF7FDFA01363E
:102C4000022EE1DDCDE76B692E490020984706464C
:102C500080B9C9E7E0B2FFF72FFF01462A48FFF726
:102C6000EBFA0134022CF5DD3220FEF703FD274894
:102C7000FFF7E2FAFFF76EFD08B10024F2E73746EE
:102C8000B2E76B6922490020984780460028AED001
:102C9000AB680120984718E00134022C12DCE5B241
:102CA0002846FFF709FF0028F6D02846FFF716FF51
:102CB00006462846FFF71CFF024631461548FFF737
:102CC000BBFAE9E70A20FEF7D5FCFFF743FD08B1A0
:102CD0000024E2E747468AE70F48FFF7ADFA0F48BE
:102CE000FFF7AAFA03210E48FFF7A6FA81E700BF13
:102CF000180B0108200B0108C40B0108280B010860
:102D00002C0B0108340B01083C0B0108400B010897
:102D1000440B01084C0B0108640B0108740B0108FB
:102D2000840B010810B5002444B1134801F038FEAB
:102D300012491348FFF71AFD012010BD11494FF445
:102D4000236004FB00F00B1801220A5400225A7081
:102D50005A601A72DA601A615A619A61DA6100F196
:102D6000B00C9830084420234C2261440430FFF713
:102D700037F80134E4B2D7E7E80B01083936000828
:102D8000FC0B0108F80A00203F2810D82F2810D883
:102D90001F2810D8172810D8132810D80F2810D89B
:102DA0000B2810D8072800D87047082070470F203C
:102DB00070470E2070470D2070470C2070470B2085
:102DC00070470A2070470920EEE70000014B187099
:102DD00001207047F00A0020002831D100B587B0EB
:102DE00084461ABB0092184A4FF4236000FB0C2261
:102DF000126A402A1ED0022203920191134A1278CD
:102E0000DAB9022202920493089B05934FF42363DC
:102E100003FB0CF030300C4B18446946043003F0CF
:102E2000B1FC78B1002007B05DF804FB4FF08042A0
:102E30000092D8E701220392DFE700220292E2E744
:102E4000002070470120EEE7F80A0020F00A002079
:102E50002DE9F04182B09DF820E018B1002002B0C9
:102E6000BDE8F08105464FF4236005FB00F000F15A
:102E70003004564E3444043406EB000C5448CCF86D
:102E800034000026CCF83860524850F82200CCF8C4
:102E90003C00514850F82100CCF840008CF84460C8
:102EA00001208CF845008CF846004FEA03184B4887
:102EB000006800EB031750F80800CCF84800786869
:102EC000CCF84C00B868CCF85000F868CCF8540046
:102ED0004FEA0E184248006800EB0E1750F8080041
:102EE000CCF858007868CCF85C00B868CCF8600082
:102EF000F868CCF864001C20CCF868000820CCF8F6
:102F00006C00CCF870608CF828108CF829208CF8B4
:102F10002A308CF82BE04023CCF82030314BCCF811
:102F20002430CCF80460204603F042FB08B10020B6
:102F300095E73046FFF74AFF009633463246314662
:102F40002846FFF749FF00963346012231462846BE
:102F5000FFF742FF0096334602221146204603F057
:102F600044FC08B100207AE7184B4FF4236202FBBF
:102F700005333246596A204603F0EAFD08B10020C5
:102F80006DE7124B4FF4236202FB0533996D1B6E04
:102F9000324603FB01F1204603F048FC08B1002053
:102FA0005DE7204603F053FC08B1002057E72046B8
:102FB00003F05FFC38B9054B4FF4236202FB053385
:102FC000012058704BE7002049E700BFF80A0020B5
:102FD0000064004054110108481101080C00002051
:102FE0000800002007000E00012801D900207047CA
:102FF00008B54FF4236303FB00F09830024B1844EC
:103000000430FEF755FF08BDF80A0020012863D8F8
:10301000F0B58BB00D461646334B4FF4236202FBDE
:1030200000335B6813F0030F58D113F0010F58D130
:1030300002FB00F430342C4B1C44043491F847302C
:10304000DBB1012B1CD095F84830012B1FD0022B8F
:1030500023D0CBB12B6801930023099308930593E8
:10306000039395F84620214B53F8223004932046D1
:1030700003F068FDC0B9002031E000230293E2E7CD
:103080004FF080430293DEE707930693E2E74FF4A5
:103090000013079300230693DCE74FF40013079314
:1030A0004FF480130693D5E7FEF7E8FA0746AA1D0A
:1030B00001A9204603F039FC08B100200FE02046AA
:1030C00003F040FD30B9FEF7D9FAC01BB042F6D389
:1030D000002004E0012002E00020704700200BB037
:1030E000F0BD0020FBE700BFF80A002060110108D6
:1030F000012801D90020704708B54FF4236303FB72
:1031000000F09830034B184401220430FEF79DFE76
:1031100008BD00BFF80A0020012801D9002070472F
:1031200000B585B04FF4236303FB00F03030074B4C
:1031300018446946043003F0F6FC20B9BDF80400D9
:1031400005B05DF804FB0020FAE700BFF80A002094
:10315000012801D90020704700B585B04FF42363E2
:1031600003FB00F03030074B18446946043003F08D
:10317000DAFC20B9BDF8000005B05DF804FB0020C2
:10318000FAE700BFF80A002001281BD838B50E4B1B
:103190004FF4236202FB00335B7803B938BD0A4C5D
:1031A00002FB00F0251800226A6030300444043429
:1031B000204603F075FB204603F05BFBEB68013310
:1031C000EB60EBE7704700BFF80A002038B5002439
:1031D000204609E01A4B4FF4236202FB04331B7AAA
:1031E0002BB1012B1CD00134002CF3DD38BD144B66
:1031F0004FF4236202FB04335B6813F0030FF2D039
:10320000E0B2FFF7C1FF0E4B4FF4236202FB043321
:1032100001251D720B49284601F0FAFD2846E2E718
:10322000074B4FF4236202FB04335B6813F0030F78
:10323000D9D1034B02FB043300221A72D3E700BF3B
:10324000F80A0020000C01082DE9F0438BB08046FD
:1032500089464FF4236707FB00F707F19805344EC2
:10326000354404352846FEF71DFE04463E44831DC2
:103270006A46316A484603F081FB00283DD1019B34
:10328000002B3DD1009B2360002384F84730039B33
:1032900003F00F03274A52F82300A080C0B2FFF7C3
:1032A00073FD84F84600069BB3F5001F2ED0002363
:1032B00084F848301E4B4FF4236202FB0833DA6A6D
:1032C0000132DA62012200212846FEF794FD38B966
:1032D000174B4FF4236202FB08331A6901321A615B
:1032E000134B4FF4236202FB0833D3F8983023B119
:1032F0002246012140469847A0B90BB0BDE8F083B3
:10330000009B2360012384F84730C0E7059BB3F599
:10331000801F03D0012384F84830CBE7022384F8D0
:103320004830C7E7012200212846FEF78EFDE4E77A
:10333000F80A0020A011010801282ED870B5174BFB
:103340004FF4236202FB00335C6814F0010609D1DC
:1033500014F002050AD114F003040BD176B995B923
:10336000B4B970BD0E4801F01BFBF1E70D4801F048
:1033700017FBF0E70C4801F013FBEFE708490120C9
:1033800001F046FDEBE70749012001F041FDE7E7C9
:103390000549012001F03CFDE3E77047F80A0020F1
:1033A000180C0108340C0108500C010810B58CB041
:1033B00004464FF4236004FB00F030302D4B1844DA
:1033C00001A9043003F08AFB049B002B32D0294B67
:1033D0004FF4236202FB04335A6842F001025A6040
:1033E0000221059B8BB3234B4FF4236202FB043372
:1033F0005A6842F002025A600321069B7BB31D4BC0
:103400004FF4236202FB04335A6842F003025A600D
:103410000421184B4FF4236202FB0433D3F8983095
:103420001BB111B10022204698472046FFF784FFC8
:103430000CB010BD0F4B4FF4236202FB04335A68EB
:1034400022F001025A600021CBE70A4B4FF42362BD
:1034500002FB04335A6822F002025A60CDE7054BA2
:103460004FF4236202FB04335A6822F003025A60CD
:10347000CFE700BFF80A002010B504465548FEF714
:10348000DBFEFCB1012C21D05348FEF7D5FE534B97
:103490004FF4236202FB04335B78DBB15048FEF744
:1034A000CBFE5048FEF7C8FE4C4B4FF4236202FBA4
:1034B000043393F82A30042B13D8DFE803F00F24E9
:1034C000282C30004848FEF7B7FEDDE74748FEF7F6
:1034D000B3FED9E74648FEF7AFFEE2E74548FEF700
:1034E000ABFE4548FEF7A8FE3C4B4FF4236202FBBF
:1034F000043393F82B30072B18D8DFE803F0143689
:103500003A3E42464A4E3D48FEF796FEE9E73C48C1
:10351000FEF792FEE5E73B48FEF78EFEE1E73A480C
:10352000FEF78AFEDDE73348FEF786FE3748FEF7F2
:1035300083FE2A4B4FF4236202FB043393F82830B6
:10354000012B32D0022B34D05BB33148FEF774FE2E
:10355000224B4FF4236202FB043393F82930012BF2
:103560002FD0022B31D043B310BD2448FEF764FEA8
:10357000DCE72348FEF760FED8E72148FEF75CFE53
:10358000D4E72148FEF758FED0E72248FEF754FE64
:10359000CCE72148FEF750FEC8E72048FEF74CFE76
:1035A000C4E71F48FEF748FECFE71E48FEF744FE7B
:1035B000CBE71D48FEF740FEC7E71C48FEF73CFE80
:1035C000D2E71B48FEF738FECEE71A48FEF734FE76
:1035D000CAE700BF6C0C0108980C0108F80A00202B
:1035E000AC0C0108BC0C0108800C01088C0C010813
:1035F000B40C0108BC0E0108E00C0108D00E010853
:10360000D00C0108D80C01080C0F0108F40C0108BB
:10361000140D0108200F0108340F0108480F01089C
:10362000280E0108400E0108080D0108700E01085F
:10363000880E0108280D01082DE9F04F9DB00546C0
:103640000388012B19D000242B88012B63D02B88F1
:10365000022B00F097802B88062B00F0B6802B8879
:10366000022B00F03C812B88032B00F0E081002C22
:1036700000F020831DB0BDE8F08F4369A44900200D
:10368000984704460028DFD0002607E03146A148CD
:10369000FEF7D2FDA048FEF7CFFD0136002ED3DCA9
:1036A0009E4B4FF4236202FB06335B78002BEDD078
:1036B0005FFA86F84046FFF7DFFE984F4FF423632A
:1036C00003FB067779789648FEF7B6FD3969954889
:1036D000FEF7B2FD79699448FEF7AEFDB9699348EB
:1036E000FEF7AAFDF9699248FEF7A6FD4046FFF7EE
:1036F00013FD01468F48FEF79FFD4046FFF728FD6A
:1037000001468D48FEF798FD4046FFF715FE8248BA
:10371000FEF792FDC1E76B6988490020984706468D
:10372000002894D000218648FEF786FD8548FEF7E4
:1037300083FD8548FEF780FD8448FEF77DFD8448C3
:10374000FEF77AFD8348FEF777FD8348FEF774FDA8
:103750008248FEF771FD8248FEF76EFD8148FEF754
:103760006BFD8148FEF768FD8048FEF765FD8048E7
:10377000FEF762FD7F48FEF75FFD7F48FEF75CFDC8
:10378000344664E76B696D490020984700283FF490
:1037900062AF6B69794901209847064600283FF4DB
:1037A0005AAF072300930423022211460020FFF79B
:1037B0004FFB40B172497348FEF73EFD0020FFF712
:1037C0005BFE344647E77049F5E76B695B490020CB
:1037D0009847804600283FF442AF6C4C03AB94E816
:1037E000070083E8070006AB04F10C0207CA83E870
:1037F000070009AE18340FCC0FC694E80F0086E816
:103800000F00AB680120984700280DDBAB68012052
:103810009847002802DD4FF0000907E0AB6801205F
:1038200098475FFA80F901E04FF000090026022E68
:103830000CDC6B691CAA02EB860252F8641C0220A5
:10384000984708B90136F2E7F6B200E000260027F3
:10385000022F0CDC6B691CAA02EB870252F8581C81
:103860000320984708B90137F2E7FFB200E00027CC
:103870004FF0000ABAF1070F0EDC6B691CAA02EBCD
:103880008A0252F84C1C0420984710B90AF1010A28
:10389000F0E75FFA8AFA01E04FF0040A0024072CEF
:1038A0000CDC6B691CAA02EB840252F84C1C05204C
:1038B000984708B90134F2E7E4B200E00424009428
:1038C00053463A4631464846FFF7C2FA28B12C49DA
:1038D0002C48FEF7B1FC4446C1E62B49F8E76B697A
:1038E0002B4900209847074600283FF4BCAEAB6840
:1038F0000120984700284DDBAB680120984700283D
:1039000001DD002647E0AB6801209847C6B242E0DF
:10391000180B0108F00D0108AC0E0108F80A002090
:10392000480D0108600D0108780D0108900D01088F
:10393000A80D0108C00D0108D80D0108000E0108EE
:10394000080E01081C0E0108340E01084C0E010877
:10395000680E0108800E0108980E0108B00E0108DB
:10396000C40E0108D80E0108EC0E0108000F010872
:10397000140F0108280F01083C0F0108500F01081F
:10398000380D0108580F0108400D01081008010802
:103990006C0F010800264FF00008FEF7DBFE002840
:1039A00043D03046FFF720FB0028F6D009A9304667
:1039B000FFF79EFBAD4AA2FB083292094FF47A73DF
:1039C00003FB128202F101083146A948FEF734FCDC
:1039D0009DF86C3083B1A748FEF72EFC9DF86B3044
:1039E00073B9A548FEF728FCBDF828200999A3481B
:1039F000FEF722FC002410E0A148FEF71DFCEDE7D5
:103A0000A048FEF719FCEFE704F170036B4413F8CC
:103A1000461C9D48FEF710FC0134BDF82830A34237
:103A2000F2DC9A48FEF708FCB7E73C461BE66B69F8
:103A3000974900209847824600283FF418AEAB68AB
:103A40000120984700280BDBAB680120984700282D
:103A500001DD002405E0AB6801209847C4B200E016
:103A600000246B698B490220984748B14FF0000948
:103A7000894B5F68FDF702FE06460025A8468CE0EC
:103A80004FF00209F4E7FDF7F9FD06468DF86C905A
:103A900000238DF86B3008228DF86A204FF44571B1
:103AA0000991ADF8282006E0591903F170026A4423
:103AB00002F8461C0133072BF6D90A2209A9204631
:103AC000FFF7A4FA20BB2046FFF726FB18B92046D3
:103AD000FFF73EFB60B12046FFF71EFB8346204602
:103AE000FFF736FB03465A4621466C48FEF7A4FB17
:103AF0006B4B1B68002B59D0DFF8A4B1DBF800201A
:103B000021466848FEF798FB0023CBF800304DE0D3
:103B1000564AA2FB083292094FF47A7303FB1282D1
:103B200002F1010821466048FEF786FB9DF86C30E3
:103B30008BB15048FEF780FB9DF86B307BB94E4847
:103B4000FEF77AFBBDF8282009994C48FEF774FB74
:103B50004FF0000B11E04A48FEF76EFBECE74948D6
:103B6000FEF76AFBEEE70BF170036B4413F8461C9B
:103B70004548FEF761FB0BF1010BBDF828305B45B2
:103B8000F1DC4248FEF758FB01359CE7FFF71EFBCE
:103B900018BB2046FFF728FA20BBFEF7DBFD002804
:103BA00061D0FDF76BFDB0427FF46DAFA3463A4B99
:103BB0004FF4236202FB04335A68BA42E6D021462E
:103BC0003A48FEF739FB2046FFF7B6FB324B4FF47D
:103BD000236202FB04335F68D8E759463448FEF796
:103BE0002BFBD6E709A92046FFF782FA1F4AA2FB62
:103BF000083292094FF47A7303FB128202F1010832
:103C000059461B48FEF718FB9DF86C308BB11948DC
:103C1000FEF712FB9DF86B307BB91748FEF70CFBE3
:103C2000BDF8282009991548FEF706FB4FF0000B58
:103C300011E01348FEF700FBECE71248FEF7FCFA30
:103C4000EEE70BF170036B4413F8461C0E48FEF7C9
:103C5000F3FA0BF1010BBDF828305B45F1DC0B48A2
:103C6000FEF7EAFA99E7544601E500BFD34D62102A
:103C7000780F0108900F01087008010880080108FA
:103C8000940F01087808010894080108AC0E010897
:103C9000980F0108FC0B0108F80A0020BC0F01086E
:103CA000F40A0020D40F0108A40F0108E80F01084E
:103CB000001001080A48FEF7BFFA0A48FEF7BCFAEE
:103CC00000210948FEF7B8FA0848FEF7B5FA0021C6
:103CD0000748FEF7B1FA00210648FEF7ADFAC9E43D
:103CE0001810010824100108301001085C100108A8
:103CF0006C1001088810010808B50020FFF756FB7A
:103D000008BD0000054A136801331360036E23B138
:103D1000034A536843F0100353607047F40A0020CD
:103D2000F80A002008B5024802F09DFF08BD00BF58
:103D30002C0B002010B50C4611F0010F0ED114F021
:103D4000020F03D0084A93690133936114F0040F02
:103D500003D0054AD3690133D36110BD0146002069
:103D6000FFF772FAEBE700BFF80A002010B598B031
:103D70000446002113911491159116911791442234
:103D800002A809F0AFFF22681D4B9A4201D018B07B
:103D900010BD4FF4805302934FF080730E9302A82E
:103DA00006F072F848BB174B9A6D42F000729A65A4
:103DB0009A6D02F000720092009ADA6C42F00202F0
:103DC000DA64DB6C03F002030193019B4FF4407350
:103DD0001393022314930024159416930923179325
:103DE00013A9094803F0DAF822462146152002F00B
:103DF0008DF9152002F09AF9C9E7FDF743FCD2E7E7
:103E000000640040001002400004004808B501F0C2
:103E1000BFFD014B187008BD2815002008B501F042
:103E2000F3FD08BD08B501F0CFFD08BD08B501F0F0
:103E3000D3FD08BD08B501F005FE08BD08B501F0C9
:103E4000DDFD08BD08B501F033FE08BD08B502F080
:103E5000CFFF08BD014B00221A70704729150020C2
:103E6000B0F1FF3F00D0704708B5FFF7F3FF08BD82
:103E700082B00023019302E0019B013301934FF4D0
:103E80007A7300FB03F3019A9342F5D802B07047AE
:103E900008B5002306E00022074941F8232007491E
:103EA000CA540133012BF6D905490648FEF75EFCDA
:103EB0000120054B187008BDDC150020D41500202A
:103EC00065420008B0120108D61500202DE9F04720
:103ED00086B0054600EB8003394E06EB8306D6F824
:103EE0000890CDF804904FF0110ACDF808A00024F6
:103EF000039403230493D6F8048001A9404603F0F9
:103F00004DF837690197CDF808A00394F66801A928
:103F1000304603F043F801221FFA89F1404603F0CE
:103F2000BCF90122B9B2304603F0B7F90520FFF71A
:103F30009FFF17E005EB8502214B03EB82031F89EE
:103F40005E6800223946304603F0A7F90520FFF7E6
:103F50008FFF01223946304603F09FF90520FFF715
:103F600087FF0134082CE5DD154E05EB850406EBD3
:103F70008404B4F808A0D4F80490002251464846BE
:103F800003F08BF90520FFF773FFB4F810800022CF
:103F90004146E06803F081F90520FFF769FF01223F
:103FA0005146484603F079F90520FFF761FF0122E9
:103FB0004146E06803F071F906B0BDE8F08700BF44
:103FC000D014010838B500EB80022F4B53F8225073
:103FD000012857D8044618B101282AD0002052E001
:103FE0002A4B195400232A4A13542A4A2A602A4A7F
:103FF00052F821206A60AB600122EA602B616B619C
:10400000EB612B62FFF762FF284603F0C0FB2846F6
:1040100003F059FB08B1002035E00021284604F0E8
:1040200047FA0021284604F071FA0120184B185570
:1040300029E0164B19540023154A1354174A2A60D5
:10404000154A52F821206A60AB600122EA602B61B8
:104050006B61EB612B62FFF739FF284603F097FB9A
:10406000284603F030FB08B100200CE00021284670
:1040700004F01EFA0021284604F048FA0120044BFF
:10408000185500E0002038BDD0140108D8150020D4
:10409000D415002000540040C81401080058004006
:1040A00010B500EB80000A231A464900044C54F86E
:1040B000200003F003FE08B1002010BD0120FCE742
:1040C000D014010810B584B0844600EB800E0C4873
:1040D00050F82E00BCF1010F02D9002004B010BD31
:1040E000490089B2079C0294BDF8184001940093DE
:1040F000012303F00BFD08B90120EFE70020EDE7F5
:10410000D014010810B582B0049C019401240094DD
:10411000FFF7D8FF02B010BD10B584B0844600EBA5
:10412000800E0C4850F82E00BCF1010F02D900207F
:1041300004B010BD490089B2079C0294BDF8184034
:1041400001940093022303F0E1FC08B90120EFE79A
:104150000020EDE7D014010810B582B0049C019452
:1041600001240094FFF7D8FF02B010BD10B584B051
:10417000844600EB800E0C4850F82E00BCF1010F75
:1041800002D9002004B010BD490089B2079C0294F6
:10419000BDF8184001940093012303F0E3FB08B934
:1041A0000120EFE70020EDE7D014010800B585B04D
:1041B0008DF80F30069B0193012300930DF10F033F
:1041C000FFF7D4FF05B05DF804FB000010B584B024
:1041D000844600EB800E0C4850F82E00BCF1010F15
:1041E00002D9002004B010BD490089B2079C029496
:1041F000BDF8184001940093022303F0B3FB08B903
:104200000120EFE70020EDE7D014010800B585B0EC
:104210008DF80F30069B0193012300930DF10F03DE
:10422000FFF7D4FF05B05DF804FB000010B582B0C5
:10423000844600EB800E0A4850F82E00BCF1010FB6
:1042400002D9002002B010BD490089B2049C00943C
:104250009BB203F0B5FA08B90120F3E70020F1E7BB
:10426000D01401082DE9F047A4B004460388022BBE
:104270005AD0052B3ED183680120984710F0FF05E6
:1042800000F08A80022D28BF0225A36802209847EB
:104290001FFA80F9A3680320984706461FFA80FAA0
:1042A000A36804209847074605F1FF385FFA88F8AD
:1042B00063698A4900209847002874D16369884956
:1042C00000209847002840F08880636985490020D5
:1042D0009847002840F0BB806369834900209847D5
:1042E000002840F0B6806369804900209847002884
:1042F00040F0CB8002217E48FDF79EFF02217D48E1
:10430000FDF79AFF7C48FDF797FF7C48FDF794FF87
:104310007B48FDF791FF7B48FDF78EFF7A48FDF75C
:104320008BFF24B0BDE8F08783680120984710F028
:10433000FF0519D0022D28BF0225013DEDB26369AA
:1043400072490020984700BB636971490020984773
:104350000028E6D001212846FFF734FEB8B1691CD9
:104360006C48FDF769FFDCE70125E6E701347F2CA7
:10437000D7D8E1B22846FFF793FE0028F6D02246B0
:10438000691C6548FDF758FFF0E70024EFE7691C5A
:104390006248FDF751FFC4E7012576E729466048EA
:1043A000FDF74AFFBDE70024BBB2A342B9D90AEB2F
:1043B00004026423009304AB92B249464046FFF7DF
:1043C000A1FE0028EAD09DF8103014FA86F22946A2
:1043D0005448FDF731FF0134E6E7FDF74FF9044695
:1043E00064230093FBB2524649464046FFF7DEFE87
:1043F00050B1FDF743F9001B0090BBB2B2B22946A1
:104400004948FDF719FF8CE729464548FDF714FF99
:1044100087E79DF8103014FA86F229464148FDF7E7
:104420000BFF0134BBB2A3427FF67BAF0AEB040261
:104430006423009304AB92B249464046FFF78CFEDA
:104440000028E6D129463648FDF7F6FE69E7002444
:10445000E8E7FDF713F9044664230093FBB25246E4
:1044600049464046FFF7D2FE50B1FDF707F9001B61
:104470000090BBB2B2B229462C48FDF7DDFE50E7F2
:1044800029462748FDF7D8FE4BE7FDF7F7F8044625
:104490004FEA1A2A8DF808A08DF80960FBB28DF852
:1044A0000A305B428DF80B3064230093032302AA89
:1044B00049464046FFF7BAFE50B1FDF7DFF8001B52
:1044C0000090BBB2B2B229461848FDF7B5FE28E706
:1044D00029461348FDF7B0FE23E700BF0413010887
:1044E0003C13010868130108701301089C130108AC
:1044F000A8130108C4130108E01301080C140108F3
:10450000381401086814010898140108B41201084D
:10451000000E0108D8120108BC120108EC120108B3
:10452000281301080C13010844130108781301082B
:1045300003680C4A1268934204D00B4A12689342F3
:1045400008D07047436C002BFBD0084A1368013336
:1045500013607047436C002BF3D0044A5368013357
:104560005360EEE7801500202C150020DC1500209C
:1045700008B5024803F05AFF08BD00BF80150020AF
:1045800008B5024803F052FF08BD00BF2C150020FB
:10459000F0B58DB000230793089309930A930B930A
:1045A0000368424A934204D0414A93423FD00DB03F
:1045B000F0BD404CE36C43F00103E364E36C03F0B3
:1045C00001030193019BE36C43F00203E364E36C9A
:1045D00003F002030293029B4FF400430793122758
:1045E00008970125099504260B9607A94FF09040DE
:1045F00002F0D4FC802307930897099500250A95BB
:104600000B9607A92C4802F0C9FCA36D43F40013D4
:10461000A365A36D03F400130393039B2A460521AE
:10462000202001F073FD202001F080FDBFE7214C28
:10463000E36C43F00103E364E36C03F001030493D0
:10464000049BE36C43F00403E364E36C03F00403B2
:104650000593059B102307931227089701250995B9
:1046600004260B9607A9154802F098FC4FF48073B6
:1046700007930897099500250A950B9607A94FF00F
:10468000904002F08BFCA36D43F48003A365A36DFF
:1046900003F480030693069B2A460521222001F09D
:1046A00035FD222001F042FD81E700BF00540040AB
:1046B0000058004000100240000400480008004874
:1046C00008B502680B4B9A4200D008BD0A4A936DA8
:1046D00023F4001393654FF400414FF0904002F033
:1046E00047FD8021054802F043FD202001F022FD16
:1046F000EBE700BF005400400010024000040048F7
:10470000022800D9704708B5044B03EBC001002212
:10471000898853F8300002F0C0FD08BDF814010884
:1047200010B586B000240194029403940494059477
:104730000F4BDA6C42F00402DA64DB6C03F0040322
:104740000093009B012302930DE00A4B03EBC4028C
:104750009288019201A953F8340002F01FFCE0B2E4
:10476000FFF7CEFF0134022CEFDD012006B010BDB3
:1047700000100240F8140108022800D9704708B55B
:10478000044B03EBC002918853F8300002F08AFD1D
:1047900008BD00BFF81401082DE9F0410646038862
:1047A000012B0AD000273388012B23D03388012B1B
:1047B0003ED0002F5AD0BDE8F08143693049002037
:1047C000984707460028EED02E4C21882E48FDF74A
:1047D00033FD61882D48FDF72FFD2D48FDF72CFD99
:1047E0002C4C21882C48FDF727FD61882B48FDF7CC
:1047F00023FDD8E773692A4900209847804600289E
:10480000D4D0002506E01F4B986821462844FDF7C8
:1048100009FD2544FDF79EFF074638B1194B5C881A
:10482000641BC3D0402CEED94024ECE74746BDE7DB
:1048300073691C490020984706460028B9D0002516
:1048400006E0144B986821462844FDF7EBFC25440C
:10485000FDF780FF074638B10E4B5C88641BA8D07B
:10486000402CEED94024ECE73746A2E70E48FDF78E
:10487000E3FC0E48FDF7E0FC0D48FDF7DDFC9AE790
:10488000180B0108F81E0020101501082815010852
:10489000AC0E0108EC1E0020401501085815010857
:1048A0007015010878150108801501088C1501089C
:1048B0009815010810B50D4A0023138053804FF45A
:1048C00080619180D3800A4890600A4A13805380A7
:1048D0009180D380084B93600124084B1C700849D9
:1048E0000848FDF743FF204610BD00BFF81E00201A
:1048F000EC1A0020EC1E0020EC160020EA16002026
:1049000099470008A4150108003818BF0120014B81
:10491000187070471100002008B5054B1870054B42
:104920001960054B01221A7000F04CF908BD00BF58
:10493000E8160020E4160020E916002030B583B008
:1049400004469446C3881344083382889A4205D2A9
:104950000023C3800CF108039A4219D3E088009128
:1049600023880E4A0CF10801A568284409F00AF9C9
:10497000238801332380E38882B21344E380638871
:104980001844A188884205DC1A446280012002E0B4
:10499000002000E0012003B030BD00BFA8150108D1
:1049A0000FB410B582B0164B1B7823B902B0BDE826
:1049B000104004B0704705AB0193049A4FF4807126
:1049C000104809F081F904460F4B1B7813B10F4BC7
:1049D0001B7843B90E4B1B7863B9224609490D4831
:1049E000FFF7ACFFE2E7024606490B4B187800F0F0
:1049F000E3F9EFE7224603490848FFF79FFFECE79A
:104A0000EA160020E4150020E9160020100000201E
:104A100011000020EC1E0020E8160020F81E0020E7
:104A20000E4B1B78012B17D000230FE00C4A03EB31
:104A30008301880002EB000C00211154CCF8041013
:104A4000CCF808100244D1600133DBB2032BEDD95E
:104A50000120024B1870704700207047041F00208F
:104A6000081F002010B51D4A13680133136000248D
:104A700011E004EB84029300194A0020D054184A34
:104A800001EB81008300134498685860DA68186964
:104A900090470134E4B2032C1FD8124B1B889BB201
:104AA0009C421AD2214604EB840293000C4AD35C48
:104AB000012BEED104EB84029300094A1A44536897
:104AC000013B5360002BE4D104EB84039A00044BB8
:104AD00013445B78012BD2D1CBE710BD5C1F0020C3
:104AE000081F0020581F0020002813DB10B40A4CB8
:104AF00000EB800C04EB8C0C8CF80120CCF80C3013
:104B0000019BCCF81030CCF80410CCF808105DF8FC
:104B1000044B7047704700BF081F002000280BDBC4
:104B2000064A00EB800302EB83039968596000EBAF
:104B30008000012302F82030704700BF081F0020CA
:104B4000074B188800B2032806DC1A461B889BB264
:104B500001339BB2138070474FF0FF30704700BFA6
:104B6000581F002010B500230CE00F4C03EB43024C
:104B700010012218002121544FF4614050609162CD
:104B8000D1620133032BF0DD074B084A9A60084AD3
:104B90009A63084A9A660124074B1C700749084823
:104BA000FDF7E4FD204610BD3C3A0020602F0020B8
:104BB00060270020601F0020FC3A0020654E00089E
:104BC000B0150108032800F2A18070B582B0044638
:104BD00000EB40031B014E4AD05C38B104EB4402A9
:104BE0004B4B03EB02135B688B4210D0022C10D9A5
:104BF000032C0BD1464A04EB440302EB0313596028
:104C000004EB440424010120105500E0002002B010
:104C100070BD3F4A04EB440502EB0515696004EBE7
:104C200044033C4E06EBC306B3682B62F06868622F
:104C3000706818602B6A5960296A00238B60296AA2
:104C4000CB60296A0B61296A0C204861296A8B6153
:104C5000296ACB61296A0B62296A4B62296A8B62D5
:104C600004EB44000001083010444FF40062A968CE
:104C70000430FDF7ACF8284B9A6C42F004029A64B9
:104C80009A6C02F004020092009A9A6C42F00102BF
:104C90009A649B6C03F001030193019B286A05F061
:104CA000A9FA337D43B100231A461946286A05F054
:104CB00023FF50B10020AAE704EB4402144B03EB9E
:104CC0000213186A05F066FEF3E7114A04EB440389
:104CD000190102EB0313012050544FF4006299684C
:104CE000186A05F0E3FE78B90120094A04EB440391
:104CF00002EB031359691D6AD5F880502D686D6861
:104D0000491BD960196182E70020EEE70020704757
:104D10003C3A0020841601080010024010B5022819
:104D200006D9032802D1FFF77DF800E0002010BD6E
:104D3000094900EB400301EB03135A695C6A2468DC
:104D40006468121BDA6000EB400000010830084480
:104D50000430FDF7ADF8EAE73C3A002010B582B028
:104D6000044600238DF80730022806D9032810D105
:104D7000FFF75CF88DF807000BE000EB4000000146
:104D800008300C4B184401220DF107010430FDF7E7
:104D90005CF8084B04EB440203EB0212926A04EB4A
:104DA000440403EB041301329A629DF8070002B039
:104DB00010BD00BF3C3A002038B5044608461546F1
:104DC000022C13D9032C03D11146FFF733F800E06E
:104DD00000200E4B04EB440203EB0212D26A04EBF8
:104DE000440403EB04130244DA6238BD04EB4402CA
:104DF000064B03EB021C6423AAB2DCF8200005F08A
:104E0000FBFC08B10020E4E72846E2E73C3A00203A
:104E10000EB410B5C3B0044645AB53F8042B019350
:104E20004FF4807102A808F04FFF024602A9204605
:104E3000FFF7C2FF43B0BDE8104003B07047000069
:104E400003280BD808B506D000EB4000044B03EB59
:104E50000013586808BDFEF7F1FFFBE7002070471C
:104E60003C3A0020F0B583B004460388012B07D0FC
:104E700000262388022B1FD0002E65D003B0F0BD82
:104E8000436935490020984706460028F1D00020A4
:104E90000FE0451C00EB4002304B53F83270C0B2BB
:104EA000FFF7CEFF03463A4629462D48FDF7C4F9E1
:104EB00028460328EDDDDCE763692A49002098478E
:104EC0000028D9D0A3680120984700280BDDA368EB
:104ED0000120984704280FDCA36801209847C4B23A
:104EE000013CE4B200E00024FDF72AF9A04208D119
:104EF0001D48FDF7A1F9C1E70324F5E7FDF782F9A5
:104F000078B92046FFF70AFF0028F7D02046FFF7C0
:104F100025FF02468DF80700611C1448FDF78CF947
:104F2000ECE7FDF777F98DF807007128A6D001228C
:104F30000DF107012046FFF73FFF9DF80720611C98
:104F40000B48FDF779F9DCE70A48FDF775F904210C
:104F50000948FDF771F991E7180B0108841601085B
:104F6000B8150108500F01080C160108D4150108E6
:104F7000F0150108201601082C16010830B59DB067
:104F8000044600211791189119911A911B914422FE
:104F900006A808F0A7FE2268704B9A420AD0226841
:104FA0006F4B9A424BD022686E4B9A4200F08E8033
:104FB0001DB030BD0123069306A804F065FF00284C
:104FC00037D1694B1A6E42F480421A661A6E02F4A7
:104FD00080420092009ADA6C42F00102DA64DB6CE3
:104FE00003F001030193019B4FF4C0631793022365
:104FF0001893002519951A9507231B9317A94FF0AD
:10500000904001F0CBFF5948594B0360182343608F
:105010008560C56080230361456185612023C3618C
:10502000056201F0F9F838B9504BC4F880309C6241
:10503000B5E7FCF727FBC4E7FCF724FBF4E7022302
:1050400006930023089306A804F01EFF002837D11A
:10505000454B9A6D42F400329A659A6D02F4003223
:105060000292029ADA6C42F00102DA64DB6C03F01D
:1050700001030393039B0E23179302231893002528
:10508000199503231A9307231B9317A94FF09040F8
:1050900001F084FF3748384B03601A234360856072
:1050A000C56080230361456185612023C36105627A
:1050B00001F0B2F838B92F4BC4F880309C6272E727
:1050C000FCF7E0FAC4E7FCF7DDFAF4E70423069303
:1050D0000023099306A804F0D7FE002837D1224BFD
:1050E0009A6D42F480229A659A6D02F480220492AD
:1050F000049ADA6C42F00202DA64DB6C03F0020319
:105100000593059B4FF440631793022318930025E2
:10511000199503231A9307231B9317A9174801F026
:105120003DFF1748174B03601C2343608560C56033
:1051300080230361456185612023C361056201F01D
:105140006BF838B90E4BC4F880309C6230E7FCF73E
:1051500099FAC4E7FCF796FAF4E700BF003801407B
:105160000044004000480040001002402038002069
:105170001C000240C0370020080002400004004824
:10518000603700203000024010B5044602681D4B15
:105190009A4208D022681C4B9A4214D022681B4BBA
:1051A0009A421FD010BD1A4A136E23F4804313662F
:1051B0004FF4C0614FF0904001F0DAFFD4F8800066
:1051C00001F096F8E6E7124A936D23F400339365F5
:1051D0000E214FF0904001F0CBFFD4F8800001F099
:1051E00087F8DBE70A4A936D23F4802393654FF435
:1051F0004061084801F0BCFFD4F8800001F078F865
:10520000D0E700BF003801400044004000480040A3
:10521000001002400004004808B503490348FDF7A8
:10522000A5FA012008BD00BFF9520008E4160108E4
:1052300010B5144B01221A70904208D0114B002275
:105240001A701148FFF7ACFB0E4B187810BD0F4CCD
:1052500000220F49204606F0A2FB0E49204606F028
:10526000B5FB0D49204600F08AFA204606F0C5FB42
:105270000A4B01221A700A48FFF792FB0948FFF710
:105280008FFBE1E7D13D00200C170108003B002017
:1052900078010020E000002024010020D03D002003
:1052A000E8160108FC16010808B5FEF7B7FD08BDB1
:1052B00008B50B4BD3F8BC326BB1094B93F89C3259
:1052C000DBB2032B09D1064B5B680BB9002005E06C
:1052D00000F0DEFC02E0002000E0002008BD00BF7E
:1052E000003B0020014B1878704700BFD03D0020E4
:1052F00008B5FEF7A7FD08BDF8B504460388012BE5
:105300000AD000252388012B35D02388012B5BD0C0
:10531000002D00F08680F8BD43694749002098477A
:105320000546F8B9EEE7FFF7DDFF01464348FCF715
:1053300083FFFFF7DDFF01464148FCF77DFFFFF7E4
:10534000B7FF01463F48FCF777FFFFF7ADFF014687
:105350003D48FCF771FF04213C48FCF76DFF6420D9
:10536000FCF788F9FDF7F6F90028DCD1042138486C
:10537000FCF762FFC6E76369364900209847074695
:105380000028C2D0FCF77AF90646002504E01F2168
:105390003148FEF74FFD0544FDF7DCF970B1FCF72D
:1053A0006DF9831BB3F57A7FF1D3FCF767F90646F5
:1053B000A90A2A48FFF7F4FA0025E8E70221244861
:1053C000FCF73AFF3D46A0E763692549002098476E
:1053D00000289DD0FCF752F9074600260EE0FCF7A6
:1053E0004DF90746B10A1F48FFF7DAFA00260EE02A
:1053F000FEF71CFD0134AC42FAD32E44FDF7AAF9A6
:1054000050B1FCF73BF9C31BB3F57A7FE7D2FEF747
:1054100009FD05460024EEE702210D48FCF70CFFCC
:1054200079E71148FCF708FF1048FCF705FF104822
:10543000FCF702FF6FE700BF180B010820170108F7
:1054400034170108481701085C1701087017010894
:1054500078170108801701089417010884170108BC
:10546000B8170108BC170108CC170108D8170108A4
:10547000E417010808B5024803F01EFE08BD00BF8E
:105480008C50002010B5D0F8BC4284B1D0F8C032A6
:105490007BB194F80002FF280DD09B6894F801229C
:1054A00021469847FF2384F80032002010BD0320D6
:1054B000FCE70020FAE70020F8E700004323038020
:1054C000004870475800002043230380004870477D
:1054D0009C000020432303800048704714000020F4
:1054E0000A230380004870471801002038B5D0F81F
:1054F000BC5275B1044600F0EFFCC5F80C02D4F8BC
:10550000C032DB6805F50371D5F804029847002026
:1055100038BD0320FCE710B5D0F8C442D0F8BC3247
:1055200053B301EB810200EB820292694AB101EBB5
:10553000810C04EBCC04246AB2FBF4FC04FB1C22B7
:1055400072B10022C3F81422D0F8C0221469ACB1A1
:105550000A4603F50471D3F80802A047002010BDE5
:1055600001EB810300EB830300249C612346224668
:1055700000F0A2FC2046F2E70320F0E70020EEE76F
:10558000F0B583B0D0F8BC6200238DF80730ADF8D9
:105590000430002E6CD007460C460B7813F06005E3
:1055A0002AD0202D5ED1CA88F2B113F0800F0FD01F
:1055B000D0F8C0329B68314660789847E288072A65
:1055C00028BF07223146384606F0A0FE00254CE0F1
:1055D0004B7886F800328B7986F80132CA883146DA
:1055E00006F0A9FE002540E0D0F8C0329B680022FA
:1055F00048789847002538E04E780B2E2ED8DFE803
:1056000006F006342D2D2D2D2D2D2D2D152490F841
:105610009C32DBB2032B03D006F04EFB032524E0C3
:10562000022201A906F072FE35461EE090F89C3277
:10563000DBB2032B03D006F03FFB032515E001226C
:105640000DF1070106F062FE0FE090F89C32DBB22C
:10565000032B0AD006F030FB032506E006F02CFBF6
:10566000032502E006F028FB0325284603B0F0BD21
:105670000325FAE738B50446812100F0E0FB002558
:1056800025870121204600F0DAFBA4F87851822119
:10569000204600F0D4FBA4F84C50A4F84E50D4F8A7
:1056A000BC324BB1D4F8C0325B689847D4F8BC0226
:1056B00000F01CFCC4F8BC52002038BD70B5044694
:1056C0004FF4077000F00EFCB8B30646C4F8BC02F5
:1056D000237CBBBB4FF4007302228121204600F0E3
:1056E000A3FB012525874FF400730222294620469B
:1056F00000F09AFBA4F878511023A4F84E30082348
:1057000003228221204600F08FFB0123A4F84C30B5
:10571000D4F8C0321B6898470023C6F81432C6F884
:105720001832257C15BB4FF40073D6F804220121F2
:10573000204600F0C9FB284670BD0023C4F8BC32E7
:105740000225F8E7402302228121204600F06CFB6D
:1057500001252587402302222946204600F064FBCC
:10576000A4F878511023A4F84E30C8E74023D6F8A7
:1057700004220121204600F0A7FB0025DBE719B138
:10578000C0F8C0120020704703207047D0F8BC3228
:105790002BB1C3F80812C3F8102200207047032071
:1057A0007047D0F8BC321BB1C3F804120020704718
:1057B00003207047D0F8BC2292B108B5D2F8143259
:1057C0000BB1012008BD0123C2F81432D2F8103207
:1057D000C362D2F80822812100F06EFB0020F1E7BD
:1057E0000320704710B5D0F8BC2292B1047C44B9B4
:1057F0004FF40073D2F80422012100F065FB20462B
:1058000010BD4023D2F80422012100F05DFB0024EA
:10581000F5E70324F3E700000020014B1870704700
:10582000D43D0020212830D0222843D0202801D088
:10583000002070470B784A7843EA02238A7843EACB
:105840000243CA7843EA02630879204A1071487912
:105850005071897991711E49A1FB0313DB0803EB99
:1058600083035B001360B3F5966F06D0B3F5E13F99
:1058700007D0184B00221A70DAE7174A012111707D
:10588000F4E7144B01221A70D2E7104A136811484A
:10589000007803430B70C3F307204870C3F307403D
:1058A00088701B0ECB7013790B7153794B71937900
:1058B0008B71BDE74B8813F0010F03D0074B01221A
:1058C0001A70B5E7054B00221A70B1E738010020C5
:1058D000CDCCCCCCD23D0020004E0020D43D0020C9
:1058E0000020704738B505460C460A68014617483F
:1058F000FCF781FA164B1B78012B0CD013488468F7
:10590000FCF7D6FA241A013C3F2C16D8114B012281
:105910001A70002038BD0E4B00221A7023680C2B21
:10592000ECD9002300E001330C2BE7D80A4A1268B7
:10593000D15CEA5C9142F6D0E0E7084C294620466B
:10594000FFF72FFF2046FFF74DFFE2E7EC45002071
:10595000004E0020D33D002040010020003B0020ED
:1059600010B5074C002207492046FFF70FFF0649F4
:105970002046FFF716FF0020044B187010BD00BF33
:10598000003B002000460020004A0020D43D0020BB
:1059900008B5084B00221A704FF480620649074888
:1059A000FCF715FA4FF4806205490648FCF70FFA38
:1059B000012008BDD43D0020D8410020EC45002046
:1059C000D83D0020D845002008B50248FCF770FA01
:1059D00008BD00BFEC45002000B583B000238DF862
:1059E000073001220DF107010348FCF72EFA9DF85C
:1059F000070003B05DF804FBEC450020014B18687C
:105A0000704700BF380100200C4BD3F8BC3293B173
:105A100001220B4B187800B11046084B93F89C32CA
:105A2000DBB2032B00D00020044B5B6803B90020DD
:105A3000034B187070470022EBE700BF003B0020CB
:105A4000D43D00202DE9F04107460E46FFF7DCFF6C
:105A500018B900252846BDE8F081FBF70FFE804607
:105A600000250CE00120FBF705FEFFF7CDFF002825
:105A7000F0D0FBF703FEA0EB0803632BEAD8B54296
:105A8000E8D20A488468FCF713FA241A013C731B15
:105A90009C4200D31C46002CE4D0224639460348E1
:105AA000FCF7A9F927442544DFE700BFD8450020CB
:105AB000014B1878704700BFD23D002070B51C4BD9
:105AC0001B788BB91B48FCF7F3F9044610F03F0F25
:105AD00002D138B1441E05D0174BD3F8BC32D3F8ED
:105AE0001432ABB1002070BD14488468FCF7E0F9B3
:105AF000241A013C3F2CE5D90F4C11492046FFF7F1
:105B000050FE2046FFF76EFE094B00221A70D9E7BF
:105B10000C4E224631460748FCF797F9064D2246BF
:105B200031462846FFF732FE2846FFF743FED9E705
:105B3000D33D0020D8450020003B0020EC4500204C
:105B4000004A00200046002012230B8000487047C6
:105B50006401002004230B8000487047600100208E
:105B6000002393421ED200B510E00CF1370C01F86F
:105B700013C000014FEA430C0CF1010C4FF0000E72
:105B800001F80CE00133DBB2934209D24FEA107CFA
:105B9000B0F1204FE9D20CF1300C01F813C0E8E766
:105BA0005DF804FB7047000038B50B4BD3F8900547
:105BB000D3F89445D3F89835C01800D138BD074DB7
:105BC00008222946FFF7CCFF042205F110012046E8
:105BD000FFF7C6FFF2E700BF0070FF1F460100207D
:105BE00008B51A230B80FFF7DFFF014808BD00BF8F
:105BF0004401002008B50A4628B90549054806F0C1
:105C000068FB034808BD0249024806F062FBF8E75A
:105C1000044E00200018010810B50A46034C214626
:105C2000034806F056FB204610BD00BF044E00207E
:105C30001818010808B50A4628B90549054806F0AC
:105C400048FB034808BD0249024806F042FBF8E75A
:105C5000044E00202C18010808B50A4628B9054949
:105C6000054806F036FB034808BD0249024806F025
:105C700030FBF8E7044E002038180108032805D847
:105C8000DFE800F00504020501207047032070479B
:105C9000014B1878704700BF8850002002680E4BF7
:105CA0009A4200D0704700B583B003F5DA339A6D9D
:105CB00042F400029A659B6D03F400030193019B7B
:105CC00000220621142000F021FA142000F02EFA00
:105CD00003B05DF804FB00BF005C004008B500F5B0
:105CE0002671D0F8D80205F09DFE08BD08B501EB7D
:105CF000810300EBC303D3F86421D0F8D80205F088
:105D0000BDFE08BD08B501EB810300EBC3035A6A71
:105D1000D0F8D80205F0EEFE08BD08B5D0F8D802DC
:105D200005F08EFF08BD10B504464379022B09D15A
:105D30000121D4F8D80205F069FFD4F8D80205F0A3
:105D400038FF10BDFBF79EFCF2E7000010B50446DB
:105D5000D0F8D80205F05DFF637A23B1044A1369D5
:105D600043F006031361034B00221A7010BD00BFFD
:105D700000ED00E08850002008B5437A23B1054AC1
:105D8000136923F006031361D0F8D80205F04BFF26
:105D900008BD00BF00ED00E010B503461C48C0F888
:105DA000D832C3F8C4021B4B0360082303710223DB
:105DB0004371C37101230372002343728372C37260
:105DC00002F05CFC08BB124C142300221146204652
:105DD00003F088FB542300228021204603F082FB3D
:105DE000942300228121204603F07CFBD42300224F
:105DF0000121204603F076FB4FF48A7300228221B2
:105E0000204603F06FFB002010BDFBF73BFCDAE7F8
:105E10008C500020005C004008B5D0F8C40202F0AD
:105E200088FCFFF72BFF08BD08B594461A46634669
:105E3000D0F8C40203F019FAFFF720FF08BD08B537
:105E4000D0F8C40203F054FAFFF718FF08BD08B5F4
:105E5000D0F8C40203F0CEFAFFF710FF08BD08B572
:105E6000D0F8C40203F0FFFAFFF708FF08BDD0F82E
:105E7000C43211F0800F08D101F07F0101EB8101E4
:105E800003EBC10393F85201704701F07F0101EB6E
:105E9000810103EBC103987C7047000008B5D0F87E
:105EA000C40203F0F6F8FFF7E9FE024B01221A7074
:105EB00008BD00BF8850002008B5D0F8C40203F028
:105EC00073FAFFF7DBFE08BD08B5D0F8C40203F093
:105ED00045FAFFF7D3FE08BD08B5D0F8C40203F0B9
:105EE0005AFA08BD00487047684E0020704700000D
:105EF00008B5FBF727FCFCF761FCFEF7DBFCFEF7BF
:105F00008FFDFEF70DFCFCF75FFDFEF72BFE4FF457
:105F1000E1310020FEF700FD1248FEF741FD124975
:105F20001248FEF73DFD12491248FEF739FD03F015
:105F300041FE114981FB0031C017C0EBA1410F4860
:105F4000FEF72EFD0E48FEF72BFDFDF7A1FFFCF737
:105F5000E9FEFFF761F90120FFF76AF9FDF756FF47
:105F6000012008BD48180108601801086C180108D4
:105F7000841801089018010883DE1B43A818010843
:105F8000AC0E0108104B1B680BB90120704710B50F
:105F900004464FF47A70B0FBF3F30C4A1068B0FB80
:105FA000F3F000F0CBF868B90F2C01D901200AE01A
:105FB000002221464FF0FF3000F0A8F8044B1C608F
:105FC000002000E0012010BD94010020000000200E
:105FD0009801002010B5032000F086F80020FFF79C
:105FE000D1FF10B10124204610BD0446FBF70AFC86
:105FF000F9E70000034A1368034909680B4413607A
:10600000704700BF6853002094010020014B1868BE
:10601000704700BF6853002038B50446FFF7F6FF0D
:106020000546B4F1FF3F02D0044B1B681C44FFF748
:10603000EDFF401BA042FAD338BD00BF9401002001
:10604000002807DB00F01F02400901239340024AA9
:1060500042F82030704700BF00E100E000280CDB70
:1060600000F01F024009012393402030034A42F808
:106070002030BFF34F8FBFF36F8F704700E100E018
:10608000002808DB0901C9B200F1604000F5614059
:1060900080F80013704700F00F000901C9B2014BEE
:1060A0001954704714ED00E000B500F00700C0F18E
