:020000040800F2
:1000000000780020AD3600083D1800083F180008B1
:1000100041180008431800084518000800000000B7
:100020000000000000000000000000004918000867
:1000300047180008000000004B1800084D18000881
:10004000FD360008FD360008FD360008FD360008C4
:10005000355B0008FD360008FD360008FD36000857
:10006000FD360008FD360008FD360008FD360008A4
:10007000FD360008FD360008FD360008FD36000894
:10008000FD36000800000000FD360008FD360008BF
:10009000BD760008F9560008FD360008FD36000858
:1000A000FD360008FD360008FD360008FD36000864
:1000B000FD360008FD360008FD360008FD36000854
:1000C00029640008FD36000839640008FD36000880
:1000D000FD360008FD360008FD360008FD36000834
:1000E000FD360008FD360008FD360008FD36000824
:1000F000FD360008FD360008FD360008000000004F
:1001000000000000FD36000800000000FD36000879
:10011000FD36000800000000FD360008FD3600082E
:10012000FD360008FD360008FD360008FD360008E3
:10013000FD3600080000000000000000FD36000849
:10014000FD360008FD360008000000000000000039
:10015000000000000000000000000000000000009F
:10016000000000000000000000000000FD36000854
:10017000FD36000800000000000000000000000044
:1001800000000000FD360008000000000000000034
:10019000000000000000000000000000000000005F
:1001A0000000000000000000FD360008FD360008D9
:1001B000FD360008FD360008FD360008000000008E
:1001C00000000000FD3600080000000000000000F4
:0801D000FD360008FD360008B1
:1004000020524556563235303232305231000000DB
:1004100000000000000000000000000000000000DC
:100420000000000053544D33324734333100000094
:1004300000000000000000000000000000000000BC
:080440000000000000000008AC
:1008000010B5054C237833B9044B13B10448AFF34A
:1008100000800123237010BDAC0300200000000005
:100820006C37010808B5034B1BB103490348AFF30C
:10083000008008BD00000000B00300206C370108F4
:1008400010F8012B11F8013B012A28BF9A42F7D07A
:10085000D01A7047000000000000000000000000F7
:1008600001F0FF01102A2BDB10F0070F08D010F861
:10087000013B013A8B422DD010F0070F42B3F6D165
:10088000F0B441EA012141EA014122F007047FF07E
:1008900000070023F0E80256083C85EA010586EAD5
:1008A000010685FA47F5A3FA87F586FA47F6A5FA11
:1008B00087F68EB9EED1F0BC01F0FF0102F007021D
:1008C00032B110F8013B013A83EA010313B1F8D1C8
:1008D0000020704701387047002D06BF35460338A9
:1008E000073815F0010F07D1013015F4807F02BFE2
:1008F000013015F4C03F0130F0BC0138704700BF33
:10090000034613F8012B002AFBD1181A013870474F
:1009100081F0004102E000BF83F0004330B54FEAB0
:1009200041044FEA430594EA050F08BF90EA020F1D
:100930001FBF54EA000C55EA020C7FEA645C7FEAB0
:10094000655C00F0E2804FEA5454D4EB5555B8BFD3
:100950006D420CDD2C4480EA020281EA030382EA44
:10096000000083EA010180EA020281EA0303362DD6
:1009700088BF30BD11F0004F4FEA01314FF4801CA9
:100980004CEA113102D0404261EB410113F0004FBB
:100990004FEA03334CEA133302D0524263EB430372
:1009A00094EA050F00F0A780A4F10104D5F1200E10
:1009B0000DDB02FA0EFC22FA05F2801841F100016B
:1009C00003FA0EF2801843FA05F359410EE0A5F13F
:1009D00020050EF1200E012A03FA0EFC28BF4CF070
:1009E000020C43FA05F3C01851EBE37101F0004526
:1009F00007D54FF0000EDCF1000C7EEB00006EEB33
:100A00000101B1F5801F1BD3B1F5001F0CD34908BC
:100A10005FEA30004FEA3C0C04F101044FEA445213
:100A200012F5800F80F09A80BCF1004F08BF5FEA9A
:100A3000500C50F1000041EB045141EA050130BD7A
:100A40005FEA4C0C404141EB0101013C28BFB1F58C
:100A5000801FE9D291F0000F04BF01460020B1FAD7
:100A600081F308BF2033A3F10B03B3F120020CDAAA
:100A70000C3208DD02F1140CC2F10C0201FA0CF088
:100A800021FA02F10CE002F11402D8BFC2F1200CED
:100A900001FA02F120FA0CFCDCBF41EA0C019040A3
:100AA000E41AA2BF01EB0451294330BD6FEA0404EC
:100AB0001F3C1CDA0C340EDC04F11404C4F12002D7
:100AC00020FA04F001FA02F340EA030021FA04F3E9
:100AD00045EA030130BDC4F10C04C4F1200220FA40
:100AE00002F001FA04F340EA0300294630BD21FA7E
:100AF00004F0294630BD94F0000F83F4801306BF44
:100B000081F480110134013D4EE77FEA645C18BF37
:100B10007FEA655C29D094EA050F08BF90EA020FCE
:100B200005D054EA000C04BF1946104630BD91EAC6
:100B3000030F1EBF0021002030BD5FEA545C05D1C9
:100B40004000494128BF41F0004130BD14F5800408
:100B50003CBF01F5801130BD01F0004545F0FE417C
:100B600041F470014FF0000030BD7FEA645C1ABFB1
:100B7000194610467FEA655C1CBF0B46024650EAE8
:100B8000013406BF52EA033591EA030F41F4002114
:100B900030BD00BF90F0000F04BF0021704730B59A
:100BA0004FF4806404F132044FF000054FF000016F
:100BB00050E700BF90F0000F04BF0021704730B530
:100BC0004FF4806404F1320410F0004548BF404205
:100BD0004FF000013EE700BF42004FEAE2014FEA5A
:100BE00031014FEA02701FBF12F07F4393F07F4F35
:100BF00081F06051704732F07F4208BF704793F038
:100C00007F4F04BF41F40021704730B54FF460744A
:100C100001F0004521F000411CE700BF50EA01024D
:100C200008BF704730B54FF000050AE050EA0102F6
:100C300008BF704730B511F0004502D5404261EB66
:100C400041014FF4806404F132045FEA915C3FF4A7
:100C5000D8AE4FF003025FEADC0C18BF03325FEA44
:100C6000DC0C18BF033202EBDC02C2F1200300FAF5
:100C700003FC20FA02F001FA03FE40EA0E0021FA1A
:100C800002F11444BDE600BF70B54FF0FF0C4CF408
:100C9000E06C1CEA11541DBF1CEA135594EA0C0FBA
:100CA00095EA0C0F00F0DEF82C4481EA030621EAF5
:100CB0004C5123EA4C5350EA013518BF52EA033530
:100CC00041F4801143F4801338D0A0FB02CE4FF0E2
:100CD0000005E1FB02E506F00042E0FB03E54FF012
:100CE0000006E1FB03569CF0000F18BF4EF0010E0A
:100CF000A4F1FF04B6F5007F64F5407404D25FEA06
:100D00004E0E6D4146EB060642EAC62141EA5551B8
:100D10004FEAC52040EA5E504FEACE2EB4F1FD0CFA
:100D200088BFBCF5E06F1ED8BEF1004F08BF5FEA78
:100D3000500E50F1000041EB045170BD06F000462A
:100D400046EA010140EA020081EA0301B4EB5C04D7
:100D5000C2BFD4EB0C0541EA045170BD41F48011CF
:100D60004FF0000E013C00F3AB8014F1360FDEBFF4
:100D7000002001F0004170BDC4F10004203C35DAD0
:100D80000C341BDC04F11404C4F1200500FA05F353
:100D900020FA04F001FA05F240EA020001F00042F4
:100DA00021F0004110EBD37021FA04F642EB06016A
:100DB0005EEA430E08BF20EAD37070BDC4F10C0494
:100DC000C4F1200500FA04F320FA05F001FA04F258
:100DD00040EA020001F0004110EBD37041F1000144
:100DE0005EEA430E08BF20EAD37070BDC4F120054F
:100DF00000FA05F24EEA020E20FA04F301FA05F2B7
:100E000043EA020321FA04F001F0004121FA04F25E
:100E100020EA020000EBD3705EEA430E08BF20EA2E
:100E2000D37070BD94F0000F0FD101F00046400068
:100E300041EB010111F4801F08BF013CF7D041EAEA
:100E4000060195F0000F18BF704703F000465200EE
:100E500043EB030313F4801F08BF013DF7D043EABF
:100E60000603704794EA0C0F0CEA135518BF95EA75
:100E70000C0F0CD050EA410618BF52EA4306D1D1FC
:100E800081EA030101F000414FF0000070BD50EA1B
:100E9000410606BF1046194652EA430619D094EAA5
:100EA0000C0F02D150EA013613D195EA0C0F05D18F
:100EB00052EA03361CBF104619460AD181EA0301E3
:100EC00001F0004141F0FE4141F470014FF000009B
:100ED00070BD41F0FE4141F4780170BD70B54FF036
:100EE000FF0C4CF4E06C1CEA11541DBF1CEA1355B6
:100EF00094EA0C0F95EA0C0F00F0A7F8A4EB050498
:100F000081EA030E52EA03354FEA013100F088808E
:100F10004FEA03334FF0805545EA131343EA126357
:100F20004FEA022245EA111545EA10654FEA00260C
:100F30000EF000419D4208BF964244F1FD0404F5C5
:100F4000407402D25B084FEA3202B61A65EB030521
:100F50005B084FEA32024FF480104FF4002CB6EBDE
:100F6000020E75EB030E22BFB61A754640EA0C005E
:100F70005B084FEA3202B6EB020E75EB030E22BF9E
:100F8000B61A754640EA5C005B084FEA3202B6EBDF
:100F9000020E75EB030E22BFB61A754640EA9C009E
:100FA0005B084FEA3202B6EB020E75EB030E22BF6E
:100FB000B61A754640EADC0055EA060E18D04FEA2C
:100FC000051545EA16754FEA06164FEAC30343EACC
:100FD00052734FEAC2025FEA1C1CC0D111F4801F99
:100FE0000BD141EA00014FF000004FF0004CB6E792
:100FF00011F4801F04BF01430020B4F1FD0C88BF31
:10100000BCF5E06F3FF6AFAEB5EB030C04BFB6EB3B
:10101000020C5FEA500C50F1000041EB045170BD2E
:101020000EF0004E4EEA113114EB5C04C2BFD4EB5B
:101030000C0541EA045170BD41F480114FF0000EDF
:10104000013C90E645EA060E8DE60CEA135594EA5B
:101050000C0F08BF95EA0C0F3FF43BAF94EA0C0F5E
:101060000AD150EA01347FF434AF95EA0C0F7FF4D3
:1010700025AF104619462CE795EA0C0F06D152EA27
:1010800003353FF4FDAE1046194622E750EA41060B
:1010900018BF52EA43067FF4C5AE50EA41047FF41C
:1010A0000DAF52EA43057FF4EBAE12E74FF0FF3C81
:1010B00006E000BF4FF0010C02E000BF4FF0010C52
:1010C0004DF804CD4FEA410C7FEA6C5C4FEA430CCB
:1010D00018BF7FEA6C5C1BD001B050EA410C0CBF1A
:1010E00052EA430C91EA030F02BF90EA020F00207C
:1010F000704710F1000F91EA030F58BF994208BFE3
:1011000090422CBFD8176FEAE37040F0010070479F
:101110004FEA410C7FEA6C5C02D150EA013C07D1F6
:101120004FEA430C7FEA6C5CD6D152EA033CD3D041
:101130005DF8040B704700BF8446104662468C463B
:101140001946634600E000BF01B5FFF7B7FF00286E
:1011500048BF10F1000F01BD4DF808EDFFF7F4FF97
:101160000CBF012000205DF808FB00BF4DF808ED22
:10117000FFF7EAFF34BF012000205DF808FB00BF45
:101180004DF808EDFFF7E0FF94BF012000205DF867
:1011900008FB00BF4DF808EDFFF7CEFF94BF01201C
:1011A00000205DF808FB00BF4DF808EDFFF7C4FF15
:1011B00034BF012000205DF808FB00BF4FEA410C5E
:1011C0007FEA6C5C02D150EA013C0AD14FEA430C41
:1011D0007FEA6C5C02D152EA033C02D14FF000007E
:1011E00070474FF0010070474FEA410212F50012BC
:1011F00015D211D56FF47873B3EB625212D94FEA5E
:10120000C12343F0004343EA505311F0004F23FA47
:1012100002F018BF404270474FF00000704750EA9C
:10122000013005D111F0004008BF6FF00040704759
:101230004FF00000704700BF4A0011D212F50012B3
:1012400011D20DD56FF47873B3EB62520ED44FEA1E
:10125000C12343F0004343EA505323FA02F070479E
:101260004FF00000704750EA013002D14FF0FF30DC
:1012700070474FF0000070474FEA4102B2F1E0437F
:1012800024BFB3F5001CDCF1FE5C0DD901F0004C6D
:101290004FEAC0024CEA5070B2F1004F40EB8300BD
:1012A00008BF20F00100704711F0804F21D113F1E9
:1012B0003872BCBF01F00040704741F480114FEA22
:1012C0005252C2F11802C2F1200C10FA0CF320FAAB
:1012D00002F018BF40F001004FEAC1234FEAD323C8
:1012E00003FA0CFC40EA0C0023FA02F34FEA430332
:1012F000CCE77FEA625307D150EA01331EBF4FF0BB
:10130000FE4040F44000704701F0004040F0FE40D5
:1013100040F40000704700BF53B94AB9002908BF24
:1013200000281CBF4FF0FF314FF0FF3000F0A0B994
:10133000ADF1080C6DE904CE00F03CF8DDF804E0F6
:10134000DDE9022304B0704738B5002200230446CB
:101350000D46FFF70BFF28B920462946BDE8384067
:1013600000F00AB8204605F1004100F005F84042BF
:1013700061EB410138BD00BFD0B50C4B00220646E1
:101380000F46FFF781FCFFF757FF0446FFF702FC0B
:10139000074B0022FFF778FC02460B4630463946E1
:1013A000FFF7BAFAFFF748FF2146D0BD0000F03D35
:1013B0000000F0412DE9F047089D0C46002B4ED16E
:1013C00094468C458646B2FA82F262D94AB1C2F19D
:1013D0002003914020FA03F30CFA02FC194300FAAF
:1013E00002FE4FEA1C471FFA8CF6B1FBF7F44FEAF6
:1013F0001E4307FB141143EA014304FB06F1994223
:101400000AD91CEB030304F1FF3080F012819942EA
:1014100040F20F81023C6344591A1FFA8EF3B1FB6C
:10142000F7F007FB101143EA014300FB06F69E426A
:101430000AD91CEB030300F1FF3180F0FC809E42CF
:1014400040F2F980634402389B1B40EA04400021CB
:101450001DB1D3400022C5E90032BDE8F0878B42C0
:1014600005D90DB1C5E9000100210846F5E7B3FA39
:1014700083F1002946D1A34202D39042C0F0F0800C
:10148000861A64EB03030120002DE6D0C5E9006352
:10149000E3E7002A40F09080A1EB0C044FEA1C48DF
:1014A0001FFA8CF70121B4FBF8F64FEA1E4308FB44
:1014B000164443EA044307FB06F0984208D91CEBA4
:1014C000030306F1FF3402D2984200F2CD80264693
:1014D0001C1A1FFA8EF3B4FBF8F008FB104443EA21
:1014E000044300FB07F79F4208D91CEB030300F1FC
:1014F000FF3402D29F4200F2B0802046DB1B40EA5C
:101500000640A5E7C1F120068B4022FA06F71F43EB
:1015100020FA06FC04FA01F343EA0C03F44000FA53
:1015200001F8380C4FEA1349B4FBF0FE1FFA87FCB0
:1015300000FB1E4449EA04440EFB0CF9A14502FAE3
:1015400001F20AD93C190EF1FF3A80F08480A145DE
:1015500040F28180AEF1020E3C44A4EB09041FFA74
:1015600083F9B4FBF0F300FB134449EA044403FBA2
:101570000CFCA44507D93C1903F1FF3067D2A44500
:1015800065D9023B3C4443EA0E40A0FB0293A4EB26
:101590000C049C42CE469C4651D34ED055B1B8EB7C
:1015A0000E0364EB0C0404FA06F6CB401E43CC4059
:1015B000C5E90064002150E7C2F1200320FA03F1DD
:1015C0000CFA02FC24FA03F394400C434FEA1C4843
:1015D00000FA02FE1FFA8CF7B3FBF8F008FB10319B
:1015E000230C43EA014300FB07F1994208D91CEBA5
:1015F000030300F1FF362CD299422AD90238634402
:101600005B1AA4B2B3FBF8F108FB113344EA0344BC
:1016100001FB07F3A34208D91CEB040401F1FF36D8
:1016200013D2A34211D902396444E41A41EA0041B9
:1016300039E70446F0E6084606E7C845AED2B9EBFE
:10164000020E63EB070C0138A8E73146EDE70346CD
:1016500099E73046D4E7D6467FE7634402384DE742
:101660000646234608460FE7023E634430E700BFC4
:10167000704700BF08B506F0FDFD08BD08B506F0CF
:10168000F3FD08BD72B6FEE710B5A4B03822002104
:1016900016A80FF0E3FA00241194129413941494F2
:1016A00015944422214668460FF0D8FA20460AF0E5
:1016B00061FA0AF057FA214AD2F8903023F0180361
:1016C000C2F89030252316934FF4803317930122EC
:1016D00018921C9202231D9303211E911F9228220F
:1016E0002092219304222292239316A80AF0FCFA56
:1016F000E8B90F2311930323129300231393149338
:101700001593042111A80AF0A5FD90B90C4B009384
:10171000002306934FF080720C920D934FF4807368
:10172000109368460AF0BCFE28B924B010BDFFF73C
:10173000A9FFFFF7A7FFFFF7A5FF00BF00100240BA
:101740004030080000B58BB006F072FDFFF79CFF3B
:101750002B4B1A6E42F001021A661A6E02F0010259
:101760000192019A9A6D42F080529A659A6D02F048
:1017700080520292029ADA6C42F00102DA64DA6C68
:1017800002F001020392039ADA6C42F00202DA6478
:10179000DA6C02F002020492049ADA6C42F004025B
:1017A000DA64DA6C02F004020592059ADA6C42F00F
:1017B0000802DA64DA6C02F008020692069ADA6C21
:1017C00042F01002DA64DA6C02F010020792079A13
:1017D000DA6C42F02002DA64DA6C02F0200208923D
:1017E000089ADA6C42F04002DA64DB6C03F04003E2
:1017F0000993099B0AF044FA01200BB05DF804FB41
:101800000010024000B583B00B4B1A6E42F001028B
:101810001A661A6E02F001020092009A9A6D42F066
:1018200080529A659B6D03F080530193019B0AF0EF
:1018300027FA03B05DF804FB00100240FEE7FEE764
:10184000FEE7FEE7FEE770477047704708B506F011
:10185000FFFC05F009FA08BD0120704708B50FF03C
:101860008DFA162303604FF0FF3008BD08B54FF026
:10187000FF31FFF7F3FFFEE770B50C461646002573
:1018800006E0AFF30080214601F8010B01350C465C
:10189000B542F6DB304670BD70B50C4616460025E5
:1018A00004E014F8010BAFF300800135B542F8DB1A
:1018B000304670BD4FF0FF3070474FF400534B601F
:1018C00000207047012070470020704710B5034684
:1018D0000C4A0D490D48006840B10C4800680344AB
:1018E000521A934206D8094A136010BD0748084CA3
:1018F0000460F2E70FF042FA0C2303604FF0FF3070
:10190000F3E700BF0078002000040000C8030020B7
:10191000984F0020044BD3F8882042F47002C3F89B
:101920008820024A9A60704700ED00E0000000083D
:101930002DE9F003D0E90089D0E90267D0E9044538
:10194000D0E90623B3F1FF3F08BFB2F1FF3F13D147
:10195000B5F1FF3F08BFB4F1FF3F11D1B7F1FF3F31
:1019600008BFB6F1FF3F0DD1B9F1FF3F08BFB8F195
:10197000FF3F09D1002000E00420BDE8F0037047DC
:101980000320FAE70220F8E70120F6E738B504461D
:1019900000F5803C4FEACC2C294BB3F8E0204FF601
:1019A000FF739A4218D0274BD3F8E025264B03EA61
:1019B00082234FF4F032B2FBF3F203FB02CC0CF1C2
:1019C00008050CF110000CF1180E0139032931D86B
:1019D000DFE801F005101B254FF40033E9E74FF075
:1019E000AA324FF0AA33604600F074FC20BB174BBC
:1019F0001C7038BD4FF0AA324FF0AA33284600F0D1
:101A000069FCD8B9114B1C70F3E74FF0AA324FF0C4
:101A1000AA3300F05FFC0028EBD00220E9E74FF08A
:101A2000AA324FF0AA33704600F054FC0028E0D0F0
:101A30000220DEE70020DCE70220DAE70220D8E718
:101A40000075FF1F0070FF1F00FCFF03CC03002088
:101A500038B53C4BB3F8E0204FF6FF739A420FD0F5
:101A6000394BD3F8E025394B03EA82234FF4F034A5
:101A7000B4FBF3F403FB04F4C4F5F034E40A51E0DE
:101A80004FF40033F2E7651CA31CAB4207D80221D8
:101A9000204600F025FC044600B301244DE005F586
:101AA0008032D202274BB3F8E0104FF6FF73994211
:101AB00011D0254BD3F8E015244B03EA81234FF4D2
:101AC000F030B0FBF3F003FB0020FFF731FF0428F8
:101AD00035D10135D8E74FF40033F0E700F022FCB0
:101AE0002BE0194BD3F8E035184A02EA83224FF471
:101AF000F033B3FBF2F302FB03F3C3F5F033DB0A7D
:101B00000433A34218D904F580304FF4F033B3FB0B
:101B1000F2F302FB03F303EBC020FFF709FF0428F5
:101B2000B1D00234074BB3F8E0204FF6FF739A426E
:101B3000D7D14FF40032DAE70524204638BD05241A
:101B4000FBE700BF0075FF1F0070FF1F00FCFF03D5
:101B5000F8B50646644B1D7805F58032D202634B1A
:101B6000B3F8E0104FF6FF73994256D0604BD3F8AC
:101B7000E015604B03EA81234FF4F030B0FBF3F043
:101B800003FB0020FFF7D4FE0746584BB3F8E020D4
:101B90004FF6FF739A4243D0554BD3F8E035554A80
:101BA00002EA83224FF4F033B3FBF2F302FB03F3B8
:101BB000C3F5F032A5EBD224013404F0030404EBA6
:101BC000D22404F5803003EBC020FFF7B1FE474B71
:101BD000B3F8E0204FF6FF739A4224D0444BD3F879
:101BE000E035444A02EA83224FF4F033B3FBF2F3C8
:101BF00002FB03F3C3F5F033A5EBD322033202F06B
:101C0000030202EBD322012E10D0022E57D0002E59
:101C10004CD04FF0FF352846F8BD4FF40033ABE70A
:101C20004FF40032BEE74FF40032DDE7022F19D047
:101C3000012F4DD1304B1B68B3F5006FEBD3042857
:101C40002DD003212846FFF7A1FE002843D1012112
:101C50002046FFF79BFE002840D1274B20221A6028
:101C60002546D8E7244B1B68B3F5006FD3D304286F
:101C70000ED003212846FFF789FE18BB022120461B
:101C8000FFF784FE08BB1C4B20221A602546C2E7E2
:101C9000FFF7DEFE0028ECD04FF0FF35BBE7FFF783
:101CA000D7FE0028CDD04FF0FF35B4E7022FB2D0D9
:101CB000012F02D04FF0FF35ADE71546ABE780B9F5
:101CC0002546A8E74FF0FF35A5E74FF0FF35A2E71F
:101CD0004FF0FF359FE74FF0FF359CE74FF0FF35A2
:101CE00099E74FF0FF3596E7CC0300200075FF1F02
:101CF0000070FF1F00FCFF030400002038B53C4BC0
:101D0000B3F8E0204FF6FF739A420FD0394BD3F867
:101D1000E025394B03EA82234FF4F034B4FBF3F4AB
:101D200003FB04F4C4F5F034E40A51E04FF400334B
:101D3000F2E7651CA31CAB4207D80221204600F045
:101D4000E1FA044600B301244DE005F58032D202E9
:101D5000274BB3F8E0104FF6FF73994211D0254B93
:101D6000D3F8E015244B03EA81234FF4F030B0FBA5
:101D7000F3F003FB0020FFF7DBFD042835D101352C
:101D8000D8E74FF40033F0E700F0CCFA2BE0194B22
:101D9000D3F8E035184A02EA83224FF4F033B3FB5C
:101DA000F2F302FB03F3C3F5F033DB0A0433A3427F
:101DB00018D904F580304FF4F033B3FBF2F302FB93
:101DC00003F303EBC020FFF7B3FD0428B1D00234C6
:101DD000074BB3F8E0204FF6FF739A42D7D14FF488
:101DE0000032DAE70524204638BD0524FBE700BFB2
:101DF0000075FF1F0070FF1F00FCFF03044B9A6873
:101E000042F001029A6018601980186880B2704729
:101E1000003002402DE9F04780468A460020FFF757
:101E200097FEB0F1FF3F67D0814600F58035ED02A7
:101E3000324BB3F8E0204FF6FF739A420FD0304B8D
:101E4000D3F8E0252F4B03EA82234FF4F032B2FBA4
:101E5000F3F203FB02552846FFF76AFD40E04FF41A
:101E60000033F2E7083C1F2C16D92B19D3E9006781
:101E7000B7F1FF3F08BFB6F1FF3FF3D0B1B2414524
:101E8000F0D13846FFF7BAFFB0EB164FEAD1CAF8E7
:101E900000700020BDE8F087184BB3F8E0204FF643
:101EA000FF739A4223D0164BD3F8E025154B03EA73
:101EB00082234FF4F035B5FBF3F503FB05F5C5F5CB
:101EC000F033A9EBD32909F1030909F0030909EB60
:101ED000D32909F5803305EBC3252846FFF728FDF4
:101EE0000238C0B2022805D84FF4FF64BBE74FF4B4
:101EF0000033DEE70720CDE70320CBE70075FF1FA7
:101F00000070FF1F00FCFF03431E9BB24FF6FD72E3
:101F1000934201D90820704710B582B00C460023C7
:101F2000019301A9FFF776FF9DF80430237002B0FA
:101F300010BD0000234B1B88B3F5FC7F3BD270B56E
:101F400006460D460120FFF703FEB0F1FF3F34D0F7
:101F500000F58034E4021C4BB3F8E0204FF6FF7329
:101F60009A4223D0194BD3F8E025194B03EA822378
:101F70004FF4F032B2FBF3F203FB024405B9C6B1F1
:101F800031462846FFF73AFF124B196846EA0042ED
:101F90002B46601800F09EF988B90E4A1368083382
:101FA0001360084A13880133138070BD4FF4003367
:101FB000DEE72846E8E7122070470320F5E7022015
:101FC000F3E700BFCE0300200075FF1F0070FF1F66
:101FD00000FCFF0304000020F0B583B005460E4668
:101FE000002301931746002A4ED10220FFF7B0FDCF
:101FF0000446B0F1FF3F00F03B81A34B00221A8062
:10200000A24B1870A24B20221A60002F3ED0A14B89
:10201000B3F8E0204FF6FF739A423ED09E4BD3F8C0
:10202000E0359E4A02EA83224FF4F033B3FBF2F329
:1020300002FB03F3C3F5F032A4EBD224033404F023
:10204000030404EBD22404F5803003EBC020FFF737
:102050006FFC022824D0042829D0012F40F00C81E5
:10206000032840F00B81012F00F0A980314628465B
:10207000FFF760FF002840F00381834B1C88022C8F
:1020800040F2E980023CD7E00120AFE70121FFF7F1
:102090007DFC0028BBD00223E7E04FF40032C3E709
:1020A00004212046FFF772FC002840F0E380794BC2
:1020B000B3F8E0204FF6FF739A421BD0764BD3F86B
:1020C000E035764A02EA83224FF4F033B3FBF2F3B1
:1020D00002FB03F3C3F5F032A4EBD224033404F083
:1020E000030404EBD22404F5803003EBC020FFF797
:1020F0001FFC20E04FF40032E6E704212046FFF702
:1021000045FCF0B10223B0E04FF400324FF4F0335D
:10211000B3FBF2F302FB03F3C3F5F032A4EBD224DA
:10212000033404F0030404EBD22404F5803003EB01
:10213000C020FFF7FDFBC31EDBB2012B93D80328A1
:10214000DBD0544BB3F8E0204FF6FF739A42DBD05C
:10215000514BD3F8E035514A02EA8322D6E74E4A82
:10216000D2F8E0154D4A02EA81224FF4F031B1FB7A
:10217000F2F102FB01330344D3E90023B3F1FF3F43
:1021800008BFB2F1FF3F1CD03F4A138801331380D0
:102190003F4A1368083313600830B0F5006F10D25F
:1021A0003A4B1B7803F58033DB023A4AB2F8E01071
:1021B0004FF6FF729142D2D14FF40032D5E7202082
:1021C000EBE7324B1C7800271EE04FF400324FF44F
:1021D000F033B3FBF2F302FB03F3C3F5F032A4EBED
:1021E000D224033404F0030404EBD22404F5803039
:1021F00003EBC020FFF79CFB03287FF437AF224A94
:102200001388FC3313800137032F3FF62FAF214B88
:10221000B3F8E0204FF6FF739A42D6D01E4BD3F8A6
:10222000E0351E4A02EA8322D1E701993046FFF7E2
:1022300081FE0346C8B90134802C0ED8A542FAD0DD
:10224000A6B201A93046FFF7E5FD03460028ECD011
:102250000728F0D009E00124EEE702210B4B1878A3
:10226000FFF794FB70B94FF48073184603B0F0BDCC
:102270000423FAE70223F8E70A23F6E70A23F4E740
:102280000223F2E70223F0E7CE030020CC03002074
:10229000040000200075FF1F0070FF1F00FCFF03FB
:1022A00038B504460D46FFF745FE122800D038BD6C
:1022B000002229462046FFF78FFEF8E708B5431EA7
:1022C0009BB24FF6FD72934201D9082008BDFFF77B
:1022D000E7FFFBE708B50146002006F0EFFF08BD69
:1022E00000B587B000230193029305910490012368
:1022F000039301A902A807F0E7F800B1012007B095
:102300005DF804FB00B585B00023009303910290B3
:1023100001230193684607F04DF800B1012005B094
:102320005DF804FB084B1A6822F480621A601A6890
:1023300042F480521A601A6822F480521A601A68B5
:1023400042F480621A6070470020024008B505F030
:10235000F3FE00F004F800F034F8002008BD00B5EA
:1023600083B04FF4E131002001F078FB05230093A6
:10237000032301220021084602F0C6FA00210120B1
:1023800003F07CFD002004F02BFA03B05DF804FBA1
:1023900010B505F0ADF838B9002401F077FBA04284
:1023A0000AD101F0C7FD10BD05F0C6F8012801D023
:1023B0000024F2E70324F0E70021204601F04EFB61
:1023C000EFE710B5FFF75AF9044607E0002004F0E4
:1023D00003F9012004F000F9FFF7DAFFFFF74EF9E7
:1023E000031BB3F5FA7FF7D3FFF748F9044605F06E
:1023F0007FF80028EAD0002004F02AF9012004F038
:1024000027F9E9E700B583B08C46418A009313466B
:10241000624603F02FFB03B05DF804FBF0B583B018
:1024200000F0D8FF4368984710B1002003B0F0BD1A
:10243000002407E04FF4856304FB03F3284AD35CD0
:1024400023B90134002CF5DD0120EFE74FF485635B
:1024500003FB0426304603F01EFA18B9304600F09C
:10246000E6FAEEE7304600F0E3FA0746002500E022
:1024700001351C4B1B68AB421DDD1A4B5A684FEAF5
:10248000051E02EB05110889154B4FF4856C0CFBFA
:1024900004335B8A9842EBD112F80E20104B0CFBF0
:1024A00004331B7C9A42E3D1CB683046984747EA15
:1024B0000003DFB2DCE7002FD0D1094B4FF4856277
:1024C00002FB04331B7C002BC8D1054902FB04111D
:1024D000002300932322498A304603F0CBFABDE75C
:1024E00070040020D003002038B5184A184B9B1AFE
:1024F0001B09184C23606260174804F0BDF921687D
:10250000164804F0B9F9002409E0124B5B6803EBAC
:1025100004135A682146124804F0AEF901340D4BF9
:102520001B68A342F1DC0F4D0F4A0321284600F03F
:1025300061F80E4C2946204603F08CF9204603F042
:1025400094F900F072FA012038BD00BF78510108FB
:10255000F8510108D0030020D8370108F0370108EE
:1025600000380108D803002040420F00700400200A
:1025700010B582B0049C0194009313460A460146AC
:10258000024803F02DFA02B010BD00BF7004002015
:10259000004870470800002008B5007804F030FDBE
:1025A00008BD08B5007804F0E9FC08BD08B500785E
:1025B00004F012FD08BD38B50446057801F066FA4E
:1025C000854203D0207804F0B9FC38BD0020FCE738
:1025D00008B5007804F0A4FC08BD000010B504465E
:1025E000034804F049F96168207804F0EDFB10BD60
:1025F0001038010801704260094BC0F88030094B67
:10260000C0F88430084BC0F88830084BC0F88C30D4
:10261000074BC0F89030074BC0F89430012070474A
:10262000DD250008D1250008B7250008AD250008E4
:10263000A32500089925000800B583B0054B0122A9
:102640001A60418A04220092002203F013FA03B0B8
:102650005DF804FBBC09002000B583B0418A482323
:102660000093034B002203F005FA03B05DF804FB6E
:102670000064000800B583B0418A0022009213462E
:1026800003F0F8F903B05DF804FB000000B583B077
:102690000022054B1A70418A0092134603F0EAF9B2
:1026A00003B05DF804FB00BF9C08002010B594B097
:1026B0000446D82200211D480EF0D0FA1C4B1A689F
:1026C00003F14E2303F58A0320339A421CD0194BA1
:1026D0001A6803F19E43A3F53B03A3F5AF539A4257
:1026E00018D0482202A9144803F0DBFA029A134BCF
:1026F0009A4215D0D82300930C4B0022618A2046C1
:1027000003F0B8F914B010BD4822094907480EF08B
:102710006AFBDCE74822074909480EF064FBE0E762
:10272000482202A907480EF05EFBE3E7E408002018
:102730000004000800680008000800902052455678
:102740002C0900207409002030B583B00546D0F86C
:1027500024140B784A7843EA02238A7843EA024336
:10276000CA7843EA02630C794A7944EA02248A79F6
:1027700044EA0244CA7944EA02641A19B2F5C43F31
:1027800009D30D220094D5F82434698A284603F031
:1027900071F903B030BD224603F1104003F081FA15
:1027A00008B10022EEE70E22ECE710B582B0044635
:1027B000D0F824341A78597842EA0122997842EA0A
:1027C0000142D97842EA01621979587941EA002137
:1027D000987941EA0041DB7941EA03615318B3F586
:1027E000C43F08D30D2200230093618A204603F0E2
:1027F00041F902B010BD02F1104003F0CDF908B16B
:102800000022F0E70C22EEE72DE9F0438BB00646FC
:10281000D0F8241491F800804B7848EA03288B788C
:1028200048EA0348CB7848EA03680F794B7947EACE
:1028300003278B7947EA0347CB7947EA036708EB1D
:102840000704B4F5C43F0BD34FF00D0900230093E8
:102850004A46718A304603F00DF90BB0BDE8F083AB
:102860003A46083108F1104003F0E8F980B31A4BFA
:102870001B782BB1194B1B68434501D8174B1C60C3
:102880000025A94605E04FF00E092544B9F1000FD7
:10289000DCD1BD42DAD27C1B202C28BF202405EBE2
:1028A0000800224602A900F1104003F0FAF90023C3
:1028B000A342EAD2D6F82424E9180831515C03F186
:1028C00028026A4412F8202C9142DCD10133EFE750
:1028D0004FF00E09BAE700BF9C08002098080020BE
:1028E0002DE9F043A9B00746142202A94FF0104089
:1028F00003F0D7F9029A224B9A4209D013220023FF
:102900000093798A384603F0B5F829B0BDE8F08322
:10291000DDF81080B8F5C43F2FD2039B03F11049B6
:102920000026ADF89E600BE004F1A0036B4413F8A1
:10293000841C0DF19E0000F05DFF0134A542F3D828
:10294000B0450ED9A8EB0605802D00D980252A4672
:1029500007A906EB090003F0A4F960B12E44002496
:10296000ECE70022002ACAD1BDF89E3005999942B1
:10297000C5D01122C3E71522F4E71422BFE700BF38
:102980002047415400B583B0418A0022009213468B
:1029900003F070F86420FEF76DFE022003F0B0FF34
:1029A00003F0AAFF03B05DF804FB000010B582B08D
:1029B00004460D4B00221A60C38A442B08D00D2216
:1029C00000230093618A204603F054F802B010BD42
:1029D0004422D0F8241405480EF005FA044B0122D5
:1029E0001A700022ECE700BF98080020A008002021
:1029F0009C08002010B582B00446012003F0DCFDE5
:102A0000022003F0D9FD3220FEF734FE012003F04E
:102A1000E3FD022003F0E0FD002200921346618AEC
:102A2000204603F027F802B010BD01207047704720
:102A300008B5438A102B3AD8DFE803F0090D39397D
:102A400039391115191D2125292D31393500FFF787
:102A5000F3FD01202CE0FFF729FE012028E0FFF71D
:102A6000FBFD012024E0FFF7A0FE012020E0FFF79E
:102A7000CBFE01201CE0FFF767FE012018E0FFF706
:102A80002FFF012014E0FFF77DFF012010E0FFF78A
:102A9000F1FD01200CE0FFF789FF012008E0FFF7BE
:102AA000F5FD012004E0FFF7A5FF012000E0002074
:102AB00008BD0120704710B500F08CFC03689847F2
:102AC00001282AD902282DD100F084FC43689847B8
:102AD000012805D000F0DAFFD0B901F02BFA21E08F
:102AE00004F006FD38B9002400F0D0FFA0420AD15E
:102AF00001F020FA16E004F01FFD012801D00024A7
:102B0000F2E70324F0E70021204600F0A7FFEFE7FB
:102B10000021084600F0A2FFDFE700F0B7FF18B978
:102B200001F008FA012010BD0021084600F096FFD0
:102B3000F6E7000008B54FF4E131002000F08EFF09
:102B4000024800F005F8012008BD00BFB32A0008C4
:102B5000064B1B680F2B07DC044A02EB830148601D
:102B6000013313600120704700207047C009002026
:102B700008B50146044B187800B908BD0122034886
:102B800000F0D1FDF9E700BF180A0020040A002078
:102B900008B5FEF773FD084B1B68C01AB0F5FA7F45
:102BA00001D2012008BDFEF769FD034B186000202B
:102BB00003F04EFDF5E700BF2C0A002010B582B0EF
:102BC00004F0C0F8041E0DDB00230093074B022223
:102BD0000A21204604F08AF8204604F0A1F80120DA
:102BE00002B010BD024803F047FEF8E7F52B0008DD
:102BF0002838010810B5404B1B78012B23D0022B3D
:102C000032D043B13D4B1B78012B53D0022B63D004
:102C1000002B38D010BD00F067FA036898470446CF
:102C200000F040FD03689847044314F0FF0FE9D01B
:102C3000314B01221A70022003F0BEFCFEF71EFD8C
:102C40002F4B1860DEE7FEF719FD2D4B1B68C01AED
:102C50003128D7D90220284B187003F0BDFCFEF7AD
:102C60000DFD274B1860CDE7FEF708FD244B1B68D0
:102C7000C01A3128C6D9204B00221A70FEF7FEFC7C
:102C80001F4B1860BEE700F02FFA436898470446D0
:102C900000F008FD43689847044314F0FF0FB9D0D3
:102CA0000120164B187003F087FCFEF7E7FC154B6C
:102CB0001860AFE7FEF7E2FC124B1B68C01A312820
:102CC000A8D90E4B02221A70012003F085FCFEF7F2
:102CD000D5FC0C4B18609DE7FEF7D0FC094B1B6838
:102CE000C01A312896D9054B00221A70FEF7C6FC8F
:102CF000044B18608EE700BF200A0020280A00203D
:102D00001C0A0020240A0020024B187800221A70A6
:102D1000704700BF3B0A0020024B187800221A704F
:102D2000704700BF3A0A002070B590B00F4B1C7876
:102D300014B9204610B070BD05460D4B1B788DF8B8
:102D400000300C4B1B788DF801300B4B1B68CDF815
:102D500002300A4B1B68CDF80630FFF719FC4668B5
:102D60000A236A4600212846B047E2E73C0A0020D1
:102D7000390A0020380A0020340A0020300A0020D6
:102D800030B5D7B000F026FB0368984702280CD076
:102D9000354B01221A70344B1B7883B9334B1B78A7
:102DA000002B56D1012057B030BD00F013FB436813
:102DB00098470128ECD12C4B00221A70EBE701F068
:102DC0006FFF002001F06CFE0028E7D003A900206F
:102DD00001F0F8FE264B01221A70FEF74FFC8DF829
:102DE0005800C0F307208DF859009DF854308DF835
:102DF0005A309DF853308DF85B309DF852308DF885
:102E00005C30039B8DF85D301A0A8DF85E201A0C39
:102E10008DF85F201B0E8DF86030BDF810C08DF866
:102E200061C000230A2407E003AA1A449079621CB7
:102E300016A908550133D4B29C45F5DCFFF7A8FB71
:102E40000568009416AB00224FF489710520A8474D
:102E5000A4E704F04DFB0028A4D1044B00221A7013
:102E6000044803F009FD9DE73D0A00203C0A0020CC
:102E70003A0A00205C38010870B50546074803F09F
:102E8000FBFC0024064B1C70FFF782FB46682346C0
:102E9000224621462846B047012070BD5C38010813
:102EA0003C0A002008B50349034801F005F9012058
:102EB00008BD00BFBD2E00087438010808B503889E
:102EC000012B13D143690D490020984770B10C4B79
:102ED0001B787BB10B490C4800F054FE0B4B1B7860
:102EE00053B108490A4800F04DFE02E0094800F0DD
:102EF00049FE08BD0849EEE70749F3E78C380108A9
:102F00003D0A00207C380108A43801083C0A002052
:102F1000B4380108943801088438010870B594B0B9
:102F20001B4B1D7815B9284614B070BD0446194BCB
:102F300001221A70D0F824144B79002663F3070697
:102F40008B7963F30F26CB7963F317460B7A63F320
:102F50001F660B79CA78897801A801F0B3FD0023B8
:102F60000AE0D4F8241403F10A02895C03F1500248
:102F70006A4402F8461C0133BDF808209A42F0DC8E
:102F800001960A2201A9002001F0AAFDCBE700BFAB
:102F90003C0A00203B0A00202DE9F04182B0174B8B
:102FA0001C781CB9204602B0BDE8F0810546D0F877
:102FB00024341878124A10705A78124E3270124F18
:102FC000D3F802203A60DFF84480D3F80630C8F81E
:102FD000003001F057FCD8F8003000933B6832789D
:102FE0000021084601F054FCFFF7D2FA466800239E
:102FF0001A4619462846B047D4E700BF3C0A0020CD
:10300000390A0020380A0020340A0020300A002043
:103010002DE9F04182B00446D0F824341D785E7862
:103020009F7893F80380234803F026FC2946224822
:1030300003F022FC3146214803F01EFC39462048AB
:1030400003F01AFC41461F4803F016FC002001F073
:10305000D5FB48BBCDF800803B46324629460020D0
:1030600001F052FC184B187010B31849184803F0BF
:1030700003FC184B187801F005FC174B1B680093F4
:10308000164B1B68164A12780021084601F000FC16
:10309000FFF77EFA456800231A4619462046A847DE
:1030A000012002B0BDE8F081002001F0B3FBD1E7C0
:1030B0000C49DBE7C4380108D8380108F0380108AA
:1030C00008390108203901083C0A00207C38010831
:1030D00038390108390A0020300A0020340A00205B
:1030E000380A00208438010800487047100000208A
:1030F000014B1878704700BF420A0020014B187836
:10310000704700BF410A002010B582B001213F483E
:1031100001F0C8F920BB04F0EBF93D4B1B7883426A
:1031200035D13C4B1B78012B3FD0022B4BD0002BD1
:1031300037D0384B1B78384A1278934258D1374BE6
:103140001B78374A1278934259D1324B1A78324B56
:103150001A70324B1A78324B1A70012002B010BD2F
:103160002C4C237801332F4981FB032101EB4101D2
:10317000591AC9B22170002002F0A8FC00238DF872
:103180000030237801936846FFF7F2FCC3E7204B39
:10319000187001238DF8003001906846FFF7E8FCB5
:1031A000BFE71E4B00221A70C3E7032003F06CFF39
:1031B000B0F5167F03D0194B01221A70B9E7174BEF
:1031C00000221A70B5E704F093F918B9134B0022E6
:1031D0001A70AEE7032003F057FFB0F5E13F03D0CC
:1031E0000E4B00221A70A4E70C4B01221A70A0E7C4
:1031F0000D4A52F823100D4803F03EFB9FE70C4A9E
:1032000052F823100B4803F037FB9EE7440A0020D6
:103210003E0A0020420A0020400A0020410A002005
:103220003F0A002056555555843A0108AC3901082B
:103230007C3A0108BC39010870B586B000248DF8CD
:1032400017400DF11701204602F020FC9DF81730C1
:10325000022B28BF0223254A1370254B1C70052121
:10326000244801F0CFF803F06DFD041E3ADB002383
:103270000093214B02220A21204603F037FD20460D
:1032800003F04EFD00238DF80C30184C2378049386
:1032900003A8FFF76DFC04F02BF9184B18700125FB
:1032A0008DF80C50049003A8FFF762FC2278144BB1
:1032B00053F82210134803F0DFFA0D4E3278124B08
:1032C00053F82210114803F0D7FA2278104B1A70E5
:1032D0003278104B1A701049104800F0EDFE284665
:1032E00006B070BD0E4803F0C7FACBE7420A0020D3
:1032F000410A0020440A0020953300083E0A0020BD
:10330000843A0108AC3901087C3A0108BC3901084B
:10331000400A00203F0A002025330008FC3901083C
:10332000CC39010800B583B00346124A92E8030085
:1033300000908DF804101A88012A04D15B6969464F
:103340000020984728B90C4800F01CFC03B05DF839
:1033500004FB0A4B1A780A4B53F82210094800F074
:1033600011FC094B1A78094B53F82210084800F059
:1033700009FCEBE78C3801081C3A0108420A0020DE
:10338000843A0108043A0108410A00207C3A010805
:10339000103A010808B50E4B1B78012B0AD0022BFE
:1033A0000FD003B108BD002003F006F9012003F09F
:1033B00013F9F7E7002003F00FF9012003F0FCF800
:1033C000F0E7002003F008F9012003F005F9E9E730
:1033D000420A002000487047180000200120704772
:1033E000024B187800221A70704700BF510A002063
:1033F000024B187800221A70704700BF520A002052
:1034000030B5C1B0032003F03FFE0446012003F0B5
:103410003BFE84420BD1032003F090FDFF2815D919
:103420004FF48075234B01221A7000241AE0032008
:1034300003F02AFE0146012003F0C6FC012003F040
:1034400023FE01461C4803F017FAE4E7032003F0CB
:1034500075FD054668B1E5E7032003F08FFD0DF823
:1034600004000134AC42F7D32A466946012003F038
:10347000C7FD012003F062FDFF2806D94FF48075D7
:103480000E4B01221A7000240BE0012003F056FDC0
:10349000054668B1F4E7012003F070FD0DF8040063
:1034A0000134AC42F7D32A466946032003F0A8FD55
:1034B00041B030BD510A0020903A0108520A002064
:1034C00010B50124044B1C70C28AD0F82414204685
:1034D00003F096FD204610BD510A00201E4B1B78BC
:1034E00003B9704730B5C3B0012003F0CDFD1B4BCD
:1034F000196888420BD1012003F020FDFF2811D963
:103500004FF48075164B01221A70002416E001203A
:1035100003F05AFC012003F0B7FD0146114803F007
:10352000ABF9E8E7012003F009FD054690B1E9E7B2
:10353000012003F023FD02AB18550134AC42F7D350
:10354000FFF726F80468009502AB00224FF4817162
:103550000620A04743B030BD500A002028000020BC
:10356000520A0020903A010808B5FFF733FF0368BC
:10357000984702280ED0134B01221A70114B1B786A
:10358000C3B1FFF727FF4368984701280CD0FFF726
:10359000A5FF14E0FFF71EFF436898470128EAD112
:1035A000084B00221A70E9E7FFF72AFF07E0012025
:1035B00003F0E4FC012003F0C1FC0028F7D1012056
:1035C00008BD00BF530A002070B50546074803F048
:1035D00053F90024064B1C70FEF7DAFF46682346B9
:1035E000224621462846B047012070BDA43A010872
:1035F000500A002070B50446D0F824341E680B48E9
:1036000003F03AF931460A4803F036F90125094B2F
:103610001D70094B1E60FEF7BBFF466800231A466B
:1036200019462046B047284670BD00BFBC3A010885
:10363000D43A0108500A00202800002008B50448A8
:10364000FFF786FA0349044800F036FD012008BD63
:10365000DD3300085D360008E43A010808B5038848
:10366000012B0CD1436909490020984738B1084B18
:103670001B7843B10749084800F084FA02E0074884
:1036800000F080FA08BD0649F5E700BF8C38010854
:10369000530A00207C380108F83A0108EC3A010886
:1036A0008438010800487047200000200D488546F6
:1036B000FEF730F90C480D490D4A002302E0D458BA
:1036C000C4500433C4188C42F9D30A4A0A4C00236C
:1036D00001E013600432A242FBD30DF055FBFEF76C
:1036E00035FEFEE70078002000000020AC0300203B
:1036F00008520108AC030020984F0020FEE7034663
:103700000020186058609A600120D86019617047E5
:1037100010B40024046044608360C2600161012031
:103720005DF8044B7047F0B500270CE00CEB030587
:1037300011F803E006F805E00133C5689D42F5D8AD
:10374000294404600137974213D205686B1C8468D2
:10375000B3FBF4F604FB16344368A3420BD00669AE
:10376000002EEED00029ECD0C36803FB05FC00233B
:10377000E3E70120F0BD0020FCE770B50C461646DB
:10378000002516E001EB0E0C1CF803C004F803C082
:103790000133C2689A42F5D81444436802689342E0
:1037A00016D001338268B3FBF2F102FB11334360A0
:1037B0000135B5420AD201690029EED0002CECD0C7
:1037C0004368C26802FB03FE0023E2E7012070BDEC
:1037D0000020FCE703690268C06800FB0230704704
:1037E000036842689B1A8268B3FBF2F002FB103058
:1037F00070470000028881EA1221034B33F8113030
:1038000083EA0223038070473C3B0108002380F8D1
:10381000F23380F8F1333F2280F8F02380F8B033A0
:10382000704738B5054690F8964104EB441004EB18
:1038300040002844432205F56C7100F5CC700DF072
:10384000D2FA95F89731072B02D8013385F89731D2
:1038500085F895410134634204F0070403F007033F
:1038600058BF5C4285F89641012385F8943138BDF4
:10387000002303E08CF8002001339BB20F2B0BD800
:1038800000EB030CC25C3AB1A2F16101C9B2192983
:10389000F0D8203AD2B2EDE7102B00D07047013BB0
:1038A0000022C254FAE70000064BB3F8783698427B
:1038B00005D2044BD3F87C3653F820007047002023
:1038C000704700BF540A002008B50346094AB2F801
:1038D000782690420AD20846064AD2F87C2652F848
:1038E0002310FCF7ADFF18B1002000E0002008BD58
:1038F0000120FCE7540A002008B5084BB3F87836DD
:10390000984202D39FED060A08BD044BD3F87C36DB
:10391000002153F820000CF0FBFAF5E7540A0020D0
:103920000000000008B5084BB3F87836984201D380
:10393000002008BD044BD3F87C360022114653F812
:1039400020000CF0B7FBF4E7540A002010B5044641
:103950000449007803F080FB0349207803F07CFBE6
:1039600010BD00BF3C3D0108403D010838B590F84E
:10397000973143B304460D4690F8F12322BB94F8E7
:10398000F22332BB012D29D094F99511013194F81D
:10399000973191FBF3F203FB121184F89511C9B230
:1039A00001EB411301EB43012144432201F5CC71AA
:1039B00004F56C700DF017FA94F8F23384F8F133D3
:1039C000002384F8943138BD0F49007803F044FB9C
:1039D000D5E70E49207803F03FFBD3E794F8943104
:1039E0001BB194F9963184F8953194F9951194F8B6
:1039F00097311944013991FBF3F203FB121184F85A
:103A00009511C9B2CCE700BF483D0108503D0108FF
:103A100070B582B006460024A0F8124100F58A7500
:103A2000C0F8144101AA0C4900F56C700DF058F96A
:103A3000234609E05C1CA4B245F8230001AA06490C
:103A400000200DF04DF923460028F3D1A6F81231DD
:103A500003B1012002B070BD583D01080A4B187037
:103A60001B7A1BB1084B5B688B4200D011B9064B27
:103A7000187A704710B5044C616003F0A5F9207204
:103A8000014B187A10BD00BF540A0020014B187872
:103A9000704700BF540A002038B5234B5B7A03B946
:103AA00038BD054690F8F1232049807A03F0D4FA16
:103AB00095F8F2231E49A87A03F0CEFA95F8F02380
:103AC0001C49A87A03F0C8FA05F56C721A49A87A5D
:103AD00003F0C2FA95F995211849A87A03F0BCFAC7
:103AE00095F896211649A87A03F0B6FA95F8972129
:103AF0001449A87A03F0B0FA00240CE004EB441354
:103B000004EB430303F5CC732B4422460E49A87AF9
:103B100003F0A2FA013495F89731A342EEDC0B4989
:103B2000A87A03F099FABBE7540A0020603D010827
:103B3000703D0108803D0108903D0108A03D01084D
:103B4000B03D0108C03D0108D03D010878420108A0
:103B500008B5024B187803F0F1F908BD540A0020AB
:103B600008B5024B187803F009FA08BD540A002082
:103B700008B50A460146024B187803F041FA08BD21
:103B8000540A00200FB410B582B004AB53F8042BD4
:103B90000193084C4FF4807120460DF051F8024615
:103BA000214614F8110C03F02BFA02B0BDE81040C6
:103BB00004B07047650A002038B50546FFF728FFB6
:103BC00008B9002038BD1648FFF7DCFFD5F814010E
:103BD000FFF74EFE0024B5F8F433A342F1DD04EB09
:103BE0008401890001F57E712944D5F81401FCF7A0
:103BF00027FE08B10134EEE7B5F81231013BA5F814
:103C0000783605F58C73C5F87C3604EB840405EB37
:103C10008404D4F8083405F5CF609847D1E700BF95
:103C20000C4B010830B585B004468DF80710037CB5
:103C3000ABB9CBB21B2B30D01CD8082B4BD00D2BE3
:103C400040F0848090F8F2330BBB002384F8F23309
:103C500084F8F13384F8B0332046FFF777FE237CF5
:103C6000013B032B00F2C880DFE813F0C400CC0056
:103C7000CF0056017F2B69D190F8F1C390F8F2E3A1
:103C8000F445ECD2AEEB0C05EDB2012212E0FFF7E9
:103C9000C8FD2046FFF790FFD7E701230374DEE756
:103CA0000CEB0203591E234493F8B003631883F806
:103CB000B00301329542F3DC0EF1FF3E5FFA8EFE57
:103CC00084F8F2E3A64400238EF8B03394492078B8
:103CD00003F0C2F9C3E790F8F2335BB390F8F10355
:103CE00040B3834209D094F8F2C3604522D2ACEBD2
:103CF000000E5FFA8EFE002211E0013BDBB284F879
:103D0000F2332344002283F8B023ECE78318591ED2
:103D1000234493F8B053631883F8B05301329645A7
:103D2000F4DC0CF1FF33DBB284F8F23323440022DD
:103D300083F8B02394F8F133002B90D0013B84F842
:103D4000F1337849207803F087F988E794F8F23363
:103D5000591C94F8F023914281DA94F8F1239342AC
:103D600016D094F8F1C394F8F2038445BFF477AF0A
:103D7000A0EB0C05EDB20022954224DD831A591EFA
:103D8000214491F8B013234483F8B0130132F3E7D0
:103D900001220DF10701207803F032F994F8F123A4
:103DA000A3189DF8071083F8B01394F8F233013389
:103DB000DBB284F8F233013284F8F1232344002289
:103DC00083F8B023CDE79DF8072004EB0C0383F8BC
:103DD000B0230130C0B284F8F2030CF1010C84F876
:103DE000F1C32044002380F8B0334F49207803F01A
:103DF00033F934E7022323742046FFF74DFE0020F9
:103E000005B030BD03232374F6E7002323749DF827
:103E10000730442B26D09DF80730432B37D09DF830
:103E20000730412B4AD09DF80730422B50D09DF8E7
:103E30000730312B56D09DF80730342BDCD194F865
:103E4000F13394F8F223934258D394F8F12394F881
:103E5000F2339A4259D894F8F23384F8F1330423B8
:103E60002374C9E794F8F123002AD4D0013A84F8E6
:103E7000F1231B228DF808205B228DF809208DF894
:103E80000A30032202A9207803F0BAF8C3E794F8B5
:103E9000F12394F8F2138A42C1D2013284F8F1235B
:103EA0001B228DF808205B228DF809208DF80A303E
:103EB000032202A9207803F0A3F8B0E701212046ED
:103EC000FFF754FD04F56C71207803F0C5F8AAE7FC
:103ED00000212046FFF74AFD04F56C71207803F0BD
:103EE000BBF8A4E794F8F1231049207803F0B4F864
:103EF000002384F8F133042323749CE7D21A92B28E
:103F00000B49207803F0A8F89FE7D21A92B207492C
:103F1000207803F0A1F89EE7002323746CE700BF2C
:103F2000E03D0108E83D0108F03D0108483D010879
:103F3000FC3D010838B5094B1C7A0CB9204638BD48
:103F4000187802F0FBFF0028F8D0044D287803F021
:103F500015F801462846FFF765FEEFE7540A0020F2
:103F600010B50F48FFF70EFE0E48FFF70BFE0024BA
:103F70000CE004EB8403980000F57E700A4B1844B3
:103F8000FFF700FE0648FFF7FDFD0134064BB3F8CE
:103F9000F433A342EDDC0548FFF7F4FD10BD00BF8C
:103FA0000C4B0108043E0108540A0020283E010879
:103FB0002DE9F04383B00388446873B1012B12D814
:103FC00010270022114620680CF074F806462C4891
:103FD000FFF7D8FDB04600241BE02A48FFF7D2FDCA
:103FE00003B0BDE8F0830022114660680CF062F86F
:103FF0000746E6E731682448FFF7C4FD624204F053
:10400000030302F0030258BF5342032B0BD00436C4
:104010000134BC42E4DA14F0030FEBD131461B4803
:10402000FFF7B0FDE6E71A48FFF7ACFD4FF00009D7
:1040300017E01848FFF7A6FD0135032D0DDC05F14B
:1040400008036B4413F8041CA1F12003DBB25E2BC0
:10405000EFD81148FFF796FDEEE708F1040809F1E3
:104060000109B9F1030F04DCD8F8003001930025F1
:10407000E3E70A48FFF786FD0120FDF7FBFAC6E7F4
:10408000643E01084C3E0108783E01086C3E010880
:10409000803E0108883E0108843E01088C3E0108EC
:1040A00008B5044B187802F049FF08B9012008BD93
:1040B0000020FCE7540A00202DE9F041114BB3F831
:1040C000F4531F2D02D90020BDE8F0810E46AF0049
:1040D00005EB8504A40004F57E7498461C44014653
:1040E00020460CF078FE2F4408EB8707C7F80864D9
:1040F0002046FFF7BDFBB8F8F4330133A8F8F433DA
:104100000120E1E7540A002008B512480023037299
:104110004372037480F8953180F8963180F89731B6
:1041200080F894310C4BC0F880360C4BC0F88436C4
:104130000B4BC0F888360B4BC0F88C36FFF766FB8C
:1041400009490A48FFF7B8FF09490A48FFF7B4FFD1
:10415000012008BD540A002025390008F93800085C
:10416000A9380008C9380008613F0008943E0108DA
:10417000B13F00089C3E0108022801D90020704789
:1041800070B504460A4D460000EB400305EB830280
:10419000918855F8230005F085FB264405EB86053C
:1041A0002B7A984201D0002070BD0120FCE700BFAF
:1041B000BC3F010838B500242EE02C2303FB042566
:1041C00001236B70FDF75AFA6860002203E0234474
:1041D0000021D97001324C4B1B8893422ADD4B4B96
:1041E00053F8223059780529F1D823440121D97098
:1041F000F0E7012932D0464A2C2000FB0422926AC3
:10420000934231D2FDF73AFA414B2C2202FB0433A0
:10421000986000221A730134022C73DCE0B2FFF7BD
:10422000ABFF00283DD02C2304FB03F3384AD35CBA
:10423000002BC2D036492C2304FB03F3CA180120FB
:10424000C854538803449BB25380D1690029D0D10C
:104250002F4A2C2000FB0422126AD1E72C4A2C2082
:1042600000FB0422526ACBE7294B2C2202FB0433C9
:1042700000225A800131D9610121197603E02344DB
:10428000002159720132204B1B889342BADD1F4B2B
:1042900053F8223059780529F1D823440121597265
:1042A000F0E72C2304FB03F3194AD35C73B91849D4
:1042B0002C2304FB03F3CD180022CA5401232B73D3
:1042C000EA612A76FDF7DAF96861A4E72C2303FB9B
:1042D000042501236B73FDF7D1F92861002203E067
:1042E0002344002199710132074B1B889342DEDD84
:1042F000064B53F8223059780529F1D8234401217F
:104300009971F0E738BD00BF04110020E4100020CF
:104310000811002010B58AB0002405940694079473
:10432000089409942F4BDA6C42F00202DA64DA6CDA
:1043300002F002020392039ADA6C42F00402DA6499
:10434000DB6C03F004030493049B012307930CE04C
:10435000254B04EB440203EB82014968059105A952
:1043600053F8220005F026F90134022CF0DD00207C
:1043700012E01E4C2C2100FB01F1631800225A8030
:1043800062541A735A73DA613C211962FA21596234
:10439000C82199621A7601300228EADD002304E080
:1043A000134A002142F823100133072BF8DD02F0F5
:1043B000C9FC041E11DB002300930E4B02220A21CC
:1043C000204602F093FC204602F0AAFC0A490B4862
:1043D000FFF772FE01200AB010BD094802F04CFA46
:1043E000F4E700BF00100240BC3F010808110020A4
:1043F000E4100020B541000885450008D03E0108C2
:10440000A03E01080A4B1B88072B01D900207047EA
:104410000022026042608260064A42F82300417036
:1044200083700133024A13800123037018467047DA
:1044300004110020E41000200346022808D8054A91
:10444000107830B12C2202FB03F3034AD05C704792
:10445000002070472C00002008110020032828BFEE
:104460000320024B53F82000704700BFAC3F010807
:1044700002280ED8094B1B786BB182B0084B2C2256
:1044800002FB00339A685B68D31A0193019802B06B
:104490007047002070470020704700BF2C000020AC
:1044A00008110020034602290DD8084A107858B197
:1044B000187848B19A78064B53F822300B44D878D4
:1044C0000022DA7070470020704700BF2C000020E7
:1044D000E410002084B004AB03E90700134A9042C3
:1044E00019D00EDCA2F50062904216D002F580626F
:1044F000904201D10E480CE0B0F1904F0FD10D4821
:1045000007E00D4A90420CD002F5806290420AD139
:104510000A4804B070470A48FBE70A48F9E70A4826
:10452000F7E70A48F5E70848F3E700BF000C004842
:10453000E83E0108D83E010800100048003F01088D
:10454000F03E0108E03E0108083F0108F83E01087E
:1045500010B590B004464022002168460CF07EFB66
:10456000002022466408A2EB440210A901EB80035C
:10457000013043F8402C002CF3D10138C0B210B008
:1045800010BD00002DE9F04105460388012B0AD03B
:1045900000272B88012B2ED02B88012B49D0002FF0
:1045A00072D0BDE8F08143693D4900209847074635
:1045B0000028EED000261BE0F0B2FFF74FFF0146C7
:1045C0003848FFF7DFFA06EB4603374C04EB830469
:1045D00094E80700FFF77EFF01463448FFF7D2FA60
:1045E0006068FFF7B5FF01463148FFF7CBFA0136A7
:1045F000022EE1DDCDE76B692E4900209847064683
:1046000080B9C9E7E0B2FFF717FF01462A48FFF774
:10461000B9FA0134022CF5DD3220FDF72BF82748DA
:10462000FFF7B0FAFFF73CFD08B10024F2E7374688
:10463000B2E76B6922490020984780460028AED037
:10464000AB680120984718E00134022C12DCE5B277
:104650002846FFF7F1FE0028F6D02846FFF7FEFEB9
:1046600006462846FFF704FF024631461548FFF785
:1046700089FAE9E70A20FCF7FDFFFFF711FD08B111
:104680000024E2E747468AE70F48FFF77BFA0F4826
:10469000FFF778FA03210E48FFF774FA81E700BFAD
:1046A0008C380108183F0108BC3F0108203F010871
:1046B000243F01082C3F0108343F0108383F01081E
:1046C0003C3F0108443F01085C3F01086C3F010882
:1046D0007C3F010810B58CB004464FF4236004FB06
:1046E00000F030302B4B184401A9043004F04EFB8D
:1046F000049B7BB3274B4FF4236202FB04335A68BD
:1047000042F001025A600221059B73B3214B4FF422
:10471000236202FB04335A6842F002025A6003210A
:10472000069B63B31B4B4FF4236202FB04335A68AE
:1047300042F004025A600421164B4FF4236202FB3C
:104740000433D3F898301BB111B1002220469847AA
:104750000CB010BD0F4B4FF4236202FB04335A68B8
:1047600022F001025A600021CEE70A4B4FF4236287
:1047700002FB04335A6822F002025A60D0E7054B6C
:104780004FF4236202FB04335A6822F004025A6099
:10479000D2E700BF9411002010B5002444B11348A3
:1047A00002F06AF812491348FFF786FC012010BD99
:1047B00011494FF4236004FB00F00B1801220A5446
:1047C00000225A705A601A72DA601A615A619A614C
:1047D000DA6100F1B00C9830084420234C22614487
:1047E0000430FEF795FF0134E4B2D7E7E03F01085B
:1047F0000D500008A83901089411002030B9044B6D
:104800004FF4236101FB0033587870470020704754
:104810009411002088B908B5084A4FF4236101FBC0
:104820000022527802B908BD01FB00F03030034B82
:104830001844043004F0BDF9F5E7704794110020E6
:104840003F2810D82F2810D81F2810D8172810D884
:10485000132810D80F2810D80B2810D8072800D8F4
:104860007047082070470F2070470E2070470D20BA
:1048700070470C2070470B2070470A2070470920B2
:10488000EEE70000014B1870012070478C110020EA
:10489000002831D100B587B084461ABB0092184A6F
:1048A0004FF4236000FB0C22126A402A1ED0022221
:1048B00003920191134A1278DAB902220292049308
:1048C000089B05934FF4236303FB0CF030300C4B33
:1048D00018446946043004F099F878B1002007B014
:1048E0005DF804FB4FF080420092D8E7012203926A
:1048F000DFE700220292E2E7002070470120EEE7A6
:10490000941100208C1100202DE9F04182B09DF817
:1049100020E018B1002002B0BDE8F08105464FF458
:10492000236005FB00F000F13004564E344404349B
:1049300006EB000C5448CCF834000026CCF8386064
:10494000524850F82200CCF83C00514850F8210061
:10495000CCF840008CF8446001208CF845008CF8BD
:1049600046004FEA03184B48006800EB031750F865
:104970000800CCF848007868CCF84C00B868CCF84F
:104980005000F868CCF854004FEA0E18424800680E
:1049900000EB0E1750F80800CCF858007868CCF8F7
:1049A0005C00B868CCF86000F868CCF864001C20A3
:1049B000CCF868000820CCF86C00CCF870608CF85B
:1049C00028108CF829208CF82A308CF82BE0402312
:1049D000CCF82030314BCCF82430CCF804602046A1
:1049E00003F02AFF08B1002095E73046FFF74AFFA1
:1049F00000963346324631462846FFF749FF009677
:104A00003346012231462846FFF742FF00963346DF
:104A100002221146204604F02CF808B100207AE763
:104A2000184B4FF4236202FB05333246596A204685
:104A300004F0E6F908B100206DE7124B4FF4236251
:104A400002FB0533996D1B6E324603FB01F12046D4
:104A500004F030F808B100205DE7204604F03BF890
:104A600008B1002057E7204604F047F838B9054B55
:104A70004FF4236202FB0533012058704BE70020FE
:104A800049E700BF94110020006400404C45010834
:104A900040450108340000203000002007000E00CF
:104AA000012801D90020704708B54FF4236303FBA8
:104AB00000F09830024B18440430FEF791FE08BD18
:104AC0009411002080F8481080F8472080F8463084
:104AD000024A52F82330838001207047984501082C
:104AE000012863D8F0B58BB00D461646334B4FF412
:104AF000236202FB00335B6813F0040F58D113F0FC
:104B0000010F58D102FB00F430342C4B1C44043408
:104B100091F84730DBB1012B1CD095F84830012BC0
:104B20001FD0022B23D0CBB12B6801930023099314
:104B300008930593039395F84620214B53F82230B0
:104B40000493204604F056F9C0B9002031E0002358
:104B50000293E2E74FF080430293DEE70793069368
:104B6000E2E74FF40013079300230693DCE74FF4CA
:104B7000001307934FF480130693D5E7FCF77EFDEF
:104B80000746AA1D01A9204604F027F808B1002015
:104B90000FE0204604F02EF930B9FCF76FFDC01B82
:104BA000B042F6D3002004E0012002E0002070476C
:104BB00000200BB0F0BD0020FBE700BF94110020E7
:104BC00058450108012801D90020704708B54FF465
:104BD000236303FB00F09830034B18440122043098
:104BE000FEF7CBFD08BD00BF94110020012801D9BC
:104BF0000020704700B585B04FF4236303FB00F03D
:104C00003030074B18446946043004F0E4F820B90A
:104C1000BDF8040005B05DF804FB0020FAE700BF12
:104C200094110020012801D90020704700B585B0FB
:104C30004FF4236303FB00F03030074B1844694600
:104C4000043004F0C8F820B9BDF8000005B05DF8E4
:104C500004FB0020FAE700BF9411002001281BD8B4
:104C600038B50E4B4FF4236202FB00335B7803B977
:104C700038BD0A4C02FB00F0251800226A60303073
:104C800004440434204603F04FFF204603F035FF70
:104C9000EB680133EB60EBE7704700BF9411002035
:104CA00010B50024204609E0174B4FF4236202FBA5
:104CB00004331B7A2BB1012B17D00134002CF3DD08
:104CC00010BD114B4FF4236202FB04335B6813F0F9
:104CD000040FF2D0E0B2FFF7C1FF0B4B4FF4236299
:104CE00002FB043301201872E7E7074B4FF42362FD
:104CF00002FB04335B6813F0040FDED1024B02FBAE
:104D0000043300221A72D8E7941100202DE9F043F1
:104D10008BB0804689464FF4236707FB00F707F105
:104D20009805344E354404352846FEF753FD0446B5
:104D30003E44831D6A46316A484603F077FF0028E7
:104D40003DD1019B002B3DD1009B2360002384F8C3
:104D50004730039B03F00F03274A52F82300A0803B
:104D6000C0B2FFF76DFD84F84600069BB3F5001F47
:104D70002ED0002384F848301E4B4FF4236202FBF0
:104D80000833DA6A0132DA62012200212846FEF78E
:104D9000CAFC38B9174B4FF4236202FB08331A6977
:104DA00001321A61134B4FF4236202FB0833D3F82C
:104DB000983023B12246012140469847A0B90BB054
:104DC000BDE8F083009B2360012384F84730C0E7EF
:104DD000059BB3F5801F03D0012384F84830CBE74F
:104DE000022384F84830C7E7012200212846FEF755
:104DF000C4FCE4E7941100209845010801281CD860
:104E000010B50E4B4FF4236202FB00335C6814F0C4
:104E1000010F06D114F0020F07D114F0040F08D1CE
:104E200010BD074801F028FDF4E7064801F024FD15
:104E3000F3E7054801F020FDF2E7704794110020E8
:104E4000F43F0108104001082C40010810B5044649
:104E50005548FEF797FEFCB1012C21D05348FEF7D0
:104E600091FE534B4FF4236202FB04335B78DBB1BA
:104E70005048FEF787FE5048FEF784FE4C4B4FF437
:104E8000236202FB043393F82A30042B13D8DFE8A3
:104E900003F00F24282C30004848FEF773FEDDE7AE
:104EA0004748FEF76FFED9E74648FEF76BFEE2E79C
:104EB0004548FEF767FE4548FEF764FE3C4B4FF45D
:104EC000236202FB043393F82B30072B18D8DFE85A
:104ED00003F014363A3E42464A4E3D48FEF752FE33
:104EE000E9E73C48FEF74EFEE5E73B48FEF74AFEA1
:104EF000E1E73A48FEF746FEDDE73348FEF742FEBB
:104F00003748FEF73FFE2A4B4FF4236202FB04337F
:104F100093F82830012B32D0022B34D05BB33148C8
:104F2000FEF730FE224B4FF4236202FB043393F86A
:104F30002930012B2FD0022B31D043B310BD244890
:104F4000FEF720FEDCE72348FEF71CFED8E72148E9
:104F5000FEF718FED4E72148FEF714FED0E72248FA
:104F6000FEF710FECCE72148FEF70CFEC8E720480C
:104F7000FEF708FEC4E71F48FEF704FECFE71E4811
:104F8000FEF700FECBE71D48FEF7FCFDC7E71C4817
:104F9000FEF7F8FDD2E71B48FEF7F4FDCEE71A480E
:104FA000FEF7F0FDCAE700BF484001087440010861
:104FB0009411002088400108984001085C400108D5
:104FC000684001089040010888420108BC4001087F
:104FD0009C420108AC400108B4400108D8420108D5
:104FE000D0400108F0400108EC42010800430108EC
:104FF00014430108F44101080C420108E44001088F
:105000003C42010854420108044101082DE9F04FD7
:105010009DB004460388012B19D000252388012B5D
:1050200063D02388022B00F097802388062B00F0A2
:10503000B6802388022B00F03C812388032B00F0EC
:10504000E081002D00F020831DB0BDE8F08F4369A2
:10505000A4490020984705460028DFD0002607E035
:105060003146A148FEF78EFDA048FEF78BFD0136C4
:10507000002ED3DC9E4B4FF4236202FB06335B7899
:10508000002BEDD05FFA86F84046FFF7DFFE984F21
:105090004FF4236303FB067779789648FEF772FD99
:1050A00039699548FEF76EFD79699448FEF76AFD07
:1050B000B9699348FEF766FDF9699248FEF762FD0B
:1050C0004046FFF793FD01468F48FEF75BFD4046E3
:1050D000FFF7A8FD01468D48FEF754FD4046FFF757
:1050E0008DFE8248FEF74EFDC1E7636988490020C6
:1050F00098470646002894D000218648FEF742FDD6
:105100008548FEF73FFD8548FEF73CFD8448FEF7E5
:1051100039FD8448FEF736FD8348FEF733FD8348AA
:10512000FEF730FD8248FEF72DFD8248FEF72AFD8E
:105130008148FEF727FD8148FEF724FD8048FEF7F1
:1051400021FD8048FEF71EFD7F48FEF71BFD7F48CE
:10515000FEF718FD354664E763696D4900209847FE
:1051600000283FF462AF63697949012098470646F9
:1051700000283FF45AAF072300930423022211466C
:105180000020FFF7C1FB40B172497348FEF7FAFCFB
:105190000020FFF75BFE354647E77049F5E7636996
:1051A0005B4900209847804600283FF442AF6C4D91
:1051B00003AB95E8070083E8070006AB05F10C0296
:1051C00007CA83E8070009AE18350FCD0FC695E86A
:1051D0000F0086E80F00A3680120984700280DDB28
:1051E000A36801209847002802DD4FF0000907E07E
:1051F000A368012098475FFA80F901E04FF00009A9
:105200000026022E0CDC63691CAA02EB860252F80F
:10521000641C0220984708B90136F2E7F6B200E0B4
:1052200000260027022F0CDC63691CAA02EB870210
:1052300052F8581C0320984708B90137F2E7FFB22B
:1052400000E000274FF0000ABAF1070F0EDC636997
:105250001CAA02EB8A0252F84C1C0420984710B991
:105260000AF1010AF0E75FFA8AFA01E04FF0040A56
:105270000025072D0CDC63691CAA02EB850252F89D
:105280004C1C0520984708B90135F2E7EDB200E063
:105290000425009553463A4631464846FFF734FB0D
:1052A00028B12C492C48FEF76DFC4546C1E62B4938
:1052B000F8E763692B4900209847074600283FF428
:1052C000BCAEA3680120984700284DDBA3680120ED
:1052D0009847002801DD002647E0A3680120984791
:1052E000C6B242E08C380108BC410108784201088E
:1052F00094110020144101082C4101084441010887
:105300005C410108744101088C410108A441010875
:10531000CC410108D4410108E841010800420108DC
:1053200018420108344201084C4201086442010855
:105330007C42010890420108A4420108B8420108D9
:10534000CC420108E0420108F44201080843010888
:105350001C4301087C3801082443010884380108F3
:10536000883701083843010800264FF00008FEF78F
:1053700097FE002843D03046FFF792FB0028F6D076
:1053800009A93046FFF71EFCAD4AA2FB083292097C
:105390004FF47A7303FB128202F101083146A948E7
:1053A000FEF7F0FB9DF86C3083B1A748FEF7EAFBEF
:1053B0009DF86B3073B9A548FEF7E4FBBDF82820D3
:1053C0000999A348FEF7DEFB002510E0A148FEF78F
:1053D000D9FBEDE7A048FEF7D5FBEFE705F1700339
:1053E0006B4413F8461C9D48FEF7CCFB0135BDF815
:1053F0002830AB42F2DC9A48FEF7C4FBB7E73D46E3
:105400001BE66369974900209847814600283FF4CE
:1054100018AEA3680120984700280BDBA368012081
:105420009847002801DD002505E0A3680120984782
:10543000C5B200E0002563698B490220984748B156
:105440004FF0000A894B5F68FCF718F90646002404
:10545000A0468DE04FF0020AF4E7FCF70FF906468C
:105460008DF86CA001238DF86B3008238DF86A301D
:105470004FF445720992ADF82830002306E019195F
:1054800003F170026A4402F8461C0133072BF6D977
:105490000A2209A92846FFF723FB20BB2846FFF76D
:1054A000A5FB18B92846FFF7BDFB60B12846FFF7FA
:1054B0009DFB83462846FFF7B5FB03465A4629461F
:1054C0006B48FEF75FFB6B4B1B68002B59D0DFF876
:1054D000A4B1DBF8002029466748FEF753FB002300
:1054E000CBF800304DE0564AA2FB083292094FF447
:1054F0007A7303FB128202F1010829465F48FEF726
:1055000041FB9DF86C308BB14F48FEF73BFB9DF89B
:105510006B307BB94D48FEF735FBBDF82820099963
:105520004B48FEF72FFB4FF0000B11E04948FEF708
:1055300029FBECE74848FEF725FBEEE70BF170038B
:105540006B4413F8461C4548FEF71CFB0BF1010B9E
:10555000BDF828305B45F1DC4148FEF713FB013410
:105560009CE7FFF79DFB18BB2846FFF799FA20BB85
:10557000FEF796FD002861D0FCF780F8B0427FF47A
:105580006CAFAB46394B4FF4236202FB05335A68CC
:10559000BA42E6D029463A48FEF7F4FA2846FFF721
:1055A0002DFC324B4FF4236202FB05335F68D8E7D2
:1055B00059463448FEF7E6FAD6E709A92846FFF728
:1055C00001FB1F4AA2FB083292094FF47A7303FBD6
:1055D000128202F1010859461A48FEF7D3FA9DF8E3
:1055E0006C308BB11848FEF7CDFA9DF86B307BB963
:1055F0001648FEF7C7FABDF8282009991448FEF7A7
:10560000C1FA4FF0000B11E01248FEF7BBFAECE7CD
:105610001148FEF7B7FAEEE70BF170036B4413F88D
:10562000461C0E48FEF7AEFA0BF1010BBDF8283010
:105630005B45F1DC0A48FEF7A5FA99E74D4600E51F
:10564000D34D6210444301085C43010864430108E0
:1056500074430108604301086C4301088843010852
:105660007842010890430108A839010894110020EC
:10567000B443010890110020CC4301089C43010869
:10568000E0430108F84301080A48FEF77BFA0A489C
:10569000FEF778FA00210948FEF774FA0848FEF789
:1056A00071FA00210748FEF76DFA00210648FEF75F
:1056B00069FAC9E4104401081C440108284401089F
:1056C00054440108644401088044010808B50020DE
:1056D000FFF700F808BD0000054A136801331360A6
:1056E000036E23B1034A536843F0100353607047BD
:1056F000901100209411002008B5024803F00BFC23
:1057000008BD00BFC811002010B50C4611F0010FF4
:105710000ED114F0020F03D0084A9369013393614C
:1057200014F0040F03D0054AD3690133D36110BDCF
:1057300001460020FFF7EAFAEBE700BF94110020D2
:1057400010B598B00446002113911491159116914B
:105750001791442202A80BF081FA22681D4B9A424D
:1057600001D018B010BD4FF4805302934FF08073F6
:105770000E9302A806F094FE48BB174B9A6D42F0B8
:1057800000729A659A6D02F000720092009ADA6CCB
:1057900042F00202DA64DB6C03F002030193019B26
:1057A0004FF440731393022314930024159416931B
:1057B0000923179313A9094803F0FCFE224621464A
:1057C000152002F0E3FD152002F0F0FDC9E7FBF71C
:1057D00059FFD2E700640040001002400004004876
:1057E00008B50268084B9A4200D008BD074A936D7D
:1057F00023F0007393654FF44071054803F0C4FF34
:10580000152002F0D7FDF0E70064004000100240D0
:105810000004004808B502F0DFF9014B187008BD1C
:10582000C41B002008B502F013FA08BD08B502F049
:10583000EFF908BD08B502F0F3F908BD08B502F0AC
:1058400025FA08BD08B502F0FDF908BD08B502F05B
:1058500053FA08BD00234370C160837000F1230335
:10586000C0F8243401230370704710B50446C068A3
:1058700078B1D0F88030984740B10123637000239D
:10588000A370FBF7FBFE6060012010BD0023637076
:10589000F5E70020F9E7F8B50446C6684778002F19
:1058A00000F09A80D6F8883030469847002800F0FB
:1058B0009580D6F89030304698470546FBF7DEFED7
:1058C0006368C01A632801D90023A370FBF7D6FED2
:1058D0006060A3780A2BE5D8DFE803F0060E1920F4
:1058E0002731384249627300022DDBD10023237631
:1058F0000123A3702576D5E7FD2D02D00023A370E8
:10590000D0E70223A370237E2B442376CAE72574B5
:10591000237E2B4423760323A370C3E76582237E73
:105920002B4423760423A370BCE7638A43EA052350
:105930006382237E2B4423760523A370B2E7A582DE
:10594000237E2B4423760623A370ABE7A38A43EA86
:105950000523A382237E2B4423760723A370A1E78C
:10596000E582237E2B4423760823A3709AE7E38AFB
:1059700043EA05239BB2E382227E2A44227663B166
:10598000B3F5806F04D80023A3600923A37089E7CF
:105990002023A3820023A3701EE00A23A37081E7C3
:1059A000D4F82424A368D554237E2B442376A368FB
:1059B0000133A360E28A93427FF474AF0A23A37099
:1059C00070E76576237E5B42DBB22376AB4201D083
:1059D0002123A3820023A3703846F8BD0027FBE7EC
:1059E00070B58446049E059DC0689CF80140002C5B
:1059F0003ED04FF0020E8CF81AE04FF0FD0E8CF8FE
:105A00001BE08CF81C108CF81D20120A8CF81E204C
:105A10008CF81F301B0A8CF820308CF821502B0A90
:105A20008CF822300022092307E016F802E00CEB84
:105A3000030181F81AE001320133AA42F5D30021B3
:105A40000A4606E00CEB010E9EF81AE07244D2B250
:105A500001318B42F6D852425D1C63449A76D0F8ED
:105A600094302A460CF11A019847854200D0002450
:105A7000204670BD10B582B0049C0194009313467B
:105A80000A460121FFF7ACFF02B010BD70B57F28B8
:105A900017D80E460C4B1D78A5B184B20134A4B2C0
:105AA00003F0B6FB31462046FCF72EFA044603F01D
:105AB000C7FB3CB1072C01D0002503E00023337065
:105AC00000E00025284670BDC61B0020F8B504463E
:105AD0000E46FBF7D3FD7F2C25D80546134B1F78C8
:105AE00017B3A4B20134A4B203F092FB31462046AE
:105AF000FCF7E4FB18B110F4807F03D1002703F01A
:105B00009FFB11E00A4B01221A70FCF7F7F8084BD3
:105B10001B78002BF3D0FBF7B1FD401BB0F5FA7FEB
:105B2000F5D30027EBE700273846F8BDC61B002059
:105B3000C51B002008B503F0DBFA08BD014B0022AD
:105B40001A707047C51B0020B0F1FF3F00D07047AE
:105B500008B5FFF7F3FF08BDC00200F1006303F2D0
:105B6000FF7C0A44013A8B4203D3934212D90020AE
:105B700000E000208C4502D3944500D801208B42E0
:105B800002D88C4500D30120934202D8944500D31B
:105B9000012070470120EDE72DE9F04186B0054670
:105BA0000E4600F0E4FFA84207D800F0E0FF0446EC
:105BB00000F0E0FF0444AC420AD803F029FB1E4B7E
:105BC0004FF400421A6100244FF0FF3847460AE0C4
:105BD00000F0CDFF3146281A00F0ACFF044614E077
:105BE000A046274601343F2C0ADC32462946A0B2A3
:105BF000FFF7B2FF0028F5D0002FF1DBA046F1E758
:105C0000002F06DA002403F01BFB204606B0BDE897
:105C1000F0810497A8EB0703013305930023029357
:105C20000123039301A902A803F04EFC08B100244C
:105C3000E9E70124E7E700BF00200240F8B5064687
:105C40000D46174600F093FFB04205D916F0070441
:105C500013D000242046F8BD00F089FF044600F070
:105C600089FF0444B442F1D900F081FF3A46294645
:105C7000301A00F082FF0446ECE703F0C9FABC4298
:105C800009D22B192A595B68A119002003F016FBD1
:105C900028B90834F3E7012403F0D2FADAE7002444
:105CA000FAE7F8B504460E46154600F060FFA0423C
:105CB00001D9002314E000F05AFF074600F05AFF14
:105CC0000744A742F5D900F052FF2A463146201A70
:105CD00000F0D6FE07E014F803C006F803C0013355
:105CE000AB42F8D30120F8BDD0B908B5034659B18D
:105CF0000C4803EB430C00EB8C014A7A898850F87E
:105D00002C0003F0D6FD08BD064803EB430C00EB66
:105D10008C018A7A898850F82C0003F0CAFDF2E7DA
:105D2000704700BFA846010882B00023019302E03B
:105D3000019B013301934FF47A7300FB03F3019A43
:105D40009342F5D802B0704708B5002306E0002260
:105D5000074941F823200749CA540133012BF6D9DA
:105D600005490648FEF7A8F90120054B187008BD43
:105D7000781C0020701C00201D610008B44601083A
:105D8000721C00202DE9F04786B0054600EB800329
:105D9000394E06EB8306D6F80890CDF804904FF004
:105DA000110ACDF808A00024039403230493D6F825
:105DB000048001A9404603F0FDFB37690197CDF847
:105DC00008A00394F66801A9304603F0F3FB012212
:105DD0001FFA89F1404603F06CFD0122B9B230464A
:105DE00003F067FD0520FFF79FFF17E005EB850235
:105DF000214B03EB82031F895E680022394630463F
:105E000003F057FD0520FFF78FFF0122394630468A
:105E100003F04FFD0520FFF787FF0134082CE5DD77
:105E2000154E05EB850406EB8404B4F808A0D4F8FD
:105E3000049000225146484603F03BFD0520FFF741
:105E400073FFB4F8108000224146E06803F031FD92
:105E50000520FFF769FF01225146484603F029FD5E
:105E60000520FFF761FF01224146E06803F021FDB4
:105E700006B0BDE8F08700BFD448010838B500EB94
:105E800080022F4B53F82250012857D8044618B1EE
:105E900001282AD0002052E02A4B195400232A4A14
:105EA00013542A4A2A602A4A52F821206A60AB60B9
:105EB0000122EA602B616B61EB612B62FFF762FFED
:105EC000284603F070FF284603F009FF08B10020C0
:105ED00035E00021284604F0F7FD0021284604F0B3
:105EE00021FE0120184B185529E0164B19540023A8
:105EF000154A1354174A2A60154A52F821206A603D
:105F0000AB600122EA602B616B61EB612B62FFF7F2
:105F100039FF284603F047FF284603F0E0FE08B1AA
:105F200000200CE00021284604F0CEFD0021284688
:105F300004F0F8FD0120044B185500E0002038BDA6
:105F4000D4480108741C0020701C0020005400403C
:105F5000CC4801080058004010B500EB80000A232F
:105F60001A464900044C54F8200004F0B3F908B173
:105F7000002010BD0120FCE7D448010810B584B012
:105F8000844600EB800E0C4850F82E00BCF1010F47
:105F900002D9002004B010BD490089B2079C0294C8
:105FA000BDF8184001940093012304F0BBF808B930
:105FB0000120EFE70020EDE7D448010810B582B0DA
:105FC000049C019401240094FFF7D8FF02B010BD97
:105FD00010B584B0844600EB800E0C4850F82E00BB
:105FE000BCF1010F02D9002004B010BD490089B2F4
:105FF000079C0294BDF8184001940093022304F01A
:1060000091F808B90120EFE70020EDE7D448010836
:1060100010B582B0049C019401240094FFF7D8FFCE
:1060200002B010BD10B584B0844600EB800E0C4861
:1060300050F82E00BCF1010F02D9002004B010BDB1
:10604000490089B2079C0294BDF81840019400935E
:10605000012303F093FF08B90120EFE70020EDE7EB
:10606000D448010800B585B08DF80F30069B019328
:10607000012300930DF10F03FFF7D4FF05B05DF886
:1060800004FB000010B584B0844600EB800E0C4881
:1060900050F82E00BCF1010F02D9002004B010BD51
:1060A000490089B2079C0294BDF8184001940093FE
