:020000040800F2
:10000000007800205D1D00083D1800083F1800081A
:1000100041180008431800084518000800000000B7
:100020000000000000000000000000004918000867
:1000300047180008000000004B1800084D18000881
:10004000AD1D0008AD1D0008AD1D0008AD1D000868
:10005000053E0008AD1D0008AD1D0008AD1D0008DF
:10006000AD1D0008AD1D0008AD1D0008AD1D000848
:10007000AD1D0008AD1D0008AD1D0008AD1D000838
:10008000AD1D000800000000AD1D0008AD1D0008FA
:100090002D540008DD3C0008AD1D0008AD1D000812
:1000A000AD1D0008AD1D0008AD1D0008AD1D000808
:1000B000AD1D0008AD1D0008AD1D0008AD1D0008F8
:1000C00029450008AD1D000839450008AD1D000890
:1000D000AD1D0008AD1D0008AD1D0008AD1D0008D8
:1000E000AD1D0008AD1D0008AD1D0008AD1D0008C8
:1000F000AD1D0008AD1D0008AD1D0008000000008A
:1001000000000000AD1D000800000000AD1D00084B
:10011000AD1D000800000000AD1D0008AD1D000869
:10012000AD1D0008AD1D0008AD1D0008AD1D000887
:10013000AD1D00080000000000000000AD1D00081B
:10014000AD1D0008AD1D000800000000000000000B
:10015000000000000000000000000000000000009F
:10016000000000000000000000000000AD1D0008BD
:10017000AD1D0008000000000000000000000000AD
:1001800000000000AD1D000800000000000000009D
:10019000000000000000000000000000000000005F
:1001A0000000000000000000AD1D0008AD1D0008AB
:1001B000AD1D0008AD1D0008AD1D000800000000C9
:1001C00000000000AD1D000800000000000000005D
:0801D000AD1D0008AD1D000883
:1004000020524556563235303232305231000000DB
:1004100000000000000000000000000000000000DC
:100420000000000053544D33324734333100000094
:1004300000000000000000000000000000000000BC
:080440000000000000000008AC
:1008000010B5054C237833B9044B13B10448AFF34A
:1008100000800123237010BD84030020000000002D
:10082000AC07010808B5034B1BB103490348AFF3FC
:10083000008008BD0000000088030020AC0701080C
:1008400010F8012B11F8013B012A28BF9A42F7D07A
:10085000D01A7047000000000000000000000000F7
:1008600001F0FF01102A2BDB10F0070F08D010F861
:10087000013B013A8B422DD010F0070F42B3F6D165
:10088000F0B441EA012141EA014122F007047FF07E
:1008900000070023F0E80256083C85EA010586EAD5
:1008A000010685FA47F5A3FA87F586FA47F6A5FA11
:1008B00087F68EB9EED1F0BC01F0FF0102F007021D
:1008C00032B110F8013B013A83EA010313B1F8D1C8
:1008D0000020704701387047002D06BF35460338A9
:1008E000073815F0010F07D1013015F4807F02BFE2
:1008F000013015F4C03F0130F0BC0138704700BF33
:10090000034613F8012B002AFBD1181A013870474F
:1009100081F0004102E000BF83F0004330B54FEAB0
:1009200041044FEA430594EA050F08BF90EA020F1D
:100930001FBF54EA000C55EA020C7FEA645C7FEAB0
:10094000655C00F0E2804FEA5454D4EB5555B8BFD3
:100950006D420CDD2C4480EA020281EA030382EA44
:10096000000083EA010180EA020281EA0303362DD6
:1009700088BF30BD11F0004F4FEA01314FF4801CA9
:100980004CEA113102D0404261EB410113F0004FBB
:100990004FEA03334CEA133302D0524263EB430372
:1009A00094EA050F00F0A780A4F10104D5F1200E10
:1009B0000DDB02FA0EFC22FA05F2801841F100016B
:1009C00003FA0EF2801843FA05F359410EE0A5F13F
:1009D00020050EF1200E012A03FA0EFC28BF4CF070
:1009E000020C43FA05F3C01851EBE37101F0004526
:1009F00007D54FF0000EDCF1000C7EEB00006EEB33
:100A00000101B1F5801F1BD3B1F5001F0CD34908BC
:100A10005FEA30004FEA3C0C04F101044FEA445213
:100A200012F5800F80F09A80BCF1004F08BF5FEA9A
:100A3000500C50F1000041EB045141EA050130BD7A
:100A40005FEA4C0C404141EB0101013C28BFB1F58C
:100A5000801FE9D291F0000F04BF01460020B1FAD7
:100A600081F308BF2033A3F10B03B3F120020CDAAA
:100A70000C3208DD02F1140CC2F10C0201FA0CF088
:100A800021FA02F10CE002F11402D8BFC2F1200CED
:100A900001FA02F120FA0CFCDCBF41EA0C019040A3
:100AA000E41AA2BF01EB0451294330BD6FEA0404EC
:100AB0001F3C1CDA0C340EDC04F11404C4F12002D7
:100AC00020FA04F001FA02F340EA030021FA04F3E9
:100AD00045EA030130BDC4F10C04C4F1200220FA40
:100AE00002F001FA04F340EA0300294630BD21FA7E
:100AF00004F0294630BD94F0000F83F4801306BF44
:100B000081F480110134013D4EE77FEA645C18BF37
:100B10007FEA655C29D094EA050F08BF90EA020FCE
:100B200005D054EA000C04BF1946104630BD91EAC6
:100B3000030F1EBF0021002030BD5FEA545C05D1C9
:100B40004000494128BF41F0004130BD14F5800408
:100B50003CBF01F5801130BD01F0004545F0FE417C
:100B600041F470014FF0000030BD7FEA645C1ABFB1
:100B7000194610467FEA655C1CBF0B46024650EAE8
:100B8000013406BF52EA033591EA030F41F4002114
:100B900030BD00BF90F0000F04BF0021704730B59A
:100BA0004FF4806404F132044FF000054FF000016F
:100BB00050E700BF90F0000F04BF0021704730B530
:100BC0004FF4806404F1320410F0004548BF404205
:100BD0004FF000013EE700BF42004FEAE2014FEA5A
:100BE00031014FEA02701FBF12F07F4393F07F4F35
:100BF00081F06051704732F07F4208BF704793F038
:100C00007F4F04BF41F40021704730B54FF460744A
:100C100001F0004521F000411CE700BF50EA01024D
:100C200008BF704730B54FF000050AE050EA0102F6
:100C300008BF704730B511F0004502D5404261EB66
:100C400041014FF4806404F132045FEA915C3FF4A7
:100C5000D8AE4FF003025FEADC0C18BF03325FEA44
:100C6000DC0C18BF033202EBDC02C2F1200300FAF5
:100C700003FC20FA02F001FA03FE40EA0E0021FA1A
:100C800002F11444BDE600BF70B54FF0FF0C4CF408
:100C9000E06C1CEA11541DBF1CEA135594EA0C0FBA
:100CA00095EA0C0F00F0DEF82C4481EA030621EAF5
:100CB0004C5123EA4C5350EA013518BF52EA033530
:100CC00041F4801143F4801338D0A0FB02CE4FF0E2
:100CD0000005E1FB02E506F00042E0FB03E54FF012
:100CE0000006E1FB03569CF0000F18BF4EF0010E0A
:100CF000A4F1FF04B6F5007F64F5407404D25FEA06
:100D00004E0E6D4146EB060642EAC62141EA5551B8
:100D10004FEAC52040EA5E504FEACE2EB4F1FD0CFA
:100D200088BFBCF5E06F1ED8BEF1004F08BF5FEA78
:100D3000500E50F1000041EB045170BD06F000462A
:100D400046EA010140EA020081EA0301B4EB5C04D7
:100D5000C2BFD4EB0C0541EA045170BD41F48011CF
:100D60004FF0000E013C00F3AB8014F1360FDEBFF4
:100D7000002001F0004170BDC4F10004203C35DAD0
:100D80000C341BDC04F11404C4F1200500FA05F353
:100D900020FA04F001FA05F240EA020001F00042F4
:100DA00021F0004110EBD37021FA04F642EB06016A
:100DB0005EEA430E08BF20EAD37070BDC4F10C0494
:100DC000C4F1200500FA04F320FA05F001FA04F258
:100DD00040EA020001F0004110EBD37041F1000144
:100DE0005EEA430E08BF20EAD37070BDC4F120054F
:100DF00000FA05F24EEA020E20FA04F301FA05F2B7
:100E000043EA020321FA04F001F0004121FA04F25E
:100E100020EA020000EBD3705EEA430E08BF20EA2E
:100E2000D37070BD94F0000F0FD101F00046400068
:100E300041EB010111F4801F08BF013CF7D041EAEA
:100E4000060195F0000F18BF704703F000465200EE
:100E500043EB030313F4801F08BF013DF7D043EABF
:100E60000603704794EA0C0F0CEA135518BF95EA75
:100E70000C0F0CD050EA410618BF52EA4306D1D1FC
:100E800081EA030101F000414FF0000070BD50EA1B
:100E9000410606BF1046194652EA430619D094EAA5
:100EA0000C0F02D150EA013613D195EA0C0F05D18F
:100EB00052EA03361CBF104619460AD181EA0301E3
:100EC00001F0004141F0FE4141F470014FF000009B
:100ED00070BD41F0FE4141F4780170BD70B54FF036
:100EE000FF0C4CF4E06C1CEA11541DBF1CEA1355B6
:100EF00094EA0C0F95EA0C0F00F0A7F8A4EB050498
:100F000081EA030E52EA03354FEA013100F088808E
:100F10004FEA03334FF0805545EA131343EA126357
:100F20004FEA022245EA111545EA10654FEA00260C
:100F30000EF000419D4208BF964244F1FD0404F5C5
:100F4000407402D25B084FEA3202B61A65EB030521
:100F50005B084FEA32024FF480104FF4002CB6EBDE
:100F6000020E75EB030E22BFB61A754640EA0C005E
:100F70005B084FEA3202B6EB020E75EB030E22BF9E
:100F8000B61A754640EA5C005B084FEA3202B6EBDF
:100F9000020E75EB030E22BFB61A754640EA9C009E
:100FA0005B084FEA3202B6EB020E75EB030E22BF6E
:100FB000B61A754640EADC0055EA060E18D04FEA2C
:100FC000051545EA16754FEA06164FEAC30343EACC
:100FD00052734FEAC2025FEA1C1CC0D111F4801F99
:100FE0000BD141EA00014FF000004FF0004CB6E792
:100FF00011F4801F04BF01430020B4F1FD0C88BF31
:10100000BCF5E06F3FF6AFAEB5EB030C04BFB6EB3B
:10101000020C5FEA500C50F1000041EB045170BD2E
:101020000EF0004E4EEA113114EB5C04C2BFD4EB5B
:101030000C0541EA045170BD41F480114FF0000EDF
:10104000013C90E645EA060E8DE60CEA135594EA5B
:101050000C0F08BF95EA0C0F3FF43BAF94EA0C0F5E
:101060000AD150EA01347FF434AF95EA0C0F7FF4D3
:1010700025AF104619462CE795EA0C0F06D152EA27
:1010800003353FF4FDAE1046194622E750EA41060B
:1010900018BF52EA43067FF4C5AE50EA41047FF41C
:1010A0000DAF52EA43057FF4EBAE12E74FF0FF3C81
:1010B00006E000BF4FF0010C02E000BF4FF0010C52
:1010C0004DF804CD4FEA410C7FEA6C5C4FEA430CCB
:1010D00018BF7FEA6C5C1BD001B050EA410C0CBF1A
:1010E00052EA430C91EA030F02BF90EA020F00207C
:1010F000704710F1000F91EA030F58BF994208BFE3
:1011000090422CBFD8176FEAE37040F0010070479F
:101110004FEA410C7FEA6C5C02D150EA013C07D1F6
:101120004FEA430C7FEA6C5CD6D152EA033CD3D041
:101130005DF8040B704700BF8446104662468C463B
:101140001946634600E000BF01B5FFF7B7FF00286E
:1011500048BF10F1000F01BD4DF808EDFFF7F4FF97
:101160000CBF012000205DF808FB00BF4DF808ED22
:10117000FFF7EAFF34BF012000205DF808FB00BF45
:101180004DF808EDFFF7E0FF94BF012000205DF867
:1011900008FB00BF4DF808EDFFF7CEFF94BF01201C
:1011A00000205DF808FB00BF4DF808EDFFF7C4FF15
:1011B00034BF012000205DF808FB00BF4FEA410C5E
:1011C0007FEA6C5C02D150EA013C0AD14FEA430C41
:1011D0007FEA6C5C02D152EA033C02D14FF000007E
:1011E00070474FF0010070474FEA410212F50012BC
:1011F00015D211D56FF47873B3EB625212D94FEA5E
:10120000C12343F0004343EA505311F0004F23FA47
:1012100002F018BF404270474FF00000704750EA9C
:10122000013005D111F0004008BF6FF00040704759
:101230004FF00000704700BF4A0011D212F50012B3
:1012400011D20DD56FF47873B3EB62520ED44FEA1E
:10125000C12343F0004343EA505323FA02F070479E
:101260004FF00000704750EA013002D14FF0FF30DC
:1012700070474FF0000070474FEA4102B2F1E0437F
:1012800024BFB3F5001CDCF1FE5C0DD901F0004C6D
:101290004FEAC0024CEA5070B2F1004F40EB8300BD
:1012A00008BF20F00100704711F0804F21D113F1E9
:1012B0003872BCBF01F00040704741F480114FEA22
:1012C0005252C2F11802C2F1200C10FA0CF320FAAB
:1012D00002F018BF40F001004FEAC1234FEAD323C8
:1012E00003FA0CFC40EA0C0023FA02F34FEA430332
:1012F000CCE77FEA625307D150EA01331EBF4FF0BB
:10130000FE4040F44000704701F0004040F0FE40D5
:1013100040F40000704700BF53B94AB9002908BF24
:1013200000281CBF4FF0FF314FF0FF3000F0A0B994
:10133000ADF1080C6DE904CE00F03CF8DDF804E0F6
:10134000DDE9022304B0704738B5002200230446CB
:101350000D46FFF70BFF28B920462946BDE8384067
:1013600000F00AB8204605F1004100F005F84042BF
:1013700061EB410138BD00BFD0B50C4B00220646E1
:101380000F46FFF781FCFFF757FF0446FFF702FC0B
:10139000074B0022FFF778FC02460B4630463946E1
:1013A000FFF7BAFAFFF748FF2146D0BD0000F03D35
:1013B0000000F0412DE9F047089D0C46002B4ED16E
:1013C00094468C458646B2FA82F262D94AB1C2F19D
:1013D0002003914020FA03F30CFA02FC194300FAAF
:1013E00002FE4FEA1C471FFA8CF6B1FBF7F44FEAF6
:1013F0001E4307FB141143EA014304FB06F1994223
:101400000AD91CEB030304F1FF3080F012819942EA
:1014100040F20F81023C6344591A1FFA8EF3B1FB6C
:10142000F7F007FB101143EA014300FB06F69E426A
:101430000AD91CEB030300F1FF3180F0FC809E42CF
:1014400040F2F980634402389B1B40EA04400021CB
:101450001DB1D3400022C5E90032BDE8F0878B42C0
:1014600005D90DB1C5E9000100210846F5E7B3FA39
:1014700083F1002946D1A34202D39042C0F0F0800C
:10148000861A64EB03030120002DE6D0C5E9006352
:10149000E3E7002A40F09080A1EB0C044FEA1C48DF
:1014A0001FFA8CF70121B4FBF8F64FEA1E4308FB44
:1014B000164443EA044307FB06F0984208D91CEBA4
:1014C000030306F1FF3402D2984200F2CD80264693
:1014D0001C1A1FFA8EF3B4FBF8F008FB104443EA21
:1014E000044300FB07F79F4208D91CEB030300F1FC
:1014F000FF3402D29F4200F2B0802046DB1B40EA5C
:101500000640A5E7C1F120068B4022FA06F71F43EB
:1015100020FA06FC04FA01F343EA0C03F44000FA53
:1015200001F8380C4FEA1349B4FBF0FE1FFA87FCB0
:1015300000FB1E4449EA04440EFB0CF9A14502FAE3
:1015400001F20AD93C190EF1FF3A80F08480A145DE
:1015500040F28180AEF1020E3C44A4EB09041FFA74
:1015600083F9B4FBF0F300FB134449EA044403FBA2
:101570000CFCA44507D93C1903F1FF3067D2A44500
:1015800065D9023B3C4443EA0E40A0FB0293A4EB26
:101590000C049C42CE469C4651D34ED055B1B8EB7C
:1015A0000E0364EB0C0404FA06F6CB401E43CC4059
:1015B000C5E90064002150E7C2F1200320FA03F1DD
:1015C0000CFA02FC24FA03F394400C434FEA1C4843
:1015D00000FA02FE1FFA8CF7B3FBF8F008FB10319B
:1015E000230C43EA014300FB07F1994208D91CEBA5
:1015F000030300F1FF362CD299422AD90238634402
:101600005B1AA4B2B3FBF8F108FB113344EA0344BC
:1016100001FB07F3A34208D91CEB040401F1FF36D8
:1016200013D2A34211D902396444E41A41EA0041B9
:1016300039E70446F0E6084606E7C845AED2B9EBFE
:10164000020E63EB070C0138A8E73146EDE70346CD
:1016500099E73046D4E7D6467FE7634402384DE742
:101660000646234608460FE7023E634430E700BFC4
:10167000704700BF08B504F0ABFC08BD08B504F026
:10168000A1FC08BD72B6FEE710B5A4B03822002157
:1016900016A80CF003FB00241194129413941494D4
:1016A00015944422214668460CF0F8FA204607F0CB
:1016B00031FF07F027FF214AD2F8903023F01803BA
:1016C000C2F89030252316934FF4803317930122EC
:1016D00018921C9202231D9303211E911F9228220F
:1016E0002092219304222292239316A807F0CCFF84
:1016F000E8B90F2311930323129300231393149338
:101700001593042111A808F075FA90B90C4B0093B9
:10171000002306934FF080720C920D934FF4807368
:101720001093684608F08CFB28B924B010BDFFF771
:10173000A9FFFFF7A7FFFFF7A5FF00BF00100240BA
:101740004030080000B58BB004F020FCFFF79CFF90
:101750002B4B1A6E42F001021A661A6E02F0010259
:101760000192019A9A6D42F080529A659A6D02F048
:1017700080520292029ADA6C42F00102DA64DA6C68
:1017800002F001020392039ADA6C42F00202DA6478
:10179000DA6C02F002020492049ADA6C42F004025B
:1017A000DA64DA6C02F004020592059ADA6C42F00F
:1017B0000802DA64DA6C02F008020692069ADA6C21
:1017C00042F01002DA64DA6C02F010020792079A13
:1017D000DA6C42F02002DA64DA6C02F0200208923D
:1017E000089ADA6C42F04002DA64DB6C03F04003E2
:1017F0000993099B07F014FF01200BB05DF804FB6F
:101800000010024000B583B00B4B1A6E42F001028B
:101810001A661A6E02F001020092009A9A6D42F066
:1018200080529A659B6D03F080530193019B07F0F2
:10183000F7FE03B05DF804FB00100240FEE7FEE790
:10184000FEE7FEE7FEE770477047704708B504F013
:10185000ADFB03F0E3F808BD0120704708B50CF0BC
:10186000ADFA162303604FF0FF3008BD08B54FF006
:10187000FF31FFF7F3FFFEE770B50C461646002573
:1018800006E0AFF30080214601F8010B01350C465C
:10189000B542F6DB304670BD70B50C4616460025E5
:1018A00004E014F8010BAFF300800135B542F8DB1A
:1018B000304670BD4FF0FF3070474FF400534B601F
:1018C00000207047012070470020704710B5034684
:1018D0000C4A0D490D48006840B10C4800680344AB
:1018E000521A934206D8094A136010BD0748084CA3
:1018F0000460F2E70CF062FA0C2303604FF0FF3053
:10190000F3E700BF0078002000040000A0030020DF
:10191000C0540020044BD3F8882042F47002C3F86E
:101920008820024A9A60704700ED00E0000000083D
:1019300008B504F0B9FA00F053F800F065F800209B
:1019400008BD000010B50F4B1B78012B07D0022BF0
:1019500007D0012002F0B0FE40F6B83403E0642462
:1019600001E04FF47A74FFF789FE074B1B68C31A36
:10197000A34200D210BD044B1860002002F0D8FE34
:10198000F8E700BFB1030020A403002010B504460F
:1019900003F066FC10B10123237010BD02232370F5
:1019A000FBE7000010B5FFF7CDFF0A4C2046FFF71C
:1019B000EDFF094B1A7823789A4203D0064A137038
:1019C000002010BD054B187810B100221A70F8E7FE
:1019D0000120F6E7B0030020B1030020040000203E
:1019E00008B50121084602F0C9FA00F067F900F0D5
:1019F00021F8034B034A1A60002002F061FF08BD82
:101A0000AC030020A519000808B502E0074800F063
:101A100087F9074B1B78012BF8D0022B02D0FFF778
:101A2000C1FFF6E7014800F0ABF8F2E7AC03002095
:101A3000B103002000B583B04FF4E131012003F081
:101A40009DF805230093032300221146104601F060
:101A5000EFF90020009040F223130246014601F006
:101A6000ABF9012003B05DF804FB000010B594B0A1
:101A700001238DF84C3000238DF84B3008228DF86F
:101A80004A2040F223110191ADF8082008E0324AC3
:101A900012681A4403F15001694401F8462C0133DD
:101AA000072BF4DD0A2201A9002001F09FFAB0B94A
:101AB000002001F021FB10B901F03AFB60B10020D9
:101AC00001F01AFB0446002001F032FB03462246D7
:101AD0002249012003F078F9012014B010BD1E4BFB
:101AE00019681F4AA2FB0102520B42F2107000FB60
:101AF00012121A60511C19601A49012003F064F98E
:101B00009DF84B3063B91849012003F05DF9BDF829
:101B10000830019A1549012003F056F900240EE01F
:101B20001349012003F050F9F1E704F150036B442D
:101B300013F8462C0F49012003F046F90134BDF893
:101B40000830A342F1DC0C4A137A52680B49012099
:101B500003F03AF9ACE700BFB403002060080108C5
:101B60005917B7D1180801082808010838080108D2
:101B7000300801084C080108F80A00205408010840
:101B8000F0B597B00746404802F0E6FE00231493F4
:101B900015933E4B5E6812E01490FFF767FF19E063
:101BA000002001F0DFFB01F001FB00BB002001F091
:101BB0000BFA08BB159BE31AB3F57A7F59D23B6841
:101BC000984700285AD0FFF759FD0446149BC31AC2
:101BD000632BE1D82D4B5968B142E1D02C4800F07D
:101BE0001BFB002001F096FB284B5E68D8E72949D3
:101BF000012003F0E9F8D9E701A9002001F068FA13
:101C0000254B1968254AA2FB0102520B42F21070C3
:101C100000FB12121A60511C19602149012003F0C7
:101C2000D3F89DF84B3063B91E49012003F0CCF87E
:101C3000BDF80830019A1C49012003F0C5F80025C1
:101C40000EE01A49012003F0BFF8F1E705F158034F
:101C50006B4413F84E2C1649012003F0B5F80135FA
:101C6000BDF80830AB42F1DC1249012003F0ACF8BA
:101C7000A0E71594012002F05BFDA0E70E4802F0FA
:101C80006BFE17B0F0BD00BF74080108F80A002011
:101C90008408010894080108B40300205917B7D13B
:101CA000A8080108280801083808010830080108B8
:101CB0004C0801085C0E0108B808010808B54FF48B
:101CC000E131002000F014FA4FF4E131002002F07D
:101CD00055FF4FF4E131022002F050FF4FF4E131A3
:101CE000032002F04BFF012008BD10B503F0B8FA45
:101CF00038B9002400F014FAA0420AD100F064FCC4
:101D000010BD03F0D1FA012801D00024F2E703242A
:101D1000F0E74FF4E131204600F0EAF9EEE7000089
:101D200038B505460B4802F017FEFFF7A7FC04463E
:101D30002B68984750B1FFF7A1FC001B0128F7D989
:101D4000FFF79CFC0446FFF7D0FFF1E7024802F0E2
:101D500003FE38BDC8080108D80801080D488546AB
:101D6000FFF7D8FD0C480D490D4A002302E0D45876
:101D7000C4500433C4188C42F9D30A4A0A4C0023D5
:101D800001E013600432A242FBD30CF01DF8FFF710
:101D9000CFFDFEE700780020000000208403002033
:101DA000D01C010884030020BC540020FEE7034639
:101DB0000020186058609A600120D860196170474F
:101DC00010B40024046044608360C260016101209B
:101DD0005DF8044B7047F0B500270CE00CEB0305F1
:101DE00011F803E006F805E00133C5689D42F5D817
:101DF000294404600137974213D205686B1C84683C
:101E0000B3FBF4F604FB16344368A3420BD0066917
:101E1000002EEED00029ECD0C36803FB05FC0023A4
:101E2000E3E70120F0BD0020FCE770B50C46164644
:101E3000002516E001EB0E0C1CF803C004F803C0EB
:101E40000133C2689A42F5D8144443680268934249
:101E500016D001338268B3FBF2F102FB1133436009
:101E60000135B5420AD201690029EED0002CECD030
:101E70004368C26802FB03FE0023E2E7012070BD55
:101E80000020FCE703690268C06800FB023070476D
:101E9000036842689B1A8268B3FBF2F002FB1030C1
:101EA0007047002380F8F23380F8F1333F2280F846
:101EB000F02380F8B033704738B5054690F8964166
:101EC00004EB441004EB40002844432205F56C71F8
:101ED00000F5CC700BF0A7FF95F89731072B02D8CF
:101EE000013385F8973185F895410134634204F058
:101EF000070403F0070358BF5C4285F896410123AD
:101F000085F8943138BD002303E08CF800200133BC
:101F10009BB20F2B0BD800EB030CC25C3AB1A2F1C1
:101F20006101C9B21929F0D8203AD2B2EDE7102BDD
:101F300000D07047013B0022C254FAE7064BB3F8C9
:101F40007836984205D2044BD3F87C3653F82000FB
:101F500070470020704700BFB803002008B5034653
:101F6000094AB2F8782690420AD20846064AD2F8C0
:101F70007C2652F82310FEF763FC18B1002000E025
:101F8000002008BD0120FCE7B803002008B5084B7D
:101F9000B3F87836984202D39FED060A08BD044B89
:101FA000D3F87C36002153F820000AF0D1FFF5E782
:101FB000B80300200000000008B5084BB3F87836DD
:101FC000984201D3002008BD044BD3F87C36002290
:101FD000114653F820000BF08DF8F4E7B803002009
:101FE00010B504460449007802F0EEFE034920785B
:101FF00002F0EAFE10BD00BFE8080108EC08010885
:1020000038B590F8973143B304460D4690F8F12364
:1020100022BB94F8F22332BB012D29D094F99511FB
:10202000013194F8973191FBF3F203FB121184F81C
:102030009511C9B201EB411301EB43012144432245
:1020400001F5CC7104F56C700BF0EDFE94F8F233F1
:1020500084F8F133002384F8943138BD0F490078B7
:1020600002F0B2FED5E70E49207802F0ADFED3E7CC
:1020700094F894311BB194F9963184F8953194F920
:10208000951194F897311944013991FBF3F203FB50
:10209000121184F89511C9B2CCE700BFF408010809
:1020A000FC08010870B582B006460024A0F8124171
:1020B00000F58A75C0F8144101AA0C4900F56C704E
:1020C0000BF02EFE234609E05C1CA4B245F8230069
:1020D00001AA064900200BF023FE23460028F3D175
:1020E000A6F8123103B1012002B070BD0409010845
:1020F0000A4B18701B7A1BB1084B5B688B4200D0EF
:1021000011B9064B187A704710B5044C616002F0A3
:1021100035FD2072014B187A10BD00BFB8030020B6
:10212000014B1878704700BFB803002038B5234B27
:102130005B7A03B938BD054690F8F1232049807ACF
:1021400002F042FE95F8F2231E49A87A02F03CFE06
:1021500095F8F0231C49A87A02F036FE05F56C725A
:102160001A49A87A02F030FE95F995211849A87A03
:1021700002F02AFE95F896211649A87A02F024FE6C
:1021800095F897211449A87A02F01EFE00240CE06D
:1021900004EB441304EB430303F5CC732B442246B6
:1021A0000E49A87A02F010FE013495F89731A34247
:1021B000EEDC0B49A87A02F007FEBBE7B80300206B
:1021C0000C0901081C0901082C0901083C09010837
:1021D0004C0901085C0901086C0901087C09010827
:1021E0005C0E010808B5024B187802F073FD08BDBB
:1021F000B803002008B5024B187802F08BFD08BD2B
:10220000B803002008B50A460146024B187802F0D0
:10221000AFFD08BDB80300200FB410B582B004AB09
:1022200053F8042B0193084C4FF4807120460BF0B7
:1022300027FD0246214614F8110C02F099FD02B068
:10224000BDE8104004B07047C903002038B505460A
:10225000FFF728FF08B9002038BD1648FFF7DCFF5C
:10226000D5F81401FFF74FFE0024B5F8F433A3426C
:10227000F1DD04EB8401890001F57E712944D5F874
:102280001401FEF7DDFA08B10134EEE7B5F81231BA
:10229000013BA5F8783605F58C73C5F87C3604EB60
:1022A000840405EB8404D4F8083405F5CF6098471E
:1022B000D1E700BFB816010830B585B004468DF8E7
:1022C0000710037CABB9CBB21B2B30D01CD8082B2A
:1022D0004BD00D2B40F0848090F8F2330BBB0023E1
:1022E00084F8F23384F8F13384F8B0332046FFF7F2
:1022F00077FE237C013B032B00F2C880DFE813F05C
:10230000C400CC00CF0056017F2B69D190F8F1C3F7
:1023100090F8F2E3F445ECD2AEEB0C05EDB20122FD
:1023200012E0FFF7C9FD2046FFF790FFD7E7012332
:102330000374DEE70CEB0203591E234493F8B00349
:10234000631883F8B00301329542F3DC0EF1FF3ECF
:102350005FFA8EFE84F8F2E3A64400238EF8B033D1
:102360009449207802F030FDC3E790F8F2335BB374
:1023700090F8F10340B3834209D094F8F2C360456A
:1023800022D2ACEB000E5FFA8EFE002211E0013B80
:10239000DBB284F8F2332344002283F8B023ECE765
:1023A0008318591E234493F8B053631883F8B0532D
:1023B00001329645F4DC0CF1FF33DBB284F8F233E2
:1023C0002344002283F8B02394F8F133002B90D0FB
:1023D000013B84F8F1337849207802F0F5FC88E776
:1023E00094F8F233591C94F8F023914281DA94F86E
:1023F000F123934216D094F8F1C394F8F203844584
:10240000BFF477AFA0EB0C05EDB20022954224DDBE
:10241000831A591E214491F8B013234483F8B01352
:102420000132F3E701220DF10701207802F0A0FC50
:1024300094F8F123A3189DF8071083F8B01394F8CB
:10244000F2330133DBB284F8F233013284F8F12342
:102450002344002283F8B023CDE79DF8072004EB46
:102460000C0383F8B0230130C0B284F8F2030CF1FE
:10247000010C84F8F1C32044002380F8B0334F49A5
:10248000207802F0A1FC34E7022323742046FFF7F2
:102490004DFE002005B030BD03232374F6E7002372
:1024A00023749DF80730442B26D09DF80730432B2A
:1024B00037D09DF80730412B4AD09DF80730422B8A
:1024C00050D09DF80730312B56D09DF80730342B73
:1024D000DCD194F8F13394F8F223934258D394F872
:1024E000F12394F8F2339A4259D894F8F23384F8ED
:1024F000F13304232374C9E794F8F123002AD4D0DC
:10250000013A84F8F1231B228DF808205B228DF814
:1025100009208DF80A30032202A9207802F028FC55
:10252000C3E794F8F12394F8F2138A42C1D201323E
:1025300084F8F1231B228DF808205B228DF80920F6
:102540008DF80A30032202A9207802F011FCB0E7CE
:1025500001212046FFF754FD04F56C71207802F04C
:1025600033FCAAE700212046FFF74AFD04F56C7111
:10257000207802F029FCA4E794F8F1231049207890
:1025800002F022FC002384F8F133042323749CE737
:10259000D21A92B20B49207802F016FC9FE7D21AA9
:1025A00092B20749207802F00FFC9EE700232374C3
:1025B0006CE700BF8C090108940901089C09010817
:1025C000F4080108A809010838B5094B1C7A0CB9B0
:1025D000204638BD187802F07DFB0028F8D0044D65
:1025E000287802F097FB01462846FFF765FEEFE7E3
:1025F000B803002010B50F48FFF70EFE0E48FFF796
:102600000BFE00240CE004EB8403980000F57E70C0
:102610000A4B1844FFF700FE0648FFF7FDFD0134A2
:10262000064BB3F8F433A342EDDC0548FFF7F4FDA5
:1026300010BD00BFB8160108B0090108B80300209A
:10264000D40901082DE9F04383B00388446873B1CD
:10265000012B12D810270022114620680AF04AFDEB
:1026600006462C48FFF7D8FDB04600241BE02A4858
:10267000FFF7D2FD03B0BDE8F08300221146606889
:102680000AF038FD0746E6E731682448FFF7C4FD45
:10269000624204F0030302F0030258BF5342032BCB
:1026A0000BD004360134BC42E4DA14F0030FEBD152
:1026B00031461B48FFF7B0FDE6E71A48FFF7ACFDCF
:1026C0004FF0000917E01848FFF7A6FD0135032D6C
:1026D0000DDC05F108036B4413F8041CA1F1200381
:1026E000DBB25E2BEFD81148FFF796FDEEE708F15D
:1026F000040809F10109B9F1030F04DCD8F800302E
:1027000001930025E3E70A48FFF786FD0120FEF765
:10271000B1FFC6E7100A0108F8090108240A0108F8
:10272000180A01082C0A0108340A0108300A0108B5
:10273000380A010808B5044B187802F0CBFA08B93A
:10274000012008BD0020FCE7B80300202DE9F0417E
:10275000114BB3F8F4531F2D02D90020BDE8F081CE
:102760000E46AF0005EB8504A40004F57E74984680
:102770001C44014620460BF04EFB2F4408EB870714
:10278000C7F808642046FFF7BEFBB8F8F4330133FE
:10279000A8F8F4330120E1E7B803002008B5124897
:1027A000002303724372037480F8953180F89631E8
:1027B00080F8973180F894310C4BC0F880360C4B80
:1027C000C0F884360B4BC0F888360B4BC0F88C36FB
:1027D000FFF767FB09490A48FFF7B8FF09490A48AC
:1027E000FFF7B4FF012008BDB8030020B91F00089F
:1027F0008D1F00083D1F00085D1F0008F52500081B
:10280000400A010845260008480A0108022801D9A3
:102810000020704770B504460A4D460000EB4003A7
:1028200005EB8302918855F8230004F00BFD264444
:1028300005EB86052B7A984201D0002070BD01205F
:10284000FCE700BF700B010838B500242EE02C23F4
:1028500003FB042501236B70FEF710FF6860002264
:1028600003E023440021D97001324C4B1B88934272
:102870002ADD4B4B53F8223059780529F1D82344EF
:102880000121D970F0E7012932D0464A2C2000FB03
:102890000422926A934231D2FEF7F0FE414B2C2281
:1028A00002FB0433986000221A730134022C73DC9B
:1028B000E0B2FFF7ABFF00283DD02C2304FB03F36D
:1028C000384AD35C002BC2D036492C2304FB03F3D7
:1028D000CA180120C854538803449BB25380D1695D
:1028E0000029D0D12F4A2C2000FB0422126AD1E704
:1028F0002C4A2C2000FB0422526ACBE7294B2C22C5
:1029000002FB043300225A800131D961012119767A
:1029100003E02344002159720132204B1B8893426B
:10292000BADD1F4B53F8223059780529F1D82344DA
:1029300001215972F0E72C2304FB03F3194AD35CFD
:1029400073B918492C2304FB03F3CD180022CA5491
:1029500001232B73EA612A76FEF790FE6861A4E7F3
:102960002C2303FB042501236B73FEF787FE2861EC
:10297000002203E02344002199710132074B1B8898
:102980009342DEDD064B53F8223059780529F1D801
:10299000234401219971F0E738BD00BF680A002087
:1029A000480A00206C0A002010B58AB00024059463
:1029B00006940794089409942F4BDA6C42F00202B3
:1029C000DA64DA6C02F002020392039ADA6C42F0E3
:1029D0000402DA64DB6C03F004030493049B012318
:1029E00007930CE0254B04EB440203EB820149689A
:1029F000059105A953F8220004F0ACFA0134022C29
:102A0000F0DD002012E01E4C2C2100FB01F16318C8
:102A100000225A8062541A735A73DA613C21196297
:102A2000FA215962C82199621A7601300228EADD3A
:102A3000002304E0134A002142F823100133072B3E
:102A4000F8DD02F059F8041E11DB002300930E4B51
:102A500002220A21204602F023F8204602F03AF82A
:102A60000A490B48FFF772FE01200AB010BD094861
:102A700001F072FFF4E700BF00100240700B010884
:102A80006C0A0020480A002049280008B52B0008DD
:102A90007C0A01084C0A01080346022808D8054AA6
:102AA000107830B12C2202FB03F3034AD05C70474C
:102AB00000207047050000206C0A0020032828BF72
:102AC0000320024B53F82000704700BF600B010841
:102AD00002280ED8094B1B786BB182B0084B2C2210
:102AE00002FB00339A685B68D31A0193019802B025
:102AF0007047002070470020704700BF050000208D
:102B00006C0A002084B004AB03E90700134A90422A
:102B100019D00EDCA2F50062904216D002F5806258
:102B2000904201D10E480CE0B0F1904F0FD10D480A
:102B300007E00D4A90420CD002F5806290420AD123
:102B40000A4804B070470A48FBE70A48F9E70A4810
:102B5000F7E70A48F5E70848F3E700BF000C00482C
:102B6000940A0108840A010800100048AC0A010810
:102B70009C0A01088C0A0108B40A0108A40A010889
:102B800010B590B004464022002168460BF086F84C
:102B9000002022466408A2EB440210A901EB800346
:102BA000013043F8402C002CF3D10138C0B210B0F2
:102BB00010BD00002DE9F04105460388012B0AD025
:102BC00000272B88012B2ED02B88012B49D0002FDA
:102BD00072D0BDE8F08143693D490020984707461F
:102BE0000028EED000261BE0F0B2FFF767FF014699
:102BF0003848FFF711FB06EB4603374C04EB830420
:102C000094E80700FFF77EFF01463448FFF704FB16
:102C10006068FFF7B5FF01463148FFF7FDFA01365E
:102C2000022EE1DDCDE76B692E490020984706466C
:102C300080B9C9E7E0B2FFF72FFF01462A48FFF746
:102C4000EBFA0134022CF5DD3220FEF713FD2748A4
:102C5000FFF7E2FAFFF76EFD08B10024F2E737460E
:102C6000B2E76B6922490020984780460028AED021
:102C7000AB680120984718E00134022C12DCE5B261
:102C80002846FFF709FF0028F6D02846FFF716FF71
:102C900006462846FFF71CFF024631461548FFF757
:102CA000BBFAE9E70A20FEF7E5FCFFF743FD08B1B0
:102CB0000024E2E747468AE70F48FFF7ADFA0F48DE
:102CC000FFF7AAFA03210E48FFF7A6FA81E700BF33
:102CD000C40A0108CC0A0108700B0108D40A0108D3
:102CE000D80A0108E00A0108E80A0108EC0A01080C
:102CF000F00A0108F80A0108100B0108200B01086E
:102D0000300B010810B5002444B1134801F024FE33
:102D100012491348FFF71AFD012010BD11494FF465
:102D2000236004FB00F00B1801220A5400225A70A1
:102D30005A601A72DA601A615A619A61DA6100F1B6
:102D4000B00C9830084420234C2261440430FFF733
:102D500037F80134E4B2D7E7940B0108F1350008E5
:102D6000A80B0108F80A00203F2810D82F2810D8F7
:102D70001F2810D8172810D8132810D80F2810D8BB
:102D80000B2810D8072800D87047082070470F205C
:102D900070470E2070470D2070470C2070470B20A5
:102DA00070470A2070470920EEE70000014B1870B9
:102DB00001207047F00A0020002831D100B587B00B
:102DC00084461ABB0092184A4FF4236000FB0C2281
:102DD000126A402A1ED0022203920191134A1278ED
:102DE000DAB9022202920493089B05934FF42363FD
:102DF00003FB0CF030300C4B18446946043003F0F0
:102E00009DFC78B1002007B05DF804FB4FF08042D4
:102E10000092D8E701220392DFE700220292E2E764
:102E2000002070470120EEE7F80A0020F00A002099
:102E30002DE9F04182B09DF820E018B1002002B0E9
:102E4000BDE8F08105464FF4236005FB00F000F17A
:102E50003004564E3444043406EB000C5448CCF88D
:102E600034000026CCF83860524850F82200CCF8E4
:102E70003C00514850F82100CCF840008CF84460E8
:102E800001208CF845008CF846004FEA03184B48A7
:102E9000006800EB031750F80800CCF84800786889
:102EA000CCF84C00B868CCF85000F868CCF8540066
:102EB0004FEA0E184248006800EB0E1750F8080061
:102EC000CCF858007868CCF85C00B868CCF86000A2
:102ED000F868CCF864001C20CCF868000820CCF816
:102EE0006C00CCF870608CF828108CF829208CF8D5
:102EF0002A308CF82BE04023CCF82030314BCCF832
:102F00002430CCF80460204603F02EFB08B10020EA
:102F100095E73046FFF74AFF009633463246314682
:102F20002846FFF749FF00963346012231462846DE
:102F3000FFF742FF0096334602221146204603F077
:102F400030FC08B100207AE7184B4FF4236202FBF3
:102F500005333246596A204603F0D6FD08B10020F9
:102F60006DE7124B4FF4236202FB0533996D1B6E24
:102F7000324603FB01F1204603F034FC08B1002087
:102F80005DE7204603F03FFC08B1002057E72046EC
:102F900003F04BFC38B9054B4FF4236202FB0533B9
:102FA000012058704BE7002049E700BFF80A0020D5
:102FB0000064004004110108F81001080C00002012
:102FC0000800002007000E00012801D900207047EA
:102FD00008B54FF4236303FB00F09830024B18440C
:102FE0000430FEF755FF08BDF80A0020012863D819
:102FF000F0B58BB00D461646334B4FF4236202FBFF
:1030000000335B6813F0030F58D113F0010F58D150
:1030100002FB00F430342C4B1C44043491F847304C
:10302000DBB1012B1CD095F84830012B1FD0022BAF
:1030300023D0CBB12B680193002309930893059308
:10304000039395F84620214B53F8223004932046F1
:1030500003F054FDC0B9002031E000230293E2E701
:103060004FF080430293DEE707930693E2E74FF4C5
:103070000013079300230693DCE74FF40013079334
:103080004FF480130693D5E7FEF7F8FA0746AA1D1A
:1030900001A9204603F025FC08B100200FE02046DE
:1030A00003F02CFD30B9FEF7E9FAC01BB042F6D3AD
:1030B000002004E0012002E00020704700200BB057
:1030C000F0BD0020FBE700BFF80A00201011010846
:1030D000012801D90020704708B54FF4236303FB92
:1030E00000F09830034B184401220430FEF79DFE97
:1030F00008BD00BFF80A0020012801D90020704750
:1031000000B585B04FF4236303FB00F03030074B6C
:1031100018446946043003F0E2FC20B9BDF804000D
:1031200005B05DF804FB0020FAE700BFF80A0020B4
:10313000012801D90020704700B585B04FF4236302
:1031400003FB00F03030074B18446946043003F0AD
:10315000C6FC20B9BDF8000005B05DF804FB0020F6
:10316000FAE700BFF80A002001281BD838B50E4B3B
:103170004FF4236202FB00335B7803B938BD0A4C7D
:1031800002FB00F0251800226A6030300444043449
:10319000204603F061FB204603F047FBEB68013358
:1031A000EB60EBE7704700BFF80A002038B5002459
:1031B000254609E0194B4FF4236202FB04331B7AC6
:1031C00033B1012B18D00134002CF3DD284638BD73
:1031D000124B4FF4236202FB04335B6813F0030FBE
:1031E000F1D0E0B2FFF7C0FF0C4B4FF4236202FBBB
:1031F000043301251D72E6E7084B4FF4236202FBFE
:1032000004335B6813F0030FDDD1044B02FB04337E
:1032100000221A720248FEF7FFFFD4E7F80A0020E6
:10322000AC0B01082DE9F0438BB0804689464FF482
:10323000236707FB00F707F19805344E3544043542
:103240002846FEF71FFE04463E44831D6A46316A47
:10325000484603F06FFB00283DD1019B002B3DD178
:10326000009B2360002384F84730039B03F00F0387
:10327000274A52F82300A080C0B2FFF775FD84F8FA
:103280004600069BB3F5001F2ED0002384F848307B
:103290001E4B4FF4236202FB0833DA6A0132DA6212
:1032A000012200212846FEF796FD38B9174B4FF44E
:1032B000236202FB08331A6901321A61134B4FF47F
:1032C000236202FB0833D3F8983023B12246012150
:1032D00040469847A0B90BB0BDE8F083009B23603F
:1032E000012384F84730C0E7059BB3F5801F03D066
:1032F000012384F84830CBE7022384F84830C7E73D
:10330000012200212846FEF790FDE4E7F80A00209C
:103310005011010801281CD810B50E4B4FF4236240
:1033200002FB00335C6814F0010F06D114F0020FA9
:1033300007D114F0030F08D110BD074801F00CFBB2
:10334000F4E7064801F008FBF3E7054801F004FB49
:10335000F2E77047F80A0020C80B0108E40B0108E7
:10336000000C010810B58CB004464FF4236004FB38
:1033700000F030302D4B184401A9043003F08AFBD3
:10338000049B002B32D0294B4FF4236202FB043301
:103390005A6842F001025A600221059B8BB3234B0D
:1033A0004FF4236202FB04335A6842F002025A606F
:1033B0000321069B7BB31D4B4FF4236202FB0433B6
:1033C0005A6842F003025A600421184B4FF42362FA
:1033D00002FB0433D3F898301BB111B10022204610
:1033E00098472046FFF796FF0CB010BD0F4B4FF4E7
:1033F000236202FB04335A6822F001025A60002162
:10340000CBE70A4B4FF4236202FB04335A6822F0E5
:1034100002025A60CDE7054B4FF4236202FB0433EE
:103420005A6822F003025A60CFE700BFF80A002072
:1034300010B504465548FEF7EFFEFCB1012C21D033
:103440005348FEF7E9FE534B4FF4236202FB04336B
:103450005B78DBB15048FEF7DFFE5048FEF7DCFE3C
:103460004C4B4FF4236202FB043393F82A30042BB5
:1034700013D8DFE803F00F24282C30004848FEF76B
:10348000CBFEDDE74748FEF7C7FED9E74648FEF723
:10349000C3FEE2E74548FEF7BFFE4548FEF7BCFE27
:1034A0003C4B4FF4236202FB043393F82B30072B81
:1034B00018D8DFE803F014363A3E42464A4E3D48FB
:1034C000FEF7AAFEE9E73C48FEF7A6FEE5E73B4823
:1034D000FEF7A2FEE1E73A48FEF79EFEDDE733483D
:1034E000FEF79AFE3748FEF797FE2A4B4FF4236209
:1034F00002FB043393F82830012B32D0022B34D056
:103500005BB33148FEF788FE224B4FF4236202FB87
:10351000043393F82930012B2FD0022B31D043B341
:1035200010BD2448FEF778FEDCE72348FEF774FE62
:10353000D8E72148FEF770FED4E72148FEF76CFE7D
:10354000D0E72248FEF768FECCE72148FEF764FE8C
:10355000C8E72048FEF760FEC4E71F48FEF75CFEA0
:10356000CFE71E48FEF758FECBE71D48FEF754FE96
:10357000C7E71C48FEF750FED2E71B48FEF74CFE9B
:10358000CEE71A48FEF748FECAE700BF1C0C010848
:10359000480C0108F80A00205C0C01086C0C0108BA
:1035A000300C01083C0C0108640C01086C0E010889
:1035B000900C0108800E0108800C0108880C01089D
:1035C000BC0E0108A40C0108C40C0108D00E0108AF
:1035D000E40E0108F80E0108D80D0108F00D0108ED
:1035E000B80C0108200E0108380E0108D80C01089B
:1035F0002DE9F04F9DB004460388012B19D000251A
:103600002388012B63D02388022B00F09780238826
:10361000062B00F0B6802388022B00F03C81238823
:10362000032B00F0E081002D00F020831DB0BDE8E9
:10363000F08F4369A4490020984705460028DFD051
:10364000002607E03146A148FEF7E6FDA048FEF758
:10365000E3FD0136002ED3DC9E4B4FF4236202FBC8
:1036600006335B78002BEDD05FFA86F84046FFF713
:10367000DFFE984F4FF4236303FB06777978964873
:10368000FEF7CAFD39699548FEF7C6FD7969944889
:10369000FEF7C2FDB9699348FEF7BEFDF96992488D
:1036A000FEF7BAFD4046FFF727FD01468F48FEF7BB
:1036B000B3FD4046FFF73CFD01468D48FEF7ACFDEB
:1036C0004046FFF727FE8248FEF7A6FDC1E7636983
:1036D0008849002098470646002894D00021864853
:1036E000FEF79AFD8548FEF797FD8548FEF794FDA5
:1036F0008448FEF791FD8448FEF78EFD8348FEF76F
:103700008BFD8348FEF788FD8248FEF785FD8248E1
:10371000FEF782FD8148FEF77FFD8148FEF77CFDC4
:103720008048FEF779FD8048FEF776FD7F48FEF77A
:1037300073FD7F48FEF770FD354664E763696D49A8
:103740000020984700283FF462AF6369794901205F
:103750009847064600283FF45AAF072300930423F6
:10376000022211460020FFF763FB40B17249734803
:10377000FEF752FD0020FFF75BFE354647E7704934
:10378000F5E763695B4900209847804600283FF4CD
:1037900042AF6C4D03AB95E8070083E8070006AB2A
:1037A00005F10C0207CA83E8070009AE18350FCDF2
:1037B0000FC695E80F0086E80F00A3680120984720
:1037C00000280DDBA36801209847002802DD4FF098
:1037D000000907E0A368012098475FFA80F901E03B
:1037E0004FF000090026022E0CDC63691CAA02EBD4
:1037F000860252F8641C0220984708B90136F2E7A5
:10380000F6B200E000260027022F0CDC63691CAA38
:1038100002EB870252F8581C0320984708B9013779
:10382000F2E7FFB200E000274FF0000ABAF1070FFD
:103830000EDC63691CAA02EB8A0252F84C1C0420BD
:10384000984710B90AF1010AF0E75FFA8AFA01E035
:103850004FF0030A0025072D0CDC63691CAA02EB5C
:10386000850252F84C1C0520984708B90135F2E74B
:10387000EDB200E00525009553463A4631464846EC
:10388000FFF7D6FA28B12C492C48FEF7C5FC45466F
:10389000C1E62B49F8E763692B49002098470746A2
:1038A00000283FF4BCAEA3680120984700284DDBF8
:1038B000A36801209847002801DD002647E0A3689F
:1038C00001209847C6B242E0C40A0108A00D0108D1
:1038D0005C0E0108F80A0020F80C0108100D010820
:1038E000280D0108400D0108580D0108700D010850
:1038F000880D0108B00D0108B80D0108CC0D0108B4
:10390000E40D0108FC0D0108180E0108300E010835
:10391000480E0108600E0108740E0108880E0108A7
:103920009C0E0108B00E0108C40E0108D80E010853
:10393000EC0E0108000F0108E80C0108080F01084F
:10394000F00C0108C80701081C0F010800264FF001
:103950000008FEF7EFFE002843D03046FFF734FBA7
:103960000028F6D009A93046FFF7B2FBAD4AA2FB0A
:10397000083292094FF47A7303FB128202F10108B4
:103980003146A948FEF748FC9DF86C3083B1A74842
:10399000FEF742FC9DF86B3073B9A548FEF73CFC7E
:1039A000BDF828200999A348FEF736FC002510E051
:1039B000A148FEF731FCEDE7A048FEF72DFCEFE74C
:1039C00005F170036B4413F8461C9D48FEF724FC78
:1039D0000135BDF82830AB42F2DC9A48FEF71CFCFA
:1039E000B7E73D461BE66369974900209847814643
:1039F00000283FF418AEA3680120984700280BDB8D
:103A0000A36801209847002801DD002505E0A36890
:103A100001209847C5B200E0002563698B49022068
:103A2000984748B14FF0000A894B5E68FDF726FEC3
:103A300004460027B8468CE04FF0020AF4E7FDF791
:103A40001DFE04468DF86CA000238DF86B30082213
:103A50008DF86A204FF445710991ADF8282006E0F1
:103A6000D91903F170026A4402F8461C0133072B8E
:103A7000F6D90A2209A92846FFF7B8FA20BB28463A
:103A8000FFF73AFB18B92846FFF752FB60B128460A
:103A9000FFF732FB83462846FFF74AFB03465A46A8
:103AA00029466C48FEF7B8FB6B4B1B68002B5AD0BD
:103AB000DFF8A4B1DBF8002029466848FEF7ACFB2C
:103AC0000023CBF800304EE0564AA2FB08329209A0
:103AD0004FF47A7303FB128202F101082946604811
:103AE000FEF79AFB9DF86C308BB15048FEF794FBC3
:103AF0009DF86B307BB94E48FEF78EFBBDF8282051
:103B000009994C48FEF788FB4FF0000B11E04A483A
:103B1000FEF782FBECE74948FEF77EFBEEE70BF190
:103B200070036B4413F8461C4548FEF775FB0BF118
:103B3000010BBDF828305B45F1DC4248FEF76CFB19
:103B400001379CE7FFF732FB20BB2846FFF73CFA22
:103B500028BBFEF7EFFD002862D0FDF78FFD001BAC
:103B600063283FF66CAFAB46394B4FF4236202FB40
:103B700005335A68B242E5D029463A48FEF74CFB75
:103B80002846FFF7C7FB324B4FF4236202FB053395
:103B90005E68D7E759463448FEF73EFBD5E709A9EA
:103BA0002846FFF795FA1F4AA2FB083292094FF404
:103BB0007A7303FB128202F1010859461A48FEF794
:103BC0002BFB9DF86C308BB11848FEF725FB9DF858
:103BD0006B307BB91648FEF71FFBBDF8282009990A
:103BE0001448FEF719FB4FF0000B11E01248FEF7E6
:103BF00013FBECE71148FEF70FFBEEE70BF1700348
:103C00006B4413F8461C0E48FEF706FB0BF1010B44
:103C1000BDF828305B45F1DC0A48FEF7FDFA98E76D
:103C20004D4600E5D34D6210280F0108400F0108F2
:103C30002808010838080108440F01083008010865
:103C40004C0801085C0E0108480F0108A80B010888
:103C5000F80A00206C0F0108F40A0020840F010804
:103C6000540F0108980F0108B00F01080A48FEF729
:103C7000D3FA0A48FEF7D0FA00210948FEF7CCFA39
:103C80000848FEF7C9FA00210748FEF7C5FA0021E7
:103C90000648FEF7C1FAC9E4C80F0108D40F0108AD
:103CA000E00F01080C1001081C1001083810010871
:103CB00008B50020FFF756FB08BD0000054A136851
:103CC00001331360036E23B1034A536843F01003BA
:103CD00053607047F40A0020F80A002008B5024833
:103CE00002F09DFF08BD00BF2C0B002010B50C4654
:103CF00011F0010F0ED114F0020F03D0084A93699E
:103D00000133936114F0040F03D0054AD3690133E2
:103D1000D36110BD01460020FFF784FAEBE700BF36
:103D2000F80A002010B598B00446002113911491B0
:103D3000159116911791442202A809F0AFFF22684D
:103D40001D4B9A4201D018B010BD4FF4805302931E
:103D50004FF080730E9302A806F072F848BB174B21
:103D60009A6D42F000729A659A6D02F000720092AC
:103D7000009ADA6C42F00202DA64DB6C03F00203B0
:103D80000193019B4FF44073139302231493002477
:103D9000159416930923179313A9094803F0DAF829
:103DA00022462146152002F08DF9152002F09AF9DD
:103DB000C9E7FDF767FCD2E700640040001002404D
:103DC0000004004808B501F0BFFD014B187008BDA4
:103DD0002815002008B501F0F3FD08BD08B501F075
:103DE000CFFD08BD08B501F0D3FD08BD08B501F051
:103DF00005FE08BD08B501F0DDFD08BD08B501F000
:103E000033FE08BD08B502F0CFFF08BD014B00220C
:103E10001A70704729150020B0F1FF3F00D070479D
:103E200008B5FFF7F3FF08BD82B00023019302E05D
:103E3000019B013301934FF47A7300FB03F3019A62
:103E40009342F5D802B0704708B5002306E000227F
:103E5000074941F823200749CA540133012BF6D9F9
:103E600005490648FEF772FC0120054B187008BD95
:103E7000DC150020D41500201D4200086012010846
:103E8000D61500202DE9F04786B0054600EB8003EB
:103E9000394E06EB8306D6F80890CDF804904FF023
:103EA000110ACDF808A00024039403230493D6F844
:103EB000048001A9404603F04DF837690197CDF819
:103EC00008A00394F66801A9304603F043F80122E4
:103ED0001FFA89F1404603F0BCF90122B9B230461D
:103EE00003F0B7F90520FFF79FFF17E005EB850208
:103EF000214B03EB82031F895E680022394630465E
:103F000003F0A7F90520FFF78FFF0122394630465D
:103F100003F09FF90520FFF787FF0134082CE5DD4A
:103F2000154E05EB850406EB8404B4F808A0D4F81C
:103F3000049000225146484603F08BF90520FFF714
:103F400073FFB4F8108000224146E06803F081F965
:103F50000520FFF769FF01225146484603F079F931
:103F60000520FFF761FF01224146E06803F071F987
:103F700006B0BDE8F08700BF8014010838B500EB3B
:103F800080022F4B53F82250012857D8044618B10D
:103F900001282AD0002052E02A4B195400232A4A33
:103FA00013542A4A2A602A4A52F821206A60AB60D8
:103FB0000122EA602B616B61EB612B62FFF762FF0C
:103FC000284603F0C0FB284603F059FB08B1002047
:103FD00035E00021284604F047FA0021284604F085
:103FE00071FA0120184B185529E0164B195400237B
:103FF000154A1354174A2A60154A52F821206A605C
:10400000AB600122EA602B616B61EB612B62FFF711
:1040100039FF284603F097FB284603F030FB08B130
:1040200000200CE00021284604F01EFA002128465A
:1040300004F048FA0120044B185500E0002038BD78
:1040400080140108D8150020D41500200054004029
:10405000781401080058004010B500EB80000A23D6
:104060001A464900044C54F8200003F003FE08B13E
:10407000002010BD0120FCE78014010810B584B0B9
:10408000844600EB800E0C4850F82E00BCF1010F66
:1040900002D9002004B010BD490089B2079C0294E7
:1040A000BDF8184001940093012303F00BFD08B9FB
:1040B0000120EFE70020EDE78014010810B582B081
:1040C000049C019401240094FFF7D8FF02B010BDB6
:1040D00010B584B0844600EB800E0C4850F82E00DA
:1040E000BCF1010F02D9002004B010BD490089B213
:1040F000079C0294BDF8184001940093022303F03A
:10410000E1FC08B90120EFE70020EDE78014010889
:1041100010B582B0049C019401240094FFF7D8FFED
:1041200002B010BD10B584B0844600EB800E0C4880
:1041300050F82E00BCF1010F02D9002004B010BDD0
:10414000490089B2079C0294BDF81840019400937D
:10415000012303F0E3FB08B90120EFE70020EDE7BE
:104160008014010800B585B08DF80F30069B0193CF
:10417000012300930DF10F03FFF7D4FF05B05DF8A5
:1041800004FB000010B584B0844600EB800E0C48A0
:1041900050F82E00BCF1010F02D9002004B010BD70
:1041A000490089B2079C0294BDF81840019400931D
:1041B000022303F0B3FB08B90120EFE70020EDE78D
:1041C0008014010800B585B08DF80F30069B01936F
:1041D000012300930DF10F03FFF7D4FF05B05DF845
:1041E00004FB000010B582B0844600EB800E0A4844
:1041F00050F82E00BCF1010F02D9002002B010BD12
:10420000490089B2049C00949BB203F0B5FA08B946
:104210000120F3E70020F1E7801401082DE9F047C1
:10422000A4B004460388022B5AD0052B3ED18368E4
:104230000120984710F0FF0500F08A80022D28BF6A
:104240000225A368022098471FFA80F9A36803207B
:10425000984706461FFA80FAA36804209847074645
:1042600005F1FF385FFA88F863698A4900209847AA
:10427000002874D16369884900209847002840F0DD
:1042800088806369854900209847002840F0BB80FA
:104290006369834900209847002840F0B68063692D
:1042A000804900209847002840F0CB8002217E48BA
:1042B000FDF7B2FF02217D48FDF7AEFF7C48FDF718
:1042C000ABFF7C48FDF7A8FF7B48FDF7A5FF7B48C7
:1042D000FDF7A2FF7A48FDF79FFF24B0BDE8F08705
:1042E00083680120984710F0FF0519D0022D28BFE0
:1042F0000225013DEDB2636972490020984700BB79
:1043000063697149002098470028E6D001212846BA
:10431000FFF734FEB8B1691C6C48FDF77DFFDCE7A0
:104320000125E6E701347F2CD7D8E1B22846FFF714
:1043300093FE0028F6D02246691C6548FDF76CFF05
:10434000F0E70024EFE7691C6248FDF765FFC4E76A
:10435000012576E729466048FDF75EFFBDE70024AA
:10436000BBB2A342B9D90AEB04026423009304ABA5
:1043700092B249464046FFF7A1FE0028EAD09DF8D8
:10438000103014FA86F229465448FDF745FF0134EF
:10439000E6E7FDF773F9044664230093FBB2524647
:1043A00049464046FFF7DEFE50B1FDF767F9001BB6
:1043B0000090BBB2B2B229464948FDF72DFF8CE709
:1043C00029464548FDF728FF87E79DF8103014FA85
:1043D00086F229464148FDF71FFF0134BBB2A342D4
:1043E0007FF67BAF0AEB04026423009304AB92B226
:1043F00049464046FFF78CFE0028E6D1294636485C
:10440000FDF70AFF69E70024E8E7FDF737F90446FE
:1044100064230093FBB2524649464046FFF7D2FE62
:1044200050B1FDF72BF9001B0090BBB2B2B2294688
:104430002C48FDF7F1FE50E729462748FDF7ECFE32
:104440004BE7FDF71BF904464FEA1A2A8DF808A03E
:104450008DF80960FBB28DF80A305B428DF80B30A5
:1044600064230093032302AA49464046FFF7BAFE9D
:1044700050B1FDF703F9001B0090BBB2B2B2294660
:104480001848FDF7C9FE28E729461348FDF7C4FE82
:1044900023E700BFB4120108EC1201081813010849
:1044A000201301084C130108581301087413010864
:1044B00090130108BC130108E8130108181401083F
:1044C0004814010864120108B00D0108881201089F
:1044D0006C1201089C120108D8120108BC120108D4
:1044E000F41201082813010803680C4A1268934269
:1044F00004D00B4A1268934208D07047436C002BDB
:10450000FBD0084A1368013313607047436C002BDB
:10451000F3D0044A536801335360EEE7801500205E
:104520002C150020DC15002008B5024803F05AFFC6
:1045300008BD00BF8015002008B5024803F052FFF7
:1045400008BD00BF2C150020F0B58DB000230793E7
:10455000089309930A930B930368424A934204D049
:10456000414A93423FD00DB0F0BD404CE36C43F064
:104570000103E364E36C03F001030193019BE36C2B
:1045800043F00203E364E36C03F002030293029B33
:104590004FF4004307931227089701250995042635
:1045A0000B9607A94FF0904002F0D4FC80230793AC
:1045B0000897099500250A950B9607A92C4802F043
:1045C000C9FCA36D43F40013A365A36D03F40013AA
:1045D0000393039B2A460521202001F073FD202030
:1045E00001F080FDBFE7214CE36C43F00103E3647D
:1045F000E36C03F001030493049BE36C43F00403B6
:10460000E364E36C03F004030593059B1023079315
:10461000122708970125099504260B9607A9154826
:1046200002F098FC4FF480730793089709950025D2
:104630000A950B9607A94FF0904002F08BFCA36DF2
:1046400043F48003A365A36D03F480030693069BE4
:104650002A460521222001F035FD222001F042FDED
:1046600081E700BF005400400058004000100240A5
:10467000000400480008004808B502680B4B9A4245
:1046800000D008BD0A4A936D23F4001393654FF4DC
:1046900000414FF0904002F047FD8021054802F0B4
:1046A00043FD202001F022FDEBE700BF0054004055
:1046B0000010024000040048022800D9704708B5E5
:1046C000044B03EBC0010022898853F8300002F04C
:1046D000C0FD08BDA814010810B586B000240194DF
:1046E00002940394049405940F4BDA6C42F0040294
:1046F000DA64DB6C03F004030093009B0123029354
:104700000DE00A4B03EBC4029288019201A953F811
:10471000340002F01FFCE0B2FFF7CEFF0134022CA0
:10472000EFDD012006B010BD00100240A814010802
:10473000022800D9704708B5044B03EBC0029188EA
:1047400053F8300002F08AFD08BD00BFA81401082C
:104750002DE9F04106460388012B0AD00027338853
:10476000012B23D03388012B3ED0002F5AD0BDE837
:10477000F081436930490020984707460028EED071
:104780002E4C21882E48FDF747FD61882D48FDF706
:1047900043FD2D48FDF740FD2C4C21882C48FDF7AA
:1047A0003BFD61882B48FDF737FDD8E773692A493F
:1047B0000020984780460028D4D0002506E01F4BF3
:1047C000986821462844FDF71DFD2544FDF7B2FFFA
:1047D000074638B1194B5C88641BC3D0402CEED916
:1047E0004024ECE74746BDE773691C490020984721
:1047F00006460028B9D0002506E0144B98682146EB
:104800002844FDF7FFFC2544FDF794FF074638B127
:104810000E4B5C88641BA8D0402CEED94024ECE7FA
:104820003746A2E70E48FDF7F7FC0E48FDF7F4FC0B
:104830000D48FDF7F1FC9AE7C40A0108F81E0020B4
:10484000C0140108D81401085C0E0108EC1E0020F9
:10485000F0140108081501082015010828150108A1
:10486000301501083C1501084815010810B50D4A1E
:104870000023138053804FF480619180D3800A48D5
:1048800090600A4A138053809180D380084B9360D4
:104890000124084B1C7008490848FDF757FF2046C3
:1048A00010BD00BFF81E0020EC1A0020EC1E0020F6
:1048B000EC160020EA1600205147000854150108A4
:1048C000003818BF0120014B1870704711000020FC
:1048D00008B5054B1870054B1960054B01221A707D
:1048E00000F04CF908BD00BFE8160020E4160020D7
:1048F000E916002030B583B004469446C3881344BB
:10490000083382889A4205D20023C3800CF1080341
:104910009A4219D3E088009123880E4A0CF10801CD
:10492000A568284409F00AF9238801332380E38825
:1049300082B21344E38063881844A188884205DC6E
:104940001A446280012002E0002000E0012003B050
:1049500030BD00BF581501080FB410B582B0164B1A
:104960001B7823B902B0BDE8104004B0704705AB16
:104970000193049A4FF48071104809F081F90446BC
:104980000F4B1B7813B10F4B1B7843B90E4B1B78A1
:1049900063B9224609490D48FFF7ACFFE2E702463A
:1049A00006490B4B187800F0E3F9EFE7224603497C
:1049B0000848FFF79FFFECE7EA160020E415002007
:1049C000E91600201000002011000020EC1E00203D
:1049D000E8160020F81E00200E4B1B78012B17D084
:1049E00000230FE00C4A03EB8301880002EB000C6C
:1049F00000211154CCF80410CCF808100244D16006
:104A00000133DBB2032BEDD90120024B1870704744
:104A100000207047041F0020081F002010B51D4A09
:104A2000136801331360002411E004EB8402930047
:104A3000194A0020D054184A01EB81008300134426
:104A400098685860DA68186990470134E4B2032C1A
:104A50001FD8124B1B889BB29C421AD2214604EBF2
:104A6000840293000C4AD35C012BEED104EB840248
:104A70009300094A1A445368013B5360002BE4D168
:104A800004EB84039A00044B13445B78012BD2D1CE
:104A9000CBE710BD5C1F0020081F0020581F00201E
:104AA000002813DB10B40A4C00EB800C04EB8C0CD8
:104AB0008CF80120CCF80C30019BCCF81030CCF8ED
:104AC0000410CCF808105DF8044B7047704700BF25
:104AD000081F002000280BDB064A00EB800302EBD6
:104AE00083039968596000EB8000012302F82030AD
:104AF000704700BF081F0020074B188800B203282A
:104B000006DC1A461B889BB201339BB213807047A8
:104B10004FF0FF30704700BF581F002010B5002332
:104B20000CE00F4C03EB430210012218002121542A
:104B30004FF4614050609162D1620133032BF0DD8C
:104B4000074B084A9A60084A9A63084A9A66012401
:104B5000074B1C7007490848FDF7F8FD204610BDBB
:104B60003C3A0020602F002060270020601F0020BA
:104B7000FC3A00201D4E000860150108032800F2D1
:104B8000A18070B582B0044600EB40031B014E4A81
:104B9000D05C38B104EB44024B4B03EB02135B686F
:104BA0008B4210D0022C10D9032C0BD1464A04EBB7
:104BB000440302EB0313596004EB44042401012075
:104BC000105500E0002002B070BD3F4A04EB4405E0
:104BD00002EB0515696004EB44033C4E06EBC3068B
:104BE000B3682B62F0686862706818602B6A59605D
:104BF000296A00238B60296ACB60296A0B61296AC4
:104C00000C204861296A8B61296ACB61296A0B6291
:104C1000296A4B62296A8B6204EB44000001083068
:104C200010444FF40062A9680430FDF7C0F8284B27
:104C30009A6C42F004029A649A6C02F004020092A8
:104C4000009A9A6C42F001029A649B6C03F0010393
:104C50000193019B286A05F0A9FA337D43B1002333
:104C60001A461946286A05F023FF50B10020AAE72A
:104C700004EB4402144B03EB0213186A05F066FEC2
:104C8000F3E7114A04EB4403190102EB031301207B
:104C900050544FF400629968186A05F0E3FE78B941
:104CA0000120094A04EB440302EB031359691D6A0E
:104CB000D5F880502D686D68491BD960196182E76D
:104CC0000020EEE7002070473C3A0020341601082F
:104CD0000010024010B5022806D9032802D1FFF7C0
:104CE0007DF800E0002010BD094900EB400301EB16
:104CF00003135A695C6A24686468121BDA6000EB6B
:104D000040000001083008440430FDF7C1F8EAE72C
:104D10003C3A002010B582B0044600238DF80730DD
:104D2000022806D9032810D1FFF75CF88DF8070098
:104D30000BE000EB4000000108300C4B184401224E
:104D40000DF107010430FDF770F8084B04EB440245
:104D500003EB0212926A04EB440403EB04130132E6
:104D60009A629DF8070002B010BD00BF3C3A0020D7
:104D700038B5044608461546022C13D9032C03D136
:104D80001146FFF733F800E000200E4B04EB44021D
:104D900003EB0212D26A04EB440403EB0413024453
:104DA000DA6238BD04EB4402064B03EB021C6423B9
:104DB000AAB2DCF8200005F0FBFC08B10020E4E713
:104DC0002846E2E73C3A00200EB410B5C3B00446D2
:104DD00045AB53F8042B01934FF4807102A808F0FF
:104DE0004FFF024602A92046FFF7C2FF43B0BDE8CD
:104DF000104003B07047000003280BD808B506D058
:104E000000EB4000044B03EB0013586808BDFEF7AD
:104E1000F1FFFBE7002070473C3A0020F0B583B07B
:104E200004460388012B07D000262388022B1FD0BD
:104E3000002E65D003B0F0BD436935490020984786
:104E400006460028F1D000200FE0451C00EB400290
:104E5000304B53F83270C0B2FFF7CEFF03463A46EC
:104E600029462D48FDF7D8F928460328EDDDDCE773
:104E700063692A49002098470028D9D0A3680120F7
:104E8000984700280BDDA3680120984704280FDC11
:104E9000A36801209847C4B2013CE4B200E00024BA
:104EA000FDF73EF9A04208D11D48FDF7B5F9C1E76D
:104EB0000324F5E7FDF796F978B92046FFF70AFFD6
:104EC0000028F7D02046FFF725FF02468DF807009F
:104ED000611C1448FDF7A0F9ECE7FDF78BF98DF89C
:104EE00007007128A6D001220DF107012046FFF727
:104EF0003FFF9DF80720611C0B48FDF78DF9DCE7AB
:104F00000A48FDF789F904210948FDF785F991E779
:104F1000C40A01083416010868150108000F0108C9
:104F2000BC15010884150108A0150108D015010859
:104F3000DC15010830B59DB0044600211791189189
:104F400019911A911B91442206A808F0A7FE226825
:104F5000704B9A420AD022686F4B9A424BD022681B
:104F60006E4B9A4200F08E801DB030BD0123069337
:104F700006A804F065FF002837D1694B1A6E42F489
:104F800080421A661A6E02F480420092009ADA6C2D
:104F900042F00102DA64DB6C03F001030193019B30
:104FA0004FF4C063179302231893002519951A959F
:104FB00007231B9317A94FF0904001F0CBFF5948EE
:104FC000594B0360182343608560C56080230361EB
:104FD000456185612023C361056201F0F9F838B9A4
:104FE000504BC4F880309C62B5E7FCF74BFBC4E73C
:104FF000FCF748FBF4E7022306930023089306A876
:1050000004F01EFF002837D1454B9A6D42F4003260
:105010009A659A6D02F400320292029ADA6C42F0BA
:105020000102DA64DB6C03F001030393039B0E239C
:105030001793022318930025199503231A93072326
:105040001B9317A94FF0904001F084FF3748384B6D
:1050500003601A2343608560C56080230361456156
:1050600085612023C361056201F0B2F838B92F4B86
:10507000C4F880309C6272E7FCF704FBC4E7FCF7DD
:1050800001FBF4E7042306930023099306A804F028
:10509000D7FE002837D1224B9A6D42F480229A65C0
:1050A0009A6D02F480220492049ADA6C42F00202B1
:1050B000DA64DB6C03F002030593059B4FF4406355
:1050C0001793022318930025199503231A93072396
:1050D0001B9317A9174801F03DFF1748174B0360B2
:1050E0001C2343608560C560802303614561856141
:1050F0002023C361056201F06BF838B90E4BC4F888
:1051000080309C6230E7FCF7BDFAC4E7FCF7BAFADE
:10511000F4E700BF00380140004400400048004070
:10512000001002402038002008000240C037002054
:105130001C0002400004004860370020300002409C
:1051400010B5044602681D4B9A4208D022681C4BD9
:105150009A4214D022681B4B9A421FD010BD1A4AA3
:10516000136E23F4804313664FF4C0614FF09040F8
:1051700001F0DAFFD4F8800001F096F8E6E7124A71
:10518000936D23F4003393650E214FF0904001F0AE
:10519000CBFFD4F8800001F087F8DBE70A4A936D73
:1051A00023F4802393654FF44061084801F0BCFF6D
:1051B000D4F8800001F078F8D0E700BF0038014053
:1051C0000044004000480040001002400004004835
:1051D00008B503490348FDF7B9FA012008BD00BF2F
:1051E000B15200089416010810B5144B01221A7030
:1051F000904208D0114B00221A701148FFF7ACFB07
:105200000E4B187810BD0F4C00220F49204606F0B7
:10521000A2FB0E49204606F0B5FB0D49204600F0E2
:105220008AFA204606F0C5FB0A4B01221A700A488A
:10523000FFF792FB0948FFF78FFBE1E7D13D002024
:10524000BC160108003B002078010020E00000208F
:1052500024010020D03D002098160108AC1601085A
:1052600008B5FEF7B7FD08BD08B50B4BD3F8BC3247
:105270006BB1094B93F89C32DBB2032B09D1064B7F
:105280005B680BB9002005E000F0DEFC02E00020C6
:1052900000E0002008BD00BF003B0020014B187853
:1052A000704700BFD03D002008B5FEF7A7FD08BD40
:1052B000F8B504460388012B0AD000252388012B6A
:1052C00035D02388012B5BD0002D00F08680F8BDFF
:1052D00043694749002098470546F8B9EEE7FFF7CC
:1052E000DDFF01464348FCF797FFFFF7DDFF01466E
:1052F0004148FCF791FFFFF7B7FF01463F48FCF735
:105300008BFFFFF7ADFF01463D48FCF785FF042109
:105310003C48FCF781FF6420FCF7ACF9FDF70AFA82
:105320000028DCD104213848FCF776FFC6E7636922
:1053300036490020984707460028C2D0FCF79EF95E
:105340000646002504E01F213148FEF74FFD0544C5
:10535000FDF7F0F970B1FCF791F9831BB3F57A7F93
:10536000F1D3FCF78BF90646A90A2A48FFF7F4FAAD
:105370000025E8E702212448FCF74EFF3D46A0E760
:10538000636925490020984700289DD0FCF776F9ED
:10539000074600260EE0FCF771F90746B10A1F48E0
:1053A000FFF7DAFA00260EE0FEF71CFD0134AC42EE
:1053B000FAD32E44FDF7BEF950B1FCF75FF9C31BD9
:1053C000B3F57A7FE7D2FEF709FD05460024EEE744
:1053D00002210D48FCF720FF79E71148FCF71CFF7C
:1053E0001048FCF719FF1048FCF716FF6FE700BFE5
:1053F000C40A0108D0160108E4160108F8160108CD
:105400000C17010820170108281701083017010898
:105410004417010834170108681701086C170108C0
:105420007C170108881701089417010808B502487D
:1054300003F01EFE08BD00BF8C50002010B5D0F850
:10544000BC4284B1D0F8C0327BB194F80002FF288E
:105450000DD09B6894F8012221469847FF2384F8D9
:105460000032002010BD0320FCE70020FAE70020F6
:10547000F8E70000432303800048704758000020ED
:1054800043230380004870479C000020432303808F
:1054900000487047140000200A230380004870472A
:1054A0001801002038B5D0F8BC5275B1044600F0A0
:1054B000EFFCC5F80C02D4F8C032DB6805F50371C7
:1054C000D5F804029847002038BD0320FCE710B54A
:1054D000D0F8C442D0F8BC3253B301EB810200EBE8
:1054E000820292694AB101EB810C04EBCC04246A7C
:1054F000B2FBF4FC04FB1C2272B10022C3F814229C
:10550000D0F8C0221469ACB10A4603F50471D3F88F
:105510000802A047002010BD01EB810300EB8303CC
:1055200000249C612346224600F0A2FC2046F2E7BC
:105530000320F0E70020EEE7F0B583B0D0F8BC62BE
:1055400000238DF80730ADF80430002E6CD00746EC
:105550000C460B7813F060052AD0202D5ED1CA8846
:10556000F2B113F0800F0FD0D0F8C0329B683146F3
:1055700060789847E288072A28BF072231463846D4
:1055800006F0A0FE00254CE04B7886F800328B79BF
:1055900086F80132CA88314606F0A9FE002540E0AF
:1055A000D0F8C0329B68002248789847002538E040
:1055B0004E780B2E2ED8DFE806F006342D2D2D2D3B
:1055C0002D2D2D2D152490F89C32DBB2032B03D00A
:1055D00006F04EFB032524E0022201A906F072FE2C
:1055E00035461EE090F89C32DBB2032B03D006F068
:1055F0003FFB032515E001220DF1070106F062FED5
:105600000FE090F89C32DBB2032B0AD006F030FB9F
:10561000032506E006F02CFB032502E006F028FB3C
:105620000325284603B0F0BD0325FAE738B5044644
:10563000812100F0E0FB002525870121204600F0B4
:10564000DAFBA4F878518221204600F0D4FBA4F8BC
:105650004C50A4F84E50D4F8BC324BB1D4F8C03200
:105660005B689847D4F8BC0200F01CFCC4F8BC523C
:10567000002038BD70B504464FF4077000F00EFCF2
:10568000B8B30646C4F8BC02237CBBBB4FF400731E
:1056900002228121204600F0A3FB012525874FF43B
:1056A000007302222946204600F09AFBA4F87851A4
:1056B0001023A4F84E30082303228221204600F054
:1056C0008FFB0123A4F84C30D4F8C0321B689847F4
:1056D0000023C6F81432C6F81832257C15BB4FF4E7
:1056E0000073D6F804220121204600F0C9FB2846A9
:1056F00070BD0023C4F8BC320225F8E74023022223
:105700008121204600F06CFB0125258740230222E1
:105710002946204600F064FBA4F878511023A4F831
:105720004E30C8E74023D6F804220121204600F07D
:10573000A7FB0025DBE719B1C0F8C01200207047B5
:1057400003207047D0F8BC322BB1C3F80812C3F85D
:1057500010220020704703207047D0F8BC321BB1E4
:10576000C3F804120020704703207047D0F8BC2211
:1057700092B108B5D2F814320BB1012008BD012353
:10578000C2F81432D2F81032C362D2F80822812152
:1057900000F06EFB0020F1E70320704710B5D0F851
:1057A000BC2292B1047C44B94FF40073D2F80422B5
:1057B000012100F065FB204610BD4023D2F80422F1
:1057C000012100F05DFB0024F5E70324F3E700006E
:1057D0000020014B18707047D43D0020212830D0A4
:1057E000222843D0202801D0002070470B784A7827
:1057F00043EA02238A7843EA0243CA7843EA02630F
:105800000879204A107148795071897991711E493F
:10581000A1FB0313DB0803EB83035B001360B3F509
:10582000966F06D0B3F5E13F07D0184B00221A70EF
:10583000DAE7174A01211170F4E7144B01221A70BC
:10584000D2E7104A13681148007803430B70C3F382
:1058500007204870C3F3074088701B0ECB70137984
:105860000B7153794B7193798B71BDE74B8813F0B2
:10587000010F03D0074B01221A70B5E7054B002238
:105880001A70B1E738010020CDCCCCCCD23D00203D
:10589000004E0020D43D00200020704738B505465A
:1058A0000C460A6801461748FCF795FA164B1B7818
:1058B000012B0CD013488468FCF7EAFA241A013C47
:1058C0003F2C16D8114B01221A70002038BD0E4B08
:1058D00000221A7023680C2BECD9002300E001335E
:1058E0000C2BE7D80A4A1268D15CEA5C9142F6D0E8
:1058F000E0E7084C29462046FFF72FFF2046FFF738
:105900004DFFE2E7EC450020004E0020D33D002093
:1059100040010020003B002010B5074C0022074941
:105920002046FFF70FFF06492046FFF716FF00202D
:10593000044B187010BD00BF003B00200046002043
:10594000004A0020D43D002008B5084B00221A7000
:105950004FF4806206490748FCF729FA4FF4806249
:1059600005490648FCF723FA012008BDD43D002074
:10597000D8410020EC450020D83D0020D84500202B
:1059800008B50248FCF784FA08BD00BFEC450020CA
:1059900000B583B000238DF8073001220DF1070117
:1059A0000348FCF742FA9DF8070003B05DF804FBDA
:1059B000EC450020014B1868704700BF38010020FB
:1059C0000C4BD3F8BC3293B101220B4B187800B1C9
:1059D0001046084B93F89C32DBB2032B00D000201A
:1059E000044B5B6803B90020034B1870704700221A
:1059F000EBE700BF003B0020D43D00202DE9F04143
:105A000007460E46FFF7DCFF18B900252846BDE81B
:105A1000F081FBF733FE804600250CE00120FBF708
:105A200029FEFFF7CDFF0028F0D0FBF727FEA0EB03
:105A30000803632BEAD8B542E8D20A488468FCF729
:105A400027FA241A013C731B9C4200D31C46002CED
:105A5000E4D0224639460348FCF7BDF927442544E3
:105A6000DFE700BFD8450020014B1878704700BF22
:105A7000D23D002070B51C4B1B788BB91B48FCF73E
:105A800007FA044610F03F0F02D138B1441E05D08A
:105A9000174BD3F8BC32D3F81432ABB1002070BD31
:105AA00014488468FCF7F4F9241A013C3F2CE5D92A
:105AB0000F4C11492046FFF750FE2046FFF76EFEBF
:105AC000094B00221A70D9E70C4E2246314607488E
:105AD000FCF7ABF9064D224631462846FFF732FE69
:105AE0002846FFF743FED9E7D33D0020D8450020E4
:105AF000003B0020EC450020004A0020004600202A
:105B000012230B80004870476401002004230B809F
:105B10000048704760010020002393421ED200B568
:105B200010E00CF1370C01F813C000014FEA430CF0
:105B30000CF1010C4FF0000E01F80CE00133DBB268
:105B4000934209D24FEA107CB0F1204FE9D20CF118
:105B5000300C01F813C0E8E75DF804FB7047000063
:105B600038B50B4BD3F89005D3F89445D3F8983556
:105B7000C01800D138BD074D08222946FFF7CCFFD9
:105B8000042205F110012046FFF7C6FFF2E700BF2F
:105B90000070FF1F4601002008B51A230B80FFF795
:105BA000DFFF014808BD00BF4401002008B50A46D8
:105BB00028B90549054806F068FB034808BD0249B5
:105BC000024806F062FBF8E7044E0020B017010817
:105BD00010B50A46034C2146034806F056FB204602
:105BE00010BD00BF044E0020C817010808B50A46C2
:105BF00028B90549054806F048FB034808BD024995
:105C0000024806F042FBF8E7044E0020DC170108CA
:105C100008B50A4628B90549054806F036FB034889
:105C200008BD0249024806F030FBF8E7044E0020A8
:105C3000E8170108032805D8DFE800F0050402058D
:105C40000120704703207047014B1878704700BF50
:105C50008850002002680E4B9A4200D0704700B571
:105C600083B003F5DA339A6D42F400029A659B6DB6
:105C700003F400030193019B00220621142000F08D
:105C800021FA142000F02EFA03B05DF804FB00BFE7
:105C9000005C004008B500F52671D0F8D80205F088
:105CA0009DFE08BD08B501EB810300EBC303D3F8EB
:105CB0006421D0F8D80205F0BDFE08BD08B501EB9F
:105CC000810300EBC3035A6AD0F8D80205F0EEFE58
:105CD00008BD08B5D0F8D80205F08EFF08BD10B594
:105CE00004464379022B09D10121D4F8D80205F0EA
:105CF00069FFD4F8D80205F038FF10BDFBF7C2FCED
:105D0000F2E7000010B50446D0F8D80205F05DFFB8
:105D1000637A23B1044A136943F006031361034B0A
:105D200000221A7010BD00BF00ED00E08850002076
:105D300008B5437A23B1054A136923F006031361BA
:105D4000D0F8D80205F04BFF08BD00BF00ED00E021
:105D500010B503461C48C0F8D832C3F8C4021B4B28
:105D600003600823037102234371C371012303728B
:105D7000002343728372C37202F05CFC08BB124CB6
:105D8000142300221146204603F088FB54230022EE
:105D90008021204603F082FB9423002281212046AB
:105DA00003F07CFBD42300220121204603F076FB84
:105DB0004FF48A7300228221204603F06FFB0020FB
:105DC00010BDFBF75FFCDAE78C500020005C004060
:105DD00008B5D0F8C40202F088FCFFF72BFF08BD1D
:105DE00008B594461A466346D0F8C40203F019FA7F
:105DF000FFF720FF08BD08B5D0F8C40203F054FA3D
:105E0000FFF718FF08BD08B5D0F8C40203F0CEFABA
:105E1000FFF710FF08BD08B5D0F8C40203F0FFFA81
:105E2000FFF708FF08BDD0F8C43211F0800F08D189
:105E300001F07F0101EB810103EBC10393F85201F3
:105E4000704701F07F0101EB810103EBC103987CF6
:105E50007047000008B5D0F8C40203F0F6F8FFF769
:105E6000E9FE024B01221A7008BD00BF88500020D5
:105E700008B5D0F8C40203F073FAFFF7DBFE08BDE3
:105E800008B5D0F8C40203F045FAFFF7D3FE08BD09
:105E900008B5D0F8C40203F05AFA08BD00487047AC
:105EA000684E00207047000008B5FBF74BFCFCF77C
:105EB00075FCFEF7DBFCFEF78FFDFEF70DFCFCF733
:105EC00073FDFEF72BFE4FF4E1310020FEF700FDDD
:105ED0001248FEF741FD12491248FEF73DFD1249F6
:105EE0001248FEF739FD03F041FE114981FB0031F4
:105EF000C017C0EBA1410F48FEF72EFD0E48FEF77C
:105F00002BFDFDF7A1FFFCF7FDFEFFF761F9012076
:105F1000FFF76AF9FDF756FF012008BDF8170108E1
:105F2000101801081C18010834180108401801084D
:105F300083DE1B43581801085C0E0108104B1B68D8
:105F40000BB90120704710B504464FF47A70B0FBCE
:105F5000F3F30C4A1068B0FBF3F000F0CBF868B92B
:105F60000F2C01D901200AE0002221464FF0FF301A
:105F700000F0A8F8044B1C60002000E0012010BDD8
:105F800094010020000000209801002010B503209B
:105F900000F086F80020FFF7D1FF10B10124204661
:105FA00010BD0446FBF72EFCF9E70000034A136816
:105FB000034909680B441360704700BF6853002011
:105FC00094010020014B1868704700BF68530020FF
:105FD00038B50446FFF7F6FF0546B4F1FF3F02D09F
:105FE000044B1B681C44FFF7EDFF401BA042FAD393
:105FF00038BD00BF94010020002807DB00F01F021D
:10600000400901239340024A42F82030704700BF04
:1060100000E100E000280CDB00F01F024009012332
:1060200093402030034A42F82030BFF34F8FBFF334
:106030006F8F704700E100E0002808DB0901C9B25A
:1060400000F1604000F5614080F80013704700F0F7
:106050000F000901C9B2014B1954704714ED00E05B
:1060600000B500F00700C0F1070CBCF1040F28BF19
:106070004FF0040C031D062B0FD9C31E4FF0FF3E3B
:106080000EFA0CF021EA000199400EFA03FE22EA12
:106090000E0241EA02005DF804FB0023EEE7000077
:1060A000074AD36823F4E0631B041B0C000200F4CE
