:020000040800F2
:10000000007800202D1D0008791800087B180008D2
:100010007D1800087F180008811800080000000003
:10002000000000000000000000000000851800082B
:1000300083180008000000008718000889180008CD
:100040007D1D00087D1D00087D1D00087D1D000828
:10005000CD3D00087D1D00087D1D00087D1D0008A8
:100060007D1D00087D1D00087D1D00087D1D000808
:100070007D1D00087D1D00087D1D00087D1D0008F8
:100080007D1D0008000000007D1D00087D1D00088A
:100090001D540008A53C00087D1D00087D1D0008BA
:1000A0007D1D00087D1D00087D1D00087D1D0008C8
:1000B0007D1D00087D1D00087D1D00087D1D0008B8
:1000C000F14400087D1D0008014500087D1D000861
:1000D0007D1D00087D1D00087D1D00087D1D000898
:1000E0007D1D00087D1D00087D1D00087D1D000888
:1000F0007D1D00087D1D00087D1D0008000000001A
:10010000000000007D1D0008000000007D1D0008AB
:100110007D1D0008000000007D1D00087D1D0008F9
:100120007D1D00087D1D00087D1D00087D1D000847
:100130007D1D000800000000000000007D1D00087B
:100140007D1D00087D1D000800000000000000006B
:10015000000000000000000000000000000000009F
:100160000000000000000000000000007D1D0008ED
:100170007D1D0008000000000000000000000000DD
:10018000000000007D1D00080000000000000000CD
:10019000000000000000000000000000000000005F
:1001A00000000000000000007D1D00087D1D00080B
:1001B0007D1D00087D1D00087D1D00080000000059
:1001C000000000007D1D000800000000000000008D
:0801D0007D1D00087D1D0008E3
:1004000020524556563235303232305231000000DB
:1004100000000000000000000000000000000000DC
:100420000000000053544D33324734333100000094
:1004300000000000000000000000000000000000BC
:080440000000000000000008AC
:1008000010B5054C237833B9044B13B10448AFF34A
:1008100000800123237010BD84030020000000002D
:100820009407010808B5034B1BB103490348AFF314
:10083000008008BD00000000880300209407010824
:1008400010F8012B11F8013B012A28BF9A42F7D07A
:10085000D01A7047000000000000000000000000F7
:1008600001F0FF01102A2BDB10F0070F08D010F861
:10087000013B013A8B422DD010F0070F42B3F6D165
:10088000F0B441EA012141EA014122F007047FF07E
:1008900000070023F0E80256083C85EA010586EAD5
:1008A000010685FA47F5A3FA87F586FA47F6A5FA11
:1008B00087F68EB9EED1F0BC01F0FF0102F007021D
:1008C00032B110F8013B013A83EA010313B1F8D1C8
:1008D0000020704701387047002D06BF35460338A9
:1008E000073815F0010F07D1013015F4807F02BFE2
:1008F000013015F4C03F0130F0BC0138704700BF33
:10090000034613F8012B002AFBD1181A013870474F
:1009100081F0004102E000BF83F0004330B54FEAB0
:1009200041044FEA430594EA050F08BF90EA020F1D
:100930001FBF54EA000C55EA020C7FEA645C7FEAB0
:10094000655C00F0E2804FEA5454D4EB5555B8BFD3
:100950006D420CDD2C4480EA020281EA030382EA44
:10096000000083EA010180EA020281EA0303362DD6
:1009700088BF30BD11F0004F4FEA01314FF4801CA9
:100980004CEA113102D0404261EB410113F0004FBB
:100990004FEA03334CEA133302D0524263EB430372
:1009A00094EA050F00F0A780A4F10104D5F1200E10
:1009B0000DDB02FA0EFC22FA05F2801841F100016B
:1009C00003FA0EF2801843FA05F359410EE0A5F13F
:1009D00020050EF1200E012A03FA0EFC28BF4CF070
:1009E000020C43FA05F3C01851EBE37101F0004526
:1009F00007D54FF0000EDCF1000C7EEB00006EEB33
:100A00000101B1F5801F1BD3B1F5001F0CD34908BC
:100A10005FEA30004FEA3C0C04F101044FEA445213
:100A200012F5800F80F09A80BCF1004F08BF5FEA9A
:100A3000500C50F1000041EB045141EA050130BD7A
:100A40005FEA4C0C404141EB0101013C28BFB1F58C
:100A5000801FE9D291F0000F04BF01460020B1FAD7
:100A600081F308BF2033A3F10B03B3F120020CDAAA
:100A70000C3208DD02F1140CC2F10C0201FA0CF088
:100A800021FA02F10CE002F11402D8BFC2F1200CED
:100A900001FA02F120FA0CFCDCBF41EA0C019040A3
:100AA000E41AA2BF01EB0451294330BD6FEA0404EC
:100AB0001F3C1CDA0C340EDC04F11404C4F12002D7
:100AC00020FA04F001FA02F340EA030021FA04F3E9
:100AD00045EA030130BDC4F10C04C4F1200220FA40
:100AE00002F001FA04F340EA0300294630BD21FA7E
:100AF00004F0294630BD94F0000F83F4801306BF44
:100B000081F480110134013D4EE77FEA645C18BF37
:100B10007FEA655C29D094EA050F08BF90EA020FCE
:100B200005D054EA000C04BF1946104630BD91EAC6
:100B3000030F1EBF0021002030BD5FEA545C05D1C9
:100B40004000494128BF41F0004130BD14F5800408
:100B50003CBF01F5801130BD01F0004545F0FE417C
:100B600041F470014FF0000030BD7FEA645C1ABFB1
:100B7000194610467FEA655C1CBF0B46024650EAE8
:100B8000013406BF52EA033591EA030F41F4002114
:100B900030BD00BF90F0000F04BF0021704730B59A
:100BA0004FF4806404F132044FF000054FF000016F
:100BB00050E700BF90F0000F04BF0021704730B530
:100BC0004FF4806404F1320410F0004548BF404205
:100BD0004FF000013EE700BF42004FEAE2014FEA5A
:100BE00031014FEA02701FBF12F07F4393F07F4F35
:100BF00081F06051704732F07F4208BF704793F038
:100C00007F4F04BF41F40021704730B54FF460744A
:100C100001F0004521F000411CE700BF50EA01024D
:100C200008BF704730B54FF000050AE050EA0102F6
:100C300008BF704730B511F0004502D5404261EB66
:100C400041014FF4806404F132045FEA915C3FF4A7
:100C5000D8AE4FF003025FEADC0C18BF03325FEA44
:100C6000DC0C18BF033202EBDC02C2F1200300FAF5
:100C700003FC20FA02F001FA03FE40EA0E0021FA1A
:100C800002F11444BDE600BF70B54FF0FF0C4CF408
:100C9000E06C1CEA11541DBF1CEA135594EA0C0FBA
:100CA00095EA0C0F00F0DEF82C4481EA030621EAF5
:100CB0004C5123EA4C5350EA013518BF52EA033530
:100CC00041F4801143F4801338D0A0FB02CE4FF0E2
:100CD0000005E1FB02E506F00042E0FB03E54FF012
:100CE0000006E1FB03569CF0000F18BF4EF0010E0A
:100CF000A4F1FF04B6F5007F64F5407404D25FEA06
:100D00004E0E6D4146EB060642EAC62141EA5551B8
:100D10004FEAC52040EA5E504FEACE2EB4F1FD0CFA
:100D200088BFBCF5E06F1ED8BEF1004F08BF5FEA78
:100D3000500E50F1000041EB045170BD06F000462A
:100D400046EA010140EA020081EA0301B4EB5C04D7
:100D5000C2BFD4EB0C0541EA045170BD41F48011CF
:100D60004FF0000E013C00F3AB8014F1360FDEBFF4
:100D7000002001F0004170BDC4F10004203C35DAD0
:100D80000C341BDC04F11404C4F1200500FA05F353
:100D900020FA04F001FA05F240EA020001F00042F4
:100DA00021F0004110EBD37021FA04F642EB06016A
:100DB0005EEA430E08BF20EAD37070BDC4F10C0494
:100DC000C4F1200500FA04F320FA05F001FA04F258
:100DD00040EA020001F0004110EBD37041F1000144
:100DE0005EEA430E08BF20EAD37070BDC4F120054F
:100DF00000FA05F24EEA020E20FA04F301FA05F2B7
:100E000043EA020321FA04F001F0004121FA04F25E
:100E100020EA020000EBD3705EEA430E08BF20EA2E
:100E2000D37070BD94F0000F0FD101F00046400068
:100E300041EB010111F4801F08BF013CF7D041EAEA
:100E4000060195F0000F18BF704703F000465200EE
:100E500043EB030313F4801F08BF013DF7D043EABF
:100E60000603704794EA0C0F0CEA135518BF95EA75
:100E70000C0F0CD050EA410618BF52EA4306D1D1FC
:100E800081EA030101F000414FF0000070BD50EA1B
:100E9000410606BF1046194652EA430619D094EAA5
:100EA0000C0F02D150EA013613D195EA0C0F05D18F
:100EB00052EA03361CBF104619460AD181EA0301E3
:100EC00001F0004141F0FE4141F470014FF000009B
:100ED00070BD41F0FE4141F4780170BD70B54FF036
:100EE000FF0C4CF4E06C1CEA11541DBF1CEA1355B6
:100EF00094EA0C0F95EA0C0F00F0A7F8A4EB050498
:100F000081EA030E52EA03354FEA013100F088808E
:100F10004FEA03334FF0805545EA131343EA126357
:100F20004FEA022245EA111545EA10654FEA00260C
:100F30000EF000419D4208BF964244F1FD0404F5C5
:100F4000407402D25B084FEA3202B61A65EB030521
:100F50005B084FEA32024FF480104FF4002CB6EBDE
:100F6000020E75EB030E22BFB61A754640EA0C005E
:100F70005B084FEA3202B6EB020E75EB030E22BF9E
:100F8000B61A754640EA5C005B084FEA3202B6EBDF
:100F9000020E75EB030E22BFB61A754640EA9C009E
:100FA0005B084FEA3202B6EB020E75EB030E22BF6E
:100FB000B61A754640EADC0055EA060E18D04FEA2C
:100FC000051545EA16754FEA06164FEAC30343EACC
:100FD00052734FEAC2025FEA1C1CC0D111F4801F99
:100FE0000BD141EA00014FF000004FF0004CB6E792
:100FF00011F4801F04BF01430020B4F1FD0C88BF31
:10100000BCF5E06F3FF6AFAEB5EB030C04BFB6EB3B
:10101000020C5FEA500C50F1000041EB045170BD2E
:101020000EF0004E4EEA113114EB5C04C2BFD4EB5B
:101030000C0541EA045170BD41F480114FF0000EDF
:10104000013C90E645EA060E8DE60CEA135594EA5B
:101050000C0F08BF95EA0C0F3FF43BAF94EA0C0F5E
:101060000AD150EA01347FF434AF95EA0C0F7FF4D3
:1010700025AF104619462CE795EA0C0F06D152EA27
:1010800003353FF4FDAE1046194622E750EA41060B
:1010900018BF52EA43067FF4C5AE50EA41047FF41C
:1010A0000DAF52EA43057FF4EBAE12E74FF0FF3C81
:1010B00006E000BF4FF0010C02E000BF4FF0010C52
:1010C0004DF804CD4FEA410C7FEA6C5C4FEA430CCB
:1010D00018BF7FEA6C5C1BD001B050EA410C0CBF1A
:1010E00052EA430C91EA030F02BF90EA020F00207C
:1010F000704710F1000F91EA030F58BF994208BFE3
:1011000090422CBFD8176FEAE37040F0010070479F
:101110004FEA410C7FEA6C5C02D150EA013C07D1F6
:101120004FEA430C7FEA6C5CD6D152EA033CD3D041
:101130005DF8040B704700BF8446104662468C463B
:101140001946634600E000BF01B5FFF7B7FF00286E
:1011500048BF10F1000F01BD4DF808EDFFF7F4FF97
:101160000CBF012000205DF808FB00BF4DF808ED22
:10117000FFF7EAFF34BF012000205DF808FB00BF45
:101180004DF808EDFFF7E0FF94BF012000205DF867
:1011900008FB00BF4DF808EDFFF7CEFF94BF01201C
:1011A00000205DF808FB00BF4DF808EDFFF7C4FF15
:1011B00034BF012000205DF808FB00BF4FEA410C5E
:1011C0007FEA6C5C02D150EA013C0AD14FEA430C41
:1011D0007FEA6C5C02D152EA033C02D14FF000007E
:1011E00070474FF0010070474FEA410212F50012BC
:1011F00015D211D56FF47873B3EB625212D94FEA5E
:10120000C12343F0004343EA505311F0004F23FA47
:1012100002F018BF404270474FF00000704750EA9C
:10122000013005D111F0004008BF6FF00040704759
:101230004FF00000704700BF4A0011D212F50012B3
:1012400011D20DD56FF47873B3EB62520ED44FEA1E
:10125000C12343F0004343EA505323FA02F070479E
:101260004FF00000704750EA013002D14FF0FF30DC
:1012700070474FF0000070474FEA4102B2F1E0437F
:1012800024BFB3F5001CDCF1FE5C0DD901F0004C6D
:101290004FEAC0024CEA5070B2F1004F40EB8300BD
:1012A00008BF20F00100704711F0804F21D113F1E9
:1012B0003872BCBF01F00040704741F480114FEA22
:1012C0005252C2F11802C2F1200C10FA0CF320FAAB
:1012D00002F018BF40F001004FEAC1234FEAD323C8
:1012E00003FA0CFC40EA0C0023FA02F34FEA430332
:1012F000CCE77FEA625307D150EA01331EBF4FF0BB
:10130000FE4040F44000704701F0004040F0FE40D5
:1013100040F40000704700BF53B94AB9002908BF24
:1013200000281CBF4FF0FF314FF0FF3000F0BEB976
:10133000ADF1080C6DE904CE00F03CF8DDF804E0F6
:10134000DDE9022304B0704738B5002200230446CB
:101350000D46FFF70BFF28B920462946BDE8384067
:1013600000F00AB8204605F1004100F005F84042BF
:1013700061EB410138BD00BFD0B50C4B00220646E1
:101380000F46FFF781FCFFF757FF0446FFF702FC0B
:10139000074B0022FFF778FC02460B4630463946E1
:1013A000FFF7BAFAFFF748FF2146D0BD0000F03D35
:1013B0000000F0412DE9F047089D8E46044688461E
:1013C000002B4AD18A42174662D9B2FA82F64EB150
:1013D000C6F1200301FA06F820FA03F3B74043EA06
:1013E0000808B4404FEA174E1FFA87FCB8FBFEF11D
:1013F000230C0EFB118843EA084301FB0CF29A42CE
:1014000009D9FB1801F1FF3080F0EA809A4240F2DE
:10141000E78002393B449A1AA3B2B2FBFEF00EFBFE
:10142000102243EA024300FB0CFC9C4509D9FB183F
:1014300000F1FF3280F0D6809C4540F2D3803B44DF
:10144000023840EA0140A3EB0C0300211DB1F34038
:101450000022C5E90032BDE8F0878B4205D90DB105
:10146000C5E9000100210846F5E7B3FA83F1002938
:1014700046D1734502D3824200F20581841A6EEB95
:10148000030201209046002DE5D0C5E90048E2E7BF
:10149000002A00F09080B2FA82F6002E40F0A4807C
:1014A0008A1A030C4FEA174E80B2BCB20121B2FB7C
:1014B000FEFC0EFB1C2243EA024304FB0CF29A42A0
:1014C00007D9FB180CF1FF3802D29A4200F2E080F3
:1014D000C4469B1AB3FBFEF20EFB123340EA0343F1
:1014E00002FB04F49C4207D9FB1802F1FF3002D240
:1014F0009C4200F2CA8002461B1B42EA0C40A5E750
:10150000C1F120068B4022FA06F71F430EFA01F4C0
:1015100020FA06F32EFA06FE4FEA1749234300FA93
:1015200001F81FFA87FCBEFBF9F01C0C09FB10EE5A
:1015300044EA0E4400FB0CFEA64502FA01F209D96A
:101540003C1900F1FF3A80F09C80A64540F299805A
:1015500002383C44A4EB0E041FFA83FEB4FBF9F3FB
:1015600009FB13444EEA044403FB0CFCA44508D9D0
:101570003C1903F1FF3E80F08280A4457FD9023BF5
:101580003C4443EA0040A4EB0C04A0FB02EC64459D
:101590007346E14662D35FD05DB1B8EB030264EB02
:1015A000090404FA06F622FA01F31E43CC40C5E909
:1015B000006400214FE7B1FBF2FC010C41EA0E414F
:1015C00080B240EA01423B4638463C46B846BE46F9
:1015D0002026B1FBF7F1A2EB080241EA0C4166E7D5
:1015E000014618E710462CE7C6F120022EFA02F356
:1015F000B740B14020FA02F24FEA174E0A43B3FB5C
:10160000FEF8BCB20EFB1833110C41EA034108FB93
:1016100004F9B04089454FEA104380B23ED97918A9
:1016200008F1FF3C01D289451FD8A1EB0901B1FBAC
:10163000FEF909FB04F80EFB191192B242EA0142CD
:10164000424529D2BA1809F1FF31C4D24245C2D26B
:10165000A9F102013A44BEE7F0459DD2BEEB020378
:101660006CEB070C0138E14696E7A7EB0909494402
:10167000A8F1020CB1FBFEF909FB04F8DBE77346A5
:101680007FE7504666E70846FDE63B44023A33E70B
:10169000ACF1020C3B441CE749469CE7A1EB090175
:1016A000C446B1FBFEF909FB04F8C4E7704700BF6C
:1016B00008B504F08FFC08BD08B504F085FC08BD32
:1016C00072B6FEE710B5A4B03822002116A80CF0BF
:1016D000D5FA00241194129413941494159444226E
:1016E000214668460CF0CAFA204607F001FF07F0D1
:1016F000F7FE214AD2F8903023F01803C2F8903058
:10170000252316934FF480331793012218921C92CD
:1017100002231D9303211E911F92282220922193C0
:1017200004222292239316A807F09CFFE8B90F2306
:1017300011930323129300231393149315930421FD
:1017400011A808F045FA90B90C4B009300230693BA
:101750004FF080720C920D934FF480731093684693
:1017600008F05CFB28B924B010BDFFF7A9FFFFF714
:10177000A7FFFFF7A5FF00BF0010024040300800A0
:1017800000B58BB004F004FCFFF79CFF2B4B1A6EE6
:1017900042F001021A661A6E02F001020192019AE9
:1017A0009A6D42F080529A659A6D02F080520292D0
:1017B000029ADA6C42F00102DA64DA6C02F0010299
:1017C0000392039ADA6C42F00202DA64DA6C02F0F5
:1017D00002020492049ADA6C42F00402DA64DA6CCF
:1017E00002F004020592059ADA6C42F00802DA640B
:1017F000DA6C02F008020692069ADA6C42F01002E5
:10180000DA64DA6C02F010020792079ADA6C42F09E
:101810002002DA64DA6C02F020020892089ADA6C8C
:1018200042F04002DA64DB6C03F040030993099B49
:1018300007F0E4FE01200BB05DF804FB001002404D
:1018400000B583B00B4B1A6E42F001021A661A6E95
:1018500002F001020092009A9A6D42F080529A655D
:101860009B6D03F080530193019B07F0C7FE03B00B
:101870005DF804FB00100240FEE7FEE7FEE7FEE72E
:10188000FEE770477047704708B504F091FB03F01E
:10189000A9F808BD0120704708B50CF07FFA16239F
:1018A00003604FF0FF3008BD08B54FF0FF31FFF780
:1018B000F3FFFEE770B50C461646002506E0AFF3D1
:1018C0000080214601F8010B01350C46B542F6DBDC
:1018D000304670BD70B50C461646002504E014F87D
:1018E000010BAFF300800135B542F8DB304670BD27
:1018F0004FF0FF3070474FF400534B6000207047AB
:10190000012070470020704710B503460C4A0D496E
:101910000D48006840B10C4800680344521A9342D5
:1019200006D8094A136010BD0748084C0460F2E766
:101930000CF034FA0C2303604FF0FF30F3E700BFE4
:101940000078002000040000A0030020C8540020FC
:10195000044BD3F8882042F47002C3F88820024A6E
:101960009A60704700ED00E00000000808B504F040
:1019700093FA00F053F800F065F8002008BD00006D
:1019800010B50F4B1B78012B0ED0022B0ED001206F
:1019900002F076FE40F6B834FFF78EFE094B1B6866
:1019A000C31AA34205D210BD6424F5E74FF47A743C
:1019B000F2E7044B1860002002F09EFEF3E700BF40
:1019C000B1030020A403002010B5044603F040FC3E
:1019D00010B10123237010BD02232370FBE7000028
:1019E00010B5FFF7CDFF0A4C2046FFF7EDFF094B7E
:1019F0001A7823789A4203D0064A1370002010BD4B
:101A0000054B187810B100221A70F8E70120F6E7AC
:101A1000B0030020B10300200400002008B501211C
:101A2000084602F08FFA00F031F900F021F8034B7C
:101A3000034A1A60002002F027FF08BDAC03002013
:101A4000E119000808B502E0074800F051F9074B1A
:101A50001B78012BF8D0022B02D0FFF7C1FFF6E76D
:101A6000014800F019F8F2E7AC030020B1030020B0
:101A700000B583B04FF4E131012003F063F8052392
:101A80000093032301220021084601F0B9F9012047
:101A900003B05DF804FB0000F0B599B00746694853
:101AA00002F03EFF002316931793674B5E6828E011
:101AB000654B5968B14232D1002001F039FC01F088
:101AC0005BFB002834D1002001F066FA002834D1F5
:101AD000179BE31AB3F5FA7F73D2012003F0DEF807
:101AE000002840F08880012003F0F8F88DF80B0002
:101AF000002840F08780012003F0D0F8002840F053
:101B00008D803B689847002800F09780FFF7D4FD50
:101B10000446169BC31A632BCAD91690C8E74B48D4
:101B200000F062FB002001F0DBFB474B5E68C3E77F
:101B30004749012003F040F9C5E703A9002001F05F
:101B4000ADFABDF810200DF11201012003F008F9E3
:101B5000404B1968404AA2FB0102520B42F210703E
:101B600000FB12121A60511C19603C49032003F05B
:101B700023F99DF8533063B93949032003F01CF968
:101B8000BDF81030039A3749032003F015F90025FA
:101B90000EE03549032003F00FF9F1E705F160038A
:101BA0006B4413F84E2C3149032003F005F901353D
:101BB000BDF81030AB42F1DC2D49032003F0FCF8F6
:101BC00086E717942B4B1C6801341C60032003F03C
:101BD00065F80546012003F061F800902B46224687
:101BE0002549032003F0E8F8032003F0A5F80120BD
:101BF00002F082FD71E71F4B1A682049012003F0B3
:101C0000DBF870E702461E49032003F0D5F80122F5
:101C10000DF10B01104603F0A3F86CE7194B1B788C
:101C20003F2B02D9174B00221A70002300E001332A
:101C3000BDF810209A42FADC63E7134802F070FE08
:101C400019B0F0BD00080108000B002010080108C1
:101C500020080108BC0300205917B7D13408010837
:101C600044080108540801084C08010868080108E4
:101C700070080108B40300207408010884080108F2
:101C800090080108B8030020A408010808B54FF423
:101C9000E131002000F014FA4FF4E131002002F0AD
:101CA00051FF4FF4E131022002F04CFF4FF4E131DB
:101CB000032002F047FF012008BD10B503F0C8FA69
:101CC00038B9002400F014FAA0420AD100F064FCF4
:101CD00010BD03F0E1FA012801D00024F2E703244B
:101CE000F0E74FF4E131204600F0EAF9EEE70000BA
:101CF00038B505460B4802F013FEFFF7DDFC04463D
:101D00002B68984750B1FFF7D7FC001B0128F7D983
:101D1000FFF7D2FC0446FFF7D0FFF1E7024802F0DC
:101D2000FFFD38BDB4080108C40801080D48854608
:101D3000FFF70EFE0C480D490D4A002302E0D4586F
:101D4000C4500433C4188C42F9D30A4A0A4C002305
:101D500001E013600432A242FBD30CF025F8FFF738
:101D600005FEFEE70078002000000020840300202C
:101D7000C01C010884030020C4540020FEE7034671
:101D80000020186058609A600120D860196170477F
:101D900010B40024046044608360C26001610120CB
:101DA0005DF8044B7047F0B500270CE00CEB030521
:101DB00011F803E006F805E00133C5689D42F5D847
:101DC000294404600137974213D205686B1C84686C
:101DD000B3FBF4F604FB16344368A3420BD0066948
:101DE000002EEED00029ECD0C36803FB05FC0023D5
:101DF000E3E70120F0BD0020FCE770B50C46164675
:101E0000002516E001EB0E0C1CF803C004F803C01B
:101E10000133C2689A42F5D8144443680268934279
:101E200016D001338268B3FBF2F102FB1133436039
:101E30000135B5420AD201690029EED0002CECD060
:101E40004368C26802FB03FE0023E2E7012070BD85
:101E50000020FCE703690268C06800FB023070479D
:101E6000036842689B1A8268B3FBF2F002FB1030F1
:101E70007047002380F8F23380F8F1333F2280F876
:101E8000F02380F8B033704738B5054690F8964196
:101E900004EB441004EB40002844432205F56C7128
:101EA00000F5CC700BF0AFFF95F89731072B02D8F7
:101EB000013385F8973185F895410134634204F088
:101EC000070403F0070358BF5C4285F896410123DD
:101ED00085F8943138BD002303E08CF800200133ED
:101EE0009BB20F2B0BD800EB030CC25C3AB1A2F1F2
:101EF0006101C9B21929F0D8203AD2B2EDE7102B0E
:101F000000D07047013B0022C254FAE7064BB3F8F9
:101F10007836984205D2044BD3F87C3653F820002B
:101F200070470020704700BFC003002008B503467B
:101F3000094AB2F8782690420AD20846064AD2F8F0
:101F40007C2652F82310FEF77BFC18B1002000E03D
:101F5000002008BD0120FCE7C003002008B5084BA5
:101F6000B3F87836984202D39FED060A08BD044BB9
:101F7000D3F87C36002153F820000AF0D5FFF5E7AE
:101F8000C00300200000000008B5084BB3F8783605
:101F9000984201D3002008BD044BD3F87C360022C0
:101FA000114653F820000BF091F8F4E7C00300202D
:101FB00010B504460449007802F0FEFE034920787B
:101FC00002F0FAFE10BD00BFD4080108D8080108CD
:101FD00038B590F8973143B304460D4690F8F12395
:101FE00022BB94F8F22332BB012D29D094F995112C
:101FF000013194F8973191FBF3F203FB121184F84D
:102000009511C9B201EB411301EB43012144432275
:1020100001F5CC7104F56C700BF0F5FE94F8F23319
:1020200084F8F133002384F8943138BD0F490078E7
:1020300002F0C2FED5E70E49207802F0BDFED3E7DC
:1020400094F894311BB194F9963184F8953194F950
:10205000951194F897311944013991FBF3F203FB80
:10206000121184F89511C9B2CCE700BFE00801084D
:10207000E808010870B582B006460024A0F81241B5
:1020800000F58A75C0F8144101AA0C4900F56C707E
:102090000BF036FE234609E05C1CA4B245F8230091
:1020A00001AA064900200BF02BFE23460028F3D19D
:1020B000A6F8123103B1012002B070BDF00801088A
:1020C0000A4B18701B7A1BB1084B5B688B4200D01F
:1020D00011B9064B187A704710B5044C616002F0D4
:1020E00031FD2072014B187A10BD00BFC0030020E3
:1020F000014B1878704700BFC003002038B5234B50
:102100005B7A03B938BD054690F8F1232049807AFF
:1021100002F052FE95F8F2231E49A87A02F04CFE16
:1021200095F8F0231C49A87A02F046FE05F56C727A
:102130001A49A87A02F040FE95F995211849A87A23
:1021400002F03AFE95F896211649A87A02F034FE7C
:1021500095F897211449A87A02F02EFE00240CE08D
:1021600004EB441304EB430303F5CC732B442246E6
:102170000E49A87A02F020FE013495F89731A34267
:10218000EEDC0B49A87A02F017FEBBE7C003002083
:10219000F8080108080901081809010828090108B8
:1021A00038090108480901085809010868090108A7
:1021B0007008010808B5024B187802F06FFD08BDE1
:1021C000C003002008B5024B187802F087FD08BD57
:1021D000C003002008B50A460146024B187802F0F9
:1021E000BFFD08BDC00300200FB410B582B004AB22
:1021F00053F8042B0193084C4FF4807120460BF0E8
:102200002FFD0246214614F8110C02F0A9FD02B080
:10221000BDE8104004B07047D103002038B5054632
:10222000FFF728FF08B9002038BD1648FFF7DCFF8C
:10223000D5F81401FFF74FFE0024B5F8F433A3429C
:10224000F1DD04EB8401890001F57E712944D5F8A4
:102250001401FEF7F5FA08B10134EEE7B5F81231D2
:10226000013BA5F8783605F58C73C5F87C3604EB90
:10227000840405EB8404D4F8083405F5CF6098474E
:10228000D1E700BF7809010830B585B004468DF864
:102290000710037CABB9CBB21B2B30D01CD8082B5A
:1022A0004BD00D2B40F0848090F8F2330BBB002311
:1022B00084F8F23384F8F13384F8B0332046FFF722
:1022C00077FE237C013B032B00F2C880DFE813F08C
:1022D000C400CC00CF0056017F2B69D190F8F1C328
:1022E00090F8F2E3F445ECD2AEEB0C05EDB201222E
:1022F00012E0FFF7C9FD2046FFF790FFD7E7012363
:102300000374DEE70CEB0203591E234493F8B00379
:10231000631883F8B00301329542F3DC0EF1FF3EFF
:102320005FFA8EFE84F8F2E3A64400238EF8B03301
:102330009449207802F040FDC3E790F8F2335BB394
:1023400090F8F10340B3834209D094F8F2C360459A
:1023500022D2ACEB000E5FFA8EFE002211E0013BB0
:10236000DBB284F8F2332344002283F8B023ECE795
:102370008318591E234493F8B053631883F8B0535D
:1023800001329645F4DC0CF1FF33DBB284F8F23312
:102390002344002283F8B02394F8F133002B90D02B
:1023A000013B84F8F1337849207802F005FD88E795
:1023B00094F8F233591C94F8F023914281DA94F89E
:1023C000F123934216D094F8F1C394F8F2038445B4
:1023D000BFF477AFA0EB0C05EDB20022954224DDEF
:1023E000831A591E214491F8B013234483F8B01383
:1023F0000132F3E701220DF10701207802F0B0FC71
:1024000094F8F123A3189DF8071083F8B01394F8FB
:10241000F2330133DBB284F8F233013284F8F12372
:102420002344002283F8B023CDE79DF8072004EB76
:102430000C0383F8B0230130C0B284F8F2030CF12E
:10244000010C84F8F1C32044002380F8B0334F49D5
:10245000207802F0B1FC34E7022323742046FFF712
:102460004DFE002005B030BD03232374F6E70023A2
:1024700023749DF80730442B26D09DF80730432B5A
:1024800037D09DF80730412B4AD09DF80730422BBA
:1024900050D09DF80730312B56D09DF80730342BA3
:1024A000DCD194F8F13394F8F223934258D394F8A2
:1024B000F12394F8F2339A4259D894F8F23384F81D
:1024C000F13304232374C9E794F8F123002AD4D00C
:1024D000013A84F8F1231B228DF808205B228DF845
:1024E00009208DF80A30032202A9207802F038FC76
:1024F000C3E794F8F12394F8F2138A42C1D201326F
:1025000084F8F1231B228DF808205B228DF8092026
:102510008DF80A30032202A9207802F021FCB0E7EE
:1025200001212046FFF754FD04F56C71207802F07C
:1025300043FCAAE700212046FFF74AFD04F56C7131
:10254000207802F039FCA4E794F8F12310492078B0
:1025500002F032FC002384F8F133042323749CE757
:10256000D21A92B20B49207802F026FC9FE7D21AC9
:1025700092B20749207802F01FFC9EE700232374E3
:102580006CE700BF7C090108840901088C09010877
:10259000E00801089809010838B5094B1C7A0CB904
:1025A000204638BD187802F079FB0028F8D0044D99
:1025B000287802F093FB01462846FFF765FEEFE717
:1025C000C003002010B50F48FFF70EFE0E48FFF7BE
:1025D0000BFE00240CE004EB8403980000F57E70F1
:1025E0000A4B1844FFF700FE0648FFF7FDFD0134D3
:1025F000064BB3F8F433A342EDDC0548FFF7F4FDD6
:1026000010BD00BF78090108A0090108C00300201F
:10261000C40901082DE9F04383B00388446873B10D
:10262000012B12D810270022114620680AF04EFD17
:1026300006462C48FFF7D8FDB04600241BE02A4888
:10264000FFF7D2FD03B0BDE8F083002211466068B9
:102650000AF03CFD0746E6E731682448FFF7C4FD71
:10266000624204F0030302F0030258BF5342032BFB
:102670000BD004360134BC42E4DA14F0030FEBD182
:1026800031461B48FFF7B0FDE6E71A48FFF7ACFDFF
:102690004FF0000917E01848FFF7A6FD0135032D9C
:1026A0000DDC05F108036B4413F8041CA1F12003B1
:1026B000DBB25E2BEFD81148FFF796FDEEE708F18D
:1026C000040809F10109B9F1030F04DCD8F800305E
:1026D00001930025E3E70A48FFF786FD0120FEF796
:1026E000E7FFC6E7000A0108E8090108140A010823
:1026F000080A01081C0A0108240A0108200A010826
:10270000280A010808B5044B187802F0C7FA08B97E
:10271000012008BD0020FCE7C00300202DE9F041A6
:10272000114BB3F8F4531F2D02D90020BDE8F081FE
:102730000E46AF0005EB8504A40004F57E749846B0
:102740001C44014620460BF056FB2F4408EB87073C
:10275000C7F808642046FFF7BEFBB8F8F43301332E
:10276000A8F8F4330120E1E7C003002008B51248BF
:10277000002303724372037480F8953180F8963118
:1027800080F8973180F894310C4BC0F880360C4BB0
:10279000C0F884360B4BC0F888360B4BC0F88C362B
:1027A000FFF767FB09490A48FFF7B8FF09490A48DC
:1027B000FFF7B4FF012008BDC0030020891F0008F7
:1027C0005D1F00080D1F00082D1F0008C52500080B
:1027D000300A010815260008380A0108022801D924
:1027E0000020704770B504460A4D460000EB4003D8
:1027F00005EB8302918855F8230004F015FD26446B
:1028000005EB86052B7A984201D0002070BD01208F
:10281000FCE700BF3016010838B500242EE02C2359
:1028200003FB042501236B70FEF746FF686000225E
:1028300003E023440021D97001324C4B1B889342A2
:102840002ADD4B4B53F8223059780529F1D823441F
:102850000121D970F0E7012932D0464A2C2000FB33
:102860000422926A934231D2FEF726FF414B2C227A
:1028700002FB0433986000221A730134022C73DCCB
:10288000E0B2FFF7ABFF00283DD02C2304FB03F39D
:10289000384AD35C002BC2D036492C2304FB03F307
:1028A000CA180120C854538803449BB25380D1698D
:1028B0000029D0D12F4A2C2000FB0422126AD1E734
:1028C0002C4A2C2000FB0422526ACBE7294B2C22F5
:1028D00002FB043300225A800131D96101211976AB
:1028E00003E02344002159720132204B1B8893429C
:1028F000BADD1F4B53F8223059780529F1D823440B
:1029000001215972F0E72C2304FB03F3194AD35C2D
:1029100073B918492C2304FB03F3CD180022CA54C1
:1029200001232B73EA612A76FEF7C6FE6861A4E7ED
:102930002C2303FB042501236B73FEF7BDFE2861E6
:10294000002203E02344002199710132074B1B88C8
:102950009342DEDD064B53F8223059780529F1D831
:10296000234401219971F0E738BD00BF700A0020AF
:10297000500A0020740A002010B58AB00024059483
:1029800006940794089409942F4BDA6C42F00202E3
:10299000DA64DA6C02F002020392039ADA6C42F013
:1029A0000402DA64DB6C03F004030493049B012348
:1029B00007930CE0254B04EB440203EB82014968CA
:1029C000059105A953F8220004F0B6FA0134022C4F
:1029D000F0DD002012E01E4C2C2100FB01F16318F9
:1029E00000225A8062541A735A73DA613C211962C8
:1029F000FA215962C82199621A7601300228EADD6B
:102A0000002304E0134A002142F823100133072B6E
:102A1000F8DD02F055F8041E11DB002300930E4B85
:102A200002220A21204602F01FF8204602F036F862
:102A30000A490B48FFF772FE01200AB010BD094891
:102A400001F06EFFF4E700BF0010024030160108ED
:102A5000740A0020500A002019280008852B00085D
:102A60006C0A01083C0A01080346022808D8054AF6
:102A7000107830B12C2202FB03F3034AD05C70477C
:102A80000020704705000020740A0020032828BF9A
:102A90000320024B53F82000704700BF20160108A6
:102AA00002280ED8094B1B786BB182B0084B2C2240
:102AB00002FB00339A685B68D31A0193019802B055
:102AC0007047002070470020704700BF05000020BD
:102AD000740A002084B004AB03E90700134A904253
:102AE00016D00CDCA2F50062904213D002F5806291
:102AF000904211D0B0F1904F10D10D4811E00D4A25
:102B000090420DD002F5806290420CD10A4808E054
:102B10000A4806E00A4804E00A4802E00A4800E0E1
:102B20000A4804B070470848FBE700BF000C0048A3
:102B3000740A0108001000489C0A01088C0A010868
:102B40007C0A0108840A0108A40A0108940A010801
:102B500010B590B004464022002168460BF08EF874
:102B6000002022466408A2EB440210A901EB800376
:102B7000013043F8402C002CF3D10138C0B210B022
:102B800010BD00002DE9F04105460388012B0AD055
:102B900000272B88012B2ED02B88012B49D0002F0A
:102BA00072D0BDE8F08143693D490020984707464F
:102BB0000028EED000261BE0F0B2FFF767FF0146C9
:102BC0003848FFF711FB06EB4603374C04EB830450
:102BD00094E80700FFF77EFF01463448FFF704FB47
:102BE0006068FFF7B5FF01463148FFF7FDFA01368F
:102BF000022EE1DDCDE76B692E490020984706469D
:102C000080B9C9E7E0B2FFF72FFF01462A48FFF776
:102C1000EBFA0134022CF5DD3220FEF749FD27489E
:102C2000FFF7E2FAFFF76EFD08B10024F2E737463E
:102C3000B2E76B6922490020984780460028AED051
:102C4000AB680120984718E00134022C12DCE5B291
:102C50002846FFF709FF0028F6D02846FFF716FFA1
:102C600006462846FFF71CFF024631461548FFF787
:102C7000BBFAE9E70A20FEF71BFDFFF743FD08B1A9
:102C80000024E2E747468AE70F48FFF7ADFA0F480E
:102C9000FFF7AAFA03210E48FFF7A6FA81E700BF63
:102CA000B40A0108BC0A010830160108C40A010868
:102CB000C80A0108D00A0108D80A0108DC0A01087C
:102CC000E00A0108E80A0108000B0108100B0108DE
:102CD000200B010810B5002444B1134801F020FE78
:102CE00012491348FFF71AFD012010BD11494FF496
:102CF000236004FB00F00B1801220A5400225A70D2
:102D00005A601A72DA601A615A619A61DA6100F1E6
:102D1000B00C9830084420234C2261440430FFF763
:102D200037F80134E4B2D7E7500B0108B535000895
:102D3000640B0108000B00203F2810D82F2810D862
:102D40001F2810D8172810D8132810D80F2810D8EB
:102D50000B2810D8072800D87047082070470F208C
:102D600070470E2070470D2070470C2070470B20D5
:102D700070470A2070470920EEE70000014B1870E9
:102D800001207047F80A0020002831D100B587B033
:102D900084461ABB0092184A4FF4236000FB0C22B1
:102DA000126A402A1ED0022203920191134A12781D
:102DB000DAB9022202920493089B05934FF423632D
:102DC00003FB0CF030300C4B18446946043003F020
:102DD000B5FC78B1002007B05DF804FB4FF08042ED
:102DE0000092D8E701220392DFE700220292E2E795
:102DF000002070470120EEE7000B0020F80A0020B9
:102E00002DE9F04182B09DF820E018B1002002B019
:102E1000BDE8F08105464FF4236005FB00F000F1AA
:102E20003004564E3444043406EB000C5448CCF8BD
:102E300034000026CCF83860524850F82200CCF814
:102E40003C00514850F82100CCF840008CF8446018
:102E500001208CF845008CF846004FEA03184B48D7
:102E6000006800EB031750F80800CCF848007868B9
:102E7000CCF84C00B868CCF85000F868CCF8540096
:102E80004FEA0E184248006800EB0E1750F8080091
:102E9000CCF858007868CCF85C00B868CCF86000D2
:102EA000F868CCF864001C20CCF868000820CCF846
:102EB0006C00CCF870608CF828108CF829208CF805
:102EC0002A308CF82BE04023CCF82030314BCCF862
:102ED0002430CCF80460204603F046FB08B1002003
:102EE00095E73046FFF74AFF0096334632463146B3
:102EF0002846FFF749FF009633460122314628460F
:102F0000FFF742FF0096334602221146204603F0A7
:102F100048FC08B100207AE7184B4FF4236202FB0B
:102F200005333246596A204603F0E2FD08B100201D
:102F30006DE7124B4FF4236202FB0533996D1B6E54
:102F4000324603FB01F1204603F04CFC08B100209F
:102F50005DE7204603F057FC08B1002057E7204604
:102F600003F063FC38B9054B4FF4236202FB0533D1
:102F7000012058704BE7002049E700BF000B0020FC
:102F80000064004060160108541601080C0000207F
:102F90000800002007000E00012801D9002070471A
:102FA00008B54FF4236303FB00F09830024B18443C
:102FB0000430FEF755FF08BD000B0020012861D842
:102FC000F0B58BB00D461646324B4FF4236202FB30
:102FD00000335B6813F0030F56D113F0010F56D185
:102FE00002FB00F430342B4B1C44043491F847307E
:102FF0002BB1012B05D14FF08043029301E0002358
:10300000029395F84830012B17D0022B1BD00BB937
:10301000079306932B680193002309930893059364
:10302000039395F846201C4B53F822300493204616
:1030300003F058FD70B9002027E04FF40013079308
:1030400000230693E6E74FF4001307934FF4801331
:103050000693DFE7FEF730FB0746AA1D01A92046CD
:1030600003F03FFC08B100200FE0204603F03AFDDA
:1030700030B9FEF721FBC01BB042F6D3002004E0BC
:10308000012002E00020704700200BB0F0BD0020BE
:10309000FBE700BF000B00206C160108012801D9D6
:1030A0000020704708B54FF4236303FB00F098300D
:1030B000034B184401220430FEF79FFE08BD00BFF9
:1030C000000B0020012801D90020704700B585B011
:1030D0004FF4236303FB00F03030074B184469467C
:1030E000043003F0F0FC20B9BDF8040005B05DF831
:1030F00004FB0020FAE700BF000B0020012801D9E3
:103100000020704700B585B04FF4236303FB00F047
:103110003030074B18446946043003F0D4FC20B922
:10312000BDF8000005B05DF804FB0020FAE700BF21
:10313000000B002001281BD838B50E4B4FF423623A
:1031400002FB00335B7803B938BD0A4C02FB00F088
:10315000251800226A60303004440434204603F00D
:103160007BFB204603F061FBEB680133EB60EBE790
:10317000704700BF000B002038B50024254609E049
:10318000194B4FF4236202FB04331B7A33B1012B3A
:1031900018D00134002CF3DD284638BD124B4FF413
:1031A000236202FB04335B6813F0030FF1D0E0B23B
:1031B000FFF7C0FF0C4B4FF4236202FB04330125E1
:1031C0001D72E6E7084B4FF4236202FB04335B6891
:1031D00013F0030FDDD1044B02FB043300221A72FB
:1031E0000248FFF701F8D4E7000B0020680B010844
:1031F0002DE9F0438BB0804689464FF4236707FBE7
:1032000000F707F19805344E354404352846FEF79B
:1032100021FE04463E44831D6A46316A484603F057
:1032200089FB00283DD1019B002B3DD1009B2360F1
:10323000002384F84730039B03F00F03274A52F81A
:103240002300A080C0B2FFF777FD84F84600069BFC
:10325000B3F5001F2ED0002384F848301E4B4FF4E6
:10326000236202FB0833DA6A0132DA6201220021AA
:103270002846FEF798FD38B9174B4FF4236202FB3E
:1032800008331A6901321A61134B4FF4236202FBAF
:103290000833D3F8983023B122460121404698479D
:1032A000A0B90BB0BDE8F083009B2360012384F834
:1032B0004730C0E7059BB3F5801F03D0012384F896
:1032C0004830CBE7022384F84830C7E701220021C9
:1032D0002846FEF792FDE4E7000B0020AC1601083B
:1032E00001281CD810B50E4B4FF4236202FB0033AB
:1032F0005C6814F0010F06D114F0020F07D114F02E
:10330000030F08D110BD074801F00AFBF4E7064897
:1033100001F006FBF3E7054801F002FBF2E7704716
:10332000000B0020840B0108A00B0108BC0B010856
:1033300010B58CB004464FF4236004FB00F030302D
:103340002D4B184401A9043003F098FB049B002B7B
:1033500032D0294B4FF4236202FB04335A6842F007
:1033600001025A600221059B8BB3234B4FF4236269
:1033700002FB04335A6842F002025A600321069BA2
:103380007BB31D4B4FF4236202FB04335A6842F0B7
:1033900003025A600421184B4FF4236202FB0433EA
:1033A000D3F898301BB111B100222046984720462F
:1033B000FFF796FF0CB010BD0F4B4FF4236202FBDA
:1033C00004335A6822F001025A600021CBE70A4B0D
:1033D0004FF4236202FB04335A6822F002025A605F
:1033E000CDE7054B4FF4236202FB04335A6822F009
:1033F00003025A60CFE700BF000B002010B504465F
:103400005348FEF7F1FE2CB1012C06D15148FEF7CE
:10341000EBFE02E05048FEF7E7FE5048FEF7E4FE00
:103420004F4B4FF4236202FB04335B789BB14D4852
:10343000FEF7DAFE4C48FEF7D7FE494B4FF4236205
:1034400002FB043393F82A30042B0BD8DFE803F097
:10345000071C202428004548FEF7C6FEEAE744483A
:10346000FEF7C2FE4348FEF7BFFE3D4B4FF423621A
:1034700002FB043393F82B30072B18D8DFE803F056
:10348000143C4044484C50543B48FEF7ADFEE9E73D
:103490003A48FEF7A9FEE5E73948FEF7A5FEE1E761
:1034A0003848FEF7A1FEDDE73148FEF79DFE3648BD
:1034B000FEF79AFE2A4B4FF4236202FB043393F883
:1034C0002830012B34D0022B36D013B92F48FEF709
:1034D0008BFE2F48FEF788FE214B4FF4236202FB40
:1034E000043393F82930012B2AD0022B2CD013B9A6
:1034F0002848FEF779FE10BD1F48FEF775FED6E797
:103500001E48FEF771FED2E71C48FEF76DFECEE7BF
:103510001C48FEF769FECAE71F48FEF765FEC6E7CE
:103520001E48FEF761FEC2E71D48FEF75DFEBEE7DE
:103530001C48FEF759FECCE71B48FEF755FEC8E7CE
:103540001A48FEF751FED6E71948FEF74DFED2E7BE
:10355000D80B0108F80B0108EC0B0108040C01085A
:10356000000B0020180C0108280C0108200C010891
:10357000280E01084C0C01083C0E01083C0C010807
:10358000440C0108780E0108600C0108940D010834
:10359000800C0108DC0D01088C0E0108A00E01084A
:1035A000B40E0108AC0D0108740C0108F40D0108FB
:1035B000940C01082DE9F04F9DB005460388012BBE
:1035C00019D000242B88012B63D02B88022B00F00C
:1035D00097802B88062B00F0B6802B88022B00F0FA
:1035E0003C812B88032B00F0E081002C00F022832B
:1035F0001DB0BDE8F08F4369A449002098470446F8
:103600000028DFD0002607E03146A148FEF7ECFD98
:10361000A048FEF7E9FD0136002ED3DC9E4B4FF4A7
:10362000236202FB06335B78002BEDD05FFA86F84D
:103630004046FFF7E3FE984F4FF4236303FB067702
:1036400079789648FEF7D0FD39699548FEF7CCFDAC
:1036500079699448FEF7C8FDB9699348FEF7C4FD3F
:10366000F9699248FEF7C0FD4046FFF72BFD014681
:103670008F48FEF7B9FD4046FFF740FD01468D48F3
:10368000FEF7B2FD4046FFF72BFE8248FEF7ACFD89
:10369000C1E76B698849002098470646002894D006
:1036A00000218648FEF7A0FD8548FEF79DFD854870
:1036B000FEF79AFD8448FEF797FD8448FEF794FDD7
:1036C0008348FEF791FD8348FEF78EFD8248FEF7A2
:1036D0008BFD8248FEF788FD8148FEF785FD814815
:1036E000FEF782FD8048FEF77FFD8048FEF77CFDF7
:1036F0007F48FEF779FD7F48FEF776FD344664E7A4
:103700006B696D490020984700283FF462AF6B69F0
:10371000794901209847064600283FF45AAF07230D
:1037200000930423022211460020FFF769FB40B1F9
:1037300072497348FEF758FD0020FFF75FFE3446DC
:1037400047E77049F5E76B695B4900209847804679
:1037500000283FF442AF6C4C03AB94E8070083E8C9
:10376000070006AB04F10C0207CA83E8070009AEA4
:1037700018340FCC0FC694E80F0086E80F00AB6832
:103780000120984700280DDBAB68012098470028EE
:1037900002DD4FF0000907E0AB68012098475FFAAF
:1037A00080F901E04FF000090026022E0CDC6B6965
:1037B0001CAA02EB860252F8641C0220984708B942
:1037C0000136F2E7F6B200E000260027022F0CDCFB
:1037D0006B691CAA02EB870252F8581C0320984719
:1037E00008B90137F2E7FFB200E000274FF0000A06
:1037F000BAF1070F0EDC6B691CAA02EB8A0252F8C1
:103800004C1C0420984710B90AF1010AF0E75FFA4E
:103810008AFA01E04FF0030A0024072C0CDC6B69E4
:103820001CAA02EB840252F84C1C0520984708B9E8
:103830000134F2E7E4B200E00524009453463A462E
:1038400031464846FFF7DCFA28B12C492C48FEF7F0
:10385000CBFC4446C1E62B49F8E76B692B490020B5
:103860009847074600283FF4BCAEAB680120984754
:1038700000284DDBAB6801209847002801DD0026B9
:1038800047E0AB6801209847C6B242E0B40A01089D
:103890005C0D010870080108000B0020B40C010841
:1038A000CC0C0108E40C0108FC0C0108140D010803
:1038B0002C0D0108440D01086C0D0108740D010860
:1038C000880D0108A00D0108B80D0108D40D0108EC
:1038D000EC0D0108040E01081C0E0108300E010851
:1038E000440E0108580E01086C0E0108800E0108F4
:1038F000940E0108A80E0108BC0E0108A40C0108D2
:10390000C40E0108AC0C0108B0070108D80E01086C
:1039100000264FF00008FEF7F5FE002843D03046A1
:10392000FFF73AFB0028F6D009A93046FFF7B6FBAF
:10393000AE4AA2FB083292094FF47A7303FB12825B
:1039400002F101083146AA48FEF74EFC9DF86C30A2
:1039500083B1A848FEF748FC9DF86B3073B9A648C0
:10396000FEF742FCBDF828200999A448FEF73CFC6C
:10397000002410E0A248FEF737FCEDE7A148FEF76F
:1039800033FCEFE704F170036B4413F8461C9E48C8
:10399000FEF72AFC0134BDF82830A342F2DC9B4834
:1039A000FEF722FCB7E73C461BE66B69984900200E
:1039B0009847814600283FF418AEAB68012098472D
:1039C00000280BDBAB6801209847002801DD0024AC
:1039D00005E0AB6801209847C4B200E000246B69A1
:1039E0008C490220984748B14FF0000A8A4B5F6823
:1039F000FDF762FE06460025A8468DE04FF0020A5C
:103A0000F4E7FDF759FE06468DF86CA000238DF80B
:103A10006B300D228DF86A2040F223120992202289
:103A2000ADF8282006E0591903F170026A4402F843
:103A3000461C01331F2BF6D90A2209A92046FFF79D
:103A4000BDFA20BB2046FFF73DFB18B92046FFF723
:103A500055FB60B12046FFF735FB83462046FFF754
:103A60004DFB03465A4621466C48FEF7BDFB6C4BA6
:103A70001B68002B5AD0DFF8A8B1DBF800202146E4
:103A80006848FEF7B1FB0023CBF800304EE0574A00
:103A9000A2FB083292094FF47A7303FB128202F1FF
:103AA000010821466048FEF79FFB9DF86C30FBB192
:103AB0005048FEF799FB9DF86B30EBB94E48FEF786
:103AC00093FBBDF8282009994C48FEF78DFB4FF079
:103AD000000BBDF828305B4512DD0BF170036B4421
:103AE00013F8461C4848FEF77FFB0BF1010BF0E78B
:103AF0004348FEF779FBDEE74248FEF775FBE0E757
:103B00004248FEF771FB01359CE7FFF735FB20BB10
:103B10002046FFF741FA28BBFEF7F4FD002862D0EB
:103B2000FDF7CAFD801B31283FF66BAFA3463A4B29
:103B30004FF4236202FB04335A68BA42E5D02146AF
:103B40003A48FEF751FB2046FFF7CAFB324B4FF4D1
:103B5000236202FB04335F68D7E759463448FEF717
:103B600043FBD5E709A92046FFF798FA1F4AA2FBB5
:103B7000083292094FF47A7303FB128202F10108B2
:103B800059461B48FEF730FB9DF86C308BB1194845
:103B9000FEF72AFB9DF86B307BB91748FEF724FB34
:103BA000BDF8282009991548FEF71EFB4FF0000BC1
:103BB00011E01348FEF718FBECE71248FEF714FB80
:103BC000EEE70BF170036B4413F8461C0E48FEF74A
:103BD0000BFB0BF1010BBDF828305B45F1DC0B480A
:103BE000FEF702FB98E74C46FFE400BFD34D62109E
:103BF000E40E0108FC0E01084408010854080108FD
:103C0000000F01084C080108680801087008010845
:103C1000040F0108640B0108000B0020280F0108A5
:103C2000FC0A0020400F0108100F0108540F010882
:103C30006C0F01080A48FEF7D7FA0A48FEF7D4FAD3
:103C400000210948FEF7D0FA0848FEF7CDFA002116
:103C50000748FEF7C9FA00210648FEF7C5FAC7E48F
:103C6000840F0108900F01089C0F0108C80F01087C
:103C7000D80F0108F40F010808B50020FFF758FB22
:103C800008BD0000054A136801331360036E23B1B9
:103C9000034A536843F0100353607047FC0A002046
:103CA000000B002008B5024802F0ADFF08BD00BFC0
:103CB000340B002010B50C4611F0010F0ED114F09A
:103CC000020F03D0084A93690133936114F0040F83
:103CD00003D0054AD3690133D36110BD01460020EA
:103CE000FFF786FAEBE700BF000B002010B598B095
:103CF00004460021139114911591169117914422B5
:103D000002A809F0BBFF22681D4B9A4201D018B0EF
:103D100010BD4FF4805302934FF080730E9302A8AE
:103D200006F07CF848BB174B9A6D42F000729A651A
:103D30009A6D02F000720092009ADA6C42F0020270
:103D4000DA64DB6C03F002030193019B4FF44073D0
:103D500013930223149300241594169309231793A5
:103D600013A9094803F0E8F822462146152002F07D
:103D7000ABF9152002F0B8F9C9E7FDF7A1FCD2E7CD
:103D800000640040001002400004004808B501F043
:103D9000D3FD014B187008BD3015002008B501F0A7
:103DA00007FE08BD08B501F0E3FD08BD08B501F048
:103DB000E7FD08BD08B501F019FE08BD08B501F022
:103DC000F1FD08BD08B501F047FE08BD08B502F0D9
:103DD000DFFF08BD014B00221A707047311500202B
:103DE000B0F1FF3F00D0704708B5FFF7F3FF08BD03
:103DF00082B00023019302E0019B013301934FF451
:103E00007A7300FB03F3019A9342F5D802B070472E
:103E100008B5002306E00022074941F8232007499E
:103E2000CA540133012BF6D905490648FEF776FC42
:103E30000120054B187008BDE4150020DC1500209A
:103E4000E5410008B4100108DE1500202DE9F04717
:103E500086B0054600EB8003394E06EB8306D6F8A4
:103E60000890CDF804904FF0110ACDF808A0002476
:103E7000039403230493D6F8048001A9404603F079
:103E80005BF837690197CDF808A00394F66801A99B
:103E9000304603F051F801221FFA89F1404603F041
:103EA000CAF90122B9B2304603F0C5F90520FFF77F
:103EB0009FFF17E005EB8502214B03EB82031F896F
:103EC0005E6800223946304603F0B5F90520FFF759
:103ED0008FFF01223946304603F0ADF90520FFF788
:103EE00087FF0134082CE5DD154E05EB850406EB54
:103EF0008404B4F808A0D4F804900022514648463F
:103F000003F099F90520FFF773FFB4F81080002241
:103F10004146E06803F08FF90520FFF769FF0122B1
:103F20005146484603F087F90520FFF761FF01225B
:103F30004146E06803F07FF906B0BDE8F08700BFB6
:103F4000C417010838B500EB80022F4B53F82250FC
:103F5000012857D8044618B101282AD0002052E081
:103F60002A4B195400232A4A13542A4A2A602A4AFF
:103F700052F821206A60AB600122EA602B616B611C
:103F8000EB612B62FFF762FF284603F0CEFB284669
:103F900003F067FB08B1002035E00021284604F05B
:103FA00051FA0021284604F07BFA0120184B1855DD
:103FB00029E0164B19540023154A1354174A2A6056
:103FC000154A52F821206A60AB600122EA602B6139
:103FD0006B61EB612B62FFF739FF284603F0A5FB0D
:103FE000284603F03EFB08B100200CE000212846E3
:103FF00004F028FA0021284604F052FA0120044B6C
:10400000185500E0002038BDC4170108E015002055
:10401000DC15002000540040BC1701080058004087
:1040200010B500EB80000A231A464900044C54F8EE
:10403000200003F011FE08B1002010BD0120FCE7B4
:10404000C417010810B584B0844600EB800E0C48FC
:1040500050F82E00BCF1010F02D9002004B010BDB1
:10406000490089B2079C0294BDF81840019400935E
:10407000012303F019FD08B90120EFE70020EDE767
:10408000C417010810B582B0049C01940124009467
:10409000FFF7D8FF02B010BD10B584B0844600EB26
:1040A000800E0C4850F82E00BCF1010F02D9002000
:1040B00004B010BD490089B2079C0294BDF81840B5
:1040C00001940093022303F0EFFC08B90120EFE70D
:1040D0000020EDE7C417010810B582B0049C0194DC
:1040E00001240094FFF7D8FF02B010BD10B584B0D2
:1040F000844600EB800E0C4850F82E00BCF1010FF6
:1041000002D9002004B010BD490089B2079C029476
:10411000BDF8184001940093012303F0F1FB08B9A6
:104120000120EFE70020EDE7C417010800B585B0D6
:104130008DF80F30069B0193012300930DF10F03BF
:10414000FFF7D4FF05B05DF804FB000010B584B0A4
:10415000844600EB800E0C4850F82E00BCF1010F95
:1041600002D9002004B010BD490089B2079C029416
:10417000BDF8184001940093022303F0C1FB08B975
:104180000120EFE70020EDE7C417010800B585B076
:104190008DF80F30069B0193012300930DF10F035F
:1041A000FFF7D4FF05B05DF804FB000010B582B046
:1041B000844600EB800E0A4850F82E00BCF1010F37
:1041C00002D9002002B010BD490089B2049C0094BD
:1041D0009BB203F0C3FA08B90120F3E70020F1E72E
:1041E000C41701082DE9F047A4B004460388022B48
:1041F0005AD0052B3ED183680120984710F0FF0567
:1042000000F08A80022D28BF0225A368022098476B
:104210001FFA80F9A3680320984706461FFA80FA20
:10422000A36804209847074605F1FF385FFA88F82D
:1042300063698A4900209847002874D163698849D6
:1042400000209847002840F0888063698549002055
:104250009847002840F0BB80636983490020984755
:10426000002840F0B6806369804900209847002804
:1042700040F0CB8002217E48FDF7B6FF02217D4849
:10428000FDF7B2FF7C48FDF7AFFF7C48FDF7ACFFC0
:104290007B48FDF7A9FF7B48FDF7A6FF7A48FDF7AD
:1042A000A3FF24B0BDE8F08783680120984710F091
:1042B000FF0519D0022D28BF0225013DEDB263692B
:1042C00072490020984700BB6369714900209847F4
:1042D0000028E6D001212846FFF734FEB8B1691C5A
:1042E0006C48FDF781FFDCE70125E6E701347F2C10
:1042F000D7D8E1B22846FFF793FE0028F6D0224631
:10430000691C6548FDF770FFF0E70024EFE7691CC2
:104310006248FDF769FFC4E7012576E72946604852
:10432000FDF762FFBDE70024BBB2A342B9D90AEB97
:1043300004026423009304AB92B249464046FFF75F
:10434000A1FE0028EAD09DF8103014FA86F2294622
:104350005448FDF749FF0134E6E7FDF7ADF904469F
:1043600064230093FBB2524649464046FFF7DEFE07
:1043700050B1FDF7A1F9001B0090BBB2B2B22946C3
:104380004948FDF731FF8CE729464548FDF72CFFEA
:1043900087E79DF8103014FA86F229464148FDF768
:1043A00023FF0134BBB2A3427FF67BAF0AEB0402CA
:1043B0006423009304AB92B249464046FFF78CFE5B
:1043C0000028E6D129463648FDF70EFF69E70024AC
:1043D000E8E7FDF771F9044664230093FBB2524607
:1043E00049464046FFF7D2FE50B1FDF765F9001B84
:1043F0000090BBB2B2B229462C48FDF7F5FE50E75B
:1044000029462748FDF7F0FE4BE7FDF755F904462E
:104410004FEA1A2A8DF808A08DF80960FBB28DF8D2
:104420000A305B428DF80B3064230093032302AA09
:1044300049464046FFF7BAFE50B1FDF73DF9001B73
:104440000090BBB2B2B229461848FDF7CDFE28E76E
:1044500029461348FDF7C8FE23E700BF08110108ED
:10446000401101086C11010874110108A011010824
:10447000AC110108C8110108E4110108101201086B
:104480003C1201086C1201089C120108B8100108C6
:104490006C0D0108DC100108C0100108F0100108C3
:1044A0002C11010810110108481101087C110108A4
:1044B00003680C4A1268934204D00B4A1268934274
:1044C00008D07047436C002BFBD0084A13680133B7
:1044D00013607047436C002BF3D0044A53680133D8
:1044E0005360EEE78815002034150020E415002005
:1044F00008B5024803F064FF08BD00BF881500201E
:1045000008B5024803F05CFF08BD00BF3415002069
:10451000F0B58DB000230793089309930A930B938A
:104520000368424A934204D0414A93423FD00DB0BF
:10453000F0BD404CE36C43F00103E364E36C03F033
:1045400001030193019BE36C43F00203E364E36C1A
:1045500003F002030293029B4FF4004307931227D8
:1045600008970125099504260B9607A94FF090405E
:1045700002F0E2FC802307930897099500250A952D
:104580000B9607A92C4802F0D7FCA36D43F4001347
:10459000A365A36D03F400130393039B2A4605212F
:1045A000202001F091FD202001F09EFDBFE7214C6D
:1045B000E36C43F00103E364E36C03F00103049351
:1045C000049BE36C43F00403E364E36C03F0040333
:1045D0000593059B1023079312270897012509953A
:1045E00004260B9607A9154802F0A6FC4FF4807329
:1045F00007930897099500250A950B9607A94FF090
:10460000904002F099FCA36D43F48003A365A36D71
:1046100003F480030693069B2A460521222001F01D
:1046200053FD222001F060FD81E700BF00540040EF
:1046300000580040001002400004004800080048F4
:1046400008B502680B4B9A4200D008BD0A4A936D28
:1046500023F4001393654FF400414FF0904002F0B3
:1046600055FD8021054802F051FD202001F040FD5C
:10467000EBE700BF00540040001002400004004877
:10468000022800D9704708B5044B03EBC001002293
:10469000898853F8300002F0CEFD08BDEC17010800
:1046A00010B586B0002401940294039404940594F8
:1046B0000F4BDA6C42F00402DA64DB6C03F00403A3
:1046C0000093009B012302930DE00A4B03EBC4020D
:1046D0009288019201A953F8340002F02DFCE0B257
:1046E000FFF7CEFF0134022CEFDD012006B010BD34
:1046F00000100240EC170108022800D9704708B5E5
:10470000044B03EBC002918853F8300002F098FD8F
:1047100008BD00BFEC1701082DE9F04106460388EB
:10472000012B0AD000273388012B23D03388012B9B
:104730003ED0002F5AD0BDE8F081436930490020B7
:10474000984707460028EED02E4C21882E48FDF7CA
:104750004BFD61882D48FDF747FD2D48FDF744FDD1
:104760002C4C21882C48FDF73FFD61882B48FDF734
:104770003BFDD8E773692A49002098478046002806
:10478000D4D0002506E01F4B986821462844FDF749
:1047900021FD2544FDF7B6FF074638B1194B5C886B
:1047A000641BC3D0402CEED94024ECE74746BDE75C
:1047B00073691C490020984706460028B9D0002597
:1047C00006E0144B986821462844FDF703FD254474
:1047D000FDF798FF074638B10E4B5C88641BA8D0E4
:1047E000402CEED94024ECE73746A2E70E48FDF70F
:1047F000FBFC0E48FDF7F8FC0D48FDF7F5FC9AE7C9
:10480000B40A0108001F0020CC120108E4120108BC
:1048100070080108F41E0020FC120108141301089E
:104820002C130108341301083C1301084813010834
:104830005413010810B50D4A0023138053804FF420
:1048400080619180D3800A4890600A4A1380538027
:104850009180D380084B93600124084B1C70084959
:104860000848FDF75BFF204610BD00BF001F002079
:10487000F41A0020F41E0020F4160020F216002086
:104880001947000860130108003818BF0120014BC8
:10489000187070471100002008B5054B1870054BC3
:1048A0001960054B01221A7000F04CF908BD00BFD9
:1048B000F0160020EC160020F116002030B583B071
:1048C00004469446C3881344083382889A4205D22A
:1048D0000023C3800CF108039A4219D3E0880091A9
:1048E00023880E4A0CF10801A568284409F010F944
:1048F000238801332380E38882B21344E3806388F2
:104900001844A188884205DC1A446280012002E034
:10491000002000E0012003B030BD00BF6413010897
:104920000FB410B582B0164B1B7823B902B0BDE8A6
:10493000104004B0704705AB0193049A4FF48071A6
:10494000104809F08DF904460F4B1B7813B10F4B3B
:104950001B7843B90E4B1B7863B9224609490D48B1
:10496000FFF7ACFFE2E7024606490B4B187800F070
:10497000F7F9EFE7224603490848FFF79FFFECE706
:10498000F2160020EC150020F11600201000002087
:1049900011000020F41E0020F0160020001F00204F
:1049A0000E4B1B78012B17D000230FE00C4A03EBB2
:1049B0008301880002EB000C00211154CCF8041094
:1049C000CCF808100244D1600133DBB2032BEDD9DF
:1049D0000120024B18707047002070470C1F002008
:1049E000101F002010B51D4A136801331360002406
:1049F00011E004EB84029300194A0020D054184AB5
:104A000001EB81008300134498685860DA681869E4
:104A100090470134E4B2032C1FD8124B1B889BB281
:104A20009C421AD2214604EB840293000C4AD35CC8
:104A3000012BEED104EB84029300094A1A44536817
:104A4000013B5360002BE4D104EB84039A00044B38
:104A500013445B78012BD2D1CBE710BD641F00203B
:104A6000101F0020601F0020002813DB10B40A4C28
:104A700000EB800C04EB8C0C8CF80120CCF80C3093
:104A8000019BCCF81030CCF80410CCF808105DF87D
:104A9000044B7047704700BF101F002000280BDB3D
:104AA000064A00EB800302EB83039968596000EB30
:104AB0008000012302F82030704700BF101F002043
:104AC000074B188800B2032806DC1A461B889BB2E5
:104AD00001339BB2138070474FF0FF30704700BF27
:104AE000601F002010B500230CE00F4C03EB4302C5
:104AF00010012218002121544FF4E13050609162DE
:104B0000D1620133032BF0DD074B084A9A60084A53
:104B10009A63084A9A660124074B1C7007490848A3
:104B2000FDF7FCFD204610BD443A0020682F002010
:104B300068270020681F0020043B00200D4E00085D
:104B40006C130108032800F2A18070B582B00446FE
:104B500000EB40031B014E4AD05C38B104EB440229
:104B60004B4B03EB02135B688B420ED0022C10D927
:104B7000032C0CD1464A04EB440302EB03135960A7
:104B800004EB440424010120105502B070BD002044
:104B9000FBE73F4A04EB440502EB0515696004EBB3
:104BA00044033C4E06EBC306B3682B62F0686862B0
:104BB000706818602B6A5960296A00238B60296A23
:104BC000CB60296A0B61296A0C204861296A8B61D4
:104BD000296ACB61296A0B62296A4B62296A8B6256
:104BE00004EB44000001083010444FF40062A9684F
:104BF0000430FDF7C4F8284B9A6C42F004029A6422
:104C00009A6C02F004020092009A9A6C42F001023F
:104C10009A649B6C03F001030193019B286A05F0E1
:104C2000B3FA337D43B100231A461946286A05F0CA
:104C30002DFF50B10020A8E704EB4402144B03EB16
:104C40000213186A05F070FEF3E7114A04EB4403FF
:104C5000190102EB0313012050544FF400629968CC
:104C6000186A05F0EDFE78B90120094A04EB440307
:104C700002EB031359691D6AD5F880502D686D68E1
:104C8000491BD960196180E70020EEE700207047DA
:104C9000443A0020041801080010024010B5022810
:104CA00006D9032802D1FFF77DF814E0002012E0B6
:104CB000094900EB400301EB03135A695C6A24685D
:104CC0006468121BDA6000EB400000010830084401
:104CD0000430FDF7C5F810BD443A002010B582B08D
:104CE000044600238DF80730022806D9032810D186
:104CF000FFF75CF88DF807000BE000EB40000001C7
:104D000008300C4B184401220DF107010430FDF767
:104D100074F8084B04EB440203EB0212926A04EBB2
:104D2000440403EB041301329A629DF8070002B0B9
:104D300010BD00BF443A002038B50446FCF7BCFC67
:104D4000054602E02046FFF7C9FF2046FFF7A6FF11
:104D500020B1FCF7B1FC431B092BF3D9012038BD6E
:104D600038B5044608461546022C13D9032C0FD13A
:104D70001146FFF71FF80F4B04EB440203EB02123E
:104D8000D26A04EB440403EB04130244DA6238BD34
:104D90000020F0E704EB4402064B03EB021C642303
:104DA000AAB2DCF8200005F0F1FC08B10020E2E72F
:104DB0002846E0E7443A00200EB410B5C3B00446DC
:104DC00045AB53F8042B01934FF4807102A808F00F
:104DD00047FF024602A92046FFF7C2FF43B0BDE8E5
:104DE000104003B07047000003280BD808B506D068
:104DF00000EB4000044B03EB0013586808BDFEF7BE
:104E0000DDFFFBE700207047443A0020F0B583B097
:104E100004460388012B07D000262388022B1FD0CD
:104E2000002E65D003B0F0BD436935490020984796
:104E300006460028F1D000200FE0451C00EB4002A0
:104E4000304B53F83270C0B2FFF7CEFF03463A46FC
:104E500029462D48FDF7C8F928460328EDDDDCE793
:104E600063692A49002098470028D9D0A368012007
:104E7000984700280BDDA3680120984704280FDC21
:104E8000A36801209847C4B2013CE4B200E00024CA
:104E9000FDF72EF9A04208D11D48FDF7A5F9C1E79D
:104EA0000324F5E7FDF786F978B92046FFF7F6FE0B
:104EB0000028F7D02046FFF711FF02468DF80700C3
:104EC000611C1448FDF790F9ECE7FDF77BF98DF8CC
:104ED00007007128A6D001220DF107012046FFF737
:104EE0003FFF9DF80720611C0B48FDF77DF9DCE7CB
:104EF0000A48FDF779F904210948FDF775F991E7AA
:104F0000B40A01080418010874130108BC0E010852
:104F1000C813010890130108AC130108DC13010841
:104F2000E813010830B59DB004460021179118918F
:104F300019911A911B91442206A808F09FFE22683D
:104F4000704B9A420AD022686F4B9A424BD022682B
:104F50006E4B9A4200F08E801DB030BD0123069347
:104F600006A804F05BFF002837D1694B1A6E42F4A3
:104F700080421A661A6E02F480420092009ADA6C3D
:104F800042F00102DA64DB6C03F001030193019B40
:104F90004FF4C063179302231893002519951A95AF
:104FA00007231B9317A94FF0904001F0C5FF594804
:104FB000594B0360182343608560C56080230361FB
:104FC000456185612023C361056201F003F938B9A9
:104FD000504BC4F880309C62B5E7FCF771FBC4E726
:104FE000FCF76EFBF4E7022306930023089306A860
:104FF00004F014FF002837D1454B9A6D42F400327B
:105000009A659A6D02F400320292029ADA6C42F0CA
:105010000102DA64DB6C03F001030393039B0E23AC
:105020001793022318930025199503231A93072336
:105030001B9317A94FF0904001F07EFF3748384B83
:1050400003601A2343608560C56080230361456166
:1050500085612023C361056201F0BCF838B92F4B8C
:10506000C4F880309C6272E7FCF72AFBC4E7FCF7C7
:1050700027FBF4E7042306930023099306A804F012
:10508000CDFE002837D1224B9A6D42F480229A65DA
:105090009A6D02F480220492049ADA6C42F00202C1
:1050A000DA64DB6C03F002030593059B4FF4406365
:1050B0001793022318930025199503231A930723A6
:1050C0001B9317A9174801F037FF1748174B0360C8
:1050D0001C2343608560C560802303614561856151
:1050E0002023C361056201F075F838B90E4BC4F88E
:1050F00080309C6230E7FCF7E3FAC4E7FCF7E0FAA3
:10510000F4E700BF00380140004400400048004080
:10511000001002402838002008000240C837002054
:105120001C000240000400486837002030000240A4
:1051300010B5044602681D4B9A4208D022681C4BE9
:105140009A4214D022681B4B9A421FD010BD1A4AB3
:10515000136E23F4804313664FF4C0614FF0904008
:1051600001F0D4FFD4F8800001F09EF8E6E7124A7F
:10517000936D23F4003393650E214FF0904001F0BE
:10518000C5FFD4F8800001F08FF8DBE70A4A936D81
:1051900023F4802393654FF44061084801F0B6FF83
:1051A000D4F8800001F080F8D0E700BF003801405B
:1051B0000044004000480040001002400004004845
:1051C00008B503490348FDF7A9FA012008BD00BF4F
:1051D000A15200084014010810B5144B01221A70A6
:1051E000904208D0114B00221A701148FFF798FB2B
:1051F0000E4B187810BD0F4C00220F49204606F0C8
:1052000096FB0E49204606F0A9FB0D49204600F00A
:105210008AFA204606F0B9FB0A4B01221A700A48A6
:10522000FFF77EFB0948FFF77BFBE1E7D93D002054
:1052300068140108083B002078010020E0000020ED
:1052400024010020D83D002044140108581401080E
:1052500008B5FEF7A3FD08BD08B50B4BD3F8BC326B
:105260006BB1094B93F89C32DBB2032B09D1064B8F
:105270005B680BB9002005E000F0DEFC02E00020D6
:1052800000E0002008BD00BF083B0020014B18785B
:10529000704700BFD83D002008B5FEF793FD08BD5C
:1052A000F8B504460388012B0AD000252388012B7A
:1052B00035D02388012B5BD0002D00F08680F8BD0F
:1052C00043694749002098470546F8B9EEE7FFF7DC
:1052D000DDFF01464348FCF787FFFFF7DDFF01468E
:1052E0004148FCF781FFFFF7B7FF01463F48FCF755
:1052F0007BFFFFF7ADFF01463D48FCF775FF04213A
:105300003C48FCF771FF6420FCF7D2F9FDF7FAF98D
:105310000028DCD104213848FCF766FFC6E7636942
:1053200036490020984707460028C2D0FCF7C4F948
:105330000646002504E01F213148FEF73BFD0544E9
:10534000FDF7E0F970B1FCF7B7F9831BB3F57A7F8D
:10535000F1D3FCF7B1F90646A90A2A48FFF7E0FAAB
:105360000025E8E702212448FCF73EFF3D46A0E780
:10537000636925490020984700289DD0FCF79CF9D7
:10538000074600260EE0FCF797F90746B10A1F48CA
:10539000FFF7C6FA00260EE0FEF708FD0134AC4226
:1053A000FAD32E44FDF7AEF950B1FCF785F9C31BD3
:1053B000B3F57A7FE7D2FEF7F5FC05460024EEE769
:1053C00002210D48FCF710FF79E71148FCF70CFFAC
:1053D0001048FCF709FF1048FCF706FF6FE700BF15
:1053E000B40A01087C14010890140108A4140108EF
:1053F000B8140108CC140108D4140108DC14010805
:10540000F0140108E014010814150108181501082A
:1054100028150108341501084015010808B502488F
:1054200003F014FE08BD00BF9450002010B5D0F862
:10543000BC4284B1D0F8C0327BB194F80002FF289E
:105440000DD09B6894F8012221469847FF2384F8E9
:105450000032002010BD0320FCE70020FAE7002006
:10546000F8E70000432303800048704758000020FD
:1054700043230380004870479C000020432303809F
:1054800000487047140000200A230380004870473A
:105490001801002038B5D0F8BC5275B1044600F0B0
:1054A000EFFCC5F80C02D4F8C032DB6805F50371D7
:1054B000D5F804029847002038BD0320FCE710B55A
:1054C000D0F8C442D0F8BC3253B301EB810200EBF8
:1054D000820292694AB101EB810C04EBCC04246A8C
:1054E000B2FBF4FC04FB1C2272B10022C3F81422AC
:1054F000D0F8C0221469ACB10A4603F50471D3F8A0
:105500000802A047002010BD01EB810300EB8303DC
:1055100000249C612346224600F0A2FC2046F2E7CC
:105520000320F0E70020EEE7F0B583B0D0F8BC62CE
:1055300000238DF80730ADF80430002E6CD00746FC
:105540000C460B7813F060052AD0202D5ED1CA8856
:10555000F2B113F0800F0FD0D0F8C0329B68314603
:1055600060789847E288072A28BF072231463846E4
:1055700006F094FE00254CE04B7886F800328B79DB
:1055800086F80132CA88314606F09DFE002540E0CB
:10559000D0F8C0329B68002248789847002538E050
:1055A0004E780B2E2ED8DFE806F006342D2D2D2D4B
:1055B0002D2D2D2D152490F89C32DBB2032B03D01A
:1055C00006F042FB032524E0022201A906F066FE54
:1055D00035461EE090F89C32DBB2032B03D006F078
:1055E00033FB032515E001220DF1070106F056FEFD
:1055F0000FE090F89C32DBB2032B0AD006F024FBBC
:10560000032506E006F020FB032502E006F01CFB64
:105610000325284603B0F0BD0325FAE738B5044654
:10562000812100F0E0FB002525870121204600F0C4
:10563000DAFBA4F878518221204600F0D4FBA4F8CC
:105640004C50A4F84E50D4F8BC324BB1D4F8C03210
:105650005B689847D4F8BC0200F01CFCC4F8BC524C
:10566000002038BD70B504464FF4077000F00EFC02
:10567000B8B30646C4F8BC02237CBBBB4FF400732E
:1056800002228121204600F0A3FB012525874FF44B
:10569000007302222946204600F09AFBA4F87851B4
:1056A0001023A4F84E30082303228221204600F064
:1056B0008FFB0123A4F84C30D4F8C0321B68984704
:1056C0000023C6F81432C6F81832257C15BB4FF4F7
:1056D0000073D6F804220121204600F0C9FB2846B9
:1056E00070BD0023C4F8BC320225F8E74023022233
:1056F0008121204600F06CFB0125258740230222F2
:105700002946204600F064FBA4F878511023A4F841
:105710004E30C8E74023D6F804220121204600F08D
:10572000A7FB0025DBE719B1C0F8C01200207047C5
:1057300003207047D0F8BC322BB1C3F80812C3F86D
:1057400010220020704703207047D0F8BC321BB1F4
:10575000C3F804120020704703207047D0F8BC2221
:1057600092B108B5D2F814320BB1012008BD012363
:10577000C2F81432D2F81032C362D2F80822812162
:1057800000F06EFB0020F1E70320704710B5D0F861
:10579000BC2292B1047C44B94FF40073D2F80422C5
:1057A000012100F065FB204610BD4023D2F8042201
:1057B000012100F05DFB0024F5E70324F3E700007E
:1057C0000020014B18707047DC3D002021282ED0AE
:1057D000222842D020283ED10B784A7843EA02237F
:1057E0008A7843EA0243CA7843EA02630879214A85
:1057F000107148795071897991711F49A1FB031388
:10580000DB0803EB83035B001360B3F5966F06D0F0
:10581000B3F5E13F07D0194B00221A701BE0184A7C
:1058200001211170F4E7154B01221A7013E0114A9F
:1058300013681248007803430B70C3F307204870C5
:10584000C3F3074088701B0ECB7013790B7153792B
:105850004B7193798B71002070474B8813F0010FC7
:1058600003D0084B01221A70F5E7064B00221A708C
:10587000F1E700BF38010020CDCCCCCCDA3D0020D0
:10588000084E0020DC3D00200020704738B505465A
:105890000C460A6801461748FCF785FA164B1B7838
:1058A000012B0CD013488468FCF7DAFA241A013C67
:1058B0003F2C16D8114B01221A70002038BD0E4B18
:1058C00000221A7023680C2BECD9002300E001336E
:1058D0000C2BE7D80A4A1268D15CEA5C9142F6D0F8
:1058E000E0E7084C29462046FFF72FFF2046FFF748
:1058F0004DFFE2E7F4450020084E0020DB3D00208C
:1059000040010020083B002010B5074C0022074949
:105910002046FFF70FFF06492046FFF716FF00203D
:10592000044B187010BD00BF083B00200846002043
:10593000084A0020DC3D002008B5084B00221A7000
:105940004FF4806206490748FCF719FA4FF4806269
:1059500005490648FCF713FA012008BDDC3D00208C
:10596000E0410020F4450020E03D0020E04500201B
:1059700008B50248FCF774FA08BD00BFF4450020E2
:1059800000B583B000238DF8073001220DF1070127
:105990000348FCF732FA9DF8070003B05DF804FBFA
:1059A000F4450020014B1868704700BF3801002003
:1059B0000C4BD3F8BC3293B101220B4B187800B1D9
:1059C0001046084B93F89C32DBB2032B00D000202A
:1059D000044B5B6803B90020034B1870704700222A
:1059E000EBE700BF083B0020DC3D00202DE9F04143
:1059F00007460E46FFF7DCFF18B900252846BDE82C
:105A0000F081FBF759FE804600250CE00120FBF7F2
:105A10004FFEFFF7CDFF0028F0D0FBF74DFEA0EBC7
:105A20000803632BEAD8B542E8D20A488468FCF739
:105A300017FA241A013C731B9C4200D31C46002C0D
:105A4000E4D0224639460348FCF7ADF92744254403
:105A5000DFE700BFE0450020014B1878704700BF2A
:105A6000DA3D002070B51C4B1B788BB91B48FCF746
:105A7000F7F9044610F03F0F02D138B1441E05D0AB
:105A8000174BD3F8BC32D3F81432ABB1002070BD41
:105A900014488468FCF7E4F9241A013C3F2CE5D94A
:105AA0000F4C11492046FFF750FE2046FFF76EFECF
:105AB000094B00221A70D9E70C4E2246314607489E
:105AC000FCF79BF9064D224631462846FFF732FE89
:105AD0002846FFF743FED9E7DB3D0020E0450020E4
:105AE000083B0020F4450020084A0020084600201A
:105AF00012230B80004870476401002004230B80B0
:105B00000048704760010020002393421ED200B578
:105B100010E00CF1370C01F813C000014FEA430C00
:105B20000CF1010C4FF0000E01F80CE00133DBB278
:105B3000934209D24FEA107CB0F1204FE9D20CF128
:105B4000300C01F813C0E8E75DF804FB7047000073
:105B500038B50B4BD3F89005D3F89445D3F8983566
:105B6000C01800D138BD074D08222946FFF7CCFFE9
:105B7000042205F110012046FFF7C6FFF2E700BF3F
:105B80000070FF1F4601002008B51A230B80FFF7A5
:105B9000DFFF014808BD00BF4401002008B50A46E8
:105BA00028B90549054806F05CFB034808BD0249D1
:105BB000024806F056FBF8E70C4E00205C15010881
:105BC00010B50A46034C2146034806F04AFB20461E
:105BD00010BD00BF0C4E00207415010808B50A4620
:105BE00028B90549054806F03CFB034808BD0249B1
:105BF000024806F036FBF8E70C4E00208815010835
:105C000008B50A4628B90549054806F02AFB0348A5
:105C100008BD0249024806F024FBF8E70C4E0020BC
:105C200094150108032805D8DFE800F005040205F3
:105C30000120704703207047014B1878704700BF60
:105C40009050002002680E4B9A4200D0704700B579
:105C500083B003F5DA339A6D42F400029A659B6DC6
:105C600003F400030193019B00220621142000F09D
:105C70002BFA142000F038FA03B05DF804FB00BFE3
:105C8000005C004008B500F52671D0F8D80205F098
:105C900091FE08BD08B501EB810300EBC303D3F807
:105CA0006421D0F8D80205F0B1FE08BD08B501EBBB
:105CB000810300EBC3035A6AD0F8D80205F0E2FE74
:105CC00008BD08B5D0F8D80205F082FF08BD10B5B0
:105CD00004464379022B09D10121D4F8D80205F0FA
:105CE0005DFFD4F8D80205F02CFF10BDFBF7E8FCEF
:105CF000F2E7000010B50446D0F8D80205F051FFD5
:105D0000637A23B1044A136943F006031361034B1A
:105D100000221A7010BD00BF00ED00E0905000207E
:105D200008B5437A23B1054A136923F006031361CA
:105D3000D0F8D80205F03FFF08BD00BF00ED00E03D
:105D400010B503461C48C0F8D832C3F8C4021B4B38
:105D500003600823037102234371C371012303729B
:105D6000002343728372C37202F052FC08BB124CD0
:105D7000142300221146204603F07EFB5423002208
:105D80008021204603F078FB9423002281212046C5
:105D900003F072FBD42300220121204603F06CFBA8
:105DA0004FF48A7300228221204603F065FB002015
:105DB00010BDFBF785FCDAE794500020005C004042
:105DC00008B5D0F8C40202F07EFCFFF72BFF08BD37
:105DD00008B594461A466346D0F8C40203F00FFA99
:105DE000FFF720FF08BD08B5D0F8C40203F04AFA57
:105DF000FFF718FF08BD08B5D0F8C40203F0C4FAD5
:105E0000FFF710FF08BD08B5D0F8C40203F0F5FA9B
:105E1000FFF708FF08BDD0F8C43211F0800F08D199
:105E200001F07F0101EB810103EBC10393F8520103
:105E3000704701F07F0101EB810103EBC103987C06
:105E40007047000008B5D0F8C40203F0ECF8FFF783
:105E5000E9FE024B01221A7008BD00BF90500020DD
:105E600008B5D0F8C40203F069FAFFF7DBFE08BDFD
:105E700008B5D0F8C40203F03BFAFFF7D3FE08BD23
:105E800008B5D0F8C40203F050FA08BD00487047C6
:105E9000704E00207047000010B5FBF771FCFCF756
:105EA00065FCFEF7C7FCFEF77BFDFEF7F9FBFCF790
:105EB00063FDFEF717FE4FF4E1310020FEF7ECFC26
:105EC000002405E04FF4E131E0B2FEF73BFE01347F
:105ED000032CF7D91248FEF723FD12491248FEF7AA
:105EE0001FFD12491248FEF71BFD03F02DFE11495C
:105EF00081FB0031C017C0EBA1410F48FEF710FD38
:105F00000E48FEF70DFDFDF783FFFCF7E3FEFFF7FC
:105F100057F90120FFF760F9FDF738FF012010BDA8
:105F2000A4150108BC150108C8150108E0150108F1
:105F3000EC15010883DE1B430416010870080108F4
:105F4000104B1B680BB90120704710B504464FF485
:105F50007A70B0FBF3F30C4A1068B0FBF3F000F07A
:105F6000CBF868B90F2C01D901200AE000222146A4
:105F70004FF0FF3000F0A8F8044B1C60002000E058
:105F8000012010BD94010020000000209801002095
:105F900010B5032000F086F80020FFF7D1FF10B104
:105FA0000124204610BD0446FBF74AFCF9E7000037
:105FB000034A1368034909680B441360704700BF24
:105FC0007053002094010020014B1868704700BFF7
:105FD0007053002038B50446FFF7F6FF0546B4F1CC
:105FE000FF3F02D0044B1B681C44FFF7EDFF401B32
:105FF000A042FAD338BD00BF94010020002807DB7F
:1060000000F01F02400901239340024A42F8203069
:10601000704700BF00E100E000280CDB00F01F0229
:106020004009012393402030034A42F82030BFF357
:106030004F8FBFF36F8F704700E100E0002808DB4F
:106040000901C9B200F1604000F5614080F8001319
:10605000704700F00F000901C9B2014B1954704795
:1060600014ED00E000B500F00700C0F1070CBCF132
:10607000040F28BF4FF0040C031D062B0FD9C31EBD
:106080004FF0FF3E0EFA0CF021EA000199400EFAA3
:1060900003FE22EA0E0241EA02005DF804FB00233F
:1060A000EEE70000074AD36823F4E0631B041B0CEF
