:020000040800F2
:1000000000780020BD1C0008791800087B18000843
:100010007D1800087F180008811800080000000003
:10002000000000000000000000000000851800082B
:1000300083180008000000008718000889180008CD
:100040000D1D00080D1D00080D1D00080D1D0008E8
:100050009D3700080D1D00080D1D00080D1D00082E
:100060000D1D00080D1D00080D1D00080D1D0008C8
:100070000D1D00080D1D00080D1D00080D1D0008B8
:100080000D1D0008000000000D1D00080D1D0008DA
:10009000ED4D0008753600080D1D00080D1D000807
:1000A0000D1D00080D1D00080D1D00080D1D000888
:1000B0000D1D00080D1D00080D1D00080D1D000878
:1000C000C13E00080D1D0008D13E00080D1D0008AE
:1000D0000D1D00080D1D00080D1D00080D1D000858
:1000E0000D1D00080D1D00080D1D00080D1D000848
:1000F0000D1D00080D1D00080D1D0008000000006A
:10010000000000000D1D0008000000000D1D00088B
:100110000D1D0008000000000D1D00080D1D000849
:100120000D1D00080D1D00080D1D00080D1D000807
:100130000D1D000800000000000000000D1D00085B
:100140000D1D00080D1D000800000000000000004B
:10015000000000000000000000000000000000009F
:100160000000000000000000000000000D1D00085D
:100170000D1D00080000000000000000000000004D
:10018000000000000D1D000800000000000000003D
:10019000000000000000000000000000000000005F
:1001A00000000000000000000D1D00080D1D0008EB
:1001B0000D1D00080D1D00080D1D000800000000A9
:1001C000000000000D1D00080000000000000000FD
:0801D0000D1D00080D1D0008C3
:1004000020524556563235303232305231000000DB
:1004100000000000000000000000000000000000DC
:100420000000000053544D33324734333100000094
:1004300000000000000000000000000000000000BC
:080440000000000000000008AC
:1008000010B5054C237833B9044B13B10448AFF34A
:1008100000800123237010BD84030020000000002D
:100820000C01010808B5034B1BB103490348AFF3A2
:10083000008008BD00000000880300200C010108B2
:1008400010F8012B11F8013B012A28BF9A42F7D07A
:10085000D01A7047000000000000000000000000F7
:1008600001F0FF01102A2BDB10F0070F08D010F861
:10087000013B013A8B422DD010F0070F42B3F6D165
:10088000F0B441EA012141EA014122F007047FF07E
:1008900000070023F0E80256083C85EA010586EAD5
:1008A000010685FA47F5A3FA87F586FA47F6A5FA11
:1008B00087F68EB9EED1F0BC01F0FF0102F007021D
:1008C00032B110F8013B013A83EA010313B1F8D1C8
:1008D0000020704701387047002D06BF35460338A9
:1008E000073815F0010F07D1013015F4807F02BFE2
:1008F000013015F4C03F0130F0BC0138704700BF33
:10090000034613F8012B002AFBD1181A013870474F
:1009100081F0004102E000BF83F0004330B54FEAB0
:1009200041044FEA430594EA050F08BF90EA020F1D
:100930001FBF54EA000C55EA020C7FEA645C7FEAB0
:10094000655C00F0E2804FEA5454D4EB5555B8BFD3
:100950006D420CDD2C4480EA020281EA030382EA44
:10096000000083EA010180EA020281EA0303362DD6
:1009700088BF30BD11F0004F4FEA01314FF4801CA9
:100980004CEA113102D0404261EB410113F0004FBB
:100990004FEA03334CEA133302D0524263EB430372
:1009A00094EA050F00F0A780A4F10104D5F1200E10
:1009B0000DDB02FA0EFC22FA05F2801841F100016B
:1009C00003FA0EF2801843FA05F359410EE0A5F13F
:1009D00020050EF1200E012A03FA0EFC28BF4CF070
:1009E000020C43FA05F3C01851EBE37101F0004526
:1009F00007D54FF0000EDCF1000C7EEB00006EEB33
:100A00000101B1F5801F1BD3B1F5001F0CD34908BC
:100A10005FEA30004FEA3C0C04F101044FEA445213
:100A200012F5800F80F09A80BCF1004F08BF5FEA9A
:100A3000500C50F1000041EB045141EA050130BD7A
:100A40005FEA4C0C404141EB0101013C28BFB1F58C
:100A5000801FE9D291F0000F04BF01460020B1FAD7
:100A600081F308BF2033A3F10B03B3F120020CDAAA
:100A70000C3208DD02F1140CC2F10C0201FA0CF088
:100A800021FA02F10CE002F11402D8BFC2F1200CED
:100A900001FA02F120FA0CFCDCBF41EA0C019040A3
:100AA000E41AA2BF01EB0451294330BD6FEA0404EC
:100AB0001F3C1CDA0C340EDC04F11404C4F12002D7
:100AC00020FA04F001FA02F340EA030021FA04F3E9
:100AD00045EA030130BDC4F10C04C4F1200220FA40
:100AE00002F001FA04F340EA0300294630BD21FA7E
:100AF00004F0294630BD94F0000F83F4801306BF44
:100B000081F480110134013D4EE77FEA645C18BF37
:100B10007FEA655C29D094EA050F08BF90EA020FCE
:100B200005D054EA000C04BF1946104630BD91EAC6
:100B3000030F1EBF0021002030BD5FEA545C05D1C9
:100B40004000494128BF41F0004130BD14F5800408
:100B50003CBF01F5801130BD01F0004545F0FE417C
:100B600041F470014FF0000030BD7FEA645C1ABFB1
:100B7000194610467FEA655C1CBF0B46024650EAE8
:100B8000013406BF52EA033591EA030F41F4002114
:100B900030BD00BF90F0000F04BF0021704730B59A
:100BA0004FF4806404F132044FF000054FF000016F
:100BB00050E700BF90F0000F04BF0021704730B530
:100BC0004FF4806404F1320410F0004548BF404205
:100BD0004FF000013EE700BF42004FEAE2014FEA5A
:100BE00031014FEA02701FBF12F07F4393F07F4F35
:100BF00081F06051704732F07F4208BF704793F038
:100C00007F4F04BF41F40021704730B54FF460744A
:100C100001F0004521F000411CE700BF50EA01024D
:100C200008BF704730B54FF000050AE050EA0102F6
:100C300008BF704730B511F0004502D5404261EB66
:100C400041014FF4806404F132045FEA915C3FF4A7
:100C5000D8AE4FF003025FEADC0C18BF03325FEA44
:100C6000DC0C18BF033202EBDC02C2F1200300FAF5
:100C700003FC20FA02F001FA03FE40EA0E0021FA1A
:100C800002F11444BDE600BF70B54FF0FF0C4CF408
:100C9000E06C1CEA11541DBF1CEA135594EA0C0FBA
:100CA00095EA0C0F00F0DEF82C4481EA030621EAF5
:100CB0004C5123EA4C5350EA013518BF52EA033530
:100CC00041F4801143F4801338D0A0FB02CE4FF0E2
:100CD0000005E1FB02E506F00042E0FB03E54FF012
:100CE0000006E1FB03569CF0000F18BF4EF0010E0A
:100CF000A4F1FF04B6F5007F64F5407404D25FEA06
:100D00004E0E6D4146EB060642EAC62141EA5551B8
:100D10004FEAC52040EA5E504FEACE2EB4F1FD0CFA
:100D200088BFBCF5E06F1ED8BEF1004F08BF5FEA78
:100D3000500E50F1000041EB045170BD06F000462A
:100D400046EA010140EA020081EA0301B4EB5C04D7
:100D5000C2BFD4EB0C0541EA045170BD41F48011CF
:100D60004FF0000E013C00F3AB8014F1360FDEBFF4
:100D7000002001F0004170BDC4F10004203C35DAD0
:100D80000C341BDC04F11404C4F1200500FA05F353
:100D900020FA04F001FA05F240EA020001F00042F4
:100DA00021F0004110EBD37021FA04F642EB06016A
:100DB0005EEA430E08BF20EAD37070BDC4F10C0494
:100DC000C4F1200500FA04F320FA05F001FA04F258
:100DD00040EA020001F0004110EBD37041F1000144
:100DE0005EEA430E08BF20EAD37070BDC4F120054F
:100DF00000FA05F24EEA020E20FA04F301FA05F2B7
:100E000043EA020321FA04F001F0004121FA04F25E
:100E100020EA020000EBD3705EEA430E08BF20EA2E
:100E2000D37070BD94F0000F0FD101F00046400068
:100E300041EB010111F4801F08BF013CF7D041EAEA
:100E4000060195F0000F18BF704703F000465200EE
:100E500043EB030313F4801F08BF013DF7D043EABF
:100E60000603704794EA0C0F0CEA135518BF95EA75
:100E70000C0F0CD050EA410618BF52EA4306D1D1FC
:100E800081EA030101F000414FF0000070BD50EA1B
:100E9000410606BF1046194652EA430619D094EAA5
:100EA0000C0F02D150EA013613D195EA0C0F05D18F
:100EB00052EA03361CBF104619460AD181EA0301E3
:100EC00001F0004141F0FE4141F470014FF000009B
:100ED00070BD41F0FE4141F4780170BD70B54FF036
:100EE000FF0C4CF4E06C1CEA11541DBF1CEA1355B6
:100EF00094EA0C0F95EA0C0F00F0A7F8A4EB050498
:100F000081EA030E52EA03354FEA013100F088808E
:100F10004FEA03334FF0805545EA131343EA126357
:100F20004FEA022245EA111545EA10654FEA00260C
:100F30000EF000419D4208BF964244F1FD0404F5C5
:100F4000407402D25B084FEA3202B61A65EB030521
:100F50005B084FEA32024FF480104FF4002CB6EBDE
:100F6000020E75EB030E22BFB61A754640EA0C005E
:100F70005B084FEA3202B6EB020E75EB030E22BF9E
:100F8000B61A754640EA5C005B084FEA3202B6EBDF
:100F9000020E75EB030E22BFB61A754640EA9C009E
:100FA0005B084FEA3202B6EB020E75EB030E22BF6E
:100FB000B61A754640EADC0055EA060E18D04FEA2C
:100FC000051545EA16754FEA06164FEAC30343EACC
:100FD00052734FEAC2025FEA1C1CC0D111F4801F99
:100FE0000BD141EA00014FF000004FF0004CB6E792
:100FF00011F4801F04BF01430020B4F1FD0C88BF31
:10100000BCF5E06F3FF6AFAEB5EB030C04BFB6EB3B
:10101000020C5FEA500C50F1000041EB045170BD2E
:101020000EF0004E4EEA113114EB5C04C2BFD4EB5B
:101030000C0541EA045170BD41F480114FF0000EDF
:10104000013C90E645EA060E8DE60CEA135594EA5B
:101050000C0F08BF95EA0C0F3FF43BAF94EA0C0F5E
:101060000AD150EA01347FF434AF95EA0C0F7FF4D3
:1010700025AF104619462CE795EA0C0F06D152EA27
:1010800003353FF4FDAE1046194622E750EA41060B
:1010900018BF52EA43067FF4C5AE50EA41047FF41C
:1010A0000DAF52EA43057FF4EBAE12E74FF0FF3C81
:1010B00006E000BF4FF0010C02E000BF4FF0010C52
:1010C0004DF804CD4FEA410C7FEA6C5C4FEA430CCB
:1010D00018BF7FEA6C5C1BD001B050EA410C0CBF1A
:1010E00052EA430C91EA030F02BF90EA020F00207C
:1010F000704710F1000F91EA030F58BF994208BFE3
:1011000090422CBFD8176FEAE37040F0010070479F
:101110004FEA410C7FEA6C5C02D150EA013C07D1F6
:101120004FEA430C7FEA6C5CD6D152EA033CD3D041
:101130005DF8040B704700BF8446104662468C463B
:101140001946634600E000BF01B5FFF7B7FF00286E
:1011500048BF10F1000F01BD4DF808EDFFF7F4FF97
:101160000CBF012000205DF808FB00BF4DF808ED22
:10117000FFF7EAFF34BF012000205DF808FB00BF45
:101180004DF808EDFFF7E0FF94BF012000205DF867
:1011900008FB00BF4DF808EDFFF7CEFF94BF01201C
:1011A00000205DF808FB00BF4DF808EDFFF7C4FF15
:1011B00034BF012000205DF808FB00BF4FEA410C5E
:1011C0007FEA6C5C02D150EA013C0AD14FEA430C41
:1011D0007FEA6C5C02D152EA033C02D14FF000007E
:1011E00070474FF0010070474FEA410212F50012BC
:1011F00015D211D56FF47873B3EB625212D94FEA5E
:10120000C12343F0004343EA505311F0004F23FA47
:1012100002F018BF404270474FF00000704750EA9C
:10122000013005D111F0004008BF6FF00040704759
:101230004FF00000704700BF4A0011D212F50012B3
:1012400011D20DD56FF47873B3EB62520ED44FEA1E
:10125000C12343F0004343EA505323FA02F070479E
:101260004FF00000704750EA013002D14FF0FF30DC
:1012700070474FF0000070474FEA4102B2F1E0437F
:1012800024BFB3F5001CDCF1FE5C0DD901F0004C6D
:101290004FEAC0024CEA5070B2F1004F40EB8300BD
:1012A00008BF20F00100704711F0804F21D113F1E9
:1012B0003872BCBF01F00040704741F480114FEA22
:1012C0005252C2F11802C2F1200C10FA0CF320FAAB
:1012D00002F018BF40F001004FEAC1234FEAD323C8
:1012E00003FA0CFC40EA0C0023FA02F34FEA430332
:1012F000CCE77FEA625307D150EA01331EBF4FF0BB
:10130000FE4040F44000704701F0004040F0FE40D5
:1013100040F40000704700BF53B94AB9002908BF24
:1013200000281CBF4FF0FF314FF0FF3000F0BEB976
:10133000ADF1080C6DE904CE00F03CF8DDF804E0F6
:10134000DDE9022304B0704738B5002200230446CB
:101350000D46FFF70BFF28B920462946BDE8384067
:1013600000F00AB8204605F1004100F005F84042BF
:1013700061EB410138BD00BFD0B50C4B00220646E1
:101380000F46FFF781FCFFF757FF0446FFF702FC0B
:10139000074B0022FFF778FC02460B4630463946E1
:1013A000FFF7BAFAFFF748FF2146D0BD0000F03D35
:1013B0000000F0412DE9F047089D8E46044688461E
:1013C000002B4AD18A42174662D9B2FA82F64EB150
:1013D000C6F1200301FA06F820FA03F3B74043EA06
:1013E0000808B4404FEA174E1FFA87FCB8FBFEF11D
:1013F000230C0EFB118843EA084301FB0CF29A42CE
:1014000009D9FB1801F1FF3080F0EA809A4240F2DE
:10141000E78002393B449A1AA3B2B2FBFEF00EFBFE
:10142000102243EA024300FB0CFC9C4509D9FB183F
:1014300000F1FF3280F0D6809C4540F2D3803B44DF
:10144000023840EA0140A3EB0C0300211DB1F34038
:101450000022C5E90032BDE8F0878B4205D90DB105
:10146000C5E9000100210846F5E7B3FA83F1002938
:1014700046D1734502D3824200F20581841A6EEB95
:10148000030201209046002DE5D0C5E90048E2E7BF
:10149000002A00F09080B2FA82F6002E40F0A4807C
:1014A0008A1A030C4FEA174E80B2BCB20121B2FB7C
:1014B000FEFC0EFB1C2243EA024304FB0CF29A42A0
:1014C00007D9FB180CF1FF3802D29A4200F2E080F3
:1014D000C4469B1AB3FBFEF20EFB123340EA0343F1
:1014E00002FB04F49C4207D9FB1802F1FF3002D240
:1014F0009C4200F2CA8002461B1B42EA0C40A5E750
:10150000C1F120068B4022FA06F71F430EFA01F4C0
:1015100020FA06F32EFA06FE4FEA1749234300FA93
:1015200001F81FFA87FCBEFBF9F01C0C09FB10EE5A
:1015300044EA0E4400FB0CFEA64502FA01F209D96A
:101540003C1900F1FF3A80F09C80A64540F299805A
:1015500002383C44A4EB0E041FFA83FEB4FBF9F3FB
:1015600009FB13444EEA044403FB0CFCA44508D9D0
:101570003C1903F1FF3E80F08280A4457FD9023BF5
:101580003C4443EA0040A4EB0C04A0FB02EC64459D
:101590007346E14662D35FD05DB1B8EB030264EB02
:1015A000090404FA06F622FA01F31E43CC40C5E909
:1015B000006400214FE7B1FBF2FC010C41EA0E414F
:1015C00080B240EA01423B4638463C46B846BE46F9
:1015D0002026B1FBF7F1A2EB080241EA0C4166E7D5
:1015E000014618E710462CE7C6F120022EFA02F356
:1015F000B740B14020FA02F24FEA174E0A43B3FB5C
:10160000FEF8BCB20EFB1833110C41EA034108FB93
:1016100004F9B04089454FEA104380B23ED97918A9
:1016200008F1FF3C01D289451FD8A1EB0901B1FBAC
:10163000FEF909FB04F80EFB191192B242EA0142CD
:10164000424529D2BA1809F1FF31C4D24245C2D26B
:10165000A9F102013A44BEE7F0459DD2BEEB020378
:101660006CEB070C0138E14696E7A7EB0909494402
:10167000A8F1020CB1FBFEF909FB04F8DBE77346A5
:101680007FE7504666E70846FDE63B44023A33E70B
:10169000ACF1020C3B441CE749469CE7A1EB090175
:1016A000C446B1FBFEF909FB04F8C4E7704700BF6C
:1016B00008B504F077F908BD08B504F06DF908BD68
:1016C00072B6FEE710B5A4B03822002116A80BF0C0
:1016D000BDFF002411941294139414941594442281
:1016E000214668460BF0B2FF204607F0E9FB07F001
:1016F000DFFB214AD2F8903023F01803C2F8903073
:10170000252316934FF480331793012218921C92CD
:1017100002231D9303211E911F92282220922193C0
:1017200004222292239316A807F084FCE8B90F2321
:1017300011930323129300231393149315930421FD
:1017400011A807F02DFF90B90C4B009300230693CE
:101750004FF080720C920D934FF480731093684693
:1017600008F044F828B924B010BDFFF7A9FFFFF72F
:10177000A7FFFFF7A5FF00BF0010024040300800A0
:1017800000B58BB004F0ECF8FFF79CFF2B4B1A6E02
:1017900042F001021A661A6E02F001020192019AE9
:1017A0009A6D42F080529A659A6D02F080520292D0
:1017B000029ADA6C42F00102DA64DA6C02F0010299
:1017C0000392039ADA6C42F00202DA64DA6C02F0F5
:1017D00002020492049ADA6C42F00402DA64DA6CCF
:1017E00002F004020592059ADA6C42F00802DA640B
:1017F000DA6C02F008020692069ADA6C42F01002E5
:10180000DA64DA6C02F010020792079ADA6C42F09E
:101810002002DA64DA6C02F020020892089ADA6C8C
:1018200042F04002DA64DB6C03F040030993099B49
:1018300007F0CCFB01200BB05DF804FB0010024068
:1018400000B583B00B4B1A6E42F001021A661A6E95
:1018500002F001020092009A9A6D42F080529A655D
:101860009B6D03F080530193019B07F0AFFB03B026
:101870005DF804FB00100240FEE7FEE7FEE7FEE72E
:10188000FEE770477047704708B504F079F802F03A
:1018900091FD08BD0120704708B50BF03BFF1623F2
:1018A00003604FF0FF3008BD08B54FF0FF31FFF780
:1018B000F3FFFEE770B50C461646002506E0AFF3D1
:1018C0000080214601F8010B01350C46B542F6DBDC
:1018D000304670BD70B50C461646002504E014F87D
:1018E000010BAFF300800135B542F8DB304670BD27
:1018F0004FF0FF3070474FF400534B6000207047AB
:10190000012070470020704710B503460C4A0D496E
:101910000D48006840B10C4800680344521A9342D5
:1019200006D8094A136010BD0748084C0460F2E766
:101930000BF0F0FE0C2303604FF0FF30F3E700BF25
:101940000078002000040000A0030020C8540020FC
:10195000044BD3F8882042F47002C3F88820024A6E
:101960009A60704700ED00E00000000808B503F041
:101970007BFF00F053F800F065F8002008BD000080
:1019800010B50F4B1B78012B0ED0022B0ED001206F
:1019900002F05EFB40F6B834FFF78EFE094B1B6881
:1019A000C31AA34205D210BD6424F5E74FF47A743C
:1019B000F2E7044B1860002002F086FBF3E700BF5B
:1019C000B1030020A403002010B5044603F028F959
:1019D00010B10123237010BD02232370FBE7000028
:1019E00010B5FFF7CDFF0A4C2046FFF7EDFF094B7E
:1019F0001A7823789A4203D0064A1370002010BD4B
:101A0000054B187810B100221A70F8E70120F6E7AC
:101A1000B0030020B10300200400002008B501211C
:101A2000084601F077FF00F031F900F021F8034B90
:101A3000034A1A60002002F00FFC08BDAC0300202E
:101A4000E119000808B502E0074800F025F8074B47
:101A50001B78012BF8D0022B02D0FFF7C1FFF6E76D
:101A6000014800F019F8F2E7AC030020B1030020B0
:101A700000B583B04FF4E131012002F04BFD0523A6
:101A80000093032301220021084600F0A3FE012059
:101A900003B05DF804FB0000F0B599B00746694853
:101AA00002F026FC002316931793674B5E6828E02C
:101AB000654B5968B14232D1002001F023F901F0A1
:101AC00045F8002834D1002000F050FF002834D120
:101AD000179BE31AB3F5FA7F73D2012002F0C6FD1B
:101AE000002840F08880012002F0E0FD8DF80B0016
:101AF000002840F08780012002F0B8FD002840F067
:101B00008D803B689847002800F09780FFF7D4FD50
:101B10000446169BC31A632BCAD91690C8E74B48D4
:101B200000F020FA002001F0C5F8474B5E68C3E7DB
:101B30004749012002F028FEC5E703A9002000F074
:101B400097FFBDF810200DF11201012002F0F0FD09
:101B5000404B1968404AA2FB0102520B42F210703E
:101B600000FB12121A60511C19603C49032002F05C
:101B70000BFE9DF8533063B93949032002F004FE8F
:101B8000BDF81030039A3749032002F0FDFD00250F
:101B90000EE03549032002F0F7FDF1E705F160039F
:101BA0006B4413F84E2C3149032002F0EDFD013552
:101BB000BDF81030AB42F1DC2D49032002F0E4FD0A
:101BC00086E717942B4B1C6801341C60032002F03D
:101BD0004DFD0546012002F049FD00902B462246AE
:101BE0002549032002F0D0FD032002F08DFD0120E5
:101BF00002F06AFA71E71F4B1A682049012002F0CF
:101C0000C3FD70E702461E49032002F0BDFD01221C
:101C10000DF10B01104602F08BFD6CE7194B1B78A0
:101C20003F2B02D9174B00221A70002300E001332A
:101C3000BDF810209A42FADC63E7134802F058FB23
:101C400019B0F0BD78010108000B002088010108DF
:101C500098010108BC0300205917B7D1AC01010855
:101C6000BC010108CC010108C4010108E001010820
:101C7000E8010108B4030020EC010108FC0101089F
:101C800008020108B80300201C02010808B54FF43F
:101C9000E131002000F02EF94FF4E131002002F094
:101CA00039FC4FF4E131022002F034FC4FF4E13111
:101CB000032002F02FFC012008BD00000D488546DE
:101CC000FFF746FE0C480D490D4A002302E0D458A8
:101CD000C4500433C4188C42F9D30A4A0A4C002376
:101CE00001E013600432A242FBD30BF019FDFFF7B1
:101CF0003DFEFEE700780020000000208403002065
:101D00005015010884030020C4540020FEE7034658
:101D10000020186058609A600120D86019617047EF
:101D200010B40024046044608360C260016101203B
:101D30005DF8044B7047F0B500270CE00CEB030591
:101D400011F803E006F805E00133C5689D42F5D8B7
:101D5000294404600137974213D205686B1C8468DC
:101D6000B3FBF4F604FB16344368A3420BD00669B8
:101D7000002EEED00029ECD0C36803FB05FC002345
:101D8000E3E70120F0BD0020FCE770B50C461646E5
:101D9000002516E001EB0E0C1CF803C004F803C08C
:101DA0000133C2689A42F5D81444436802689342EA
:101DB00016D001338268B3FBF2F102FB11334360AA
:101DC0000135B5420AD201690029EED0002CECD0D1
:101DD0004368C26802FB03FE0023E2E7012070BDF6
:101DE0000020FCE703690268C06800FB023070470E
:101DF000036842689B1A8268B3FBF2F002FB103062
:101E00007047002380F8F23380F8F1333F2280F8E6
:101E1000F02380F8B0337047002303E08CF80020F3
:101E200001339BB20F2B0BD800EB030CC25C3AB111
:101E3000A2F16101C9B21929F0D8203AD2B2EDE776
:101E4000102B00D07047013B0022C254FAE700007B
:101E5000064BB3F87836984205D2044BD3F87C365B
:101E600053F8200070470020704700BFC0030020D7
:101E700008B50346094AB2F8782690420AD20846C5
:101E8000064AD2F87C2652F82310FEF7D9FC18B186
:101E9000002000E0002008BD0120FCE7C003002076
:101EA00008B5084BB3F87836984202D39FED060A7E
:101EB00008BD044BD3F87C36002153F820000AF00B
:101EC0001BFDF5E7C00300200000000008B5084B2B
:101ED000B3F87836984201D3002008BD044BD3F8FC
:101EE0007C360022114653F820000AF0D7FDF4E7B3
:101EF000C00300200A4B18701B7A1BB1084B5B68AB
:101F00008B4200D011B9064B187A704710B5044CBB
:101F1000616002F0FFFA2072014B187A10BD00BF19
:101F2000C0030020014B1878704700BFC003002099
:101F300008B5024B187802F099FB08BDC0030020D9
:101F400008B5024B187802F0B1FB08BDC0030020B1
:101F500008B50A460146024B187802F0E9FB08BDB5
:101F6000C00300200FB410B582B004AB53F8042BAB
:101F70000193084C4FF4807120460BF059FB024648
:101F8000214614F8110C02F0D3FB02B0BDE810405A
:101F900004B07047D103002010B50F48FFF7E2FFEF
:101FA0000E48FFF7DFFF00240CE004EB84039800E9
:101FB00000F57E700A4B1844FFF7D4FF0648FFF780
:101FC000D1FF0134064BB3F8F433A342EDDC0548EE
:101FD000FFF7C8FF10BD00BF2C0201083002010846
:101FE000C0030020540201082DE9F04383B00388A8
:101FF000446873B1012B12D81027002211462068C3
:102000000AF04CFD06462C48FFF7ACFFB046002412
:102010001BE02A48FFF7A6FF03B0BDE8F0830022CB
:10202000114660680AF03AFD0746E6E73168244841
:10203000FFF798FF624204F0030302F0030258BF67
:102040005342032B0BD004360134BC42E4DA14F0C3
:10205000030FEBD131461B48FFF784FFE6E71A4830
:10206000FFF780FF4FF0000917E01848FFF77AFFED
:102070000135032D0DDC05F108036B4413F8041C36
:10208000A1F12003DBB25E2BEFD81148FFF76AFF06
:10209000EEE708F1040809F10109B9F1030F04DCC6
:1020A000D8F8003001930025E3E70A48FFF75AFF0C
:1020B0000120FFF7FDFAC6E7900201087802010847
:1020C000A402010898020108AC020108B402010848
:1020D000B0020108B802010808B5044B187802F0F4
:1020E000C5FA08B9012008BD0020FCE7C0030020A4
:1020F0002DE9F041114BB3F8F4531F2D02D9002004
:10210000BDE8F0810E46AF0005EB8504A40004F5A0
:102110007E7498461C44014620460BF028FB2F4451
:1021200008EB8707C7F808642046FFF775FEB8F884
:10213000F4330133A8F8F4330120E1E7C0030020B1
:1021400008B51248002303724372037480F8953176
:1021500080F8963180F8973180F894310C4BC0F8B4
:1021600080360C4BC0F884360B4BC0F888360B4BCE
:10217000C0F88C36FFF745FE09490A48FFF7B8FF5B
:1021800009490A48FFF7B4FF012008BDC003002039
:10219000CD1E0008A11E0008511E0008711E000877
:1021A000991F0008C0020108E91F0008C8020108C1
:1021B000022801D90020704770B504460A4D460038
:1021C00000EB400305EB8302918855F8230004F0EF
:1021D00013FD264405EB86052B7A984201D000209A
:1021E00070BD0120FCE700BFC00E010838B5002417
:1021F0002EE02C2303FB042501236B70FFF75CFA10
:102200006860002203E023440021D97001324C4B66
:102210001B8893422ADD4B4B53F82230597805290D
:10222000F1D823440121D970F0E7012932D0464A80
:102230002C2000FB0422926A934231D2FFF73CFA31
:10224000414B2C2202FB0433986000221A730134A4
:10225000022C73DCE0B2FFF7ABFF00283DD02C234B
:1022600004FB03F3384AD35C002BC2D036492C233D
:1022700004FB03F3CA180120C854538803449BB2DB
:102280005380D1690029D0D12F4A2C2000FB042291
:10229000126AD1E72C4A2C2000FB0422526ACBE7B9
:1022A000294B2C2202FB043300225A800131D961D0
:1022B0000121197603E02344002159720132204B99
:1022C0001B889342BADD1F4B53F8223059780529F9
:1022D000F1D8234401215972F0E72C2304FB03F3C6
:1022E000194AD35C73B918492C2304FB03F3CD18A6
:1022F0000022CA5401232B73EA612A76FFF7DCF926
:102300006861A4E72C2303FB042501236B73FFF70B
:10231000D3F92861002203E023440021997101329E
:10232000074B1B889342DEDD064B53F82230597869
:102330000529F1D8234401219971F0E738BD00BF88
:10234000700A0020500A0020740A002010B58AB0DC
:102350000024059406940794089409942F4BDA6C92
:1023600042F00202DA64DA6C02F002020392039A8B
:10237000DA6C42F00402DA64DB6C03F004030493C9
:10238000049B012307930CE0254B04EB440203EB71
:1023900082014968059105A953F8220004F0B4FAB6
:1023A0000134022CF0DD002012E01E4C2C2100FB39
:1023B00001F1631800225A8062541A735A73DA6169
:1023C0003C211962FA215962C82199621A760130BA
:1023D0000228EADD002304E0134A002142F823101A
:1023E0000133072BF8DD02F053F8041E11DB002344
:1023F00000930E4B02220A21204602F01DF82046CF
:1024000002F034F80A490B48FFF772FE01200AB0C7
:1024100010BD094801F06CFFF4E700BF0010024056
:10242000C00E0108740A0020500A0020ED210008A7
:1024300059250008FC020108CC02010803460228C5
:1024400008D8054A107830B12C2202FB03F3034A66
:10245000D05C70470020704705000020740A0020FF
:10246000032828BF0320024B53F82000704700BF09
:10247000B00E010802280ED8094B1B786BB182B050
:10248000084B2C2202FB00339A685B68D31A019335
:10249000019802B07047002070470020704700BFCD
:1024A00005000020740A002084B004AB03E9070093
:1024B000134A904216D00CDCA2F50062904213D071
:1024C00002F58062904211D0B0F1904F10D10D48CA
:1024D00011E00D4A90420DD002F5806290420CD17D
:1024E0000A4808E00A4806E00A4804E00A4802E010
:1024F0000A4800E00A4804B070470848FBE700BFFC
:10250000000C004804030108001000482C030108D7
:102510001C0301080C03010814030108340301081B
:102520002403010810B590B00446402200216846FB
:102530000BF08CF8002022466408A2EB440210A99C
:1025400001EB8003013043F8402C002CF3D101381B
:10255000C0B210B010BD00002DE9F041054603885F
:10256000012B0AD000272B88012B2ED02B88012B82
:1025700049D0002F72D0BDE8F08143693D49002069
:10258000984707460028EED000261BE0F0B2FFF780
:1025900067FF01463848FFF7E5FC06EB4603374C7A
:1025A00004EB830494E80700FFF77EFF01463448FC
:1025B000FFF7D8FC6068FFF7B5FF01463148FFF729
:1025C000D1FC0136022EE1DDCDE76B692E490020FA
:1025D0009847064680B9C9E7E0B2FFF72FFF0146EA
:1025E0002A48FFF7BFFC0134022CF5DD3220FFF74B
:1025F0005FF82748FFF7B6FCFFF76EFD08B100242F
:10260000F2E73746B2E76B692249002098478046D7
:102610000028AED0AB680120984718E00134022CA6
:1026200012DCE5B22846FFF709FF0028F6D028465D
:10263000FFF716FF06462846FFF71CFF0246314605
:102640001548FFF78FFCE9E70A20FFF731F8FFF79D
:1026500043FD08B10024E2E747468AE70F48FFF749
:1026600081FC0F48FFF77EFC03210E48FFF77AFC40
:1026700081E700BF440301084C030108C00E0108B4
:1026800054030108580301086003010868030108A6
:102690006C03010870030108780301089003010826
:1026A000A0030108B003010810B5002444B1134889
:1026B00001F01EFE12491348FFF71AFD012010BD5C
:1026C00011494FF4236004FB00F00B1801220A5457
:1026D00000225A705A601A72DA601A615A619A615D
:1026E000DA6100F1B00C9830084420234C22614498
:1026F0000430FFF715FB0134E4B2D7E7E00301082B
:10270000892F0008F4030108000B00203F2810D88F
:102710002F2810D81F2810D8172810D8132810D801
:102720000F2810D80B2810D8072800D87047082089
:1027300070470F2070470E2070470D2070470C2007
:1027400070470B2070470A2070470920EEE7000011
:10275000014B187001207047F80A0020002831D181
:1027600000B587B084461ABB0092184A4FF4236024
:1027700000FB0C22126A402A1ED002220392019111
:10278000134A1278DAB9022202920493089B059345
:102790004FF4236303FB0CF030300C4B18446946B4
:1027A000043003F0B3FC78B1002007B05DF804FBFF
:1027B0004FF080420092D8E701220392DFE7002227
:1027C0000292E2E7002070470120EEE7000B0020B4
:1027D000F80A00202DE9F04182B09DF820E018B100
:1027E000002002B0BDE8F08105464FF4236005FBF0
:1027F00000F000F13004564E3444043406EB000C73
:102800005448CCF834000026CCF83860524850F8D0
:102810002200CCF83C00514850F82100CCF8400090
:102820008CF8446001208CF845008CF846004FEA93
:1028300003184B48006800EB031750F80800CCF869
:1028400048007868CCF84C00B868CCF85000F868BC
:10285000CCF854004FEA0E184248006800EB0E17FF
:1028600050F80800CCF858007868CCF85C00B868DC
:10287000CCF86000F868CCF864001C20CCF8680044
:102880000820CCF86C00CCF870608CF828108CF81C
:1028900029208CF82A308CF82BE04023CCF820300B
:1028A000314BCCF82430CCF80460204603F044FBD4
:1028B00008B1002095E73046FFF74AFF00963346FF
:1028C000324631462846FFF749FF0096334601223B
:1028D00031462846FFF742FF009633460222114652
:1028E000204603F046FC08B100207AE7184B4FF46D
:1028F000236202FB05333246596A204603F0E0FDAD
:1029000008B100206DE7124B4FF4236202FB053340
:10291000996D1B6E324603FB01F1204603F04AFC21
:1029200008B100205DE7204603F055FC08B1002007
:1029300057E7204603F061FC38B9054B4FF423629A
:1029400002FB0533012058704BE7002049E700BF28
:10295000000B002000640040F00E0108E40E0108A6
:102960000C0000200800002007000E00012801D9FB
:102970000020704708B54FF4236303FB00F0983044
:10298000024B18440430FFF733FA08BD000B002057
:10299000012861D8F0B58BB00D461646324B4FF486
:1029A000236202FB00335B6813F0030F56D113F070
:1029B000010F56D102FB00F430342B4B1C4404347D
:1029C00091F847302BB1012B05D14FF08043029392
:1029D00001E00023029395F84830012B17D0022B19
:1029E0001BD00BB9079306932B680193002309931F
:1029F00008930593039395F846201C4B53F8223017
:102A00000493204603F056FD70B9002027E04FF4F0
:102A10000013079300230693E6E74FF40013079390
:102A20004FF480130693DFE7FEF746FE0746AA1D24
:102A300001A9204603F03DFC08B100200FE020462C
:102A400003F038FD30B9FEF737FEC01BB042F6D3B5
:102A5000002004E0012002E00020704700200BB0BD
:102A6000F0BD0020FBE700BF000B0020FC0E0108BA
:102A7000012801D90020704708B54FF4236303FBF8
:102A800000F09830034B184401220430FFF77DF921
:102A900008BD00BF000B0020012801D900207047AD
:102AA00000B585B04FF4236303FB00F03030074BD3
:102AB00018446946043003F0EEFC20B9BDF8040068
:102AC00005B05DF804FB0020FAE700BF000B002012
:102AD000012801D90020704700B585B04FF4236369
:102AE00003FB00F03030074B18446946043003F014
:102AF000D2FC20B9BDF8000005B05DF804FB002051
:102B0000FAE700BF000B002001281BD838B50E4B98
:102B10004FF4236202FB00335B7803B938BD0A4CE3
:102B200002FB00F0251800226A60303004440434AF
:102B3000204603F079FB204603F05FFBEB6801338E
:102B4000EB60EBE7704700BF000B002038B50024B6
:102B5000254609E0194B4FF4236202FB04331B7A2C
:102B600033B1012B18D00134002CF3DD284638BDD9
:102B7000124B4FF4236202FB04335B6813F0030F24
:102B8000F1D0E0B2FFF7C0FF0C4B4FF4236202FB21
:102B9000043301251D72E6E7084B4FF4236202FB64
:102BA00004335B6813F0030FDDD1044B02FB0433E5
:102BB00000221A720248FFF7D5F9D4E7000B002073
:102BC000F80301082DE9F0438BB0804689464FF4A5
:102BD000236707FB00F707F19805344E35440435A9
:102BE0002846FFF7FFF804463E44831D6A46316AD3
:102BF000484603F087FB00283DD1019B002B3DD1C7
:102C0000009B2360002384F84730039B03F00F03ED
:102C1000274A52F82300A080C0B2FFF777FD84F85E
:102C20004600069BB3F5001F2ED0002384F84830E1
:102C30001E4B4FF4236202FB0833DA6A0132DA6278
:102C4000012200212846FFF776F838B9174B4FF4D8
:102C5000236202FB08331A6901321A61134B4FF4E5
:102C6000236202FB0833D3F8983023B122460121B6
:102C700040469847A0B90BB0BDE8F083009B2360A5
:102C8000012384F84730C0E7059BB3F5801F03D0CC
:102C9000012384F84830CBE7022384F84830C7E7A3
:102CA000012200212846FFF770F8E4E7000B00201E
:102CB0003C0F010801281CD810B50E4B4FF42362BD
:102CC00002FB00335C6814F0010F06D114F0020F10
:102CD00007D114F0030F08D110BD074801F008FB1D
:102CE000F4E7064801F004FBF3E7054801F000FBB8
:102CF000F2E77047000B00201404010830040108BB
:102D00004C04010810B58CB004464FF4236004FB5A
:102D100000F030302D4B184401A9043003F096FB2D
:102D2000049B002B32D0294B4FF4236202FB043367
:102D30005A6842F001025A600221059B8BB3234B73
:102D40004FF4236202FB04335A6842F002025A60D5
:102D50000321069B7BB31D4B4FF4236202FB04331C
:102D60005A6842F003025A600421184B4FF4236260
:102D700002FB0433D3F898301BB111B10022204676
:102D800098472046FFF796FF0CB010BD0F4B4FF44D
:102D9000236202FB04335A6822F001025A600021C8
:102DA000CBE70A4B4FF4236202FB04335A6822F04C
:102DB00002025A60CDE7054B4FF4236202FB043355
:102DC0005A6822F003025A60CFE700BF000B0020D0
:102DD00010B504465348FFF7C5F82CB1012C06D1B5
:102DE0005148FFF7BFF802E05048FFF7BBF85048E2
:102DF000FFF7B8F84F4B4FF4236202FB04335B78C4
:102E00009BB14D48FFF7AEF84C48FFF7ABF8494B84
:102E10004FF4236202FB043393F82A30042B0BD8BF
:102E2000DFE803F0071C202428004548FFF79AF844
:102E3000EAE74448FFF796F84348FFF793F83D4B1D
:102E40004FF4236202FB043393F82B30072B18D87E
:102E5000DFE803F0143C4044484C50543B48FFF733
:102E600081F8E9E73A48FFF77DF8E5E73948FFF7E9
:102E700079F8E1E73848FFF775F8DDE73148FFF703
:102E800071F83648FFF76EF82A4B4FF4236202FBC5
:102E9000043393F82830012B34D0022B36D013B9E9
:102EA0002F48FFF75FF82F48FFF75CF8214B4FF4EE
:102EB000236202FB043393F82930012B2AD0022B22
:102EC0002CD013B92848FFF74DF810BD1F48FFF765
:102ED00049F8D6E71E48FFF745F8D2E71C48FFF748
:102EE00041F8CEE71C48FFF73DF8CAE71F48FFF757
:102EF00039F8C6E71E48FFF735F8C2E71D48FFF767
:102F000031F8BEE71C48FFF72DF8CCE71B48FFF768
:102F100029F8C8E71A48FFF725F8D6E71948FFF758
:102F200021F8D2E768040108880401087C0401083C
:102F300094040108000B0020A8040108B80401084B
:102F4000B0040108B8060108DC040108CC06010839
:102F5000CC040108D404010808070108F0040108A2
:102F600024060108100501086C0601081C07010869
:102F700030070108440701083C0601080405010860
:102F800084060108240501082DE9F04F9DB0044690
:102F90000388012B19D000252388012B63D02388B7
:102FA000022B00F097802388062B00F0B680238840
:102FB000022B00F03C812388032B00F0E081002DE0
:102FC00000F020831DB0BDE8F08F4369A4490020C4
:102FD000984705460028DFD0002607E03146A14883
:102FE000FEF7C0FFA048FEF7BDFF0136002ED3DC80
:102FF0009E4B4FF4236202FB06335B78002BEDD02F
:103000005FFA86F84046FFF7E3FE984F4FF42363DC
:1030100003FB067779789648FEF7A4FF396995484F
:10302000FEF7A0FF79699448FEF79CFFB9699348C1
:10303000FEF798FFF9699248FEF794FF4046FFF7C4
:103040002BFD01468F48FEF78DFF4046FFF740FD00
:1030500001468D48FEF786FF4046FFF72BFE82486B
:10306000FEF780FFC1E7636988490020984706465C
:10307000002894D000218648FEF774FF8548FEF7AB
:1030800071FF8548FEF76EFF8448FEF76BFF8448AA
:10309000FEF768FF8348FEF765FF8348FEF762FF8F
:1030A0008248FEF75FFF8248FEF75CFF8148FEF72B
:1030B00059FF8148FEF756FF8048FEF753FF8048CE
:1030C000FEF750FF7F48FEF74DFF7F48FEF74AFFAF
:1030D000354664E763696D490020984700283FF44E
:1030E00062AF6369794901209847064600283FF49A
:1030F0005AAF072300930423022211460020FFF752
:1031000069FB40B172497348FEF72CFF0020FFF7BE
:103110005FFE354647E77049F5E763695B49002084
:103120009847804600283FF442AF6C4D03AB95E8CA
:10313000070083E8070006AB05F10C0207CA83E825
:10314000070009AE18350FCD0FC695E80F0086E8C9
:103150000F00A3680120984700280DDBA368012019
:103160009847002802DD4FF0000907E0A36801201E
:1031700098475FFA80F901E04FF000090026022E1F
:103180000CDC63691CAA02EB860252F8641C022064
:10319000984708B90136F2E7F6B200E000260027AA
:1031A000022F0CDC63691CAA02EB870252F8581C40
:1031B0000320984708B90137F2E7FFB200E0002783
:1031C0004FF0000ABAF1070F0EDC63691CAA02EB8C
:1031D0008A0252F84C1C0420984710B90AF1010ADF
:1031E000F0E75FFA8AFA01E04FF0030A0025072DA5
:1031F0000CDC63691CAA02EB850252F84C1C05200A
:10320000984708B90135F2E7EDB200E005250095D1
:1032100053463A4631464846FFF7DCFA28B12C4976
:103220002C48FEF79FFE4546C1E62B49F8E7636947
:103230002B4900209847074600283FF4BCAEA368FE
:103240000120984700284DDBA368012098470028FB
:1032500001DD002647E0A36801209847C6B242E09E
:1032600044030108EC050108E8010108000B0020F7
:10327000440501085C050108740501088C05010876
:10328000A4050108BC050108D4050108FC050108D6
:10329000040601081806010830060108480601085E
:1032A000640601087C06010894060108AC060108C2
:1032B000C0060108D4060108E8060108FC0601085A
:1032C0001007010824070108380701084C07010806
:1032D00034050108540701083C05010828010108CC
:1032E0006807010800264FF00008FEF7F5FE0028E9
:1032F00043D03046FFF73AFB0028F6D009A9304604
:10330000FFF7B6FBAD4AA2FB083292094FF47A737D
:1033100003FB128202F101083146A948FEF722FEA2
:103320009DF86C3083B1A748FEF71CFE9DF86B300A
:1033300073B9A548FEF716FEBDF828200999A348E1
:10334000FEF710FE002510E0A148FEF70BFEEDE7AA
:10335000A048FEF707FEEFE705F170036B4413F892
:10336000461C9D48FEF7FEFD0135BDF82830AB42F6
:10337000F2DC9A48FEF7F6FDB7E73D461BE66369C7
:10338000974900209847814600283FF418AEA3686B
:103390000120984700280BDBA368012098470028EC
:1033A00001DD002505E0A36801209847C5B200E0D3
:1033B000002563698B490220984748B14FF0000A05
:1033C000894B5E68FEF778F904460027B8468CE022
:1033D0004FF0020AF4E7FEF76FF904468DF86CA08F
:1033E00000238DF86B3008228DF86A204FF4457168
:1033F0000991ADF8282006E0D91903F170026A445A
:1034000002F8461C0133072BF6D90A2209A92846DF
:10341000FFF7BEFA20BB2846FFF73EFB18B9284647
:10342000FFF756FB60B12846FFF736FB8346284678
:10343000FFF74EFB03465A4629466C48FEF792FDBD
:103440006B4B1B68002B5AD0DFF8A4B1DBF80020CF
:1034500029466848FEF786FD0023CBF800304EE091
:10346000564AA2FB083292094FF47A7303FB128288
:1034700002F1010829466048FEF774FD9DF86C30A2
:103480008BB15048FEF76EFD9DF86B307BB94E480E
:10349000FEF768FDBDF8282009994C48FEF762FD4B
:1034A0004FF0000B11E04A48FEF75CFDECE749489D
:1034B000FEF758FDEEE70BF170036B4413F8461C62
:1034C0004548FEF74FFD0BF1010BBDF828305B4579
:1034D000F1DC4248FEF746FD01379CE7FFF736FB7B
:1034E00020BB2846FFF742FA28BBFEF7F5FD00286F
:1034F00062D0FEF7E1F8001B63283FF66CAFAB46E5
:10350000394B4FF4236202FB05335A68B242E5D0CF
:1035100029463A48FEF726FD2846FFF7CBFB324BFB
:103520004FF4236202FB05335E68D7E759463448FF
:10353000FEF718FDD5E709A92846FFF799FA1F4AB3
:10354000A2FB083292094FF47A7303FB128202F154
:10355000010859461A48FEF705FD9DF86C308BB1FD
:103560001848FEF7FFFC9DF86B307BB91648FEF754
:10357000F9FCBDF8282009991448FEF7F3FC4FF038
:10358000000B11E01248FEF7EDFCECE71148FEF7E6
:10359000E9FCEEE70BF170036B4413F8461C0E4890
:1035A000FEF7E0FC0BF1010BBDF828305B45F1DCC8
:1035B0000A48FEF7D7FC98E74D4600E5D34D621068
:1035C000740701088C070108BC010108CC0101083F
:1035D00090070108C4010108E0010108E8010108A1
:1035E00094070108F4030108000B0020B807010844
:1035F000FC0A0020D0070108A0070108E407010821
:10360000FC0701080A48FEF7ADFC0A48FEF7AAFCD1
:1036100000210948FEF7A6FC0848FEF7A3FC00219C
:103620000748FEF79FFC00210648FEF79BFCC9E413
:1036300014080108200801082C080108580801088E
:10364000680801088408010808B50020FFF75AFB44
:1036500008BD0000054A136801331360036E23B1EF
:10366000034A536843F0100353607047FC0A00207C
:10367000000B002008B5024802F0ADFF08BD00BFF6
:10368000340B002010B50C4611F0010F0ED114F0D0
:10369000020F03D0084A93690133936114F0040FB9
:1036A00003D0054AD3690133D36110BD0146002020
:1036B000FFF788FAEBE700BF000B002010B598B0C9
:1036C00004460021139114911591169117914422EB
:1036D00002A809F0BBFF22681D4B9A4201D018B026
:1036E00010BD4FF4805302934FF080730E9302A8E5
:1036F00006F07CF848BB174B9A6D42F000729A6551
:103700009A6D02F000720092009ADA6C42F00202A6
:10371000DA64DB6C03F002030193019B4FF4407306
:1037200013930223149300241594169309231793DB
:1037300013A9094803F0E8F822462146152002F0B3
:10374000ABF9152002F0B8F9C9E7FDF7B9FFD2E7E8
:1037500000640040001002400004004808B501F079
:10376000D3FD014B187008BD3015002008B501F0DD
:1037700007FE08BD08B501F0E3FD08BD08B501F07E
:10378000E7FD08BD08B501F019FE08BD08B501F058
:10379000F1FD08BD08B501F047FE08BD08B502F00F
:1037A000DFFF08BD014B00221A7070473115002061
:1037B000B0F1FF3F00D0704708B5FFF7F3FF08BD39
:1037C00082B00023019302E0019B013301934FF487
:1037D0007A7300FB03F3019A9342F5D802B0704765
:1037E00008B5002306E00022074941F823200749D5
:1037F000CA540133012BF6D905490648FEF778FC77
:103800000120054B187008BDE4150020DC150020D0
:10381000B53B000844090108DE1500202DE9F047FA
:1038200086B0054600EB8003394E06EB8306D6F8DA
:103830000890CDF804904FF0110ACDF808A00024AC
:10384000039403230493D6F8048001A9404603F0AF
:103850005BF837690197CDF808A00394F66801A9D1
:10386000304603F051F801221FFA89F1404603F077
:10387000CAF90122B9B2304603F0C5F90520FFF7B5
:103880009FFF17E005EB8502214B03EB82031F89A5
:103890005E6800223946304603F0B5F90520FFF78F
:1038A0008FFF01223946304603F0ADF90520FFF7BE
:1038B00087FF0134082CE5DD154E05EB850406EB8A
:1038C0008404B4F808A0D4F8049000225146484675
:1038D00003F099F90520FFF773FFB4F81080002278
:1038E0004146E06803F08FF90520FFF769FF0122E8
:1038F0005146484603F087F90520FFF761FF012292
:103900004146E06803F07FF906B0BDE8F08700BFEC
:103910005410010838B500EB80022F4B53F82250A9
:10392000012857D8044618B101282AD0002052E0B7
:103930002A4B195400232A4A13542A4A2A602A4A35
:1039400052F821206A60AB600122EA602B616B6152
:10395000EB612B62FFF762FF284603F0CEFB28469F
:1039600003F067FB08B1002035E00021284604F091
:1039700051FA0021284604F07BFA0120184B185513
:1039800029E0164B19540023154A1354174A2A608C
:10399000154A52F821206A60AB600122EA602B616F
:1039A0006B61EB612B62FFF739FF284603F0A5FB43
:1039B000284603F03EFB08B100200CE00021284619
:1039C00004F028FA0021284604F052FA0120044BA2
:1039D000185500E0002038BD54100108E015002003
:1039E000DC150020005400404C1001080058004035
:1039F00010B500EB80000A231A464900044C54F825
:103A0000200003F011FE08B1002010BD0120FCE7EA
:103A10005410010810B584B0844600EB800E0C48A9
:103A200050F82E00BCF1010F02D9002004B010BDE7
:103A3000490089B2079C0294BDF818400194009394
:103A4000012303F019FD08B90120EFE70020EDE79D
:103A50005410010810B582B0049C01940124009414
:103A6000FFF7D8FF02B010BD10B584B0844600EB5C
:103A7000800E0C4850F82E00BCF1010F02D9002036
:103A800004B010BD490089B2079C0294BDF81840EB
:103A900001940093022303F0EFFC08B90120EFE743
:103AA0000020EDE75410010810B582B0049C019489
:103AB00001240094FFF7D8FF02B010BD10B584B008
:103AC000844600EB800E0C4850F82E00BCF1010F2C
:103AD00002D9002004B010BD490089B2079C0294AD
:103AE000BDF8184001940093012303F0F1FB08B9DD
:103AF0000120EFE70020EDE75410010800B585B084
:103B00008DF80F30069B0193012300930DF10F03F5
:103B1000FFF7D4FF05B05DF804FB000010B584B0DA
:103B2000844600EB800E0C4850F82E00BCF1010FCB
:103B300002D9002004B010BD490089B2079C02944C
:103B4000BDF8184001940093022303F0C1FB08B9AB
:103B50000120EFE70020EDE75410010800B585B023
:103B60008DF80F30069B0193012300930DF10F0395
:103B7000FFF7D4FF05B05DF804FB000010B582B07C
:103B8000844600EB800E0A4850F82E00BCF1010F6D
:103B900002D9002002B010BD490089B2049C0094F3
:103BA0009BB203F0C3FA08B90120F3E70020F1E764
:103BB000541001082DE9F047A4B004460388022BF5
:103BC0005AD0052B3ED183680120984710F0FF059D
:103BD00000F08A80022D28BF0225A36802209847A2
:103BE0001FFA80F9A3680320984706461FFA80FA57
:103BF000A36804209847074605F1FF385FFA88F864
:103C000063698A4900209847002874D1636988490C
:103C100000209847002840F088806369854900208B
:103C20009847002840F0BB8063698349002098478B
:103C3000002840F0B680636980490020984700283A
:103C400040F0CB8002217E48FEF78CF902217D48AE
:103C5000FEF788F97C48FEF785F97C48FEF782F983
:103C60007B48FEF77FF97B48FEF77CF97A48FEF740
:103C700079F924B0BDE8F08783680120984710F0F7
:103C8000FF0519D0022D28BF0225013DEDB2636961
:103C900072490020984700BB63697149002098472A
:103CA0000028E6D001212846FFF734FEB8B1691C90
:103CB0006C48FEF757F9DCE70125E6E701347F2C75
:103CC000D7D8E1B22846FFF793FE0028F6D0224667
:103CD000691C6548FEF746F9F0E70024EFE7691C28
:103CE0006248FEF73FF9C4E7012576E729466048B8
:103CF000FEF738F9BDE70024BBB2A342B9D90AEBFD
:103D000004026423009304AB92B249464046FFF795
:103D1000A1FE0028EAD09DF8103014FA86F2294658
:103D20005448FEF71FF90134E6E7FDF7C5FC0446E9
:103D300064230093FBB2524649464046FFF7DEFE3D
:103D400050B1FDF7B9FC001B0090BBB2B2B22946DE
:103D50004948FEF707F98CE729464548FEF702F97E
:103D600087E79DF8103014FA86F229464148FEF79D
:103D7000F9F80134BBB2A3427FF67BAF0AEB040231
:103D80006423009304AB92B249464046FFF78CFE91
:103D90000028E6D129463648FEF7E4F869E7002412
:103DA000E8E7FDF789FC044664230093FBB2524622
:103DB00049464046FFF7D2FE50B1FDF77DFC001B9F
:103DC0000090BBB2B2B229462C48FEF7CBF850E7C0
:103DD00029462748FEF7C6F84BE7FDF76DFC044679
:103DE0004FEA1A2A8DF808A08DF80960FBB28DF809
:103DF0000A305B428DF80B3064230093032302AA40
:103E000049464046FFF7BAFE50B1FDF755FC001B8E
:103E10000090BBB2B2B229461848FEF7A3F828E7D3
:103E200029461348FEF79EF823E700BF98090108CA
:103E3000D0090108FC090108040A0108300A010838
:103E40003C0A0108580A0108740A0108A00A01087E
:103E5000CC0A0108FC0A01082C0B010848090108DA
:103E6000FC0501086C0901085009010880090108D6
:103E7000BC090108A0090108D80901080C0A0108B9
:103E800003680C4A1268934204D00B4A12689342AA
:103E900008D07047436C002BFBD0084A13680133ED
:103EA00013607047436C002BF3D0044A536801330E
:103EB0005360EEE78815002034150020E41500203B
:103EC00008B5024803F064FF08BD00BF8815002054
:103ED00008B5024803F05CFF08BD00BF34150020A0
:103EE000F0B58DB000230793089309930A930B93C1
:103EF0000368424A934204D0414A93423FD00DB0F6
:103F0000F0BD404CE36C43F00103E364E36C03F069
:103F100001030193019BE36C43F00203E364E36C50
:103F200003F002030293029B4FF40043079312270E
:103F300008970125099504260B9607A94FF0904094
:103F400002F0E2FC802307930897099500250A9563
:103F50000B9607A92C4802F0D7FCA36D43F400137D
:103F6000A365A36D03F400130393039B2A46052165
:103F7000202001F091FD202001F09EFDBFE7214CA3
:103F8000E36C43F00103E364E36C03F00103049387
:103F9000049BE36C43F00403E364E36C03F0040369
:103FA0000593059B10230793122708970125099570
:103FB00004260B9607A9154802F0A6FC4FF480735F
:103FC00007930897099500250A950B9607A94FF0C6
:103FD000904002F099FCA36D43F48003A365A36DA8
:103FE00003F480030693069B2A460521222001F054
:103FF00053FD222001F060FD81E700BF0054004026
:10400000005800400010024000040048000800482A
:1040100008B502680B4B9A4200D008BD0A4A936D5E
:1040200023F4001393654FF400414FF0904002F0E9
:1040300055FD8021054802F051FD202001F040FD92
:10404000EBE700BF005400400010024000040048AD
:10405000022800D9704708B5044B03EBC0010022C9
:10406000898853F8300002F0CEFD08BD7C100108AD
:1040700010B586B00024019402940394049405942E
:104080000F4BDA6C42F00402DA64DB6C03F00403D9
:104090000093009B012302930DE00A4B03EBC40243
:1040A0009288019201A953F8340002F02DFCE0B28D
:1040B000FFF7CEFF0134022CEFDD012006B010BD6A
:1040C000001002407C100108022800D9704708B592
:1040D000044B03EBC002918853F8300002F098FDC6
:1040E00008BD00BF7C1001082DE9F0410646038899
:1040F000012B0AD000273388012B23D03388012BD2
:104100003ED0002F5AD0BDE8F081436930490020ED
:10411000984707460028EED02E4C21882E48FDF700
:1041200021FF61882D48FDF71DFF2D48FDF71AFF7F
:104130002C4C21882C48FDF715FF61882B48FDF792
:1041400011FFD8E773692A49002098478046002864
:10415000D4D0002506E01F4B986821462844FDF77F
:10416000F7FE2544FDF7B8FF074638B1194B5C88C8
:10417000641BC3D0402CEED94024ECE74746BDE792
:1041800073691C490020984706460028B9D00025CD
:1041900006E0144B986821462844FDF7D9FE2544D3
:1041A000FDF79AFF074638B10E4B5C88641BA8D018
:1041B000402CEED94024ECE73746A2E70E48FDF745
:1041C000D1FE0E48FDF7CEFE0D48FDF7CBFE9AE777
:1041D00044030108001F00205C0B0108740B010858
:1041E000E8010108F41E00208C0B0108A40B010853
:1041F000BC0B0108C40B0108CC0B0108D80B01084B
:10420000E40B010810B50D4A0023138053804FF4CE
:1042100080619180D3800A4890600A4A138053805D
:104220009180D380084B93600124084B1C7008498F
:104230000848FDF75DFF204610BD00BF001F0020AD
:10424000F41A0020F41E0020F4160020F2160020BC
:10425000E9400008F00B0108003818BF0120014BAD
:10426000187070471100002008B5054B1870054BF9
:104270001960054B01221A7000F04CF908BD00BF0F
:10428000F0160020EC160020F116002030B583B0A7
:1042900004469446C3881344083382889A4205D260
:1042A0000023C3800CF108039A4219D3E0880091DF
:1042B00023880E4A0CF10801A568284409F010F97A
:1042C000238801332380E38882B21344E380638828
:1042D0001844A188884205DC1A446280012002E06B
:1042E000002000E0012003B030BD00BFF40B010846
:1042F0000FB410B582B0164B1B7823B902B0BDE8DD
:10430000104004B0704705AB0193049A4FF48071DC
:10431000104809F08DF904460F4B1B7813B10F4B71
:104320001B7843B90E4B1B7863B9224609490D48E7
:10433000FFF7ACFFE2E7024606490B4B187800F0A6
:10434000F7F9EFE7224603490848FFF79FFFECE73C
:10435000F2160020EC150020F116002010000020BD
:1043600011000020F41E0020F0160020001F002085
:104370000E4B1B78012B17D000230FE00C4A03EBE8
:104380008301880002EB000C00211154CCF80410CA
:10439000CCF808100244D1600133DBB2032BEDD915
:1043A0000120024B18707047002070470C1F00203E
:1043B000101F002010B51D4A13680133136000243C
:1043C00011E004EB84029300194A0020D054184AEB
:1043D00001EB81008300134498685860DA6818691B
:1043E00090470134E4B2032C1FD8124B1B889BB2B8
:1043F0009C421AD2214604EB840293000C4AD35CFF
:10440000012BEED104EB84029300094A1A4453684D
:10441000013B5360002BE4D104EB84039A00044B6E
:1044200013445B78012BD2D1CBE710BD641F002071
:10443000101F0020601F0020002813DB10B40A4C5E
:1044400000EB800C04EB8C0C8CF80120CCF80C30C9
:10445000019BCCF81030CCF80410CCF808105DF8B3
:10446000044B7047704700BF101F002000280BDB73
:10447000064A00EB800302EB83039968596000EB66
:104480008000012302F82030704700BF101F002079
:10449000074B188800B2032806DC1A461B889BB21B
:1044A00001339BB2138070474FF0FF30704700BF5D
:1044B000601F002010B500230CE00F4C03EB4302FB
:1044C00010012218002121544FF4E1305060916214
:1044D000D1620133032BF0DD074B084A9A60084A8A
:1044E0009A63084A9A660124074B1C7007490848DA
:1044F000FDF7FEFD204610BD443A0020682F002045
:1045000068270020681F0020043B0020DD470008CA
:10451000FC0B0108032800F2A18070B582B00446AC
:1045200000EB40031B014E4AD05C38B104EB44025F
:104530004B4B03EB02135B688B420ED0022C10D95D
:10454000032C0CD1464A04EB440302EB03135960DD
:1045500004EB440424010120105502B070BD00207A
:10456000FBE73F4A04EB440502EB0515696004EBE9
:1045700044033C4E06EBC306B3682B62F0686862E6
:10458000706818602B6A5960296A00238B60296A59
:10459000CB60296A0B61296A0C204861296A8B610A
:1045A000296ACB61296A0B62296A4B62296A8B628C
:1045B00004EB44000001083010444FF40062A96885
:1045C0000430FDF7A4FB284B9A6C42F004029A6475
:1045D0009A6C02F004020092009A9A6C42F0010276
:1045E0009A649B6C03F001030193019B286A05F018
:1045F000B3FA337D43B100231A461946286A05F001
:104600002DFF50B10020A8E704EB4402144B03EB4C
:104610000213186A05F070FEF3E7114A04EB440335
:10462000190102EB0313012050544FF40062996802
:10463000186A05F0EDFE78B90120094A04EB44033D
:1046400002EB031359691D6AD5F880502D686D6817
:10465000491BD960196180E70020EEE70020704710
:10466000443A0020941001080010024010B50228BE
:1046700006D9032802D1FFF77DF814E0002012E0EC
:10468000094900EB400301EB03135A695C6A246893
:104690006468121BDA6000EB400000010830084437
:1046A0000430FDF7A5FB10BD443A002010B582B0E0
:1046B000044600238DF80730022806D9032810D1BC
:1046C000FFF75CF88DF807000BE000EB40000001FD
:1046D00008300C4B184401220DF107010430FDF79E
:1046E00054FB084B04EB440203EB0212926A04EB06
:1046F000440403EB041301329A629DF8070002B0F0
:1047000010BD00BF443A002038B50446FCF7D4FF82
:10471000054602E02046FFF7C9FF2046FFF7A6FF47
:1047200020B1FCF7C9FF431B092BF3D9012038BD89
:1047300038B5044608461546022C13D9032C0FD170
:104740001146FFF71FF80F4B04EB440203EB021274
:10475000D26A04EB440403EB04130244DA6238BD6A
:104760000020F0E704EB4402064B03EB021C642339
:10477000AAB2DCF8200005F0F1FC08B10020E2E765
:104780002846E0E7443A00200EB410B5C3B0044612
:1047900045AB53F8042B01934FF4807102A808F045
:1047A00047FF024602A92046FFF7C2FF43B0BDE81B
:1047B000104003B07047000003280BD808B506D09E
:1047C00000EB4000044B03EB0013586808BDFEF7F4
:1047D000DDFFFBE700207047443A0020F0B583B0CE
:1047E00004460388012B07D000262388022B1FD004
:1047F000002E65D003B0F0BD4369354900209847CD
:1048000006460028F1D000200FE0451C00EB4002D6
:10481000304B53F83270C0B2FFF7CEFF03463A4632
:1048200029462D48FDF79EFB28460328EDDDDCE7F1
:1048300063692A49002098470028D9D0A36801203D
:10484000984700280BDDA3680120984704280FDC57
:10485000A36801209847C4B2013CE4B200E0002400
:10486000FDF760FBA04208D11D48FDF77BFBC1E7C7
:104870000324F5E7FDF75CFB78B92046FFF7F6FE69
:104880000028F7D02046FFF711FF02468DF80700F9
:10489000611C1448FDF766FBECE7FDF751FB8DF852
:1048A00007007128A6D001220DF107012046FFF76D
:1048B0003FFF9DF80720611C0B48FDF753FBDCE729
:1048C0000A48FDF74FFB04210948FDF74BFB91E730
:1048D0004403010894100108040C01084C07010866
:1048E000580C0108200C01083C0C01086C0C010854
:1048F000780C010830B59DB004460021179118913D
:1049000019911A911B91442206A808F09FFE226873
:10491000704B9A420AD022686F4B9A424BD0226861
:104920006E4B9A4200F08E801DB030BD012306937D
:1049300006A804F05BFF002837D1694B1A6E42F4D9
:1049400080421A661A6E02F480420092009ADA6C73
:1049500042F00102DA64DB6C03F001030193019B76
:104960004FF4C063179302231893002519951A95E5
:1049700007231B9317A94FF0904001F0C5FF59483A
:10498000594B0360182343608560C5608023036131
:10499000456185612023C361056201F003F938B9DF
:1049A000504BC4F880309C62B5E7FCF789FEC4E741
:1049B000FCF786FEF4E7022306930023089306A87B
:1049C00004F014FF002837D1454B9A6D42F40032B1
:1049D0009A659A6D02F400320292029ADA6C42F001
:1049E0000102DA64DB6C03F001030393039B0E23E3
:1049F0001793022318930025199503231A9307236D
:104A00001B9317A94FF0904001F07EFF3748384BB9
:104A100003601A2343608560C5608023036145619C
:104A200085612023C361056201F0BCF838B92F4BC2
:104A3000C4F880309C6272E7FCF742FEC4E7FCF7E2
:104A40003FFEF4E7042306930023099306A804F02D
:104A5000CDFE002837D1224B9A6D42F480229A6510
:104A60009A6D02F480220492049ADA6C42F00202F7
:104A7000DA64DB6C03F002030593059B4FF440639B
:104A80001793022318930025199503231A930723DC
:104A90001B9317A9174801F037FF1748174B0360FE
:104AA0001C2343608560C560802303614561856187
:104AB0002023C361056201F075F838B90E4BC4F8C4
:104AC00080309C6230E7FCF7FBFDC4E7FCF7F8FDA3
:104AD000F4E700BF003801400044004000480040B7
:104AE000001002402838002008000240C83700208B
:104AF0001C000240000400486837002030000240DB
:104B000010B5044602681D4B9A4208D022681C4B1F
:104B10009A4214D022681B4B9A421FD010BD1A4AE9
:104B2000136E23F4804313664FF4C0614FF090403E
:104B300001F0D4FFD4F8800001F09EF8E6E7124AB5
:104B4000936D23F4003393650E214FF0904001F0F4
:104B5000C5FFD4F8800001F08FF8DBE70A4A936DB7
:104B600023F4802393654FF44061084801F0B6FFB9
:104B7000D4F8800001F080F8D0E700BF0038014091
:104B8000004400400048004000100240000400487B
:104B900008B503490348FDF7ABFA012008BD00BF83
:104BA000714C0008D00C010810B5144B01221A708A
:104BB000904208D0114B00221A701148FFF798FB61
:104BC0000E4B187810BD0F4C00220F49204606F0FE
:104BD00096FB0E49204606F0A9FB0D49204600F041
:104BE0008AFA204606F0B9FB0A4B01221A700A48DD
:104BF000FFF77EFB0948FFF77BFBE1E7D93D00208B
:104C0000F80C0108083B002078010020E00000209B
:104C100024010020D83D0020D40C0108E80C010834
:104C200008B5FEF7A3FD08BD08B50B4BD3F8BC32A1
:104C30006BB1094B93F89C32DBB2032B09D1064BC5
:104C40005B680BB9002005E000F0DEFC02E000200C
:104C500000E0002008BD00BF083B0020014B187891
:104C6000704700BFD83D002008B5FEF793FD08BD92
:104C7000F8B504460388012B0AD000252388012BB0
:104C800035D02388012B5BD0002D00F08680F8BD45
:104C900043694749002098470546F8B9EEE7FFF712
:104CA000DDFF01464348FDF75DF9FFF7DDFF0146F3
:104CB0004148FDF757F9FFF7B7FF01463F48FDF7B9
:104CC00051F9FFF7ADFF01463D48FDF74BF90421CF
:104CD0003C48FDF747F96420FCF7EAFCFDF7FCF9D6
:104CE0000028DCD104213848FDF73CF9C6E76369A8
:104CF00036490020984707460028C2D0FCF7DCFC64
:104D00000646002504E01F213148FEF73BFD05441F
:104D1000FDF7E2F970B1FCF7CFFC831BB3F57A7FA6
:104D2000F1D3FCF7C9FC0646A90A2A48FFF7E0FAC6
:104D30000025E8E702212448FDF714F93D46A0E7E5
:104D4000636925490020984700289DD0FCF7B4FCF2
:104D5000074600260EE0FCF7AFFC0746B10A1F48E5
:104D6000FFF7C6FA00260EE0FEF708FD0134AC425C
:104D7000FAD32E44FDF7B0F950B1FCF79DFCC31BEC
:104D8000B3F57A7FE7D2FEF7F5FC05460024EEE79F
:104D900002210D48FDF7E6F879E71148FDF7E2F842
:104DA0001048FDF7DFF81048FDF7DCF86FE700BFAB
:104DB000440301080C0D0108200D0108340D010801
:104DC000480D01085C0D0108640D01086C0D010817
:104DD000800D0108700D0108A40D0108A80D01083F
:104DE000B80D0108C40D0108D00D010808B502482E
:104DF00003F014FE08BD00BF9450002010B5D0F899
:104E0000BC4284B1D0F8C0327BB194F80002FF28D4
:104E10000DD09B6894F8012221469847FF2384F81F
:104E20000032002010BD0320FCE70020FAE700203C
:104E3000F8E7000043230380004870475800002033
:104E400043230380004870479C00002043230380D5
:104E500000487047140000200A2303800048704770
:104E60001801002038B5D0F8BC5275B1044600F0E6
:104E7000EFFCC5F80C02D4F8C032DB6805F503710D
:104E8000D5F804029847002038BD0320FCE710B590
:104E9000D0F8C442D0F8BC3253B301EB810200EB2E
:104EA000820292694AB101EB810C04EBCC04246AC2
:104EB000B2FBF4FC04FB1C2272B10022C3F81422E2
:104EC000D0F8C0221469ACB10A4603F50471D3F8D6
:104ED0000802A047002010BD01EB810300EB830313
:104EE00000249C612346224600F0A2FC2046F2E703
:104EF0000320F0E70020EEE7F0B583B0D0F8BC6205
:104F000000238DF80730ADF80430002E6CD0074632
:104F10000C460B7813F060052AD0202D5ED1CA888C
:104F2000F2B113F0800F0FD0D0F8C0329B68314639
:104F300060789847E288072A28BF0722314638461A
:104F400006F094FE00254CE04B7886F800328B7911
:104F500086F80132CA88314606F09DFE002540E001
:104F6000D0F8C0329B68002248789847002538E086
:104F70004E780B2E2ED8DFE806F006342D2D2D2D81
:104F80002D2D2D2D152490F89C32DBB2032B03D050
:104F900006F042FB032524E0022201A906F066FE8A
:104FA00035461EE090F89C32DBB2032B03D006F0AE
:104FB00033FB032515E001220DF1070106F056FE33
:104FC0000FE090F89C32DBB2032B0AD006F024FBF2
:104FD000032506E006F020FB032502E006F01CFB9B
:104FE0000325284603B0F0BD0325FAE738B504468B
:104FF000812100F0E0FB002525870121204600F0FB
:10500000DAFBA4F878518221204600F0D4FBA4F802
:105010004C50A4F84E50D4F8BC324BB1D4F8C03246
:105020005B689847D4F8BC0200F01CFCC4F8BC5282
:10503000002038BD70B504464FF4077000F00EFC38
:10504000B8B30646C4F8BC02237CBBBB4FF4007364
:1050500002228121204600F0A3FB012525874FF481
:10506000007302222946204600F09AFBA4F87851EA
:105070001023A4F84E30082303228221204600F09A
:105080008FFB0123A4F84C30D4F8C0321B6898473A
:105090000023C6F81432C6F81832257C15BB4FF42D
:1050A0000073D6F804220121204600F0C9FB2846EF
:1050B00070BD0023C4F8BC320225F8E74023022269
:1050C0008121204600F06CFB012525874023022228
:1050D0002946204600F064FBA4F878511023A4F878
:1050E0004E30C8E74023D6F804220121204600F0C4
:1050F000A7FB0025DBE719B1C0F8C01200207047FC
:1051000003207047D0F8BC322BB1C3F80812C3F8A3
:1051100010220020704703207047D0F8BC321BB12A
:10512000C3F804120020704703207047D0F8BC2257
:1051300092B108B5D2F814320BB1012008BD012399
:10514000C2F81432D2F81032C362D2F80822812198
:1051500000F06EFB0020F1E70320704710B5D0F897
:10516000BC2292B1047C44B94FF40073D2F80422FB
:10517000012100F065FB204610BD4023D2F8042237
:10518000012100F05DFB0024F5E70324F3E70000B4
:105190000020014B18707047DC3D002021282ED0E4
:1051A000222842D020283ED10B784A7843EA0223B5
:1051B0008A7843EA0243CA7843EA02630879214ABB
:1051C000107148795071897991711F49A1FB0313BE
:1051D000DB0803EB83035B001360B3F5966F06D027
:1051E000B3F5E13F07D0194B00221A701BE0184AB3
:1051F00001211170F4E7154B01221A7013E0114AD6
:1052000013681248007803430B70C3F307204870FB
:10521000C3F3074088701B0ECB7013790B71537961
:105220004B7193798B71002070474B8813F0010FFD
:1052300003D0084B01221A70F5E7064B00221A70C2
:10524000F1E700BF38010020CDCCCCCCDA3D002006
:10525000084E0020DC3D00200020704738B5054690
:105260000C460A6801461748FCF765FD164B1B788B
:10527000012B0CD013488468FCF7BAFD241A013CBA
:105280003F2C16D8114B01221A70002038BD0E4B4E
:1052900000221A7023680C2BECD9002300E00133A4
:1052A0000C2BE7D80A4A1268D15CEA5C9142F6D02E
:1052B000E0E7084C29462046FFF72FFF2046FFF77E
:1052C0004DFFE2E7F4450020084E0020DB3D0020C2
:1052D00040010020083B002010B5074C0022074980
:1052E0002046FFF70FFF06492046FFF716FF002074
:1052F000044B187010BD00BF083B0020084600207A
:10530000084A0020DC3D002008B5084B00221A7036
:105310004FF4806206490748FCF7F9FC4FF48062BD
:1053200005490648FCF7F3FC012008BDDC3D0020E0
:10533000E0410020F4450020E03D0020E045002051
:1053400008B50248FCF754FD08BD00BFF445002035
:1053500000B583B000238DF8073001220DF107015D
:105360000348FCF712FD9DF8070003B05DF804FB4D
:10537000F4450020014B1868704700BF3801002039
:105380000C4BD3F8BC3293B101220B4B187800B10F
:105390001046084B93F89C32DBB2032B00D0002060
:1053A000044B5B6803B90020034B18707047002260
:1053B000EBE700BF083B0020DC3D00202DE9F04179
:1053C00007460E46FFF7DCFF18B900252846BDE862
:1053D000F081FCF771F9804600250CE00120FCF714
:1053E00067F9FFF7CDFF0028F0D0FCF765F9A0EBD7
:1053F0000803632BEAD8B542E8D20A488468FCF770
:10540000F7FC241A013C731B9C4200D31C46002C61
:10541000E4D0224639460348FCF78DFC2744254456
:10542000DFE700BFE0450020014B1878704700BF60
:10543000DA3D002070B51C4B1B788BB91B48FCF77C
:10544000D7FC044610F03F0F02D138B1441E05D0FE
:10545000174BD3F8BC32D3F81432ABB1002070BD77
:1054600014488468FCF7C4FC241A013C3F2CE5D99D
:105470000F4C11492046FFF750FE2046FFF76EFE05
:10548000094B00221A70D9E70C4E224631460748D4
:10549000FCF77BFC064D224631462846FFF732FEDC
:1054A0002846FFF743FED9E7DB3D0020E04500201A
:1054B000083B0020F4450020084A00200846002050
:1054C00012230B80004870476401002004230B80E6
:1054D0000048704760010020002393421ED200B5AF
:1054E00010E00CF1370C01F813C000014FEA430C37
:1054F0000CF1010C4FF0000E01F80CE00133DBB2AF
:10550000934209D24FEA107CB0F1204FE9D20CF15E
:10551000300C01F813C0E8E75DF804FB70470000A9
:1055200038B50B4BD3F89005D3F89445D3F898359C
:10553000C01800D138BD074D08222946FFF7CCFF1F
:10554000042205F110012046FFF7C6FFF2E700BF75
:105550000070FF1F4601002008B51A230B80FFF7DB
:10556000DFFF014808BD00BF4401002008B50A461E
:1055700028B90549054806F05CFB034808BD024907
:10558000024806F056FBF8E70C4E0020EC0D01082F
:1055900010B50A46034C2146034806F04AFB204654
:1055A00010BD00BF0C4E0020040E010808B50A46CD
:1055B00028B90549054806F03CFB034808BD0249E7
:1055C000024806F036FBF8E70C4E0020180E0108E2
:1055D00008B50A4628B90549054806F02AFB0348DC
:1055E00008BD0249024806F024FBF8E70C4E0020F3
:1055F000240E0108032805D8DFE800F005040205A1
:105600000120704703207047014B1878704700BF96
:105610009050002002680E4B9A4200D0704700B5AF
:1056200083B003F5DA339A6D42F400029A659B6DFC
:1056300003F400030193019B00220621142000F0D3
:105640002BFA142000F038FA03B05DF804FB00BF19
:10565000005C004008B500F52671D0F8D80205F0CE
:1056600091FE08BD08B501EB810300EBC303D3F83D
:105670006421D0F8D80205F0B1FE08BD08B501EBF1
:10568000810300EBC3035A6AD0F8D80205F0E2FEAA
:1056900008BD08B5D0F8D80205F082FF08BD10B5E6
:1056A00004464379022B09D10121D4F8D80205F030
:1056B0005DFFD4F8D80205F02CFF10BDFCF700F810
:1056C000F2E7000010B50446D0F8D80205F051FF0B
:1056D000637A23B1044A136943F006031361034B51
:1056E00000221A7010BD00BF00ED00E090500020B5
:1056F00008B5437A23B1054A136923F00603136101
:10570000D0F8D80205F03FFF08BD00BF00ED00E073
:1057100010B503461C48C0F8D832C3F8C4021B4B6E
:1057200003600823037102234371C37101230372D1
:10573000002343728372C37202F052FC08BB124C06
:10574000142300221146204603F07EFB542300223E
:105750008021204603F078FB9423002281212046FB
:1057600003F072FBD42300220121204603F06CFBDE
:105770004FF48A7300228221204603F065FB00204B
:1057800010BDFBF79DFFDAE794500020005C00405D
:1057900008B5D0F8C40202F07EFCFFF72BFF08BD6D
:1057A00008B594461A466346D0F8C40203F00FFACF
:1057B000FFF720FF08BD08B5D0F8C40203F04AFA8D
:1057C000FFF718FF08BD08B5D0F8C40203F0C4FA0B
:1057D000FFF710FF08BD08B5D0F8C40203F0F5FAD2
:1057E000FFF708FF08BDD0F8C43211F0800F08D1D0
:1057F00001F07F0101EB810103EBC10393F852013A
:10580000704701F07F0101EB810103EBC103987C3C
:105810007047000008B5D0F8C40203F0ECF8FFF7B9
:10582000E9FE024B01221A7008BD00BF9050002013
:1058300008B5D0F8C40203F069FAFFF7DBFE08BD33
:1058400008B5D0F8C40203F03BFAFFF7D3FE08BD59
:1058500008B5D0F8C40203F050FA08BD00487047FC
:10586000704E00207047000010B5FBF789FFFCF771
:1058700067FCFEF7C7FCFEF77BFDFEF7F9FBFCF7C4
:1058800065FDFEF717FE4FF4E1310020FEF7ECFC5A
:10589000002405E04FF4E131E0B2FEF73BFE0134B5
:1058A000032CF7D91248FEF723FD12491248FEF7E0
:1058B0001FFD12491248FEF71BFD03F02DFE114992
:1058C00081FB0031C017C0EBA1410F48FEF710FD6E
:1058D0000E48FEF70DFDFDF783FFFCF7E5FEFFF731
:1058E00057F90120FFF760F9FDF738FF012010BDDF
:1058F000340E01084C0E0108580E0108700E010804
:105900007C0E010883DE1B43940E0108E8010108A8
:10591000104B1B680BB90120704710B504464FF4BB
:105920007A70B0FBF3F30C4A1068B0FBF3F000F0B0
:10593000CBF868B90F2C01D901200AE000222146DA
:105940004FF0FF3000F0A8F8044B1C60002000E08E
:10595000012010BD940100200000002098010020CB
:1059600010B5032000F086F80020FFF7D1FF10B13A
:105970000124204610BD0446FBF762FFF9E7000052
:10598000034A1368034909680B441360704700BF5A
:105990007053002094010020014B1868704700BF2D
:1059A0007053002038B50446FFF7F6FF0546B4F102
:1059B000FF3F02D0044B1B681C44FFF7EDFF401B68
:1059C000A042FAD338BD00BF94010020002807DBB5
:1059D00000F01F02400901239340024A42F82030A0
:1059E000704700BF00E100E000280CDB00F01F0260
:1059F0004009012393402030034A42F82030BFF38E
:105A00004F8FBFF36F8F704700E100E0002808DB85
:105A10000901C9B200F1604000F5614080F800134F
:105A2000704700F00F000901C9B2014B19547047CB
:105A300014ED00E000B500F00700C0F1070CBCF168
:105A4000040F28BF4FF0040C031D062B0FD9C31EF3
:105A50004FF0FF3E0EFA0CF021EA000199400EFAD9
:105A600003FE22EA0E0241EA02005DF804FB002375
:105A7000EEE70000074AD36823F4E0631B041B0C25
:105A8000000200F4E060034343F0BF6343F40033DB
:105A9000D360704700ED00E010B50446054BD868B0
:105AA000C0F30220FFF7C6FF01462046FFF7AEFF16
:105AB00010BD00BF00ED00E008B5FFF787FF08BD8F
:105AC00008B5FFF791FF08BD0138B0F1807F0BD218
:105AD0004FF0E0235861054AF02182F8231000209E
:105AE000986107221A6170470120704700ED00E0BD
:105AF00030B4C46C056D6560446D14B1846DC56DC2
:105B00006560446C04F01F0C012404FA0CF4056C6D
:105B10006C60046863608368102B05D0036899602B
:105B20000368DA6030BC704703689A600368D96024
:105B3000F8E7000003680C4A934213D80B49DBB224
:105B4000083B0B4AA2FB0323426C22F003020A44E7
:105B50008264084AC264C3F30413012202FA03F305
:105B6000036570470449EAE7070402400008024061
:105B7000CDCCCCCC80080240200802400379074AF3
:105B80001A4492004265064A8265013B03F01F03F6
:105B9000012202FA03F3C365704700BF3F82001081
:105BA00040090240002859D010B5044602682C4B29
:105BB0009A423BD82B4B13442B49A1FB03131B09DF
:105BC0009B004364294B0364022384F82530116849
:105BD0006FF30E11A368E068034320690343606913
:105BE0000343A0690343E0690343206A03430B4373
:105BF00013602046FFF79EFFA368B3F5804F20D0C7
:105C0000A36C22791A60E36C226D5A606368013BD1
:105C1000032B19D900236365A365E3650020E063C6
:105C2000012384F8253084F8240010BD104B134460
:105C30000D49A1FB03131B099B0043640D4B036437
:105C4000C2E700236360DBE72046FFF797FF636D41
:105C500000221A60A36DE26D5A60DFE701207047F1
:105C600007040240F8FFFDBFCDCCCCCC00000240C1
:105C7000F8FBFDBF0004024000284BD038B50446B5
:105C80000268136823F0010313600268224B9A42F2
:105C90002CD8224B13442249A1FB03131B099B0060
:105CA0004364204B036400251560636C03F01F02FE
:105CB000216C012393404B602046FFF73BFFA36C10
:105CC0001D60E36C226D5A606368013B032B18D999
:105CD00000206065A065E065E06220636063A0630A
:105CE000E06384F8250084F8240038BD0E4B13448B
:105CF0000B49A1FB03131B099B0043640B4B03647B
:105D0000D1E72046FFF73AFF636D1D60A36DE26D9A
:105D10005A60DDE70120704707040240F8FFFDBF2D
:105D2000CDCCCCCC00000240F8FBFDBF000402400B
:105D300038B5044690F82400012841D0012084F8A9
:105D4000240094F82500C0B2012804D0002384F870
:105D50002430022038BD022084F825000020E063B2
:105D60002568286820F0010028602046FFF7C0FE63
:105D7000236BD3B12268136843F00E031360A36C46
:105D80001A6812F4803F03D01A6842F480721A60D5
:105D9000636D1BB11A6842F480721A60226813683E
:105DA00043F0010313600020D4E72268136823F056
:105DB000040313602268136843F00A031360DEE7EC
:105DC0000220C7E708B590F82530DBB2022B09D0D6
:105DD0000423C363012380F82530002280F82420A7
:105DE000184608BD0268136823F00E0313600268AA
:105DF000136823F001031360826C136823F480732B
:105E00001360436C03F01F02016C012393404B604D
:105E1000C36C026D5A60436D33B11A6822F480720C
:105E20001A60836DC26D5A60012380F8253000230B
:105E300080F82430836B13B198470020D1E700200D
:105E4000CFE790F82500704710B4154B0364016844
:105E5000D1F8802022F4F812446B42EA0442C1F8DF
:105E60008020104A42640168D1F8802022F07062DC
:105E7000846B42EA0462C1F880200B4A8264D83203
:105E8000C264D83202651832426502E0002243F84B
:105E9000042B064A9342F9D95DF8044B704700BFC2
:105EA00000A4004070A40040B0A400404FA70040F0
:105EB00070B54C68ECB90D698C6825430C6845EAEF
:105EC0008445CC690E6A44EA06648E6934434E699F
:105ED0003443CE6844EA0644406D03EBC30300EB51
:105EE000C30E40F83350CEF804400EF1080E0020E7
:105EF00019E00C698D6825430C68254345F0804501
:105F0000DFE702EB000C9CF803409CF802301B0416
:105F100043EA04639CF8014043EA0423145C2343EE
:105F20004EF8043B0430CB68024CE35C8342E8D873
:105F300070BD00BFF4100108002800F0E38038B500
:105F4000044690F85C30D3B12268936923F01003C3
:105F50009361FFF721FD054623689A6912F0080F47
:105F600012D0FFF719FD401B0A28F5D9236E43F024
:105F700001032366032384F85C30012038BD80F8D8
:105F80005D30FDF79BFBDFE79A6942F001029A6101
:105F9000FFF702FD054623689A6912F0010F0DD143
:105FA000FFF7FAFC401B0A28F5D9236E43F00103E2
:105FB0002366032384F85C300120DFE79A6942F00E
:105FC00002029A612268504B9A4242D0237C012BF4
:105FD00045D02268936943F040039361637C012BB1
:105FE00043D02268936923F480439361A37C012BFF
:105FF00041D02268936943F4805393612268936986
:1060000023F44073A1680B4393612268936923F0E2
:10601000A40393612268136923F010031361E368FA
:10602000012B2ED0002B31D0022B54D02268936943
:1060300043F0800393612268136943F010031361F6
:10604000E368032B22D12268936943F02003936114
:106050001CE06268A3F58063C3F80025B6E72268F8
:10606000936923F040039361B8E72268936943F48E
:1060700080439361BAE72268936923F48053936164
:10608000BCE72268936943F004039361A3695A1E35
:10609000E369013B1B0243EA4263226A013A13436C
:1060A0006269013A216843EA0243CB61A368B3F510
