:020000040800F2
:1000000000780020853600083D1800083F180008D9
:1000100041180008431800084518000800000000B7
:100020000000000000000000000000004918000867
:1000300047180008000000004B1800084D18000881
:10004000D5360008D5360008D5360008D536000864
:1000500055510008D5360008D5360008D5360008B9
:10006000D5360008D5360008D5360008D536000844
:10007000D5360008D5360008D5360008D536000834
:10008000D536000800000000D5360008D536000837
:1000900079640008194D0008D5360008D5360008E7
:1000A000D5360008D5360008D5360008D536000804
:1000B000D5360008D5360008D5360008D5360008F4
:1000C0006D530008D5360008D5360008D53600082F
:1000D000D5360008D5360008D5360008D5360008D4
:1000E000D5360008D5360008D5360008D5360008C4
:1000F000D5360008D5360008D536000800000000C7
:1001000000000000D536000800000000D5360008C9
:10011000D536000800000000D5360008D5360008A6
:10012000D5360008D5360008D5360008D536000883
:10013000D53600080000000000000000D536000899
:10014000D5360008D5360008000000000000000089
:10015000000000000000000000000000000000009F
:10016000000000000000000000000000D53600087C
:10017000D53600080000000000000000000000006C
:1001800000000000D536000800000000000000005C
:10019000000000000000000000000000000000005F
:1001A0000000000000000000D5360008D536000829
:1001B000D5360008D5360008D53600080000000006
:1001C00000000000D536000800000000000000001C
:0801D000D5360008D536000801
:1004000020524556563235303232305231000000DB
:1004100000000000000000000000000000000000DC
:100420000000000053544D33324734333100000094
:1004300000000000000000000000000000000000BC
:080440000000000000000008AC
:1008000010B5054C237833B9044B13B10448AFF34A
:1008100000800123237010BDAC0300200000000005
:100820009C19010808B5034B1BB103490348AFF3FA
:10083000008008BD00000000B00300209C190108E2
:1008400010F8012B11F8013B012A28BF9A42F7D07A
:10085000D01A7047000000000000000000000000F7
:1008600001F0FF01102A2BDB10F0070F08D010F861
:10087000013B013A8B422DD010F0070F42B3F6D165
:10088000F0B441EA012141EA014122F007047FF07E
:1008900000070023F0E80256083C85EA010586EAD5
:1008A000010685FA47F5A3FA87F586FA47F6A5FA11
:1008B00087F68EB9EED1F0BC01F0FF0102F007021D
:1008C00032B110F8013B013A83EA010313B1F8D1C8
:1008D0000020704701387047002D06BF35460338A9
:1008E000073815F0010F07D1013015F4807F02BFE2
:1008F000013015F4C03F0130F0BC0138704700BF33
:10090000034613F8012B002AFBD1181A013870474F
:1009100081F0004102E000BF83F0004330B54FEAB0
:1009200041044FEA430594EA050F08BF90EA020F1D
:100930001FBF54EA000C55EA020C7FEA645C7FEAB0
:10094000655C00F0E2804FEA5454D4EB5555B8BFD3
:100950006D420CDD2C4480EA020281EA030382EA44
:10096000000083EA010180EA020281EA0303362DD6
:1009700088BF30BD11F0004F4FEA01314FF4801CA9
:100980004CEA113102D0404261EB410113F0004FBB
:100990004FEA03334CEA133302D0524263EB430372
:1009A00094EA050F00F0A780A4F10104D5F1200E10
:1009B0000DDB02FA0EFC22FA05F2801841F100016B
:1009C00003FA0EF2801843FA05F359410EE0A5F13F
:1009D00020050EF1200E012A03FA0EFC28BF4CF070
:1009E000020C43FA05F3C01851EBE37101F0004526
:1009F00007D54FF0000EDCF1000C7EEB00006EEB33
:100A00000101B1F5801F1BD3B1F5001F0CD34908BC
:100A10005FEA30004FEA3C0C04F101044FEA445213
:100A200012F5800F80F09A80BCF1004F08BF5FEA9A
:100A3000500C50F1000041EB045141EA050130BD7A
:100A40005FEA4C0C404141EB0101013C28BFB1F58C
:100A5000801FE9D291F0000F04BF01460020B1FAD7
:100A600081F308BF2033A3F10B03B3F120020CDAAA
:100A70000C3208DD02F1140CC2F10C0201FA0CF088
:100A800021FA02F10CE002F11402D8BFC2F1200CED
:100A900001FA02F120FA0CFCDCBF41EA0C019040A3
:100AA000E41AA2BF01EB0451294330BD6FEA0404EC
:100AB0001F3C1CDA0C340EDC04F11404C4F12002D7
:100AC00020FA04F001FA02F340EA030021FA04F3E9
:100AD00045EA030130BDC4F10C04C4F1200220FA40
:100AE00002F001FA04F340EA0300294630BD21FA7E
:100AF00004F0294630BD94F0000F83F4801306BF44
:100B000081F480110134013D4EE77FEA645C18BF37
:100B10007FEA655C29D094EA050F08BF90EA020FCE
:100B200005D054EA000C04BF1946104630BD91EAC6
:100B3000030F1EBF0021002030BD5FEA545C05D1C9
:100B40004000494128BF41F0004130BD14F5800408
:100B50003CBF01F5801130BD01F0004545F0FE417C
:100B600041F470014FF0000030BD7FEA645C1ABFB1
:100B7000194610467FEA655C1CBF0B46024650EAE8
:100B8000013406BF52EA033591EA030F41F4002114
:100B900030BD00BF90F0000F04BF0021704730B59A
:100BA0004FF4806404F132044FF000054FF000016F
:100BB00050E700BF90F0000F04BF0021704730B530
:100BC0004FF4806404F1320410F0004548BF404205
:100BD0004FF000013EE700BF42004FEAE2014FEA5A
:100BE00031014FEA02701FBF12F07F4393F07F4F35
:100BF00081F06051704732F07F4208BF704793F038
:100C00007F4F04BF41F40021704730B54FF460744A
:100C100001F0004521F000411CE700BF50EA01024D
:100C200008BF704730B54FF000050AE050EA0102F6
:100C300008BF704730B511F0004502D5404261EB66
:100C400041014FF4806404F132045FEA915C3FF4A7
:100C5000D8AE4FF003025FEADC0C18BF03325FEA44
:100C6000DC0C18BF033202EBDC02C2F1200300FAF5
:100C700003FC20FA02F001FA03FE40EA0E0021FA1A
:100C800002F11444BDE600BF70B54FF0FF0C4CF408
:100C9000E06C1CEA11541DBF1CEA135594EA0C0FBA
:100CA00095EA0C0F00F0DEF82C4481EA030621EAF5
:100CB0004C5123EA4C5350EA013518BF52EA033530
:100CC00041F4801143F4801338D0A0FB02CE4FF0E2
:100CD0000005E1FB02E506F00042E0FB03E54FF012
:100CE0000006E1FB03569CF0000F18BF4EF0010E0A
:100CF000A4F1FF04B6F5007F64F5407404D25FEA06
:100D00004E0E6D4146EB060642EAC62141EA5551B8
:100D10004FEAC52040EA5E504FEACE2EB4F1FD0CFA
:100D200088BFBCF5E06F1ED8BEF1004F08BF5FEA78
:100D3000500E50F1000041EB045170BD06F000462A
:100D400046EA010140EA020081EA0301B4EB5C04D7
:100D5000C2BFD4EB0C0541EA045170BD41F48011CF
:100D60004FF0000E013C00F3AB8014F1360FDEBFF4
:100D7000002001F0004170BDC4F10004203C35DAD0
:100D80000C341BDC04F11404C4F1200500FA05F353
:100D900020FA04F001FA05F240EA020001F00042F4
:100DA00021F0004110EBD37021FA04F642EB06016A
:100DB0005EEA430E08BF20EAD37070BDC4F10C0494
:100DC000C4F1200500FA04F320FA05F001FA04F258
:100DD00040EA020001F0004110EBD37041F1000144
:100DE0005EEA430E08BF20EAD37070BDC4F120054F
:100DF00000FA05F24EEA020E20FA04F301FA05F2B7
:100E000043EA020321FA04F001F0004121FA04F25E
:100E100020EA020000EBD3705EEA430E08BF20EA2E
:100E2000D37070BD94F0000F0FD101F00046400068
:100E300041EB010111F4801F08BF013CF7D041EAEA
:100E4000060195F0000F18BF704703F000465200EE
:100E500043EB030313F4801F08BF013DF7D043EABF
:100E60000603704794EA0C0F0CEA135518BF95EA75
:100E70000C0F0CD050EA410618BF52EA4306D1D1FC
:100E800081EA030101F000414FF0000070BD50EA1B
:100E9000410606BF1046194652EA430619D094EAA5
:100EA0000C0F02D150EA013613D195EA0C0F05D18F
:100EB00052EA03361CBF104619460AD181EA0301E3
:100EC00001F0004141F0FE4141F470014FF000009B
:100ED00070BD41F0FE4141F4780170BD70B54FF036
:100EE000FF0C4CF4E06C1CEA11541DBF1CEA1355B6
:100EF00094EA0C0F95EA0C0F00F0A7F8A4EB050498
:100F000081EA030E52EA03354FEA013100F088808E
:100F10004FEA03334FF0805545EA131343EA126357
:100F20004FEA022245EA111545EA10654FEA00260C
:100F30000EF000419D4208BF964244F1FD0404F5C5
:100F4000407402D25B084FEA3202B61A65EB030521
:100F50005B084FEA32024FF480104FF4002CB6EBDE
:100F6000020E75EB030E22BFB61A754640EA0C005E
:100F70005B084FEA3202B6EB020E75EB030E22BF9E
:100F8000B61A754640EA5C005B084FEA3202B6EBDF
:100F9000020E75EB030E22BFB61A754640EA9C009E
:100FA0005B084FEA3202B6EB020E75EB030E22BF6E
:100FB000B61A754640EADC0055EA060E18D04FEA2C
:100FC000051545EA16754FEA06164FEAC30343EACC
:100FD00052734FEAC2025FEA1C1CC0D111F4801F99
:100FE0000BD141EA00014FF000004FF0004CB6E792
:100FF00011F4801F04BF01430020B4F1FD0C88BF31
:10100000BCF5E06F3FF6AFAEB5EB030C04BFB6EB3B
:10101000020C5FEA500C50F1000041EB045170BD2E
:101020000EF0004E4EEA113114EB5C04C2BFD4EB5B
:101030000C0541EA045170BD41F480114FF0000EDF
:10104000013C90E645EA060E8DE60CEA135594EA5B
:101050000C0F08BF95EA0C0F3FF43BAF94EA0C0F5E
:101060000AD150EA01347FF434AF95EA0C0F7FF4D3
:1010700025AF104619462CE795EA0C0F06D152EA27
:1010800003353FF4FDAE1046194622E750EA41060B
:1010900018BF52EA43067FF4C5AE50EA41047FF41C
:1010A0000DAF52EA43057FF4EBAE12E74FF0FF3C81
:1010B00006E000BF4FF0010C02E000BF4FF0010C52
:1010C0004DF804CD4FEA410C7FEA6C5C4FEA430CCB
:1010D00018BF7FEA6C5C1BD001B050EA410C0CBF1A
:1010E00052EA430C91EA030F02BF90EA020F00207C
:1010F000704710F1000F91EA030F58BF994208BFE3
:1011000090422CBFD8176FEAE37040F0010070479F
:101110004FEA410C7FEA6C5C02D150EA013C07D1F6
:101120004FEA430C7FEA6C5CD6D152EA033CD3D041
:101130005DF8040B704700BF8446104662468C463B
:101140001946634600E000BF01B5FFF7B7FF00286E
:1011500048BF10F1000F01BD4DF808EDFFF7F4FF97
:101160000CBF012000205DF808FB00BF4DF808ED22
:10117000FFF7EAFF34BF012000205DF808FB00BF45
:101180004DF808EDFFF7E0FF94BF012000205DF867
:1011900008FB00BF4DF808EDFFF7CEFF94BF01201C
:1011A00000205DF808FB00BF4DF808EDFFF7C4FF15
:1011B00034BF012000205DF808FB00BF4FEA410C5E
:1011C0007FEA6C5C02D150EA013C0AD14FEA430C41
:1011D0007FEA6C5C02D152EA033C02D14FF000007E
:1011E00070474FF0010070474FEA410212F50012BC
:1011F00015D211D56FF47873B3EB625212D94FEA5E
:10120000C12343F0004343EA505311F0004F23FA47
:1012100002F018BF404270474FF00000704750EA9C
:10122000013005D111F0004008BF6FF00040704759
:101230004FF00000704700BF4A0011D212F50012B3
:1012400011D20DD56FF47873B3EB62520ED44FEA1E
:10125000C12343F0004343EA505323FA02F070479E
:101260004FF00000704750EA013002D14FF0FF30DC
:1012700070474FF0000070474FEA4102B2F1E0437F
:1012800024BFB3F5001CDCF1FE5C0DD901F0004C6D
:101290004FEAC0024CEA5070B2F1004F40EB8300BD
:1012A00008BF20F00100704711F0804F21D113F1E9
:1012B0003872BCBF01F00040704741F480114FEA22
:1012C0005252C2F11802C2F1200C10FA0CF320FAAB
:1012D00002F018BF40F001004FEAC1234FEAD323C8
:1012E00003FA0CFC40EA0C0023FA02F34FEA430332
:1012F000CCE77FEA625307D150EA01331EBF4FF0BB
:10130000FE4040F44000704701F0004040F0FE40D5
:1013100040F40000704700BF53B94AB9002908BF24
:1013200000281CBF4FF0FF314FF0FF3000F0A0B994
:10133000ADF1080C6DE904CE00F03CF8DDF804E0F6
:10134000DDE9022304B0704738B5002200230446CB
:101350000D46FFF70BFF28B920462946BDE8384067
:1013600000F00AB8204605F1004100F005F84042BF
:1013700061EB410138BD00BFD0B50C4B00220646E1
:101380000F46FFF781FCFFF757FF0446FFF702FC0B
:10139000074B0022FFF778FC02460B4630463946E1
:1013A000FFF7BAFAFFF748FF2146D0BD0000F03D35
:1013B0000000F0412DE9F047089D0C46002B4ED16E
:1013C00094468C458646B2FA82F262D94AB1C2F19D
:1013D0002003914020FA03F30CFA02FC194300FAAF
:1013E00002FE4FEA1C471FFA8CF6B1FBF7F44FEAF6
:1013F0001E4307FB141143EA014304FB06F1994223
:101400000AD91CEB030304F1FF3080F012819942EA
:1014100040F20F81023C6344591A1FFA8EF3B1FB6C
:10142000F7F007FB101143EA014300FB06F69E426A
:101430000AD91CEB030300F1FF3180F0FC809E42CF
:1014400040F2F980634402389B1B40EA04400021CB
:101450001DB1D3400022C5E90032BDE8F0878B42C0
:1014600005D90DB1C5E9000100210846F5E7B3FA39
:1014700083F1002946D1A34202D39042C0F0F0800C
:10148000861A64EB03030120002DE6D0C5E9006352
:10149000E3E7002A40F09080A1EB0C044FEA1C48DF
:1014A0001FFA8CF70121B4FBF8F64FEA1E4308FB44
:1014B000164443EA044307FB06F0984208D91CEBA4
:1014C000030306F1FF3402D2984200F2CD80264693
:1014D0001C1A1FFA8EF3B4FBF8F008FB104443EA21
:1014E000044300FB07F79F4208D91CEB030300F1FC
:1014F000FF3402D29F4200F2B0802046DB1B40EA5C
:101500000640A5E7C1F120068B4022FA06F71F43EB
:1015100020FA06FC04FA01F343EA0C03F44000FA53
:1015200001F8380C4FEA1349B4FBF0FE1FFA87FCB0
:1015300000FB1E4449EA04440EFB0CF9A14502FAE3
:1015400001F20AD93C190EF1FF3A80F08480A145DE
:1015500040F28180AEF1020E3C44A4EB09041FFA74
:1015600083F9B4FBF0F300FB134449EA044403FBA2
:101570000CFCA44507D93C1903F1FF3067D2A44500
:1015800065D9023B3C4443EA0E40A0FB0293A4EB26
:101590000C049C42CE469C4651D34ED055B1B8EB7C
:1015A0000E0364EB0C0404FA06F6CB401E43CC4059
:1015B000C5E90064002150E7C2F1200320FA03F1DD
:1015C0000CFA02FC24FA03F394400C434FEA1C4843
:1015D00000FA02FE1FFA8CF7B3FBF8F008FB10319B
:1015E000230C43EA014300FB07F1994208D91CEBA5
:1015F000030300F1FF362CD299422AD90238634402
:101600005B1AA4B2B3FBF8F108FB113344EA0344BC
:1016100001FB07F3A34208D91CEB040401F1FF36D8
:1016200013D2A34211D902396444E41A41EA0041B9
:1016300039E70446F0E6084606E7C845AED2B9EBFE
:10164000020E63EB070C0138A8E73146EDE70346CD
:1016500099E73046D4E7D6467FE7634402384DE742
:101660000646234608460FE7023E634430E700BFC4
:10167000704700BF08B505F0D7FC08BD08B505F0F8
:10168000CDFC08BD72B6FEE710B5A4B0382200212B
:1016900016A80DF0FBFB00241194129413941494DB
:1016A00015944422214668460DF0F0FB204608F0D0
:1016B00079FB08F06FFB214AD2F8903023F0180331
:1016C000C2F89030252316934FF4803317930122EC
:1016D00018921C9202231D9303211E911F9228220F
:1016E0002092219304222292239316A808F014FC3E
:1016F000E8B90F2311930323129300231393149338
:101700001593042111A808F0BDFE90B90C4B00936D
:10171000002306934FF080720C920D934FF4807368
:101720001093684608F0D4FF28B924B010BDFFF725
:10173000A9FFFFF7A7FFFFF7A5FF00BF00100240BA
:101740004030080000B58BB005F04CFCFFF79CFF63
:101750002B4B1A6E42F001021A661A6E02F0010259
:101760000192019A9A6D42F080529A659A6D02F048
:1017700080520292029ADA6C42F00102DA64DA6C68
:1017800002F001020392039ADA6C42F00202DA6478
:10179000DA6C02F002020492049ADA6C42F004025B
:1017A000DA64DA6C02F004020592059ADA6C42F00F
:1017B0000802DA64DA6C02F008020692069ADA6C21
:1017C00042F01002DA64DA6C02F010020792079A13
:1017D000DA6C42F02002DA64DA6C02F0200208923D
:1017E000089ADA6C42F04002DA64DB6C03F04003E2
:1017F0000993099B08F05CFB01200BB05DF804FB2A
:101800000010024000B583B00B4B1A6E42F001028B
:101810001A661A6E02F001020092009A9A6D42F066
:1018200080529A659B6D03F080530193019B08F0F1
:101830003FFB03B05DF804FB00100240FEE7FEE74B
:10184000FEE7FEE7FEE770477047704708B505F012
:10185000D9FB04F0EBF808BD0120704708B50DF086
:10186000A5FB162303604FF0FF3008BD08B54FF00D
:10187000FF31FFF7F3FFFEE770B50C461646002573
:1018800006E0AFF30080214601F8010B01350C465C
:10189000B542F6DB304670BD70B50C4616460025E5
:1018A00004E014F8010BAFF300800135B542F8DB1A
:1018B000304670BD4FF0FF3070474FF400534B601F
:1018C00000207047012070470020704710B5034684
:1018D0000C4A0D490D48006840B10C4800680344AB
:1018E000521A934206D8094A136010BD0748084CA3
:1018F0000460F2E70DF05AFB0C2303604FF0FF3059
:10190000F3E700BF0078002000040000C8030020B7
:10191000384F0020044BD3F8882042F47002C3F8FB
:101920008820024A9A60704700ED00E0000000083D
:101930002DE9F003D0E90089D0E90267D0E9044538
:10194000D0E90623B3F1FF3F08BFB2F1FF3F13D147
:10195000B5F1FF3F08BFB4F1FF3F11D1B7F1FF3F31
:1019600008BFB6F1FF3F0DD1B9F1FF3F08BFB8F195
:10197000FF3F09D1002000E00420BDE8F0037047DC
:101980000320FAE70220F8E70120F6E738B504461D
:1019900000F5803C4FEACC2C294BB3F8E0204FF601
:1019A000FF739A4218D0274BD3F8E025264B03EA61
:1019B00082234FF4F032B2FBF3F203FB02CC0CF1C2
:1019C00008050CF110000CF1180E0139032931D86B
:1019D000DFE801F005101B254FF40033E9E74FF075
:1019E000AA324FF0AA33604600F074FC20BB174BBC
:1019F0001C7038BD4FF0AA324FF0AA33284600F0D1
:101A000069FCD8B9114B1C70F3E74FF0AA324FF0C4
:101A1000AA3300F05FFC0028EBD00220E9E74FF08A
:101A2000AA324FF0AA33704600F054FC0028E0D0F0
:101A30000220DEE70020DCE70220DAE70220D8E718
:101A40000075FF1F0070FF1F00FCFF03CC03002088
:101A500038B53C4BB3F8E0204FF6FF739A420FD0F5
:101A6000394BD3F8E025394B03EA82234FF4F034A5
:101A7000B4FBF3F403FB04F4C4F5F034E40A51E0DE
:101A80004FF40033F2E7651CA31CAB4207D80221D8
:101A9000204600F025FC044600B301244DE005F586
:101AA0008032D202274BB3F8E0104FF6FF73994211
:101AB00011D0254BD3F8E015244B03EA81234FF4D2
:101AC000F030B0FBF3F003FB0020FFF731FF0428F8
:101AD00035D10135D8E74FF40033F0E700F022FCB0
:101AE0002BE0194BD3F8E035184A02EA83224FF471
:101AF000F033B3FBF2F302FB03F3C3F5F033DB0A7D
:101B00000433A34218D904F580304FF4F033B3FB0B
:101B1000F2F302FB03F303EBC020FFF709FF0428F5
:101B2000B1D00234074BB3F8E0204FF6FF739A426E
:101B3000D7D14FF40032DAE70524204638BD05241A
:101B4000FBE700BF0075FF1F0070FF1F00FCFF03D5
:101B5000F8B50646644B1D7805F58032D202634B1A
:101B6000B3F8E0104FF6FF73994256D0604BD3F8AC
:101B7000E015604B03EA81234FF4F030B0FBF3F043
:101B800003FB0020FFF7D4FE0746584BB3F8E020D4
:101B90004FF6FF739A4243D0554BD3F8E035554A80
:101BA00002EA83224FF4F033B3FBF2F302FB03F3B8
:101BB000C3F5F032A5EBD224013404F0030404EBA6
:101BC000D22404F5803003EBC020FFF7B1FE474B71
:101BD000B3F8E0204FF6FF739A4224D0444BD3F879
:101BE000E035444A02EA83224FF4F033B3FBF2F3C8
:101BF00002FB03F3C3F5F033A5EBD322033202F06B
:101C0000030202EBD322012E10D0022E57D0002E59
:101C10004CD04FF0FF352846F8BD4FF40033ABE70A
:101C20004FF40032BEE74FF40032DDE7022F19D047
:101C3000012F4DD1304B1B68B3F5006FEBD3042857
:101C40002DD003212846FFF7A1FE002843D1012112
:101C50002046FFF79BFE002840D1274B20221A6028
:101C60002546D8E7244B1B68B3F5006FD3D304286F
:101C70000ED003212846FFF789FE18BB022120461B
:101C8000FFF784FE08BB1C4B20221A602546C2E7E2
:101C9000FFF7DEFE0028ECD04FF0FF35BBE7FFF783
:101CA000D7FE0028CDD04FF0FF35B4E7022FB2D0D9
:101CB000012F02D04FF0FF35ADE71546ABE780B9F5
:101CC0002546A8E74FF0FF35A5E74FF0FF35A2E71F
:101CD0004FF0FF359FE74FF0FF359CE74FF0FF35A2
:101CE00099E74FF0FF3596E7CC0300200075FF1F02
:101CF0000070FF1F00FCFF030400002038B53C4BC0
:101D0000B3F8E0204FF6FF739A420FD0394BD3F867
:101D1000E025394B03EA82234FF4F034B4FBF3F4AB
:101D200003FB04F4C4F5F034E40A51E04FF400334B
:101D3000F2E7651CA31CAB4207D80221204600F045
:101D4000E1FA044600B301244DE005F58032D202E9
:101D5000274BB3F8E0104FF6FF73994211D0254B93
:101D6000D3F8E015244B03EA81234FF4F030B0FBA5
:101D7000F3F003FB0020FFF7DBFD042835D101352C
:101D8000D8E74FF40033F0E700F0CCFA2BE0194B22
:101D9000D3F8E035184A02EA83224FF4F033B3FB5C
:101DA000F2F302FB03F3C3F5F033DB0A0433A3427F
:101DB00018D904F580304FF4F033B3FBF2F302FB93
:101DC00003F303EBC020FFF7B3FD0428B1D00234C6
:101DD000074BB3F8E0204FF6FF739A42D7D14FF488
:101DE0000032DAE70524204638BD0524FBE700BFB2
:101DF0000075FF1F0070FF1F00FCFF03044B9A6873
:101E000042F001029A6018601980186880B2704729
:101E1000003002402DE9F04780468A460020FFF757
:101E200097FEB0F1FF3F67D0814600F58035ED02A7
:101E3000324BB3F8E0204FF6FF739A420FD0304B8D
:101E4000D3F8E0252F4B03EA82234FF4F032B2FBA4
:101E5000F3F203FB02552846FFF76AFD40E04FF41A
:101E60000033F2E7083C1F2C16D92B19D3E9006781
:101E7000B7F1FF3F08BFB6F1FF3FF3D0B1B2414524
:101E8000F0D13846FFF7BAFFB0EB164FEAD1CAF8E7
:101E900000700020BDE8F087184BB3F8E0204FF643
:101EA000FF739A4223D0164BD3F8E025154B03EA73
:101EB00082234FF4F035B5FBF3F503FB05F5C5F5CB
:101EC000F033A9EBD32909F1030909F0030909EB60
:101ED000D32909F5803305EBC3252846FFF728FDF4
:101EE0000238C0B2022805D84FF4FF64BBE74FF4B4
:101EF0000033DEE70720CDE70320CBE70075FF1FA7
:101F00000070FF1F00FCFF03431E9BB24FF6FD72E3
:101F1000934201D90820704710B582B00C460023C7
:101F2000019301A9FFF776FF9DF80430237002B0FA
:101F300010BD0000234B1B88B3F5FC7F3BD270B56E
:101F400006460D460120FFF703FEB0F1FF3F34D0F7
:101F500000F58034E4021C4BB3F8E0204FF6FF7329
:101F60009A4223D0194BD3F8E025194B03EA822378
:101F70004FF4F032B2FBF3F203FB024405B9C6B1F1
:101F800031462846FFF73AFF124B196846EA0042ED
:101F90002B46601800F09EF988B90E4A1368083382
:101FA0001360084A13880133138070BD4FF4003367
:101FB000DEE72846E8E7122070470320F5E7022015
:101FC000F3E700BFCE0300200075FF1F0070FF1F66
:101FD00000FCFF0304000020F0B583B005460E4668
:101FE000002301931746002A4ED10220FFF7B0FDCF
:101FF0000446B0F1FF3F00F03B81A34B00221A8062
:10200000A24B1870A24B20221A60002F3ED0A14B89
:10201000B3F8E0204FF6FF739A423ED09E4BD3F8C0
:10202000E0359E4A02EA83224FF4F033B3FBF2F329
:1020300002FB03F3C3F5F032A4EBD224033404F023
:10204000030404EBD22404F5803003EBC020FFF737
:102050006FFC022824D0042829D0012F40F00C81E5
:10206000032840F00B81012F00F0A980314628465B
:10207000FFF760FF002840F00381834B1C88022C8F
:1020800040F2E980023CD7E00120AFE70121FFF7F1
:102090007DFC0028BBD00223E7E04FF40032C3E709
:1020A00004212046FFF772FC002840F0E380794BC2
:1020B000B3F8E0204FF6FF739A421BD0764BD3F86B
:1020C000E035764A02EA83224FF4F033B3FBF2F3B1
:1020D00002FB03F3C3F5F032A4EBD224033404F083
:1020E000030404EBD22404F5803003EBC020FFF797
:1020F0001FFC20E04FF40032E6E704212046FFF702
:1021000045FCF0B10223B0E04FF400324FF4F0335D
:10211000B3FBF2F302FB03F3C3F5F032A4EBD224DA
:10212000033404F0030404EBD22404F5803003EB01
:10213000C020FFF7FDFBC31EDBB2012B93D80328A1
:10214000DBD0544BB3F8E0204FF6FF739A42DBD05C
:10215000514BD3F8E035514A02EA8322D6E74E4A82
:10216000D2F8E0154D4A02EA81224FF4F031B1FB7A
:10217000F2F102FB01330344D3E90023B3F1FF3F43
:1021800008BFB2F1FF3F1CD03F4A138801331380D0
:102190003F4A1368083313600830B0F5006F10D25F
:1021A0003A4B1B7803F58033DB023A4AB2F8E01071
:1021B0004FF6FF729142D2D14FF40032D5E7202082
:1021C000EBE7324B1C7800271EE04FF400324FF44F
:1021D000F033B3FBF2F302FB03F3C3F5F032A4EBED
:1021E000D224033404F0030404EBD22404F5803039
:1021F00003EBC020FFF79CFB03287FF437AF224A94
:102200001388FC3313800137032F3FF62FAF214B88
:10221000B3F8E0204FF6FF739A42D6D01E4BD3F8A6
:10222000E0351E4A02EA8322D1E701993046FFF7E2
:1022300081FE0346C8B90134802C0ED8A542FAD0DD
:10224000A6B201A93046FFF7E5FD03460028ECD011
:102250000728F0D009E00124EEE702210B4B1878A3
:10226000FFF794FB70B94FF48073184603B0F0BDCC
:102270000423FAE70223F8E70A23F6E70A23F4E740
:102280000223F2E70223F0E7CE030020CC03002074
:10229000040000200075FF1F0070FF1F00FCFF03FB
:1022A00038B504460D46FFF745FE122800D038BD6C
:1022B000002229462046FFF78FFEF8E708B5431EA7
:1022C0009BB24FF6FD72934201D9082008BDFFF77B
:1022D000E7FFFBE708B50146002005F0B9FE08BDA1
:1022E00000B587B000230193029305910490012368
:1022F000039301A902A805F0B1FF00B1012007B0C6
:102300005DF804FB00B585B00023009303910290B3
:1023100001230193684605F017FF00B1012005B0C5
:102320005DF804FB084B1A6822F480621A601A6890
:1023300042F480521A601A6822F480521A601A68B5
:1023400042F480621A6070470020024008B504F031
:10235000D1FD00F004F800F025F8002008BD08B514
:102360004FF4E131002001F059FB002003F01AF98D
:1023700008BD10B503F09AFF38B9002401F066FBE0
:10238000A0420AD101F0B6FD10BD03F0B3FF012851
:1023900001D00024F2E70324F0E70021204601F0F9
:1023A0003DFBEFE710B5FFF769F9044604E00020B4
:1023B00002F0F4FFFFF7DDFFFFF760F9031BB3F551
:1023C000FA7FF7D3FFF75AF9044603F06FFF0028AE
:1023D000EDD0002003F01EF8ECE700B583B08C468A
:1023E000418A00931346624602F054FE03B05DF842
:1023F00004FB0000F0B583B000F0D8FF43689847B5
:1024000010B1002003B0F0BD002407E04FF4856355
:1024100004FB03F3284AD35C23B90134002CF5DD17
:102420000120EFE74FF4856303FB0426304602F0FA
:1024300042FD18B9304600F0E6FAEEE7304600F00B
:10244000E3FA0746002500E001351C4B1B68AB4250
:102450001DDD1A4B5A684FEA051E02EB051108896B
:10246000154B4FF4856C0CFB04335B8A9842EBD11F
:1024700012F80E20104B0CFB04331B7C9A42E3D164
:10248000CB683046984747EA0003DFB2DCE7002F0D
:10249000D0D1094B4FF4856202FB04331B7C002B27
:1024A000C8D1054902FB0411002300932322498A65
:1024B000304602F0EFFDBDE770040020D00300209D
:1024C00038B5184A184B9B1A1B09184C23606260D8
:1024D000174803F0B3F82168164803F0AFF800245A
:1024E00009E0124B5B6803EB04135A68214612485B
:1024F00003F0A4F801340D4B1B68A342F1DC0F4D2F
:102500000F4A0321284600F061F80E4C2946204668
:1025100002F0B0FC204602F0B8FC00F072FA012094
:1025200038BD00BFD02B0108502C0108D00300207B
:10253000D0190108E8190108F8190108D80300208A
:1025400040420F007004002010B582B0049C01943A
:10255000009313460A460146024802F051FD02B0BC
:1025600010BD00BF70040020004870470800002024
:1025700008B5007803F026FC08BD08B5007803F024
:10258000DFFB08BD08B5007803F008FC08BD38B5CE
:102590000446057801F05AFA854203D0207803F00A
:1025A000AFFB38BD0020FCE708B5007803F09AFBCC
:1025B00008BD000010B50446034803F03FF8616809
:1025C000207803F0E3FA10BD081A01080170426098
:1025D000094BC0F88030094BC0F88430084BC0F874
:1025E0008830084BC0F88C30074BC0F89030074B50
:1025F000C0F8943001207047B5250008A9250008CF
:102600008F250008852500087B2500087125000816
:1026100000B583B0054B01221A60418A0422009262
:10262000002202F037FD03B05DF804FBBC09002076
:1026300000B583B0418A48230093034B002202F087
:1026400029FD03B05DF804FB0064000800B583B009
:10265000418A00220092134602F01CFD03B05DF88F
:1026600004FB000000B583B00022054B1A70418ABC
:102670000092134602F00EFD03B05DF804FB00BFAC
:102680009C08002010B594B00446D82200211D48B3
:102690000CF0FCFB1C4B1A6803F14E2303F58A0374
:1026A00020339A421CD0194B1A6803F19E43A3F5BC
:1026B0003B03A3F5AF539A4218D0482202A914480D
:1026C00002F0FFFD029A134B9A4215D0D8230093D3
:1026D0000C4B0022618A204602F0DCFC14B010BDD5
:1026E0004822094907480CF096FCDCE748220749D4
:1026F00009480CF090FCE0E7482202A907480CF0DA
:102700008AFCE3E7E40800200004000800680008F1
:1027100000080090205245562C0900207409002022
:1027200030B583B00546D0F824140B784A7843EAD4
:1027300002238A7843EA0243CA7843EA02630C79A7
:102740004A7944EA02248A7944EA0244CA7944EA8A
:1027500002641A19B2F5C43F09D30D220094D5F8CA
:102760002434698A284602F095FC03B030BD224625
:1027700003F1104002F0A5FD08B10022EEE70E22A1
:10278000ECE710B582B00446D0F824341A785978B2
:1027900042EA0122997842EA0142D97842EA01628A
:1027A0001979587941EA0021987941EA0041DB79A9
:1027B00041EA03615318B3F5C43F08D30D22002347
:1027C0000093618A204602F065FC02B010BD02F160
:1027D000104002F0F1FC08B10022F0E70C22EEE715
:1027E0002DE9F0438BB00646D0F8241491F8008010
:1027F0004B7848EA03288B7848EA0348CB7848EAC4
:1028000003680F794B7947EA03278B7947EA034737
:10281000CB7947EA036708EB0704B4F5C43F0BD351
:102820004FF00D09002300934A46718A304602F0AA
:1028300031FC0BB0BDE8F0833A46083108F1104096
:1028400002F00CFD80B31A4B1B782BB1194B1B689F
:10285000434501D8174B1C600025A94605E04FF001
:102860000E092544B9F1000FDCD1BD42DAD27C1B40
:10287000202C28BF202405EB0800224602A900F1E5
:10288000104002F01EFD0023A342EAD2D6F8242411
:10289000E9180831515C03F128026A4412F8202C2F
:1028A0009142DCD10133EFE74FF00E09BAE700BFE8
:1028B0009C080020980800202DE9F043A9B00746A5
:1028C000142202A94FF0104002F0FBFC029A224BA6
:1028D0009A4209D0132200230093798A384602F0E5
:1028E000D9FB29B0BDE8F083DDF81080B8F5C43F0E
:1028F0002FD2039B03F110490026ADF89E600BE038
:1029000004F1A0036B4413F8841C0DF19E0000F049
:1029100051FF0134A542F3D8B0450ED9A8EB060506
:10292000802D00D980252A4607A906EB090002F070
:10293000C8FC60B12E440024ECE70022002ACAD172
:10294000BDF89E3005999942C5D01122C3E71522E2
:10295000F4E71422BFE700BF2047415400B583B01D
:10296000418A00220092134602F094FB6420FEF795
:1029700081FE022002F0A6FE02F0A0FE03B05DF888
:1029800004FB000010B582B004460D4B00221A6013
:10299000C38A442B08D00D2200230093618A20466D
:1029A00002F078FB02B010BD4422D0F82414054890
:1029B0000CF031FB044B01221A700022ECE700BF3F
:1029C00098080020A00800209C08002010B582B0C4
:1029D0000446012002F0D2FC022002F0CFFC32209B
:1029E000FEF748FE012002F0D9FC022002F0D6FCDE
:1029F000002200921346618A204602F04BFB02B08F
:102A000010BD01207047704708B5438A102B3AD893
:102A1000DFE803F0090D393939391115191D212560
:102A2000292D31393500FFF7F3FD01202CE0FFF7A8
:102A300029FE012028E0FFF7FBFD012024E0FFF73D
:102A4000A0FE012020E0FFF7CBFE01201CE0FFF7F5
:102A500067FE012018E0FFF72FFF012014E0FFF7C9
:102A60007DFF012010E0FFF7F1FD01200CE0FFF7F2
:102A700089FF012008E0FFF7F5FD012004E0FFF7E2
:102A8000A5FF012000E0002008BD0120704710B51F
:102A900000F08CFC0368984701282AD902282DD120
:102AA00000F084FC43689847012805D000F0CEFF71
:102AB000D0B901F01FFA21E003F0F8FB38B9002487
:102AC00000F0C4FFA0420AD101F014FA16E003F0AE
:102AD00011FC012801D00024F2E70324F0E70021D3
:102AE000204600F09BFFEFE70021084600F096FF2C
:102AF000DFE700F0ABFF18B901F0FCF9012010BDD1
:102B00000021084600F08AFFF6E7000008B54FF400
:102B1000E131002000F082FF024800F005F80120BA
:102B200008BD00BF8B2A0008064B1B680F2B07DC73
:102B3000044A02EB830148600133136001207047AF
:102B400000207047C009002008B50146044B1878E2
:102B500000B908BD0122034800F0C6FDF9E700BF37
:102B6000180A0020040A002008B5FEF787FD084B6C
:102B70001B68C01AB0F5FA7F01D2012008BDFEF72C
:102B80007DFD034B1860002002F044FCF5E700BF18
:102B90002C0A002010B582B002F0B6FF041E0DDB37
:102BA00000230093074B02220A21204602F080FFF7
:102BB000204602F097FF012002B010BD024802F04B
:102BC0003DFDF8E7CD2B0008201A010810B5404B59
:102BD0001B78012B23D0022B32D043B13D4B1B7805
:102BE000012B53D0022B63D0002B38D010BD00F046
:102BF00067FA03689847044600F040FD0368984769
:102C0000044314F0FF0FE9D0314B01221A70022067
:102C100002F0B4FBFEF732FD2F4B1860DEE7FEF743
:102C20002DFD2D4B1B68C01A3128D7D90220284B07
:102C3000187002F0B3FBFEF721FD274B1860CDE7BB
:102C4000FEF71CFD244B1B68C01A3128C6D9204B47
:102C500000221A70FEF712FD1F4B1860BEE700F04D
:102C60002FFA43689847044600F008FD43689847E8
:102C7000044314F0FF0FB9D00120164B187002F076
:102C80007DFBFEF7FBFC154B1860AFE7FEF7F6FC8B
:102C9000124B1B68C01A3128A8D90E4B02221A7099
:102CA000012002F07BFBFEF7E9FC0C4B18609DE76E
:102CB000FEF7E4FC094B1B68C01A312896D9054B76
:102CC00000221A70FEF7DAFC044B18608EE700BF92
:102CD000200A0020280A00201C0A0020240A0020C4
:102CE000024B187800221A70704700BF3B0A002080
:102CF000024B187800221A70704700BF3A0A002071
:102D000070B590B00F4B1C7814B9204610B070BD50
:102D100005460D4B1B788DF800300C4B1B788DF859
:102D200001300B4B1B68CDF802300A4B1B68CDF805
:102D30000630FFF719FC46680A236A460021284638
:102D4000B047E2E73C0A0020390A0020380A002098
:102D5000340A0020300A002030B5D7B000F026FB3E
:102D60000368984702280CD0354B01221A70344B67
:102D70001B7883B9334B1B78002B56D1012057B0F9
:102D800030BD00F013FB436898470128ECD12C4B71
:102D900000221A70EBE701F0F9FE002001F02EFE90
:102DA0000028E7D003A9002001F0BAFE264B01223B
:102DB0001A70FEF763FC8DF85800C0F307208DF8F9
:102DC00059009DF854308DF85A309DF853308DF8E5
:102DD0005B309DF852308DF85C30039B8DF85D3090
:102DE0001A0A8DF85E201A0C8DF85F201B0E8DF8E4
:102DF0006030BDF810C08DF861C000230A2407E0E0
:102E000003AA1A449079621C16A908550133D4B25A
:102E10009C45F5DCFFF7A8FB0568009416AB002283
:102E20004FF489710520A847A4E703F03FFA002872
:102E3000A4D1044B00221A70044802F0FFFB9DE766
:102E40003D0A00203C0A00203A0A0020541A0108DA
:102E500070B50546074802F0F1FB0024064B1C70D4
:102E6000FFF782FB46682346224621462846B047A4
:102E7000012070BD541A01083C0A002008B503491E
:102E8000034801F0F9F8012008BD00BF952E0008A5
:102E90006C1A010808B50388012B13D143690D4949
:102EA0000020984770B10C4B1B787BB10B490C4844
:102EB00000F048FE0B4B1B7853B108490A4800F05C
:102EC00041FE02E0094800F03DFE08BD0849EEE77A
:102ED0000749F3E7841A01083D0A0020741A010823
:102EE0009C1A01083C0A0020AC1A01088C1A01083F
:102EF0007C1A010870B594B01B4B1D7815B9284693
:102F000014B070BD0446194B01221A70D0F8241475
:102F10004B79002663F307068B7963F30F26CB7991
:102F200063F317460B7A63F31F660B79CA788978C7
:102F300001A801F075FD00230AE0D4F8241403F180
:102F40000A02895C03F150026A4402F8461C01330C
:102F5000BDF808209A42F0DC01960A2201A900205F
:102F600001F06CFDCBE700BF3C0A00203B0A0020CB
:102F70002DE9F04182B0174B1C781CB9204602B0F5
:102F8000BDE8F0810546D0F824341878124A107054
:102F90005A78124E3270124FD3F802203A60DFF89E
:102FA0004480D3F80630C8F8003001F019FCD8F896
:102FB000003000933B6832780021084601F016FC8F
:102FC000FFF7D2FA466800231A4619462846B0474A
:102FD000D4E700BF3C0A0020390A0020380A00204C
:102FE000340A0020300A00202DE9F04182B0044666
:102FF000D0F824341D785E789F7893F803802348B6
:1030000002F01CFB2946224802F018FB31462148F9
:1030100002F014FB3946204802F010FB41461F48DD
:1030200002F00CFB002001F097FB48BBCDF80080BC
:103030003B4632462946002001F014FC184B18701C
:1030400010B31849184802F0F9FA184B187801F033
:10305000C7FB174B1B680093164B1B68164A127868
:103060000021084601F0C2FBFFF77EFA4568002305
:103070001A4619462046A847012002B0BDE8F08153
:10308000002001F075FBD1E70C49DBE7BC1A010811
:10309000D01A0108E81A0108001B0108181B0108D2
:1030A0003C0A0020741A0108301B0108390A00206C
:1030B000300A0020340A0020380A00207C1A010857
:1030C0000048704710000020014B1878704700BF7F
:1030D000420A0020014B1878704700BF410A0020C7
:1030E00010B582B001213F4801F0BCF920BB03F0CC
:1030F000DDF83D4B1B78834235D13C4B1B78012BCF
:103100003FD0022B4BD0002B37D0384B1B78384A9E
:103110001278934258D1374B1B78374A1278934232
:1031200059D1324B1A78324B1A70324B1A78324BD3
:103130001A70012002B010BD2C4C237801332F49A6
:1031400081FB032101EB4101591AC9B22170002012
:1031500001F0CCFF00238DF80030237801936846FE
:10316000FFF7F2FCC3E7204B187001238DF8003005
:1031700001906846FFF7E8FCBFE71E4B00221A707B
:10318000C3E7032002F062FEB0F5167F03D0194BAF
:1031900001221A70B9E7174B00221A70B5E703F045
:1031A00085F818B9134B00221A70AEE7032002F01D
:1031B0004DFEB0F5E13F03D00E4B00221A70A4E79C
:1031C0000C4B01221A70A0E70D4A52F823100D484B
:1031D00002F034FA9FE70C4A52F823100B4802F031
:1031E0002DFA9EE7440A00203E0A0020420A0020F1
:1031F000400A0020410A00203F0A0020565555553C
:103200007C1C0108A41B0108741C0108B41B0108E4
:1032100070B586B000248DF817400DF117012046D7
:1032200001F044FF9DF81730022B28BF0223254AE6
:103230001370254B1C700521244801F0C3F802F0DF
:1032400063FC041E3ADB00230093214B02220A2177
:10325000204602F02DFC204602F044FC00238DF8AD
:103260000C30184C2378049303A8FFF76DFC03F08F
:103270001DF8184B187001258DF80C50049003A808
:10328000FFF762FC2278144B53F82210134802F027
:10329000D5F90D4E3278124B53F82210114802F036
:1032A000CDF92278104B1A703278104B1A701049F1
:1032B000104800F0E1FE284606B070BD0E4802F04E
:1032C000BDF9CBE7420A0020410A0020440A002051
:1032D0006D3300083E0A00207C1C0108A41B010875
:1032E000741C0108B41B0108400A00203F0A00209A
:1032F000FD320008F41B0108C41B010800B583B0AF
:103300000346124A92E8030000908DF804101A88D0
:10331000012A04D15B6969460020984728B90C4806
:1033200000F010FC03B05DF804FB0A4B1A780A4B5E
:1033300053F82210094800F005FC094B1A78094B94
:1033400053F82210084800F0FDFBEBE7841A01084F
:10335000141C0108420A00207C1C0108FC1B010807
:10336000410A0020741C0108081C010808B50E4B16
:103370001B78012B0AD0022B0FD003B108BD00200F
:1033800001F0FCFF012002F009F8F7E7002002F04D
:1033900005F8012001F0F2FFF0E7002001F0FEFF48
:1033A000012001F0FBFFE9E7420A002000487047D6
:1033B0001800002001207047024B187800221A7074
:1033C000704700BF510A0020024B187800221A7083
:1033D000704700BF520A002030B5C1B0032002F090
:1033E00035FD0446012002F031FD84420BD103205B
:1033F00002F086FCFF2815D94FF48075234B01227B
:103400001A7000241AE0032002F020FD014601207A
:1034100002F0BCFB012002F019FD01461C4802F03D
:103420000DF9E4E7032002F06BFC054668B1E5E71F
:10343000032002F085FC0DF804000134AC42F7D300
:103440002A466946012002F0BDFC012002F058FC2A
:10345000FF2806D94FF480750E4B01221A70002404
:103460000BE0012002F04CFC054668B1F4E70120B6
:1034700002F066FC0DF804000134AC42F7D32A4692
:103480006946032002F09EFC41B030BD510A002085
:10349000881C0108520A002010B50124044B1C703E
:1034A000C28AD0F82414204602F08CFC204610BDBD
:1034B000510A00201E4B1B7803B9704730B5C3B0CA
:1034C000012002F0C3FC1B4B196888420BD101207C
:1034D00002F016FCFF2811D94FF48075164B01221B
:1034E0001A70002416E0012002F050FB012002F0C7
:1034F000ADFC0146114802F0A1F8E8E7012002F016
:10350000FFFB054690B1E9E7012002F019FC02AB90
:1035100018550134AC42F7D3FFF726F8046800953C
:1035200002AB00224FF481710620A04743B030BDAA
:10353000500A002028000020520A0020881C0108A0
:1035400008B5FFF733FF0368984702280ED0134BE6
:1035500001221A70114B1B78C3B1FFF727FF436894
:10356000984701280CD0FFF7A5FF14E0FFF71EFFD6
:10357000436898470128EAD1084B00221A70E9E70E
:10358000FFF72AFF07E0012002F0DAFB012002F03A
:10359000B7FB0028F7D1012008BD00BF530A002067
:1035A00070B50546074802F049F80024064B1C7028
:1035B000FEF7DAFF46682346224621462846B047F2
:1035C000012070BD9C1C0108500A002070B5044603
:1035D000D0F824341E680B4802F030F831460A480F
:1035E00002F02CF80125094B1D70094B1E60FEF7F7
:1035F000BBFF466800231A4619462046B0472846B6
:1036000070BD00BFB41C0108CC1C0108500A00208A
:103610002800002008B50448FFF786FA034904484B
:1036200000F02AFD012008BDB5330008353600083A
:10363000DC1C010808B50388012B0CD1436909493A
:103640000020984738B1084B1B7843B10749084818
:1036500000F078FA02E0074800F074FA08BD064965
:10366000F5E700BF841A0108530A0020741A010804
:10367000F01C0108E41C01087C1A0108004870478E
:10368000200000200D488546FEF744F90C480D49FE
:103690000D4A002302E0D458C4500433C4188C42AD
:1036A000F9D30A4A0A4C002301E013600432A24213
:1036B000FBD30BF081FCFEF749FEFEE7007800200B
:1036C00000000020AC030020602C0108AC030020A7
:1036D000384F0020FEE703460020186058609A60CB
:1036E0000120D86019617047F0B500270CE00CEBA1
:1036F000030511F803E006F805E00133C5689D42B3
:10370000F5D8294404600137974213D205686B1C31
:103710008468B3FBF4F604FB16344368A3420BD071
:103720000669002EEED00029ECD0C36803FB05FC2F
:103730000023E3E70120F0BD0020FCE770B50C4654
:103740001646002516E001EB0E0C1CF803C004F829
:1037500003C00133C2689A42F5D814444368026832
:10376000934216D001338268B3FBF2F102FB1133AE
:1037700043600135B5420AD201690029EED0002C20
:10378000ECD04368C26802FB03FE0023E2E701209D
:1037900070BD0020FCE703690268C06800FB0230CE
:1037A0007047036842689B1A8268B3FBF2F002FB21
:1037B00010307047028881EA1221034B33F8113030
:1037C00083EA022303807047341D0108002380F838
:1037D000F23380F8F1333F2280F8F02380F8B033E1
:1037E000704738B5054690F8964104EB441004EB59
:1037F00040002844432205F56C7100F5CC700BF0B5
:103800000AFC95F89731072B02D8013385F89731D8
:1038100085F895410134634204F0070403F007037F
:1038200058BF5C4285F89641012385F8943138BD34
:10383000002303E08CF8002001339BB20F2B0BD840
:1038400000EB030CC25C3AB1A2F16101C9B21929C3
:10385000F0D8203AD2B2EDE7102B00D07047013BF0
:103860000022C254FAE70000064BB3F878369842BB
:1038700005D2044BD3F87C3653F820007047002063
:10388000704700BF540A002008B50346094AB2F841
:10389000782690420AD20846064AD2F87C2652F888
:1038A0002310FCF7CDFF18B1002000E0002008BD78
:1038B0000120FCE7540A002008B5084BB3F878361D
:1038C000984202D39FED060A08BD044BD3F87C361C
:1038D000002153F820000AF033FCF5E7540A0020D9
:1038E0000000000008B5084BB3F87836984201D3C1
:1038F000002008BD044BD3F87C360022114653F853
:1039000020000AF0EFFCF4E7540A002010B504464A
:103910000449007802F082FA0349207802F07EFA26
:1039200010BD00BF341F0108381F010838B590F8DA
:10393000973143B304460D4690F8F12322BB94F827
:10394000F22332BB012D29D094F99511013194F85D
:10395000973191FBF3F203FB121184F89511C9B270
:1039600001EB411301EB43012144432201F5CC71EA
:1039700004F56C700BF04FFB94F8F23384F8F133DC
:10398000002384F8943138BD0F49007802F046FADC
:10399000D5E70E49207802F041FAD3E794F8943144
:1039A0001BB194F9963184F8953194F9951194F8F6
:1039B00097311944013991FBF3F203FB121184F89A
:1039C0009511C9B2CCE700BF401F0108481F01088C
:1039D00070B582B006460024A0F8124100F58A7541
:1039E000C0F8144101AA0C4900F56C700BF090FA74
:1039F000234609E05C1CA4B245F8230001AA06494D
:103A000000200BF085FA23460028F3D1A6F81231E6
:103A100003B1012002B070BD501F01080A4B18709D
:103A20001B7A1BB1084B5B688B4200D011B9064B67
:103A3000187A704710B5044C616002F0A7F8207244
:103A4000014B187A10BD00BF540A0020014B1878B2
:103A5000704700BF540A002038B5234B5B7A03B986
:103A600038BD054690F8F1232049807A02F0D6F956
:103A700095F8F2231E49A87A02F0D0F995F8F023C0
:103A80001C49A87A02F0CAF905F56C721A49A87A9D
:103A900002F0C4F995F995211849A87A02F0BEF907
:103AA00095F896211649A87A02F0B8F995F8972169
:103AB0001449A87A02F0B2F900240CE004EB441394
:103AC00004EB430303F5CC732B4422460E49A87A3A
:103AD00002F0A4F9013495F89731A342EEDC0B49CA
:103AE000A87A02F09BF9BBE7540A0020581F01088E
:103AF000681F0108781F0108881F0108981F010826
:103B0000A81F0108B81F0108C81F010820210108CB
:103B100008B5024B187802F0F3F808BD540A0020EB
:103B200008B5024B187802F00BF908BD540A0020C2
:103B300008B50A460146024B187802F043F908BD61
:103B4000540A00200FB410B582B004AB53F8042B14
:103B50000193084C4FF4807120460BF089F902461E
:103B6000214614F8110C02F02DF902B0BDE8104006
:103B700004B07047650A002038B50546FFF728FFF6
:103B800008B9002038BD1648FFF7DCFFD5F814014E
:103B9000FFF74EFE0024B5F8F433A342F1DD04EB49
:103BA0008401890001F57E712944D5F81401FCF7E0
:103BB00047FE08B10134EEE7B5F81231013BA5F834
:103BC000783605F58C73C5F87C3604EB840405EB78
:103BD0008404D4F8083405F5CF609847D1E700BFD6
:103BE0006425010830B585B004468DF80710037CC4
:103BF000ABB9CBB21B2B30D01CD8082B4BD00D2B24
:103C000040F0848090F8F2330BBB002384F8F23349
:103C100084F8F13384F8B0332046FFF777FE237C35
:103C2000013B032B00F2C880DFE813F0C400CC0096
:103C3000CF0056017F2B69D190F8F1C390F8F2E3E1
:103C4000F445ECD2AEEB0C05EDB2012212E0FFF729
:103C5000C8FD2046FFF790FFD7E701230374DEE796
:103C60000CEB0203591E234493F8B003631883F846
:103C7000B00301329542F3DC0EF1FF3E5FFA8EFE97
:103C800084F8F2E3A64400238EF8B03394492078F8
:103C900002F0C4F8C3E790F8F2335BB390F8F10395
:103CA00040B3834209D094F8F2C3604522D2ACEB12
:103CB000000E5FFA8EFE002211E0013BDBB284F8B9
:103CC000F2332344002283F8B023ECE78318591E13
:103CD000234493F8B053631883F8B05301329645E8
:103CE000F4DC0CF1FF33DBB284F8F233234400221E
:103CF00083F8B02394F8F133002B90D0013B84F883
:103D0000F1337849207802F089F888E794F8F233A3
:103D1000591C94F8F023914281DA94F8F1239342EC
:103D200016D094F8F1C394F8F2038445BFF477AF4A
:103D3000A0EB0C05EDB20022954224DD831A591E3A
:103D4000214491F8B013234483F8B0130132F3E710
:103D500001220DF10701207802F034F894F8F123E4
:103D6000A3189DF8071083F8B01394F8F2330133C9
:103D7000DBB284F8F233013284F8F12323440022C9
:103D800083F8B023CDE79DF8072004EB0C0383F8FC
:103D9000B0230130C0B284F8F2030CF1010C84F8B6
:103DA000F1C32044002380F8B0334F49207802F05B
:103DB00035F834E7022323742046FFF74DFE002038
:103DC00005B030BD03232374F6E7002323749DF868
:103DD0000730442B26D09DF80730432B37D09DF871
:103DE0000730412B4AD09DF80730422B50D09DF828
:103DF0000730312B56D09DF80730342BDCD194F8A6
:103E0000F13394F8F223934258D394F8F12394F8C1
:103E1000F2339A4259D894F8F23384F8F1330423F8
:103E20002374C9E794F8F123002AD4D0013A84F826
:103E3000F1231B228DF808205B228DF809208DF8D4
:103E40000A30032202A9207801F0BCFFC3E794F8EE
:103E5000F12394F8F2138A42C1D2013284F8F1239B
:103E60001B228DF808205B228DF809208DF80A307E
:103E7000032202A9207801F0A5FFB0E70121204626
:103E8000FFF754FD04F56C71207801F0C7FFAAE735
:103E900000212046FFF74AFD04F56C71207801F0FF
:103EA000BDFFA4E794F8F1231049207801F0B6FF94
:103EB000002384F8F133042323749CE7D21A92B2CE
:103EC0000B49207801F0AAFF9FE7D21A92B2074966
:103ED000207801F0A3FF9EE7002323746CE700BF66
:103EE000D81F0108E01F0108E81F0108401F010852
:103EF000F41F010838B5094B1C7A0CB9204638BDAF
:103F0000187801F0FDFE0028F8D0044D287801F063
:103F100017FF01462846FFF765FEEFE7540A002029
:103F200010B50F48FFF70EFE0E48FFF70BFE0024FA
:103F30000CE004EB8403980000F57E700A4B1844F3
:103F4000FFF700FE0648FFF7FDFD0134064BB3F80E
:103F5000F433A342EDDC0548FFF7F4FD10BD00BFCC
:103F600064250108FC1F0108540A002020200108D4
:103F70002DE9F04383B00388446873B1012B12D854
:103F800010270022114620680AF0ACF906462C489A
:103F9000FFF7D8FDB04600241BE02A48FFF7D2FD0A
:103FA00003B0BDE8F0830022114660680AF09AF978
:103FB0000746E6E731682448FFF7C4FD624204F093
:103FC000030302F0030258BF5342032B0BD0043605
:103FD0000134BC42E4DA14F0030FEBD131461B4844
:103FE000FFF7B0FDE6E71A48FFF7ACFD4FF0000918
:103FF00017E01848FFF7A6FD0135032D0DDC05F18C
:1040000008036B4413F8041CA1F12003DBB25E2B00
:10401000EFD81148FFF796FDEEE708F1040809F123
:104020000109B9F1030F04DCD8F800300193002531
:10403000E3E70A48FFF786FD0120FDF71BFBC6E713
:104040005C20010844200108702001086420010858
:1040500078200108802001087C20010884200108C4
:1040600008B5044B187801F04BFE08B9012008BDD3
:104070000020FCE7540A00202DE9F041114BB3F871
:10408000F4531F2D02D90020BDE8F0810E46AF0089
:1040900005EB8504A40004F57E7498461C44014693
:1040A00020460AF0B0FF2F4408EB8707C7F80864E2
:1040B0002046FFF7BDFBB8F8F4330133A8F8F4331A
:1040C0000120E1E7540A002008B5124800230372DA
:1040D0004372037480F8953180F8963180F89731F7
:1040E00080F894310C4BC0F880360C4BC0F8843605
:1040F0000B4BC0F888360B4BC0F88C36FFF766FBCD
:1041000009490A48FFF7B8FF09490A48FFF7B4FF11
:10411000012008BD540A0020E5380008B93800081D
:104120006938000889380008213F00088C20010800
:10413000713F000894200108022801D9002070472F
:1041400070B504460A4D460000EB400305EB8302C0
:10415000918855F8230004F06FFA264405EB860594
:104160002B7A984201D0002070BD0120FCE700BFEF
:10417000B421010838B500242EE02C2303FB0425CC
:1041800001236B70FDF77AFA6860002203E0234494
:104190000021D97001324C4B1B8893422ADD4B4BD6
:1041A00053F8223059780529F1D823440121D970D8
:1041B000F0E7012932D0464A2C2000FB0422926A03
:1041C000934231D2FDF75AFA414B2C2202FB0433C1
:1041D000986000221A730134022C73DCE0B2FFF7FE
:1041E000ABFF00283DD02C2304FB03F3384AD35CFB
:1041F000002BC2D036492C2304FB03F3CA1801203C
:10420000C854538803449BB25380D1690029D0D14C
:104210002F4A2C2000FB0422126AD1E72C4A2C20C2
:1042200000FB0422526ACBE7294B2C2202FB043309
:1042300000225A800131D9610121197603E023441B
:10424000002159720132204B1B889342BADD1F4B6B
:1042500053F8223059780529F1D8234401215972A5
:10426000F0E72C2304FB03F3194AD35C73B9184914
:104270002C2304FB03F3CD180022CA5401232B7313
:10428000EA612A76FDF7FAF96861A4E72C2303FBBB
:10429000042501236B73FDF7F1F92861002203E087
:1042A0002344002199710132074B1B889342DEDDC4
:1042B000064B53F8223059780529F1D823440121BF
:1042C0009971F0E738BD00BF04110020E410002010
:1042D0000811002010B58AB00024059406940794B4
:1042E000089409942F4BDA6C42F00202DA64DA6C1B
:1042F00002F002020392039ADA6C42F00402DA64DA
:10430000DB6C03F004030493049B012307930CE08C
:10431000254B04EB440203EB82014968059105A992
:1043200053F8220004F010F80134022CF0DD0020D4
:1043300012E01E4C2C2100FB01F1631800225A8070
:1043400062541A735A73DA613C211962FA21596274
:10435000C82199621A7601300228EADD002304E0C0
:10436000134A002142F823100133072BF8DD01F036
:10437000CBFB041E11DB002300930E4B02220A210B
:10438000204601F095FB204601F0ACFB0A490B48A2
:10439000FFF772FE01200AB010BD094801F04EF986
:1043A000F4E700BF00100240B4210108081100200A
:1043B000E41000207541000845450008C8200108A8
:1043C000982001080A4B1B88072B01D90020704751
:1043D0000022026042608260064A42F82300417077
:1043E00083700133024A138001230370184670471B
:1043F00004110020E41000200346022808D8054AD2
:10440000107830B12C2202FB03F3034AD05C7047D2
:10441000002070472C00002008110020032828BF2E
:104420000320024B53F82000704700BFA42101086D
:1044300002280ED8094B1B786BB182B0084B2C2296
:1044400002FB00339A685B68D31A0193019802B0AB
:104450007047002070470020704700BF2C000020EC
:1044600008110020034602290DD8084A107858B1D7
:10447000187848B19A78064B53F822300B44D87814
:104480000022DA7070470020704700BF2C00002027
:10449000E410002084B004AB03E90700134A904203
:1044A00019D00EDCA2F50062904216D002F58062AF
:1044B000904201D10E480CE0B0F1904F0FD10D4861
:1044C00007E00D4A90420CD002F5806290420AD17A
:1044D0000A4804B070470A48FBE70A48F9E70A4867
:1044E000F7E70A48F5E70848F3E700BF000C004883
:1044F000E0200108D020010800100048F820010841
:10450000E8200108D820010800210108F020010856
:1045100010B590B004464022002168460AF0B6FC6F
:10452000002022466408A2EB440210A901EB80039C
:10453000013043F8402C002CF3D10138C0B210B048
:1045400010BD00002DE9F04105460388012B0AD07B
:1045500000272B88012B2ED02B88012B49D0002F30
:1045600072D0BDE8F08143693D4900209847074675
:104570000028EED000261BE0F0B2FFF74FFF014607
:104580003848FFF7DFFA06EB4603374C04EB8304A9
:1045900094E80700FFF77EFF01463448FFF7D2FAA0
:1045A0006068FFF7B5FF01463148FFF7CBFA0136E7
:1045B000022EE1DDCDE76B692E49002098470646C3
:1045C00080B9C9E7E0B2FFF717FF01462A48FFF7B5
:1045D000B9FA0134022CF5DD3220FDF74BF82748FB
:1045E000FFF7B0FAFFF73CFD08B10024F2E73746C9
:1045F000B2E76B6922490020984780460028AED078
:10460000AB680120984718E00134022C12DCE5B2B7
:104610002846FFF7F1FE0028F6D02846FFF7FEFEF9
:1046200006462846FFF704FF024631461548FFF7C5
:1046300089FAE9E70A20FDF71DF8FFF711FD08B137
:104640000024E2E747468AE70F48FFF77BFA0F4866
:10465000FFF778FA03210E48FFF774FA81E700BFED
:10466000841A010810210108B42101081821010849
:104670001C210108242101082C21010830210108F6
:10468000342101083C21010854210108642101085A
:104690007421010810B58CB004464FF4236004FB6C
:1046A00000F030302B4B184401A9043003F048FAD5
:1046B000049B7BB3274B4FF4236202FB04335A68FD
:1046C00042F001025A600221059B73B3214B4FF463
:1046D000236202FB04335A6842F002025A6003214B
:1046E000069B63B31B4B4FF4236202FB04335A68EF
:1046F00042F004025A600421164B4FF4236202FB7D
:104700000433D3F898301BB111B1002220469847EA
:104710000CB010BD0F4B4FF4236202FB04335A68F8
:1047200022F001025A600021CEE70A4B4FF42362C7
:1047300002FB04335A6822F002025A60D0E7054BAC
:104740004FF4236202FB04335A6822F004025A60D9
:10475000D2E700BF9411002030B9044B4FF423611D
:1047600001FB0033587870470020704794110020F7
:1047700088B908B5084A4FF4236101FB002252783A
:1047800002B908BD01FB00F03030034B184404307F
:1047900003F0E9F8F5E77047941100203F2810D89E
:1047A0002F2810D81F2810D8172810D8132810D851
:1047B0000F2810D80B2810D8072800D870470820D9
:1047C00070470F2070470E2070470D2070470C2057
:1047D00070470B2070470A2070470920EEE7000061
:1047E000014B1870012070478C110020002831D136
:1047F00000B587B084461ABB0092184A4FF4236074
:1048000000FB0C22126A402A1ED002220392019160
:10481000134A1278DAB9022202920493089B059394
:104820004FF4236303FB0CF030300C4B1844694603
:10483000043002F0C5FF78B1002007B05DF804FB3A
:104840004FF080420092D8E701220392DFE7002276
:104850000292E2E7002070470120EEE79411002069
:104860008C1100202DE9F04182B09DF820E018B1B4
:10487000002002B0BDE8F08105464FF4236005FB3F
:1048800000F000F13004564E3444043406EB000CC2
:104890005448CCF834000026CCF83860524850F820
:1048A0002200CCF83C00514850F82100CCF84000E0
:1048B0008CF8446001208CF845008CF846004FEAE3
:1048C00003184B48006800EB031750F80800CCF8B9
:1048D00048007868CCF84C00B868CCF85000F8680C
:1048E000CCF854004FEA0E184248006800EB0E174F
:1048F00050F80800CCF858007868CCF85C00B8682C
:10490000CCF86000F868CCF864001C20CCF8680093
:104910000820CCF86C00CCF870608CF828108CF86B
:1049200029208CF82A308CF82BE04023CCF820305A
:10493000314BCCF82430CCF80460204602F056FE0F
:1049400008B1002095E73046FFF74AFF009633464E
:10495000324631462846FFF749FF0096334601228A
:1049600031462846FFF742FF0096334602221146A1
:10497000204602F058FF08B100207AE7184B4FF4A8
:10498000236202FB05333246596A204603F003F9DD
:1049900008B100206DE7124B4FF4236202FB053390
:1049A000996D1B6E324603FB01F1204602F05CFF5D
:1049B00008B100205DE7204602F067FF08B1002043
:1049C00057E7204602F073FF38B9054B4FF42362D6
:1049D00002FB0533012058704BE7002049E700BF78
:1049E0009411002000640040E4210108D82101084E
:1049F000340000203000002007000E00012801D9FB
:104A00000020704708B54FF4236303FB00F0983093
:104A1000024B18440430FEF7C4FE08BD9411002078
:104A200080F8481080F8472080F84630024A52F853
:104A3000233083800120704730220108012863D889
:104A4000F0B58BB00D461646334B4FF4236202FB94
:104A500000335B6813F0040F58D113F0010F58D1E5
:104A600002FB00F430342C4B1C44043491F84730E2
:104A7000DBB1012B1CD095F84830012B1FD0022B45
:104A800023D0CBB12B68019300230993089305939E
:104A9000039395F84620214B53F822300493204687
:104AA00003F073F8C0B9002031E000230293E2E77D
:104AB0004FF080430293DEE707930693E2E74FF45B
:104AC0000013079300230693DCE74FF400130793CA
:104AD0004FF480130693D5E7FCF7D0FD0746AA1DD7
:104AE00001A9204602F053FF08B100200FE0204644
:104AF00003F04BF830B9FCF7C1FDC01BB042F6D350
:104B0000002004E0012002E00020704700200BB0EC
:104B1000F0BD0020FBE700BF94110020F021010848
:104B2000012801D90020704708B54FF4236303FB27
:104B300000F09830034B184401220430FEF7FEFDCC
:104B400008BD00BF9411002001281BD838B50E4BBA
:104B50004FF4236202FB00335B7803B938BD0A4C83
:104B600002FB00F0251800226A603030044404344F
:104B7000204602F0B3FE204602F099FEEB680133B6
:104B8000EB60EBE7704700BF9411002010B50024E4
:104B9000204609E0174B4FF4236202FB04331B7AD3
:104BA0002BB1012B17D00134002CF3DD10BD114BBC
:104BB0004FF4236202FB04335B6813F0040FF2D05E
:104BC000E0B2FFF7C1FF0B4B4FF4236202FB04334B
:104BD00001201872E7E7074B4FF4236202FB04330E
:104BE0005B6813F0040FDED1024B02FB043300229A
:104BF0001A72D8E7941100202DE9F0438BB080465B
:104C000089464FF4236707FB00F707F19805354EF7
:104C1000354404352846FEF7BEFD04463E44831D58
:104C20006A46316A484602F0DBFE00283ED1019B0D
:104C3000002B3ED1009B2360002384F84730BDF851
:104C40000E3003F00F03284A52F82300A080C0B2B0
:104C5000FFF7A4FD84F84600069BB3F5001F2ED095
:104C6000002384F848301F4B4FF4236202FB0833C3
:104C7000DA6A0132DA62012200212846FEF734FDA9
:104C800038B9184B4FF4236202FB08331A6901321A
:104C90001A61144B4FF4236202FB0833D3F89830A7
:104CA00023B12246012140469847A0B90BB0BDE888
:104CB000F083009B2360012384F84730BFE7059B06
:104CC000B3F5801F03D0012384F84830CBE70223DB
:104CD00084F84830C7E7012200212846FEF72EFD60
:104CE000E4E700BF941100203022010808B500203D
:104CF000FFF7D0FC08BD0000054A136801331360BC
:104D0000036E23B1034A536843F0100353607047A6
:104D1000901100209411002008B5024802F0C6FF4F
:104D200008BD00BFC811002010B50C4611F0010FDE
:104D30000ED114F0020F03D0084A93690133936136
:104D400014F0040F03D0054AD3690133D36110BDB9
:104D500001460020FFF750FFEBE700BF9411002051
:104D600010B598B004460021139114911591169135
:104D70001791442202A80AF089F822681D4B9A4232
:104D800001D018B010BD4FF4805302934FF08073E0
:104D90000E9302A805F09CFC48BB174B9A6D42F09D
:104DA00000729A659A6D02F000720092009ADA6CB5
:104DB00042F00202DA64DB6C03F002030193019B10
:104DC0004FF4407313930223149300241594169305
:104DD0000923179313A9094803F0B6FA224621467E
:104DE000152002F0ADF9152002F0BAF9C9E7FCF779
:104DF00049FCD2E700640040001002400004004873
:104E000008B50268084B9A4200D008BD074A936D66
:104E100023F0007393654FF44071054803F07EFB67
:104E2000152002F0A1F9F0E70064004000100240F4
:104E30000004004808B501F0ADFD014B187008BD35
:104E4000C41B002008B501F0E1FD08BD08B501F064
:104E5000BDFD08BD08B501F0C1FD08BD08B501F0F4
:104E6000F3FD08BD08B501F0CBFD08BD08B501F0A4
:104E700021FE08BD00234370C160837000F123034D
:104E8000C0F8243401230370704710B50446C0688D
:104E900078B1D0F88030984740B101236370002387
:104EA000A370FCF7EBFB6060012010BD0023637072
:104EB000F5E70020F9E7F8B50446C6684778002F03
:104EC00000F09A80D6F8883030469847002800F0E5
:104ED0009580D6F89030304698470546FCF7CEFBD3
:104EE0006368C01A632801D90023A370FCF7C6FBCE
:104EF0006060A3780A2BE5D8DFE803F0060E1920DE
:104F00002731384249627300022DDBD1002323761A
:104F10000123A3702576D5E7FD2D02D00023A370D1
:104F2000D0E70223A370237E2B442376CAE725749F
:104F3000237E2B4423760323A370C3E76582237E5D
:104F40002B4423760423A370BCE7638A43EA05233A
:104F50006382237E2B4423760523A370B2E7A582C8
:104F6000237E2B4423760623A370ABE7A38A43EA70
:104F70000523A382237E2B4423760723A370A1E776
:104F8000E582237E2B4423760823A3709AE7E38AE5
:104F900043EA05239BB2E382227E2A44227663B150
:104FA000B3F5806F04D80023A3600923A37089E7B9
:104FB0002023A3820023A3701EE00A23A37081E7AD
:104FC000D4F82424A368D554237E2B442376A368E5
:104FD0000133A360E28A93427FF474AF0A23A37083
:104FE00070E76576237E5B42DBB22376AB4201D06D
:104FF0002123A3820023A3703846F8BD0027FBE7D6
:1050000070B58446049E059DC0689CF80140002C44
:105010003ED04FF0020E8CF81AE04FF0FD0E8CF8E7
:105020001BE08CF81C108CF81D20120A8CF81E2036
:105030008CF81F301B0A8CF820308CF821502B0A7A
:105040008CF822300022092307E016F802E00CEB6E
:10505000030181F81AE001320133AA42F5D300219D
:105060000A4606E00CEB010E9EF81AE07244D2B23A
:1050700001318B42F6D852425D1C63449A76D0F8D7
:1050800094302A460CF11A019847854200D000243A
:10509000204670BD10B582B0049C01940093134665
:1050A0000A460121FFF7ACFF02B010BD70B57F28A2
:1050B00017D80E460C4B1D78A5B184B20134A4B2AA
:1050C00002F070FF31462046FCF71EFF044602F056
:1050D00081FF3CB1072C01D0002503E00023337091
:1050E00000E00025284670BDC61B0020F8B5044628
:1050F0000E46FCF7C3FA7F2C25D80546134B1F78C4
:1051000017B3A4B20134A4B202F04CFF31462046DA
:10511000FDF7D4F818B110F4807F03D1002702F016
:1051200059FF11E00A4B01221A70FCF7E7FD084B0A
:105130001B78002BF3D0FCF7A1FA401BB0F5FA7FE7
:10514000F5D30027EBE700273846F8BDC61B002043
:10515000C51B002008B502F095FE08BD014B0022DA
:105160001A707047C51B0020B0F1FF3F00D0704798
:1051700008B5FFF7F3FF08BDC00200F1006303F2BA
:10518000FF7C0A44013A8B4203D3934212D9002098
:1051900000E000208C4502D3944500D801208B42CA
:1051A00002D88C4500D30120934202D8944500D305
:1051B000012070470120EDE72DE9F04186B005465A
:1051C0000E4600F0B6FBA84207D800F0B2FB04463A
:1051D00000F0B2FB0444AC420AD802F0E3FE1E4BDE
:1051E0004FF400421A6100244FF0FF3847460AE0AE
:1051F00000F09FFB3146281A00F07EFB044614E0C5
:10520000A046274601343F2C0ADC32462946A0B28C
:10521000FFF7B2FF0028F5D0002FF1DBA046F1E741
:10522000002F06DA002402F0D5FE204606B0BDE8C5
:10523000F0810497A8EB0703013305930023029341
:105240000123039301A902A803F008F808B1002480
:10525000E9E70124E7E700BF00200240F8B5064671
:105260000D46174600F065FBB04205D916F007045D
:1052700013D000242046F8BD00F05BFB044600F08C
:105280005BFB0444B442F1D900F053FB3A46294693
:10529000301A00F054FB0446ECE702F083FEBC42F7
:1052A00009D22B192A595B68A119002002F0D0FEFF
:1052B00028B90834F3E7012402F08CFEDAE7002471
:1052C000FAE7F8B504460E46154600F032FBA04258
:1052D00001D9002314E000F02CFB074600F02CFB62
:1052E0000744A742F5D900F024FB2A463146201A8C
:1052F00000F0A8FA07E014F803C006F803C0013371
:10530000AB42F8D30120F8BDD0B908B5034659B176
:105310000C4803EB430C00EB8C014A7A898850F867
:105320002C0003F090F908BD064803EB430C00EB9A
:105330008C018A7A898850F82C0003F084F9F2E70E
:10534000704700BF402301080268064B1B689A4261
:1053500000D07047436C002BFBD0034A1368013325
:105360001360F6E7C81B00201C1C002008B502488B
:1053700003F0DAFC08BD00BFC81B0020022800D9DA
:10538000704708B5044B03EBC0010122898853F82C
:10539000300003F058F908BD4C230108022800D959
:1053A000704708B5044B03EBC0010022898853F80D
:1053B000300003F048F908BD4C23010810B586B051
:1053C0000024019402940394049405940F4BDA6C26
:1053D00042F00402DA64DB6C03F004030093009BE8
:1053E000012302930DE00A4B03EBC4029288019261
:1053F00001A953F8340002F0A7FFE0B2FFF7CEFF97
:105400000134022CEFDD012006B010BD0010024077
:105410004C230108022800D9704708B5044B03EB60
:10542000C002918853F8300003F012F908BD00BFA4
:105430004C2301082DE9F04106460388012B0AD0D0
:1054400000273388012B23D03388012B3ED0002F37
:105450005AD0BDE8F081436930490020984707469B
:105460000028EED02E4C21882E48FEF76BFB618879
:105470002D48FEF767FB2D48FEF764FB2C4C218876
:105480002C48FEF75FFB61882B48FEF75BFBD8E7F3
:1054900073692A490020984780460028D4D0002507
:1054A00006E01F4B986821462844FEF741FB25443F
:1054B000FEF7D6FD074638B1194B5C88641BC3D094
:1054C000402CEED94024ECE74746BDE773691C4900
:1054D0000020984706460028B9D0002506E0144B66
:1054E000986821462844FEF723FB2544FEF7B8FDC3
:1054F000074638B10E4B5C88641BA8D0402CEED90F
:105500004024ECE73746A2E70E48FEF71BFB0E48A7
:10551000FEF718FB0D48FEF715FB9AE7841A010801
:1055200034250020642301087C2301082021010880
:105530002825002094230108AC230108C423010876
:10554000CC230108D4230108E0230108EC2301083F
:1055500010B50D4A0023138053804FF48061918071
:10556000D3800A4890600A4A138053809180D38088
:10557000084B93600124084B1C7008490848FEF74B
:105580007BFD204610BD00BF3425002028210020CF
:1055900028250020281D0020261D00203554000845
:1055A000F8230108003818BF0120014B187070471C
:1055B0003900002008B5054B1870054B1960054BE4
:1055C00001221A7000F0E2FA08BD00BF241D00207D
:1055D000201D0020251D002030B583B004469446D0
:1055E000C3881344083382889A4205D20023C380BB
:1055F0000CF108039A4219D3E088009123880E4ADF
:105600000CF10801A568284409F090FB23880133B8
:105610002380E38882B21344E38063881844A1881E
:10562000884205DC1A446280012002E0002000E08C
:10563000012003B030BD00BFFC2301080FB410B53A
:1056400082B0164B1B7823B902B0BDE8104004B0FD
:10565000704705AB0193049A4FF48071104809F02C
:1056600007FC04460F4B1B7813B10F4B1B7843B953
:105670000E4B1B7863B9224609490D48FFF7ACFF72
:10568000E2E7024606490B4B187800F09BFBEFE778
:10569000224603490848FFF79FFFECE7261D00203C
:1056A000201C0020251D002038000020390000208B
:1056B00028250020241D00203425002008B501F0F5
:1056C00057FD08BD08B50146024B1860032000F0E5
:1056D00003F808BD402500200F2801D9002070479D
:1056E00008B50A460146024805F064F9012008BDE4
:1056F0004425002030B583B000EB800C174D15F821
:105700002C5085B114461A4684B1C1B100EB80001B
:10571000124B03EB8000069B009393B222468068F5
:1057200005F0A3FBB8B9284603B030BD0B4B03EB23
:105730008C00069B92B2806805F092FAF2E700EBCB
:105740008000064B03EB8000069B92B221468068E6
:1057500005F00AFDE6E70025E5E700BF6C2500201F
:1057600000B583B0009313460A4601460020FFF7B8
:10577000C1FF03B05DF804FB30B583B000210846DB
:10578000FFF7C2FD06238DF804300A230122002111
:1057900001A8FFF7E5FF044601210020FFF7B4FD53
:1057A000FBF76CFF054604E0FBF768FF401B63282E
:1057B0001AD800210846FFF7A7FD05238DF804300D
:1057C0000A230222694601A8FFF7CAFF0440E4B297
:1057D00001210020FFF798FD002CE5D09DF8013055
:1057E00013F0020FE0D000E00024204603B030BDEB
:1057F00070B582B00646FBF741FF05460124FBF772
:105800003DFF401BB04219D200210846FFF77CFD46
:1058100005238DF804300A230222694601A8FFF708
:105820009FFF044001210020FFF76EFD002CE6D011
:105830009DF8013013F0010FE1D100E00024204673
:1058400002B070BD70B582B00C46154603238DF8CA
:105850000430030C8DF80530030A8DF806308DF8FE
:10586000070000210846FFF74FFD0A23042200210C
:105870000DEB0200FFF774FF064630B9012100204E
:10588000FFF742FD304602B070BD4FF4FA732A466E
:1058900021460020FFF764FF0640F6B2EEE710B5A0
:1058A00082B00446FFF768FF034610B9184602B0FD
:1058B00010BD00210846FFF727FDD8238DF80430DE
:1058C000230C8DF80530230A8DF806308DF807403B
:1058D0000A23042200210DEB0200FFF741FF0446DA
:1058E00001210020FFF710FD40F6B830FFF780FFE0
:1058F00004EA0003DBB2D9E738B5B0F1807F11D8F4
:105900004518B5F1807F10D889B1040C013D2D0CEC
:105910000123AC4207D82004FFF7C1FF034610B1B2
:105920000134F6E70023184638BD0023FBE70023C7
:10593000F9E74FF0104070474FF0807070472DE945
:10594000F04182B005460F46164600EB0208FFF70D
:10595000F3FF804540D8EBB2C3F580739E4200D37D
:105960001E46012403E04FF48076A84535D9FFF7A1
:1059700003FFB0B300210846FFF7C6FC02238DF8F1
:1059800004302B0C8DF805302B0A8DF806308DF87D
:1059900007500A23042200210DEB0200FFF7E0FE6E
:1059A0000440E4B20A23324600213846FFF7D8FE0D
:1059B000044001210020FFF7A7FC4FF4FA60FFF735
:1059C00017FF044009D03544374405F580739845E6
:1059D000C9D2A8EB0506C8E70024204602B0BDE8FE
:1059E000F0810446F9E700000E4B1B78012B17D01D
:1059F00000230FE00C4A03EB8301880002EB000C4C
:105A000000211154CCF80410CCF808100244D160E5
:105A10000133DBB2032BEDD90120024B1870704724
:105A200000207047802500208425002010B51D4AE5
:105A3000136801331360002411E004EB8402930027
:105A4000194A0020D054184A01EB81008300134406
:105A500098685860DA68186990470134E4B2032CFA
:105A60001FD8124B1B889BB29C421AD2214604EBD2
:105A7000840293000C4AD35C012BEED104EB840228
:105A80009300094A1A445368013B5360002BE4D148
:105A900004EB84039A00044B13445B78012BD2D1AE
:105AA000CBE710BDD825002084250020D425002078
:105AB000002813DB10B40A4C00EB800C04EB8C0CB8
:105AC0008CF80120CCF80C30019BCCF81030CCF8CD
:105AD0000410CCF808105DF8044B7047704700BF05
:105AE0008425002000280BDB064A00EB800302EB34
:105AF00083039968596000EB8000012302F820308D
:105B0000704700BF84250020074B188800B2032887
:105B100006DC1A461B889BB201339BB21380704788
:105B20004FF0FF30704700BFD425002010B5002390
:105B30000CE00F4C03EB430210012218002121540A
:105B40004FF4614050609162D1620133032BF0DD6C
:105B5000074B084A9A60084A9A63084A9A660124E1
:105B6000074B1C7007490848FEF786FA204610BD0F
:105B7000B8340020DC2D0020DC290020DC250020AA
:105B800078350020715E000804240108032800F223
:105B9000A18070B582B0044600EB40031B014E4A61
:105BA000D05C38B104EB44024B4B03EB02135B684F
:105BB0008B4210D0022C10D9032C0BD1464A04EB97
:105BC000440302EB0313596004EB44042401012055
:105BD000105500E0002002B070BD3F4A04EB4405C0
:105BE00002EB0515696004EB44033C4E06EBC3066B
:105BF000B3682B62F0686862706818602B6A59603D
:105C0000296A00238B60296ACB60296A0B61296AA3
:105C10000C204861296A8B61296ACB61296A0B6271
:105C2000296A4B62296A8B6204EB44000001083048
:105C300010444FF48062A9680430FDF74CFD284BF6
:105C40009A6C42F004029A649A6C02F00402009288
:105C5000009A9A6C42F001029A649B6C03F0010373
:105C60000193019B286A05F09BFB337D43B1002320
:105C70001A461946286A06F015F850B10020AAE71E
:105C800004EB4402144B03EB0213186A05F058FFAF
:105C9000F3E7114A04EB4403190102EB031301205B
:105CA00050544FF480629968186A05F0D5FF78B9AE
:105CB0000120094A04EB440302EB031359691D6AEE
:105CC000D5F880502D686D68491BD960196182E74D
:105CD0000020EEE700207047B8340020E0240108DF
:105CE00000100240032807D800EB40000001034BDE
:105CF00000221A540120704700207047B834002059
:105D000010B5022806D9032802D1FFF79FF800E05A
:105D1000002010BD094900EB400301EB03135A6951
:105D20005C6A24686468121BDA6000EB40000001C2
:105D3000083008440430FDF734FDEAE7B8340020A9
:105D400010B582B0044600238DF80730022806D92A
:105D5000032810D1FFF77EF88DF807000BE000EB69
:105D60004000000108300C4B184401220DF10701DE
:105D70000430FDF7E3FC084B04EB440203EB021292
:105D8000926A04EB440403EB041301329A629DF817
:105D9000070002B010BD00BFB834002038B504467B
:105DA000FBF76CFC054602E02046FFF7C9FF2046E2
:105DB000FFF7A6FF20B1FBF761FC431B092BF3D9CA
:105DC000012038BD38B5044608461546022C13D9C3
:105DD000032C03D11146FFF741F800E000200E4BE1
:105DE00004EB440203EB0212D26A04EB440403EB1B
:105DF00004130244DA6238BD04EB4402064B03EBA1
:105E0000021C6423AAB2DCF8200005F0CBFD08B127
:105E10000020E4E72846E2E7B83400200EB410B5CD
:105E2000C3B0044645AB53F8042B01934FF4807183
:105E300002A809F01DF8024602A92046FFF7C2FF9A
:105E400043B0BDE8104003B07047000003280BD8F2
:105E500008B506D000EB4000044B03EB0013586874
:105E600008BDFEF7FFFFFBE700207047B8340020B5
:105E7000F0B583B004460388012B07D000262388A1
:105E8000022B1FD0002E65D003B0F0BD4369354909
:105E90000020984706460028F1D000200FE0451C5E
:105EA00000EB4002304B53F83270C0B2FFF7CEFF28
:105EB00003463A4629462D48FDF744FE2846032866
:105EC000EDDDDCE763692A49002098470028D9D036
:105ED000A3680120984700280BDDA368012098479C
:105EE00004280FDCA36801209847C4B2013CE4B247
:105EF00000E00024FDF7AAFDA04208D11D48FDF7EF
:105F000021FEC1E70324F5E7FDF702FE78B920463C
:105F1000FFF7F6FE0028F7D02046FFF711FF0246F4
:105F20008DF80700611C1448FDF70CFEECE7FDF747
:105F3000F7FD8DF807007128A6D001220DF10701A9
:105F40002046FFF73FFF9DF80720611C0B48FDF737
:105F5000F9FDDCE70A48FDF7F5FD04210948FDF7E6
:105F6000F1FD91E7841A0108E02401080C240108DE
:105F70002824010868240108302401084C24010861
:105F80007C2401088824010830B59DB00446002116
:105F90001791189119911A911B91442206A808F0A3
:105FA00075FF22686F4B9A420AD022686E4B9A4264
:105FB00049D022686D4B9A4200F08C801DB030BDF4
:105FC0000123069306A804F083FB002835D1684B13
:105FD0001A6E42F480421A661A6E02F480420092EF
:105FE000009ADA6C42F00102DA64DB6C03F0010320
:105FF0000193019BC0231793022318930025199541
:106000001A9507231B9317A95A4802F09DF95A487D
:106010005A4B0360182343608560C5608023036189
:10602000456185612023C361056201F013F938B928
:10603000514BC4F880309C62B7E7FBF723FBC6E7FF
:10604000FBF720FBF4E7022306930023089306A83E
:1060500004F03EFB002837D1454B9A6D42F40032E4
:106060009A659A6D02F400320292029ADA6C42F05A
:106070000102DA64DB6C03F001030393039B0E233C
:106080001793022318930025199503231A930723C6
:106090001B9317A94FF0904002F056F93848394B3E
:1060A00003601A2343608560C560802303614561F6
