:020000040800F2
:1064000000780020299B00088D7B00088F7B000806
:10641000917B0008937B0008957B0008000000003A
:10642000000000000000000000000000997B000850
:10643000977B0008000000009B7B00089D7B000804
:10644000799B0008799B0008799B0008799B0008DC
:1064500081BF0008799B0008799B0008799B0008A0
:10646000799B0008799B0008799B0008799B0008BC
:10647000799B0008799B0008799B0008799B0008AC
:10648000799B000800000000799B0008799B0008B8
:10649000FDD9000845BB0008799B0008799B0008DE
:1064A000799B0008799B0008799B0008799B00087C
:1064B000799B0008799B0008799B0008799B00086C
:1064C000ADC30008799B0008799B0008799B000800
:1064D000799B0008799B0008799B0008799B00084C
:1064E000799B0008799B0008799B0008799B00083C
:1064F000799B0008799B0008799B00080000000048
:1065000000000000799B000800000000799B000853
:10651000799B000800000000799B0008799B000827
:10652000799B0008799B0008799B0008799B0008FB
:10653000799B00080000000000000000799B000823
:10654000799B0008799B0008000000000000000013
:10655000000000000000000000000000000000003B
:10656000000000000000000000000000799B00080F
:10657000799B0008000000000000000000000000FF
:1065800000000000799B00080000000000000000EF
:1065900000000000000000000000000000000000FB
:1065A0000000000000000000799B0008799B0008B3
:1065B000799B0008799B0008799B00080000000087
:1065C00000000000799B00080000000000000000AF
:0865D000799B0008799B00088B
:106800002052455656323530323230523100000077
:106810000000000000000000000000000000000078
:106820000000000053544D33324734333100000030
:106830000000000000000000000000000000000058
:086840000000000000640008E4
:106C000010B5054C237833B9044B13B10448AFF3E6
:106C100000800123237010BDB40300200000000099
:106C2000E492010808B5034B1BB103490348AFF3D5
:106C3000008008BD00000000B8030020E4920108B5
:106C400010F8012B11F8013B012A28BF9A42F7D016
:106C5000D01A704700000000000000000000000093
:106C600001F0FF01102A2BDB10F0070F08D010F8FD
:106C7000013B013A8B422DD010F0070F42B3F6D101
:106C8000F0B441EA012141EA014122F007047FF01A
:106C900000070023F0E80256083C85EA010586EA71
:106CA000010685FA47F5A3FA87F586FA47F6A5FAAD
:106CB00087F68EB9EED1F0BC01F0FF0102F00702B9
:106CC00032B110F8013B013A83EA010313B1F8D164
:106CD0000020704701387047002D06BF3546033845
:106CE000073815F0010F07D1013015F4807F02BF7E
:106CF000013015F4C03F0130F0BC0138704700BFCF
:106D0000034613F8012B002AFBD1181A01387047EB
:106D100081F0004102E000BF83F0004330B54FEA4C
:106D200041044FEA430594EA050F08BF90EA020FB9
:106D30001FBF54EA000C55EA020C7FEA645C7FEA4C
:106D4000655C00F0E2804FEA5454D4EB5555B8BF6F
:106D50006D420CDD2C4480EA020281EA030382EAE0
:106D6000000083EA010180EA020281EA0303362D72
:106D700088BF30BD11F0004F4FEA01314FF4801C45
:106D80004CEA113102D0404261EB410113F0004F57
:106D90004FEA03334CEA133302D0524263EB43030E
:106DA00094EA050F00F0A780A4F10104D5F1200EAC
:106DB0000DDB02FA0EFC22FA05F2801841F1000107
:106DC00003FA0EF2801843FA05F359410EE0A5F1DB
:106DD00020050EF1200E012A03FA0EFC28BF4CF00C
:106DE000020C43FA05F3C01851EBE37101F00045C2
:106DF00007D54FF0000EDCF1000C7EEB00006EEBCF
:106E00000101B1F5801F1BD3B1F5001F0CD3490858
:106E10005FEA30004FEA3C0C04F101044FEA4452AF
:106E200012F5800F80F09A80BCF1004F08BF5FEA36
:106E3000500C50F1000041EB045141EA050130BD16
:106E40005FEA4C0C404141EB0101013C28BFB1F528
:106E5000801FE9D291F0000F04BF01460020B1FA73
:106E600081F308BF2033A3F10B03B3F120020CDA46
:106E70000C3208DD02F1140CC2F10C0201FA0CF024
:106E800021FA02F10CE002F11402D8BFC2F1200C89
:106E900001FA02F120FA0CFCDCBF41EA0C0190403F
:106EA000E41AA2BF01EB0451294330BD6FEA040488
:106EB0001F3C1CDA0C340EDC04F11404C4F1200273
:106EC00020FA04F001FA02F340EA030021FA04F385
:106ED00045EA030130BDC4F10C04C4F1200220FADC
:106EE00002F001FA04F340EA0300294630BD21FA1A
:106EF00004F0294630BD94F0000F83F4801306BFE0
:106F000081F480110134013D4EE77FEA645C18BFD3
:106F10007FEA655C29D094EA050F08BF90EA020F6A
:106F200005D054EA000C04BF1946104630BD91EA62
:106F3000030F1EBF0021002030BD5FEA545C05D165
:106F40004000494128BF41F0004130BD14F58004A4
:106F50003CBF01F5801130BD01F0004545F0FE4118
:106F600041F470014FF0000030BD7FEA645C1ABF4D
:106F7000194610467FEA655C1CBF0B46024650EA84
:106F8000013406BF52EA033591EA030F41F40021B0
:106F900030BD00BF90F0000F04BF0021704730B536
:106FA0004FF4806404F132044FF000054FF000010B
:106FB00050E700BF90F0000F04BF0021704730B5CC
:106FC0004FF4806404F1320410F0004548BF4042A1
:106FD0004FF000013EE700BF42004FEAE2014FEAF6
:106FE00031014FEA02701FBF12F07F4393F07F4FD1
:106FF00081F06051704732F07F4208BF704793F0D4
:107000007F4F04BF41F40021704730B54FF46074E6
:1070100001F0004521F000411CE700BF50EA0102E9
:1070200008BF704730B54FF000050AE050EA010292
:1070300008BF704730B511F0004502D5404261EB02
:1070400041014FF4806404F132045FEA915C3FF443
:10705000D8AE4FF003025FEADC0C18BF03325FEAE0
:10706000DC0C18BF033202EBDC02C2F1200300FA91
:1070700003FC20FA02F001FA03FE40EA0E0021FAB6
:1070800002F11444BDE600BF70B54FF0FF0C4CF4A4
:10709000E06C1CEA11541DBF1CEA135594EA0C0F56
:1070A00095EA0C0F00F0DEF82C4481EA030621EA91
:1070B0004C5123EA4C5350EA013518BF52EA0335CC
:1070C00041F4801143F4801338D0A0FB02CE4FF07E
:1070D0000005E1FB02E506F00042E0FB03E54FF0AE
:1070E0000006E1FB03569CF0000F18BF4EF0010EA6
:1070F000A4F1FF04B6F5007F64F5407404D25FEAA2
:107100004E0E6D4146EB060642EAC62141EA555154
:107110004FEAC52040EA5E504FEACE2EB4F1FD0C96
:1071200088BFBCF5E06F1ED8BEF1004F08BF5FEA14
:10713000500E50F1000041EB045170BD06F00046C6
:1071400046EA010140EA020081EA0301B4EB5C0473
:10715000C2BFD4EB0C0541EA045170BD41F480116B
:107160004FF0000E013C00F3AB8014F1360FDEBF90
:10717000002001F0004170BDC4F10004203C35DA6C
:107180000C341BDC04F11404C4F1200500FA05F3EF
:1071900020FA04F001FA05F240EA020001F0004290
:1071A00021F0004110EBD37021FA04F642EB060106
:1071B0005EEA430E08BF20EAD37070BDC4F10C0430
:1071C000C4F1200500FA04F320FA05F001FA04F2F4
:1071D00040EA020001F0004110EBD37041F10001E0
:1071E0005EEA430E08BF20EAD37070BDC4F12005EB
:1071F00000FA05F24EEA020E20FA04F301FA05F253
:1072000043EA020321FA04F001F0004121FA04F2FA
:1072100020EA020000EBD3705EEA430E08BF20EACA
:10722000D37070BD94F0000F0FD101F00046400004
:1072300041EB010111F4801F08BF013CF7D041EA86
:10724000060195F0000F18BF704703F0004652008A
:1072500043EB030313F4801F08BF013DF7D043EA5B
:107260000603704794EA0C0F0CEA135518BF95EA11
:107270000C0F0CD050EA410618BF52EA4306D1D198
:1072800081EA030101F000414FF0000070BD50EAB7
:10729000410606BF1046194652EA430619D094EA41
:1072A0000C0F02D150EA013613D195EA0C0F05D12B
:1072B00052EA03361CBF104619460AD181EA03017F
:1072C00001F0004141F0FE4141F470014FF0000037
:1072D00070BD41F0FE4141F4780170BD70B54FF0D2
:1072E000FF0C4CF4E06C1CEA11541DBF1CEA135552
:1072F00094EA0C0F95EA0C0F00F0A7F8A4EB050434
:1073000081EA030E52EA03354FEA013100F088802A
:107310004FEA03334FF0805545EA131343EA1263F3
:107320004FEA022245EA111545EA10654FEA0026A8
:107330000EF000419D4208BF964244F1FD0404F561
:10734000407402D25B084FEA3202B61A65EB0305BD
:107350005B084FEA32024FF480104FF4002CB6EB7A
:10736000020E75EB030E22BFB61A754640EA0C00FA
:107370005B084FEA3202B6EB020E75EB030E22BF3A
:10738000B61A754640EA5C005B084FEA3202B6EB7B
:10739000020E75EB030E22BFB61A754640EA9C003A
:1073A0005B084FEA3202B6EB020E75EB030E22BF0A
:1073B000B61A754640EADC0055EA060E18D04FEAC8
:1073C000051545EA16754FEA06164FEAC30343EA68
:1073D00052734FEAC2025FEA1C1CC0D111F4801F35
:1073E0000BD141EA00014FF000004FF0004CB6E72E
:1073F00011F4801F04BF01430020B4F1FD0C88BFCD
:10740000BCF5E06F3FF6AFAEB5EB030C04BFB6EBD7
:10741000020C5FEA500C50F1000041EB045170BDCA
:107420000EF0004E4EEA113114EB5C04C2BFD4EBF7
:107430000C0541EA045170BD41F480114FF0000E7B
:10744000013C90E645EA060E8DE60CEA135594EAF7
:107450000C0F08BF95EA0C0F3FF43BAF94EA0C0FFA
:107460000AD150EA01347FF434AF95EA0C0F7FF46F
:1074700025AF104619462CE795EA0C0F06D152EAC3
:1074800003353FF4FDAE1046194622E750EA4106A7
:1074900018BF52EA43067FF4C5AE50EA41047FF4B8
:1074A0000DAF52EA43057FF4EBAE12E74FF0FF3C1D
:1074B00006E000BF4FF0010C02E000BF4FF0010CEE
:1074C0004DF804CD4FEA410C7FEA6C5C4FEA430C67
:1074D00018BF7FEA6C5C1BD001B050EA410C0CBFB6
:1074E00052EA430C91EA030F02BF90EA020F002018
:1074F000704710F1000F91EA030F58BF994208BF7F
:1075000090422CBFD8176FEAE37040F0010070473B
:107510004FEA410C7FEA6C5C02D150EA013C07D192
:107520004FEA430C7FEA6C5CD6D152EA033CD3D0DD
:107530005DF8040B704700BF8446104662468C46D7
:107540001946634600E000BF01B5FFF7B7FF00280A
:1075500048BF10F1000F01BD4DF808EDFFF7F4FF33
:107560000CBF012000205DF808FB00BF4DF808EDBE
:10757000FFF7EAFF34BF012000205DF808FB00BFE1
:107580004DF808EDFFF7E0FF94BF012000205DF803
:1075900008FB00BF4DF808EDFFF7CEFF94BF0120B8
:1075A00000205DF808FB00BF4DF808EDFFF7C4FFB1
:1075B00034BF012000205DF808FB00BF4FEA410CFA
:1075C0007FEA6C5C02D150EA013C0AD14FEA430CDD
:1075D0007FEA6C5C02D152EA033C02D14FF000001A
:1075E00070474FF0010070474FEA410212F5001258
:1075F00015D211D56FF47873B3EB625212D94FEAFA
:10760000C12343F0004343EA505311F0004F23FAE3
:1076100002F018BF404270474FF00000704750EA38
:10762000013005D111F0004008BF6FF000407047F5
:107630004FF00000704700BF4A0011D212F500124F
:1076400011D20DD56FF47873B3EB62520ED44FEABA
:10765000C12343F0004343EA505323FA02F070473A
:107660004FF00000704750EA013002D14FF0FF3078
:1076700070474FF0000070474FEA4102B2F1E0431B
:1076800024BFB3F5001CDCF1FE5C0DD901F0004C09
:107690004FEAC0024CEA5070B2F1004F40EB830059
:1076A00008BF20F00100704711F0804F21D113F185
:1076B0003872BCBF01F00040704741F480114FEABE
:1076C0005252C2F11802C2F1200C10FA0CF320FA47
:1076D00002F018BF40F001004FEAC1234FEAD32364
:1076E00003FA0CFC40EA0C0023FA02F34FEA4303CE
:1076F000CCE77FEA625307D150EA01331EBF4FF057
:10770000FE4040F44000704701F0004040F0FE4071
:1077100040F40000704700BF53B94AB9002908BFC0
:1077200000281CBF4FF0FF314FF0FF3000F0A0B930
:10773000ADF1080C6DE904CE00F03CF8DDF804E092
:10774000DDE9022304B0704738B500220023044667
:107750000D46FFF70BFF28B920462946BDE8384003
:1077600000F00AB8204605F1004100F005F840425B
:1077700061EB410138BD00BFD0B50C4B002206467D
:107780000F46FFF781FCFFF757FF0446FFF702FCA7
:10779000074B0022FFF778FC02460B46304639467D
:1077A000FFF7BAFAFFF748FF2146D0BD0000F03DD1
:1077B0000000F0412DE9F047089D0C46002B4ED10A
:1077C00094468C458646B2FA82F262D94AB1C2F139
:1077D0002003914020FA03F30CFA02FC194300FA4B
:1077E00002FE4FEA1C471FFA8CF6B1FBF7F44FEA92
:1077F0001E4307FB141143EA014304FB06F19942BF
:107800000AD91CEB030304F1FF3080F01281994286
:1078100040F20F81023C6344591A1FFA8EF3B1FB08
:10782000F7F007FB101143EA014300FB06F69E4206
:107830000AD91CEB030300F1FF3180F0FC809E426B
:1078400040F2F980634402389B1B40EA0440002167
:107850001DB1D3400022C5E90032BDE8F0878B425C
:1078600005D90DB1C5E9000100210846F5E7B3FAD5
:1078700083F1002946D1A34202D39042C0F0F080A8
:10788000861A64EB03030120002DE6D0C5E90063EE
:10789000E3E7002A40F09080A1EB0C044FEA1C487B
:1078A0001FFA8CF70121B4FBF8F64FEA1E4308FBE0
:1078B000164443EA044307FB06F0984208D91CEB40
:1078C000030306F1FF3402D2984200F2CD8026462F
:1078D0001C1A1FFA8EF3B4FBF8F008FB104443EABD
:1078E000044300FB07F79F4208D91CEB030300F198
:1078F000FF3402D29F4200F2B0802046DB1B40EAF8
:107900000640A5E7C1F120068B4022FA06F71F4387
:1079100020FA06FC04FA01F343EA0C03F44000FAEF
:1079200001F8380C4FEA1349B4FBF0FE1FFA87FC4C
:1079300000FB1E4449EA04440EFB0CF9A14502FA7F
:1079400001F20AD93C190EF1FF3A80F08480A1457A
:1079500040F28180AEF1020E3C44A4EB09041FFA10
:1079600083F9B4FBF0F300FB134449EA044403FB3E
:107970000CFCA44507D93C1903F1FF3067D2A4459C
:1079800065D9023B3C4443EA0E40A0FB0293A4EBC2
:107990000C049C42CE469C4651D34ED055B1B8EB18
:1079A0000E0364EB0C0404FA06F6CB401E43CC40F5
:1079B000C5E90064002150E7C2F1200320FA03F179
:1079C0000CFA02FC24FA03F394400C434FEA1C48DF
:1079D00000FA02FE1FFA8CF7B3FBF8F008FB103137
:1079E000230C43EA014300FB07F1994208D91CEB41
:1079F000030300F1FF362CD299422AD9023863449E
:107A00005B1AA4B2B3FBF8F108FB113344EA034458
:107A100001FB07F3A34208D91CEB040401F1FF3674
:107A200013D2A34211D902396444E41A41EA004155
:107A300039E70446F0E6084606E7C845AED2B9EB9A
:107A4000020E63EB070C0138A8E73146EDE7034669
:107A500099E73046D4E7D6467FE7634402384DE7DE
:107A60000646234608460FE7023E634430E700BF60
:107A7000704700BF08B506F0A3FD08BD08B506F0C5
:107A800099FD08BD72B6FEE710B5A4B038220021FA
:107A900016A80EF09FFE00241194129413941494CF
:107AA00015944422214668460EF094FE204609F0C3
:107AB00055FC09F04BFC214AD2F8903023F0180312
:107AC000C2F89030252316934FF480331793012288
:107AD00018921C9202231D9303211E911F922822AB
:107AE0002092219304222292239316A809F0F0FCFD
:107AF000E8B90F23119303231293002313931493D4
:107B00001593042111A809F099FF90B90C4B00932B
:107B1000002306934FF080720C920D934FF4807304
:107B2000109368460AF0B0F828B924B010BDFFF7EA
:107B3000A9FFFFF7A7FFFFF7A5FF00BF0010024056
:107B40004030080008B506F019FDFFF79DFF012041
:107B500008BD000000B583B00B4B1A6E42F0010265
:107B60001A661A6E02F001020092009A9A6D42F0B3
:107B700080529A659B6D03F080530193019B09F03D
:107B800073FC03B05DF804FB00100240FEE7FEE763
:107B9000FEE7FEE7FEE770477047704708B506F05E
:107BA000FDFC08BD0120704708B50EF0A3FE1623AA
:107BB00003604FF0FF3008BD08B54FF0FF31FFF70D
:107BC000F3FFFEE770B50C461646002506E0AFF35E
:107BD0000080214601F8010B01350C46B542F6DB69
:107BE000304670BD70B50C461646002504E014F80A
:107BF000010BAFF300800135B542F8DB304670BDB4
:107C00004FF0FF3070474FF400534B600020704737
:107C1000012070470020704710B503460C4A0D49FB
:107C20000D48006840B10C4800680344521A934262
:107C300006D8094A136010BD0748084C0460F2E7F3
:107C40000EF058FE0C2303604FF0FF30F3E700BF47
:107C50000078002000040000D0030020904F002096
:107C6000034AD2F8883043F47003C2F88830704772
:107C700000ED00E02DE9F003D0E90089D0E90267CA
:107C8000D0E90445D0E90623B3F1FF3F08BFB2F1C4
:107C9000FF3F13D1B5F1FF3F08BFB4F1FF3F11D152
:107CA000B7F1FF3F08BFB6F1FF3F0DD1B9F1FF3F7C
:107CB00008BFB8F1FF3F09D1002000E00420BDE873
:107CC000F00370470320FAE70220F8E70120F6E707
:107CD00038B5044600F5803C4FEACC2C294BB3F86C
:107CE000E0204FF6FF739A4218D0274BD3F8E025D7
:107CF000264B03EA82234FF4F032B2FBF3F203FB8C
:107D000002CC0CF108050CF110000CF1180E013931
:107D1000032931D8DFE801F005101B254FF40033AB
:107D2000E9E74FF0AA324FF0AA33604600F074FC46
:107D300020BB174B1C7038BD4FF0AA324FF0AA334E
:107D4000284600F069FCD8B9114B1C70F3E74FF0DE
:107D5000AA324FF0AA3300F05FFC0028EBD00220DB
:107D6000E9E74FF0AA324FF0AA33704600F054FC16
:107D70000028E0D00220DEE70020DCE70220DAE77E
:107D80000220D8E70075FF1F0070FF1F00FCFF03F3
:107D9000D403002038B53C4BB3F8E0204FF6FF7316
:107DA0009A420FD0394BD3F8E025394B03EA8223AE
:107DB0004FF4F034B4FBF3F403FB04F4C4F5F034F3
:107DC000E40A51E04FF40033F2E7651CA31CAB4218
:107DD00007D80221204600F025FC044600B3012408
:107DE0004DE005F58032D202274BB3F8E0104FF694
:107DF000FF73994211D0254BD3F8E015244B03EAC9
:107E000081234FF4F030B0FBF3F003FB0020FFF7C9
:107E100031FF042835D10135D8E74FF40033F0E7BE
:107E200000F022FC2BE0194BD3F8E035184A02EAA7
:107E300083224FF4F033B3FBF2F302FB03F3C3F5F9
:107E4000F033DB0A0433A34218D904F580304FF431
:107E5000F033B3FBF2F302FB03F303EBC020FFF7B5
:107E600009FF0428B1D00234074BB3F8E0204FF6E5
:107E7000FF739A42D7D14FF40032DAE70524204647
:107E800038BD0524FBE700BF0075FF1F0070FF1F12
:107E900000FCFF03F8B50646644B1D7805F58032FB
:107EA000D202634BB3F8E0104FF6FF73994256D0FD
:107EB000604BD3F8E015604B03EA81234FF4F030B8
:107EC000B0FBF3F003FB0020FFF7D4FE0746584B4E
:107ED000B3F8E0204FF6FF739A4243D0554BD3F8E6
:107EE000E035554A02EA83224FF4F033B3FBF2F354
:107EF00002FB03F3C3F5F032A5EBD224013404F006
:107F0000030404EBD22404F5803003EBC020FFF718
:107F1000B1FE474BB3F8E0204FF6FF739A4224D0EE
:107F2000444BD3F8E035444A02EA83224FF4F0335D
:107F3000B3FBF2F302FB03F3C3F5F033A5EBD3225B
:107F4000033202F0030202EBD322012E10D0022EE4
:107F500057D0002E4CD04FF0FF352846F8BD4FF4D7
:107F60000033ABE74FF40032BEE74FF40032DDE7F9
:107F7000022F19D0012F4DD1304B1B68B3F5006F84
:107F8000EBD304282DD003212846FFF7A1FE0028BB
:107F900043D101212046FFF79BFE002840D1274B0B
:107FA00020221A602546D8E7244B1B68B3F5006FE2
:107FB000D3D304280ED003212846FFF789FE18BB2F
:107FC00002212046FFF784FE08BB1C4B20221A60CA
:107FD0002546C2E7FFF7DEFE0028ECD04FF0FF3564
:107FE000BBE7FFF7D7FE0028CDD04FF0FF35B4E751
:107FF000022FB2D0012F02D04FF0FF35ADE715466A
:10800000ABE780B92546A8E74FF0FF35A5E74FF06D
:10801000FF35A2E74FF0FF359FE74FF0FF359CE7B4
:108020004FF0FF3599E74FF0FF3596E7D403002076
:108030000075FF1F0070FF1F00FCFF0304000020FD
:1080400038B53C4BB3F8E0204FF6FF739A420FD09F
:10805000394BD3F8E025394B03EA82234FF4F0344F
:10806000B4FBF3F403FB04F4C4F5F034E40A51E088
:108070004FF40033F2E7651CA31CAB4207D8022182
:10808000204600F0E1FA044600B301244DE005F576
:108090008032D202274BB3F8E0104FF6FF739942BB
:1080A00011D0254BD3F8E015244B03EA81234FF47C
:1080B000F030B0FBF3F003FB0020FFF7DBFD0428FA
:1080C00035D10135D8E74FF40033F0E700F0CCFAB2
:1080D0002BE0194BD3F8E035184A02EA83224FF41B
:1080E000F033B3FBF2F302FB03F3C3F5F033DB0A27
:1080F0000433A34218D904F580304FF4F033B3FBB6
:10810000F2F302FB03F303EBC020FFF7B3FD0428F7
:10811000B1D00234074BB3F8E0204FF6FF739A4218
:10812000D7D14FF40032DAE70524204638BD0524C4
:10813000FBE700BF0075FF1F0070FF1F00FCFF037F
:10814000044B9A6842F001029A601860198018681E
:1081500080B27047003002402DE9F04780468A46E1
:108160000020FFF797FEB0F1FF3F67D0814600F592
:108170008035ED02324BB3F8E0204FF6FF739A42A0
:108180000FD0304BD3F8E0252F4B03EA82234FF476
:10819000F032B2FBF3F203FB02552846FFF76AFD0B
:1081A00040E04FF40033F2E7083C1F2C16D92B199E
:1081B000D3E90067B7F1FF3F08BFB6F1FF3FF3D047
:1081C000B1B24145F0D13846FFF7BAFFB0EB164FD8
:1081D000EAD1CAF800700020BDE8F087184BB3F868
:1081E000E0204FF6FF739A4223D0164BD3F8E025D8
:1081F000154B03EA82234FF4F035B5FBF3F503FB8F
:1082000005F5C5F5F033A9EBD32909F1030909F008
:10821000030909EBD32909F5803305EBC32528466B
:10822000FFF728FD0238C0B2022805D84FF4FF64DA
:10823000BBE74FF40033DEE70720CDE70320CBE7B1
:108240000075FF1F0070FF1F00FCFF03431E9BB261
:108250004FF6FD72934201D90820704710B582B0E5
:108260000C460023019301A9FFF776FF9DF8043027
:10827000237002B010BD0000234B1B88B3F5FC7FB8
:108280003BD270B506460D460120FFF703FEB0F164
:10829000FF3F34D000F58034E4021C4BB3F8E020FB
:1082A0004FF6FF739A4223D0194BD3F8E025194BB0
:1082B00003EA82234FF4F032B2FBF3F203FB0244F1
:1082C00005B9C6B131462846FFF73AFF124B196887
:1082D00046EA00422B46601800F09EF988B90E4A23
:1082E000136808331360084A13880133138070BD84
:1082F0004FF40033DEE72846E8E7122070470320FA
:10830000F5E70220F3E700BFD60300200075FF1F4A
:108310000070FF1F00FCFF0304000020F0B583B0D5
:1083200005460E46002301931746002A4ED102202F
:10833000FFF7B0FD0446B0F1FF3F00F03B81A34BD7
:1083400000221A80A24B1870A24B20221A60002F24
:108350003ED0A14BB3F8E0204FF6FF739A423ED0D7
:108360009E4BD3F8E0359E4A02EA83224FF4F03365
:10837000B3FBF2F302FB03F3C3F5F032A4EBD22418
:10838000033404F0030404EBD22404F5803003EB3F
:10839000C020FFF76FFC022824D0042829D0012F29
:1083A00040F00C81032840F00B81012F00F0A980E0
:1083B00031462846FFF760FF002840F00381834BD9
:1083C0001C88022C40F2E980023CD7E00120AFE794
:1083D0000121FFF77DFC0028BBD00223E7E04FF42A
:1083E0000032C3E704212046FFF772FC002840F06A
:1083F000E380794BB3F8E0204FF6FF739A421BD02D
:10840000764BD3F8E035764A02EA83224FF4F03314
:10841000B3FBF2F302FB03F3C3F5F032A4EBD22477
:10842000033404F0030404EBD22404F5803003EB9E
:10843000C020FFF71FFC20E04FF40032E6E70421E4
:108440002046FFF745FCF0B10223B0E04FF40032C4
:108450004FF4F033B3FBF2F302FB03F3C3F5F03256
:10846000A4EBD224033404F0030404EBD22404F577
:10847000803003EBC020FFF7FDFBC31EDBB2012BF6
:1084800093D80328DBD0544BB3F8E0204FF6FF73AA
:108490009A42DBD0514BD3F8E035514A02EA8322AD
:1084A000D6E74E4AD2F8E0154D4A02EA81224FF44F
:1084B000F031B1FBF2F102FB01330344D3E90023B5
:1084C000B3F1FF3F08BFB2F1FF3F1CD03F4A138812
:1084D000013313803F4A1368083313600830B0F546
:1084E000006F10D23A4B1B7803F58033DB023A4A17
:1084F000B2F8E0104FF6FF729142D2D14FF4003241
:10850000D5E72020EBE7324B1C7800271EE04FF424
:1085100000324FF4F033B3FBF2F302FB03F3C3F585
:10852000F032A4EBD224033404F0030404EBD2248D
:1085300004F5803003EBC020FFF79CFB03287FF499
:1085400037AF224A1388FC3313800137032F3FF6DD
:108550002FAF214BB3F8E0204FF6FF739A42D6D0ED
:108560001E4BD3F8E0351E4A02EA8322D1E7019977
:108570003046FFF781FE0346C8B90134802C0ED87F
:10858000A542FAD0A6B201A93046FFF7E5FD0346A1
:108590000028ECD00728F0D009E00124EEE7022102
:1085A0000B4B1878FFF794FB70B94FF480731846A3
:1085B00003B0F0BD0423FAE70223F8E70A23F6E745
:1085C0000A23F4E70223F2E70223F0E7D6030020B0
:1085D000D4030020040000200075FF1F0070FF1F5F
:1085E00000FCFF0338B504460D46FFF745FE122890
:1085F00000D038BD002229462046FFF78FFEF8E75D
:1086000008B5431E9BB24FF6FD72934201D9082074
:1086100008BDFFF7E7FFFBE708B50146002006F0BD
:10862000F3FF08BD00B587B00023019302930591C5
:1086300004900123039301A902A807F0EBF800B10D
:10864000012007B05DF804FB00B585B0002300935E
:108650000391029001230193684607F051F800B19D
:10866000012005B05DF804FB084B1A6822F4806213
:108670001A601A6842F480521A601A6822F4805212
:108680001A601A6842F480621A6070470020024043
:1086900008B505F0F1FE00F004F800F006F800203F
:1086A00008BD08B501F0F2F908BD08B501F020FADF
:1086B000FCE700B583B08C46418A009313466246BE
:1086C00003F0FEFB03B05DF804FB0000F0B583B0DF
:1086D00001F048F84368984710B1002003B0F0BD9E
:1086E000002407E04FF4856304FB03F3284AD35CBE
:1086F00023B90134002CF5DD0120EFE74FF4856349
:1087000003FB0426304603F0ECFA18B9304600F0BB
:10871000E6FAEEE7304600F0E3FA0746002500E00F
:1087200001351C4B1B68AB421DDD1A4B5A684FEAE2
:10873000051E02EB05110889154B4FF4856C0CFBE7
:1087400004335B8A9842EBD112F80E20104B0CFBDD
:1087500004331B7C9A42E3D1CB683046984747EA02
:108760000003DFB2DCE7002FD0D1094B4FF4856264
:1087700002FB04331B7C002BC8D1054902FB04110A
:10878000002300932322498A304603F099FBBDE77A
:1087900078040020D803002038B5184A184B9B1ADB
:1087A0001B09184C23606260174803F05FFF2168C3
:1087B000164803F05BFF002409E0124B5B6803EBF3
:1087C00004135A682146124803F050FF01340D4B40
:1087D0001B68A342F1DC0F4D0F4A0221284600F02E
:1087E00061F80E4C2946204603F05AFA204603F061
:1087F00062FA00F072FA012038BD00BF08AD01082E
:1088000088AD0108D803002050930108689301083F
:1088100078930108E003002040420F007804002014
:1088200010B582B0049C0194009313460A46014699
:10883000024803F0FBFA02B010BD00BF780400202C
:10884000004870470800002008B5007804F07AFD61
:1088500008BD08B5007804F033FD08BD08B5007800
:1088600004F05CFD08BD38B50446057801F04CFB0A
:10887000854203D0207804F003FD38BD0020FCE7DA
:1088800008B5007804F0EEFC08BD000010B5044601
:10889000034803F0EBFE6168207804F037FC10BD5C
:1088A0008893010801704260094BC0F88030094B81
:1088B000C0F88430084BC0F88830084BC0F88C30C2
:1088C000074BC0F89030074BC0F894300120704738
:1088D0008D88000881880008678800085D88000886
:1088E000538800084988000800B583B0054B012271
:1088F0001A60418A04220092002203F0E1FA03B0D8
:108900005DF804FBC409002000B583B0418A482308
:108910000093034B002203F0D3FA03B05DF804FB8D
:108920000064000800B583B0418A0022009213461B
:1089300003F0C6FA03B05DF804FB000000B583B095
:108940000022054B1A70418A0092134603F0B8FAD0
:1089500003B05DF804FB00BFA408002010B594B07C
:108960000446D82200211D480DF034FF1C4B1A6824
:1089700003F14E2303F58A0320339A421CD0194B8E
:108980001A6803F19E43A3F53B03A3F5AF539A4244
:1089900018D0482202A9144803F0A9FB029A134BED
:1089A0009A4215D0D82300930C4B0022618A2046AE
:1089B00003F086FA14B010BD4822094907480DF0AB
:1089C000CEFFDCE74822074909480DF0C8FFE0E781
:1089D000482202A907480DF0C2FFE3E7EC08002097
:1089E0000004000800680008000800902052455666
:1089F000340900207C09002030B583B00546D0F84A
:108A000024140B784A7843EA02238A7843EA024323
:108A1000CA7843EA02630C794A7944EA02248A79E3
:108A200044EA0244CA7944EA02641A19B2F5C43F1E
:108A300009D30D220094D5F82434698A284603F01E
:108A40003FFA03B030BD224603F1104003F04FFB64
:108A500008B10022EEE70E22ECE710B582B0044622
:108A6000D0F824341A78597842EA0122997842EAF7
:108A70000142D97842EA01621979587941EA002124
:108A8000987941EA0041DB7941EA03615318B3F573
:108A9000C43F08D30D2200230093618A204603F0CF
:108AA0000FFA02B010BD02F1104003F09BFA08B1BA
:108AB0000022F0E70C22EEE72DE9F0438BB00646EA
:108AC000D0F8241491F800804B7848EA03288B787A
:108AD00048EA0348CB7848EA03680F794B7947EABC
:108AE00003278B7947EA0347CB7947EA036708EB0B
:108AF0000704B4F5C43F0BD34FF00D0900230093D6
:108B00004A46718A304603F0DBF90BB0BDE8F083CA
:108B10003A46083108F1104003F0B6FA80B31A4B18
:108B20001B782BB1194B1B68434501D8174B1C60B0
:108B30000025A94605E04FF00E092544B9F1000FC4
:108B4000DCD1BD42DAD27C1B202C28BF202405EBCF
:108B50000800224602A900F1104003F0C8FA0023E1
:108B6000A342EAD2D6F82424E9180831515C03F173
:108B700028026A4412F8202C9142DCD10133EFE73D
:108B80004FF00E09BAE700BFA4080020A00800209B
:108B90002DE9F043A9B00746142202A94FF0104076
:108BA00003F0A5FA029A224B9A4209D0132200231D
:108BB0000093798A384603F083F929B0BDE8F08341
:108BC000DDF81080B8F5C43F2FD2039B03F11049A4
:108BD0000026ADF89E600BE004F1A0036B4413F88F
:108BE000841C0DF19E0001F043F80134A542F3D836
:108BF000B0450ED9A8EB0605802D00D980252A4660
:108C000007A906EB090003F072FA60B12E440024B4
:108C1000ECE70022002ACAD1BDF89E30059999429E
:108C2000C5D01122C3E71522F4E71422BFE700BF25
:108C30002047415400B583B0418A00220092134678
:108C400003F03EF96420FEF715FF022003F0E2FD79
:108C500003F0DCFD03B05DF804FB000010B582B04A
:108C600004460D4B00221A60C38A442B08D00D2203
:108C700000230093618A204603F022F902B010BD60
:108C80004422D0F8241405480DF069FE044B01225B
:108C90001A700022ECE700BFA0080020A8080020FE
:108CA000A408002010B582B00446012003F086FB22
:108CB000022003F083FB3220FEF7DCFE012003F0EC
:108CC0008DFB022003F08AFB002200921346618A8A
:108CD000204603F0F5F802B010BD01207047704740
:108CE00008B5438A102B3AD8DFE803F0090D39396B
:108CF00039391115191D2125292D31393500FFF775
:108D0000F3FD01202CE0FFF729FE012028E0FFF70A
:108D1000FBFD012024E0FFF7A0FE012020E0FFF78B
:108D2000CBFE01201CE0FFF767FE012018E0FFF7F3
:108D30002FFF012014E0FFF77DFF012010E0FFF777
:108D4000F1FD01200CE0FFF789FF012008E0FFF7AB
:108D5000F5FD012004E0FFF7A5FF012000E0002061
:108D600008BD0120704710B500F0FCFC036898476F
:108D7000012829D9044602282BD100F0F3FC4368CE
:108D80009847012805D001F0BFF8C0B901F010FBE9
:108D90001FE004F04DFD38B9002401F0B5F8A04201
:108DA00008D101F005FB14E004F066FD0128F4D0C1
:108DB0000024F2E70021204601F08EF8F1E70021BF
:108DC000084601F089F8E1E701F09EF818B901F0D2
:108DD000EFFA012010BD0021084601F07DF8F6E70A
:108DE00008B54FF4E131002001F076F8024800F0B8
:108DF00045F8012008BD00BF638D000808B5014695
:108E0000044B187800B908BD0122034800F0F3FEB6
:108E1000F9E700BF600A00204C0A002010B5064B9D
:108E20001C780CB9204610BD044800F017FF00283C
:108E3000F8D10024F6E700BF600A00204C0A0020A9
:108E400008B50023094A136005E0084A02EB8302D3
:108E50000021516001330F2BF7DD08231A46044926
:108E6000044800F093FE044B187008BDC8090020A8
:108E70000C0A00204C0A0020600A0020064B1B68E8
:108E80000F2B07DC044A02EB8301486001331360B7
:108E90000120704700207047C809002008B501462E
:108EA000044B187800B908BD0122034800F079FE90
:108EB000F9E700BF600A00204C0A002030B583B0FB
:108EC000134B1D7805B3FFF7A9FFE8B16846FFF71C
:108ED00095FF0028F7D09DF80010019A0D4B53F82C
:108EE00021100D4803F0C2FB002402E068469847B9
:108EF00001340A4B1B68A342E5DD084B03EB8403F6
:108F00005B68002BF2D1F3E7284603B030BD00BF09
:108F1000600A002010000020A0930108C80900206A
:108F200008B5FEF7ABFD084B1B68C01AB0F5FA7F19
:108F300001D2012008BDFEF7A1FD034B18600020FF
:108F400003F088FAF5E700BF740A002010B582B07C
:108F500004F09AF8041E0DDB00230093074B022255
:108F60000A21204604F064F8204604F07BF8012032
:108F700002B010BD024803F079FBF8E7858F0008C6
:108F8000D893010810B5404B1B78012B23D0022B3E
:108F900032D043B13D4B1B78012B53D0022B63D011
:108FA000002B38D010BD00F067FA036898470446DC
:108FB00000F040FD03689847044314F0FF0FE9D028
:108FC000314B01221A70022003F0F8F9FEF756FD2A
:108FD0002F4B1860DEE7FEF751FD2D4B1B68C01AC2
:108FE0003128D7D90220284B187003F0F7F9FEF783
:108FF00045FD274B1860CDE7FEF740FD244B1B686D
:10900000C01A3128C6D9204B00221A70FEF736FD4F
:109010001F4B1860BEE700F02FFA436898470446DC
:1090200000F008FD43689847044314F0FF0FB9D0DF
:109030000120164B187003F0C1F9FEF71FFD154B08
:109040001860AFE7FEF71AFD124B1B68C01A3128F3
:10905000A8D90E4B02221A70012003F0BFF9FEF7C7
:109060000DFD0C4B18609DE7FEF708FD094B1B68D2
:10907000C01A312896D9054B00221A70FEF7FEFC63
:10908000044B18608EE700BF680A0020700A0020B9
:10909000640A00206C0A0020024B187800221A7023
:1090A000704700BF830A0020024B187800221A7014
:1090B000704700BF820A002070B590B00F4B1C783B
:1090C00014B9204610B070BD05460D4B1B788DF8C5
:1090D00000300C4B1B788DF801300B4B1B68CDF822
:1090E00002300A4B1B68CDF80630FFF7A9FB466833
:1090F0000A236A4600212846B047E2E7840A002096
:10910000810A0020800A00207C0A0020780A0020C2
:1091100030B5D7B000F026FB0368984702280CD082
:10912000354B01221A70344B1B7883B9334B1B78B3
:10913000002B56D1012057B030BD00F013FB43681F
:1091400098470128ECD12C4B00221A70EBE701F074
:10915000DBFF002001F0D8FE0028E7D003A90020A3
:1091600001F064FF264B01221A70FEF787FC8DF890
:109170005800C0F307208DF859009DF854308DF841
:109180005A309DF853308DF85B309DF852308DF891
:109190005C30039B8DF85D301A0A8DF85E201A0C46
:1091A0008DF85F201B0E8DF86030BDF810C08DF873
:1091B00061C000230A2407E003AA1A449079621CC4
:1091C00016A908550133D4B29C45F5DCFFF738FBEE
:1091D0000568009416AB00224FF489710520A8475A
:1091E000A4E704F025FB0028A4D1044B00221A7048
:1091F000044803F03BFA9DE7850A0020840A00201A
:10920000820A00200C94010870B50546074803F057
:109210002DFA0024064B1C70FFF712FB466823460C
:10922000224621462846B047012070BD0C94010813
:10923000840A002008B50349034801F07BF90120A6
:1092400008BD00BF4D9200082494010808B50388AA
:10925000012B13D143690D490020984770B10C4B85
:109260001B787BB10B490C4800F0CAFE0B4B1B78F6
:1092700053B108490A4800F0C3FE02E0094800F073
:10928000BFFE08BD0849EEE70749F3E73C94010833
:10929000850A00202C94010854940108840A0020B7
:1092A00064940108449401083494010870B594B0A2
:1092B0001B4B1D7815B9284614B070BD0446194BD8
:1092C00001221A70D0F824144B79002663F30706A4
:1092D0008B7963F30F26CB7963F317460B7A63F32D
:1092E0001F660B79CA78897801A801F01FFE002358
:1092F0000AE0D4F8241403F10A02895C03F1500255
:109300006A4402F8461C0133BDF808209A42F0DC9A
:1093100001960A2201A9002001F016FECBE700BF4A
:10932000840A0020830A00202DE9F04182B0174B07
:109330001C781CB9204602B0BDE8F0810546D0F883
:1093400024341878124A10705A78124E3270124F24
:10935000D3F802203A60DFF84480D3F80630C8F82A
:10936000003001F0C3FCD8F8003000933B6832783D
:109370000021084601F0C0FCFFF762FA46680023AE
:109380001A4619462846B047D4E700BF840A002091
:10939000810A0020800A00207C0A0020780A002030
:1093A0002DE9F04182B00446D0F824341D785E786F
:1093B0009F7893F80380234803F058F92946224800
:1093C00003F054F93146214803F050F9394620485A
:1093D00003F04CF941461F4803F048F9002001F022
:1093E00041FC48BBCDF800803B4632462946002070
:1093F00001F0BEFC184B187010B31849184803F060
:1094000035F9184B187801F071FC174B1B68009365
:10941000164B1B68164A12780021084601F06CFCB6
:10942000FFF70EFA456800231A4619462046A8475A
:10943000012002B0BDE8F081002001F01FFCD1E75F
:109440000C49DBE77494010888940108A094010892
:10945000B8940108D0940108840A00202C940108D3
:10946000E8940108810A0020780A00207C0A002084
:10947000800A00203494010800487047180000203A
:10948000014B1878704700BF8A0A0020014B1878FA
:10949000704700BF890A002010B582B001213F4803
:1094A00001F034FA20BB04F0C3F93D4B1B78834232
:1094B00035D13C4B1B78012B3FD0022B4BD0002BDE
:1094C00037D0384B1B78384A1278934258D1374BF3
:1094D0001B78374A1278934259D1324B1A78324B63
:1094E0001A70324B1A78324B1A70012002B010BD3C
:1094F0002C4C237801332F4981FB032101EB4101DF
:10950000591AC9B22170002002F006FD00238DF81F
:109510000030237801936846FFF7C0FCC3E7204B77
:10952000187001238DF8003001906846FFF7B6FCF3
:10953000BFE71E4B00221A70C3E7022003F046FF6C
:10954000B0F5167F03D0194B01221A70B9E7174BFB
:1095500000221A70B5E704F06BF918B9134B00221A
:109560001A70AEE7022003F031FFB0F5E13F03D0FF
:109570000E4B00221A70A4E70C4B01221A70A0E7D0
:109580000D4A52F823100D4803F070F89FE70C4A7B
:1095900052F823100B4803F069F89EE78C0A00206C
:1095A000860A00208A0A0020880A0020890A0020F2
:1095B000870A002056555555349601085C950108D8
:1095C0002C9601086C95010870B586B000248DF8C2
:1095D00017400DF11701204602F07EFC9DF8173070
:1095E000022B28BF0223254A1370254B1C7005212E
:1095F000244801F03BF903F047FD041E3ADB002349
:109600000093214B02220A21204603F011FD20463F
:1096100003F028FD00238DF80C30184C23780493B8
:1096200003A8FFF73BFC04F003F9184B1870012561
:109630008DF80C50049003A8FFF730FC2278144BEF
:1096400053F82210134803F011F80D4E3278124BE4
:1096500053F82210114803F009F82278104B1A70C1
:109660003278104B1A701049104800F063FF2846FA
:1096700006B070BD0E4802F0F9FFCBE78A0A002061
:10968000890A00208C0A002025970008860A0020FD
:10969000349601085C9501082C9601086C95010828
:1096A000880A0020870A0020B5960008AC950108BA
:1096B0007C95010800B583B00346124A92E8030086
:1096C00000908DF804101A88012A04D15B6969465C
:1096D0000020984728B90C4800F092FC03B05DF8D0
:1096E00004FB0A4B1A780A4B53F82210094800F081
:1096F00087FC094B1A78094B53F82210084800F0F0
:109700007FFCEBE73C940108CC9501088A0A002015
:1097100034960108B4950108890A00202C960108A6
:10972000C095010808B50E4B1B78012B0AD0022BFF
:109730000FD003B108BD002002F040FE012002F06E
:109740004DFEF7E7002002F049FE012002F036FE50
:10975000F0E7002002F042FE012002F03FFEE9E7C0
:109760008A0A00200048704720000020012070472E
:10977000024B187800221A70704700BF990A002027
:10978000024B187800221A70704700BF9A0A002016
:1097900030B5C1B0022003F019FE0446012003F0E9
:1097A00015FE84420BD1022003F06AFDFF2815D973
:1097B0004FF48075234B01221A7000241AE0022016
:1097C00003F004FE0146012003F0A0FC012003F099
:1097D000FDFD01461C4802F049FFE4E7022003F0CA
:1097E0004FFD054668B1E5E7022003F069FD0DF87D
:1097F00004000134AC42F7D32A466946012003F045
:10980000A1FD012003F03CFDFF2806D94FF480752F
:109810000E4B01221A7000240BE0012003F030FDF2
:10982000054668B1F4E7012003F04AFD0DF8040095
:109830000134AC42F7D32A466946022003F082FD88
:1098400041B030BD990A0020409601089A0A0020D4
:1098500010B50124044B1C70C28AD0F82414204691
:1098600003F070FD204610BD990A00201E4B1B78A6
:1098700003B9704730B5C3B0012003F0A7FD1B4BFF
:10988000196888420BD1012003F0FAFCFF2811D996
:109890004FF48075164B01221A70002416E0012047
:1098A00003F034FC012003F091FD0146114802F061
:1098B000DDFEE8E7012003F0E3FC054690B1E9E7AF
:1098C000012003F0FDFC02AB18550134AC42F7D384
:1098D000FEF7B6FF0468009502AB00224FF48171D9
:1098E0000620A04743B030BD980A00203000002079
:1098F0009A0A00204096010808B5FFF733FF036875
:10990000984702280ED0134B01221A70114B1B7876
:10991000C3B1FFF727FF4368984701280CD0FFF732
:10992000A5FF14E0FFF71EFF436898470128EAD11E
:10993000084B00221A70E9E7FFF72AFF07E0012031
:1099400003F0BEFC012003F09BFC0028F7D10120AE
:1099500008BD00BF9B0A002070B50546074802F00D
:1099600085FE0024064B1C70FEF76AFF46682346FE
:10997000224621462846B047012070BD5496010872
:10998000980A002070B50446D0F824341E680B48AD
:1099900002F06CFE31460A4802F068FE0125094BD0
:1099A0001D70094B1E60FEF74BFF466800231A46E8
:1099B00019462046B047284670BD00BF6C96010886
:1099C00084960108980A00203000002008B5044859
:1099D000FFF754FA0349044800F0ACFD012008BD2C
:1099E0006D970008ED9900089496010808B5038862
:1099F000012B0CD1436909490020984738B1084B25
:109A00001B7843B10749084800F0FAFA02E007481A
:109A100000F0F6FA08BD0649F5E700BF3C940108DE
:109A20009B0A00202C940108A89601089C96010826
:109A300034940108004870472800002038B50024FD
:109A4000012500E001340D4B1B68A3420ADD0B4BDE
:109A50005B6803EB04131A79002AF3D09B689847DC
:109A60000540EFE7054B1D722DB10549054802F091
:109A7000FDFD284638BD0449F8E700BF9C0A0020D8
:109A8000EC960108F4960108F096010838B5124DDD
:109A900000242C72114A124B9B1A1B092B606A601E
:109AA000104802F0E3FD29680F4802F0DFFD08E0EE
:109AB000094B5A682301D25821460C4802F0D6FDC2
:109AC0000134054B1B68A342F2DCFFF7B9F9FFF73D
:109AD000B5FF012038BD00BF9C0A0020A5AC0108DD
:109AE00008AD0108089701086893010878930108F8
:109AF00038B50C4B1D7A0DB9284638BDFFF7DEF995
:109B0000002400E00134074B1B68A342F4DD054B41
:109B10005B6803EB04131A79002AF3D0DB689847DB
:109B20000540EFE79C0A00200D488546FEF798F8AF
:109B30000C480D490D4A002302E0D458C4500433A8
:109B4000C4188C42F9D30A4A0A4C002301E013607E
:109B50000432A242FBD30CF0D3FEFEF799FDFEE7E0
:109B60000078002000000020B403002098AD010818
:109B7000B4030020904F0020FEE703460020186049
:109B800058609A600120D8601961704710B40024B1
:109B9000046044608360C260016101205DF8044B91
:109BA0007047F0B500270CE00CEB030511F803E05B
:109BB00006F805E00133C5689D42F5D829440460E4
:109BC0000137974213D205686B1C8468B3FBF4F627
:109BD00004FB16344368A3420BD00669002EEED076
:109BE0000029ECD0C36803FB05FC0023E3E7012058
:109BF000F0BD0020FCE770B50C461646002516E0C7
:109C000001EB0E0C1CF803C004F803C00133C2685A
:109C10009A42F5D8144443680268934216D001333F
:109C20008268B3FBF2F102FB113343600135B542A8
:109C30000AD201690029EED0002CECD04368C2683A
:109C400002FB03FE0023E2E7012070BD0020FCE7D9
:109C500003690268C06800FB02307047036842680D
:109C60009B1A8268B3FBF2F002FB103070470000D1
:109C7000028881EA1221034B33F8113083EA022370
:109C8000038070471C970108002380F8F23380F8A6
:109C9000F1333F2280F8F02380F8B033704738B5B5
:109CA000054690F8964104EB441004EB400028442C
:109CB000432205F56C7100F5CC700CF050FE95F860
:109CC0009731072B02D8013385F8973185F89541F4
:109CD0000134634204F0070403F0070358BF5C42F9
:109CE00085F89641012385F8943138BD002303E0BF
:109CF0008CF8002001339BB20F2B0BD800EB030C28
:109D0000C25C3AB1A2F16101C9B21929F0D8203A76
:109D1000D2B2EDE7102B00D07047013B0022C254B5
:109D2000FAE70000064BB3F87836984205D2044BA8
:109D3000D3F87C3653F8200070470020704700BFEE
:109D4000A80A002008B50346094AB2F878269042CE
:109D50000AD20846064AD2F87C2652F82310FCF7AD
:109D60006FFF18B1002000E0002008BD0120FCE7D3
:109D7000A80A002008B5084BB3F87836984202D3F9
:109D80009FED060A08BD044BD3F87C36002153F83A
:109D900020000BF079FEF5E7A80A00200000000083
:109DA00008B5084BB3F87836984201D3002008BDB7
:109DB000044BD3F87C360022114653F820000BF0F8
:109DC00035FFF4E7A80A002010B5044604490078DE
:109DD00003F0E4FA0349207803F0E0FA10BD00BF75
:109DE0001C9901082099010838B590F8973143B3C0
:109DF00004460D4690F8F12322BB94F8F22332BBBF
:109E0000012D29D094F99511013194F8973191FBE6
:109E1000F3F203FB121184F89511C9B201EB41135F
:109E200001EB43012144432201F5CC7104F56C7030
:109E30000CF095FD94F8F23384F8F133002384F8A4
:109E4000943138BD0F49007803F0A8FAD5E70E49E0
:109E5000207803F0A3FAD3E794F894311BB194F976
:109E6000963184F8953194F9951194F89731194405
:109E7000013991FBF3F203FB121184F89511C9B279
:109E8000CCE700BF289901083099010870B582B06D
:109E900006460024A0F8124100F58A75C0F8144166
:109EA00001AA0C4900F56C700CF0D6FC234609E0C1
:109EB0005C1CA4B245F8230001AA064900200CF05E
:109EC000CBFC23460028F3D1A6F8123103B10120C0
:109ED00002B070BD389901080A4B18701B7A1BB18B
:109EE000084B5B688B4200D011B9064B187A70475B
:109EF00010B5044C616003F009F92072014B187A27
:109F000010BD00BFA80A0020014B1878704700BFA1
:109F1000A80A002038B5234B5B7A03B938BD054643
:109F200090F8F1232049807A03F038FA95F8F2236B
:109F30001E49A87A03F032FA95F8F0231C49A87A52
:109F400003F02CFA05F56C721A49A87A03F026FA88
:109F500095F995211849A87A03F020FA95F89621E9
:109F60001649A87A03F01AFA95F897211449A87AA5
:109F700003F014FA00240CE004EB441304EB430355
:109F800003F5CC732B4422460E49A87A03F006FA57
:109F9000013495F89731A342EEDC0B49A87A03F01F
:109FA000FDF9BBE7A80A0020409901085099010873
:109FB0006099010870990108809901089099010839
:109FC000A0990108B0990108009B010808B5024B4F
:109FD000187803F055F908BDA80A002008B5024B0F
:109FE000187803F06DF908BDA80A002008B50A46E4
:109FF0000146024B187803F0A5F908BDA80A002015
:10A000000FB410B582B004AB53F8042B0193084C85
:10A010004FF4807120460CF0CFFB0246214614F825
:10A02000110C03F08FF902B0BDE8104004B0704786
:10A03000B90A002038B50546FFF728FF08B9002007
:10A0400038BD1648FFF7DCFFD5F81401FFF74EFEC8
:10A050000024B5F8F433A342F1DD04EB8401890058
:10A0600001F57E712944D5F81401FCF7E9FD08B12A
:10A070000134EEE7B5F81231013BA5F8783605F565
:10A080008C73C5F87C3604EB840405EB8404D4F8A7
:10A09000083405F5CF609847D1E700BFC4A6010892
:10A0A00030B585B004468DF80710037CABB9CBB250
:10A0B0001B2B30D01CD8082B4BD00D2B40F08480AC
:10A0C00090F8F2330BBB002384F8F23384F8F133B9
:10A0D00084F8B0332046FFF777FE237C013B032B47
:10A0E00000F2C880DFE813F0C400CC00CF005601B6
:10A0F0007F2B69D190F8F1C390F8F2E3F445ECD2EC
:10A10000AEEB0C05EDB2012212E0FFF7C8FD2046D0
:10A11000FFF790FFD7E701230374DEE70CEB0203A0
:10A12000591E234493F8B003631883F8B003013237
:10A130009542F3DC0EF1FF3E5FFA8EFE84F8F2E307
:10A14000A64400238EF8B0339449207803F026F912
:10A15000C3E790F8F2335BB390F8F10340B3834266
:10A1600009D094F8F2C3604522D2ACEB000E5FFA3E
:10A170008EFE002211E0013BDBB284F8F23323446F
:10A18000002283F8B023ECE78318591E234493F888
:10A19000B053631883F8B05301329645F4DC0CF1E8
:10A1A000FF33DBB284F8F2332344002283F8B02378
:10A1B00094F8F133002B90D0013B84F8F1337849C7
:10A1C000207803F0EBF888E794F8F233591C94F800
:10A1D000F023914281DA94F8F123934216D094F857
:10A1E000F1C394F8F2038445BFF477AFA0EB0C05FC
:10A1F000EDB20022954224DD831A591E214491F8C4
:10A20000B013234483F8B0130132F3E701220DF1B8
:10A210000701207803F096F894F8F123A3189DF82D
:10A22000071083F8B01394F8F2330133DBB284F8EB
:10A23000F233013284F8F1232344002283F8B0235F
:10A24000CDE79DF8072004EB0C0383F8B023013021
:10A25000C0B284F8F2030CF1010C84F8F1C320447D
:10A26000002380F8B0334F49207803F097F834E7A3
:10A27000022323742046FFF74DFE002005B030BDB9
:10A2800003232374F6E7002323749DF80730442B3F
:10A2900026D09DF80730432B37D09DF80730412B4F
:10A2A0004AD09DF80730422B50D09DF80730312B13
:10A2B00056D09DF80730342BDCD194F8F13394F864
:10A2C000F223934258D394F8F12394F8F2339A424C
:10A2D00059D894F8F23384F8F13304232374C9E78E
:10A2E00094F8F123002AD4D0013A84F8F1231B22F8
:10A2F0008DF808205B228DF809208DF80A300322A2
:10A3000002A9207803F01EF8C3E794F8F12394F82B
:10A31000F2138A42C1D2013284F8F1231B228DF854
:10A3200008205B228DF809208DF80A30032202A94B
:10A33000207803F007F8B0E701212046FFF754FD2D
:10A3400004F56C71207803F029F8AAE70021204673
:10A35000FFF74AFD04F56C71207803F01FF8A4E7BD
:10A3600094F8F1231049207803F018F8002384F8BA
:10A37000F133042323749CE7D21A92B20B4920785C
:10A3800003F00CF89FE7D21A92B20749207803F045
:10A3900005F89EE7002323746CE700BFC09901080D
:10A3A000C8990108D099010828990108DC99010889
:10A3B00038B5094B1C7A0CB9204638BD187802F024
:10A3C0005FFF0028F8D0044D287802F079FF01469D
:10A3D0002846FFF765FEEFE7A80A002010B50F48F2
:10A3E000FFF70EFE0E48FFF70BFE00240CE004EB17
:10A3F0008403980000F57E700A4B1844FFF700FEB6
:10A400000648FFF7FDFD0134064BB3F8F433A342D1
:10A41000EDDC0548FFF7F4FD10BD00BFC4A6010840
:10A42000E4990108A80A0020049A01082DE9F043E4
:10A4300083B00388446873B1012B12D8102700221F
:10A44000114620680BF0F2FB06462C48FFF7D8FDBA
:10A45000B04600241BE02A48FFF7D2FD03B0BDE858
:10A46000F0830022114660680BF0E0FB0746E6E748
:10A4700031682448FFF7C4FD624204F0030302F090
:10A48000030258BF5342032B0BD004360134BC42A5
:10A49000E4DA14F0030FEBD131461B48FFF7B0FDAF
:10A4A000E6E71A48FFF7ACFD4FF0000917E018483F
:10A4B000FFF7A6FD0135032D0DDC05F108036B4404
:10A4C00013F8041CA1F12003DBB25E2BEFD8114876
:10A4D000FFF796FDEEE708F1040809F10109B9F16B
:10A4E000030F04DCD8F8003001930025E3E70A48A5
:10A4F000FFF786FD0120FDF7BDFAC6E7389A01088F
:10A50000249A01084C9A0108409A0108549A0108BB
:10A510005C9A0108589A0108609A010808B5044B32
:10A52000187802F0ADFE08B9012008BD0020FCE754
:10A53000A80A00202DE9F041114BB3F8F4531F2D68
:10A5400002D90020BDE8F0810E46AF0005EB85047E
:10A55000A40004F57E7498461C44014620460CF085
:10A56000F6F92F4408EB8707C7F808642046FFF781
:10A57000BDFBB8F8F4330133A8F8F4330120E1E768
:10A58000A80A002008B5124800230372437203741E
:10A5900080F8953180F8963180F8973180F89431C1
:10A5A0000C4BC0F880360C4BC0F884360B4BC0F80F
:10A5B00088360B4BC0F88C36FFF766FB09490A4812
:10A5C000FFF7B8FF09490A48FFF7B4FF012008BDAB
:10A5D000A80A0020A19D0008759D0008259D00087F
:10A5E000459D0008DDA30008689A01082DA4000815
:10A5F000709A0108022801D90020704770B50446FE
:10A600000A4D460000EB400305EB8302918855F8A4
:10A61000230005F0EDFA264405EB86052B7A9842D7
:10A6200001D0002070BD0120FCE700BF949B010811
:10A6300038B500242EE02C2303FB042501236B7086
:10A64000FDF71CFA6860002203E023440021D97062
:10A6500001324C4B1B8893422ADD4B4B53F822307E
:10A6600059780529F1D823440121D970F0E701294F
:10A6700032D0464A2C2000FB0422926A934231D207
:10A68000FDF7FCF9414B2C2202FB043398600022B9
:10A690001A730134022C73DCE0B2FFF7ABFF002821
:10A6A0003DD02C2304FB03F3384AD35C002BC2D0EB
:10A6B00036492C2304FB03F3CA180120C8545388DD
:10A6C00003449BB25380D1690029D0D12F4A2C205A
:10A6D00000FB0422126AD1E72C4A2C2000FB042242
:10A6E000526ACBE7294B2C2202FB043300225A800A
:10A6F0000131D9610121197603E023440021597207
:10A700000132204B1B889342BADD1F4B53F8223095
:10A7100059780529F1D8234401215972F0E72C23F7
:10A7200004FB03F3194AD35C73B918492C2304FBC7
:10A7300003F3CD180022CA5401232B73EA612A7651
:10A74000FDF79CF96861A4E72C2303FB0425012392
:10A750006B73FDF793F92861002203E02344002185
:10A7600099710132074B1B889342DEDD064B53F88B
:10A77000223059780529F1D8234401219971F0E755
:10A7800038BD00BF58110020381100205C11002096
:10A7900010B588B00024039404940594069407949B
:10A7A0002A4BDA6C42F00202DA64DB6C03F002033B
:10A7B0000293029B012305930CE0254B04EB44021A
:10A7C00003EB82014968039103A953F8220005F0C5
:10A7D00097F80134022CF0DD002012E01D4C2C21F2
:10A7E00000FB01F1631800225A8062541A735A73F5
:10A7F000DA613C211962FA215962C82199621A76FC
:10A8000001300228EADD002304E0134A002142F867
:10A8100023100133072BF8DD02F036FC041E11DB98
:10A82000002300930D4B02220A21204602F000FC77
:10A83000204602F017FC0A490A48FFF77BFE012078
:10A8400008B010BD084801F011FFF4E70010024005
:10A85000949B01085C1100203811002031A60008EB
:10A86000EDA90008A49A0108749A01080A4B1B88F4
:10A87000072B01D9002070470022026042608260ED
:10A88000064A42F82300417083700133024A138064
:10A89000012303701846704758110020381100201A
:10A8A0000346022808D8054A107830B12C2202FB52
:10A8B00003F3034AD05C7047002070473400002047
:10A8C0005C110020032828BF0320024B53F820000E
:10A8D000704700BF849B010802280ED8094B1B78E3
:10A8E0006BB182B0084B2C2202FB00339A685B6884
:10A8F000D31A0193019802B07047002070470020DE
:10A90000704700BF340000205C110020034602297C
:10A910000DD8084A107858B1187848B19A78064B83
:10A9200053F822300B44D8780022DA7070470020A8
:10A93000704700BF340000203811002084B004AB01
:10A9400003E90700134A904219D00EDCA2F5006219
:10A95000904216D002F58062904201D10E480CE080
:10A96000B0F1904F0FD10D4807E00D4A90420CD046
:10A9700002F5806290420AD10A4804B070470A4842
:10A98000FBE70A48F9E70A48F7E70A48F5E7084805
:10A99000F3E700BF000C0048BC9A0108AC9A01081C
:10A9A00000100048D49A0108C49A0108B49A01081A
:10A9B000DC9A0108CC9A010810B590B004464022F8
:10A9C000002168460BF006FF002022466408A2EB37
:10A9D000440210A901EB8003013043F8402C002C05
:10A9E000F3D10138C0B210B010BD00002DE9F04124
:10A9F00005460388012B0AD000272B88012B2ED077
:10AA00002B88012B49D0002F72D0BDE8F08143691B
:10AA10003D490020984707460028EED000261BE05D
:10AA2000F0B2FFF74FFF01463848FFF7E9FA06EBAF
:10AA30004603374C04EB830494E80700FFF77EFFDE
:10AA400001463448FFF7DCFA6068FFF7B5FF0146BE
:10AA50003148FFF7D5FA0136022EE1DDCDE76B690B
:10AA60002E4900209847064680B9C9E7E0B2FFF7B3
:10AA700017FF01462A48FFF7C3FA0134022CF5DD1F
:10AA80003220FCF7F7FF2748FFF7BAFAFFF746FD39
:10AA900008B10024F2E73746B2E76B69224900208B
:10AAA000984780460028AED0AB680120984718E050
:10AAB0000134022C12DCE5B22846FFF7F1FE002833
:10AAC000F6D02846FFF7FEFE06462846FFF704FFAD
:10AAD000024631461548FFF793FAE9E70A20FCF7EA
:10AAE000C9FFFFF71BFD08B10024E2E747468AE7EC
:10AAF0000F48FFF785FA0F48FFF782FA03210E4847
:10AB0000FFF77EFA81E700BF3C940108EC9A010848
:10AB1000949B0108F49A0108F89A0108049B010823
:10AB20000C9B0108109B0108149B01081C9B010849
:10AB3000349B0108449B0108549B010810B58CB05C
:10AB400004464FF4236004FB00F030302B4B1844D4
:10AB500001A9043004F0C0FA049B7BB3274B4FF4E7
:10AB6000236202FB04335A6842F001025A60022158
:10AB7000059B73B3214B4FF4236202FB04335A68E5
:10AB800042F002025A600321069B63B31B4B4FF451
:10AB9000236202FB04335A6842F004025A60042123
:10ABA000164B4FF4236202FB0433D3F898301BB1E9
:10ABB00011B10022204698470CB010BD0F4B4FF446
:10ABC000236202FB04335A6822F001025A6000211A
:10ABD000CEE70A4B4FF4236202FB04335A6822F09B
:10ABE00002025A60D0E7054B4FF4236202FB0433A4
:10ABF0005A6822F004025A60D2E700BFE811002030
:10AC000010B5002444B1134801F030FD1249134837
:10AC1000FFF790FC012010BD11494FF4236004FBA5
:10AC200000F00B1801220A5400225A705A601A725E
:10AC3000DA601A615A619A61DA6100F1B00C9830F9
:10AC4000084420234C2261440430FEF79FFF013466
:10AC5000E4B2D7E7B89B010875B40008589501081D
:10AC6000E811002030B9044B4FF4236101FB00339D
:10AC70005878704700207047E811002088B908B55F
:10AC8000084A4FF4236101FB0022527802B908BD43
:10AC900001FB00F03030034B1844043004F02FF96E
:10ACA000F5E77047E81100203F2810D82F2810D86A
:10ACB0001F2810D8172810D8132810D80F2810D8FC
:10ACC0000B2810D8072800D87047082070470F209D
:10ACD00070470E2070470D2070470C2070470B20E6
:10ACE00070470A2070470920EEE70000014B1870FA
:10ACF00001207047E0110020002831D100B587B055
:10AD000084461ABB0092184A4FF4236000FB0C22C1
:10AD1000126A402A1ED0022203920191134A12782D
:10AD2000DAB9022202920493089B05934FF423633D
:10AD300003FB0CF030300C4B18446946043004F02F
:10AD40000BF878B1002007B05DF804FB4FF08042AB
:10AD50000092D8E701220392DFE700220292E2E7A5
:10AD6000002070470120EEE7E8110020E0110020EC
:10AD70002DE9F04182B09DF820E018B1002002B02A
:10AD8000BDE8F08105464FF4236005FB00F000F1BB
:10AD90003004564E3444043406EB000C5448CCF8CE
:10ADA00034000026CCF83860524850F82200CCF825
:10ADB0003C00514850F82100CCF840008CF8446029
:10ADC00001208CF845008CF846004FEA03184B48E8
:10ADD000006800EB031750F80800CCF848007868CA
:10ADE000CCF84C00B868CCF85000F868CCF85400A7
:10ADF0004FEA0E184248006800EB0E1750F80800A2
:10AE0000CCF858007868CCF85C00B868CCF86000E2
:10AE1000F868CCF864001C20CCF868000820CCF856
:10AE20006C00CCF870608CF828108CF829208CF815
:10AE30002A308CF82BE04023CCF82030314BCCF872
:10AE40002430CCF80460204603F09CFE08B10020BA
:10AE500095E73046FFF74AFF0096334632463146C3
:10AE60002846FFF749FF009633460122314628461F
:10AE7000FFF742FF0096334602221146204603F0B8
:10AE80009EFF08B100207AE7184B4FF4236202FBC3
:10AE900005333246596A204604F058F908B10020BB
:10AEA0006DE7124B4FF4236202FB0533996D1B6E65
:10AEB000324603FB01F1204603F0A2FF08B1002057
:10AEC0005DE7204603F0ADFF08B1002057E72046BC
:10AED00003F0B9FF38B9054B4FF4236202FB053389
:10AEE000012058704BE7002049E700BFE81100201F
:10AEF00000640040D0A00108C4A001083C0000206C
:10AF00003800002007000E00012801D900207047FA
:10AF100008B54FF4236303FB00F09830024B18444C
:10AF20000430FEF79BFE08BDE811002080F84810B1
:10AF300080F8472080F84630024A52F82330838058
:10AF4000012070471CA10108012863D8F0B58BB01F
:10AF50000D461646334B4FF4236202FB00335B6809
:10AF600013F0040F58D113F0010F58D102FB00F475
:10AF700030342C4B1C44043491F84730DBB1012BA6
:10AF80001CD095F84830012B1FD0022B23D0CBB119
:10AF90002B6801930023099308930593039395F875
:10AFA0004620214B53F822300493204604F0C8F881
:10AFB000C0B9002031E000230293E2E74FF0804364
:10AFC0000293DEE707930693E2E74FF4001307933B
:10AFD00000230693DCE74FF4001307934FF480132C
:10AFE0000693D5E7FCF74AFD0746AA1D01A92046AE
:10AFF00003F099FF08B100200FE0204604F0A0F80C
:10B0000030B9FCF73BFDC01BB042F6D3002004E092
:10B01000012002E00020704700200BB0F0BD0020AE
:10B02000FBE700BFE8110020DCA00108012801D9DE
:10B030000020704708B54FF4236303FB00F09830FD
:10B04000034B184401220430FEF7D5FD08BD00BFB4
:10B05000E8110020012801D90020704700B585B013
:10B060004FF4236303FB00F03030074B184469466C
:10B07000043004F056F820B9BDF8040005B05DF8BE
:10B0800004FB0020FAE700BFE8110020012801D9E5
:10B090000020704700B585B04FF4236303FB00F038
:10B0A0003030074B18446946043004F03AF820B9B0
:10B0B000BDF8000005B05DF804FB0020FAE700BF12
:10B0C000E811002001281BD838B50E4B4FF423623D
:10B0D00002FB00335B7803B938BD0A4C02FB00F079
:10B0E000251800226A60303004440434204603F0FE
:10B0F000C1FE204603F0A7FEEB680133EB60EBE7EF
:10B10000704700BFE811002010B50024204609E078
:10B11000174B4FF4236202FB04331B7A2BB1012B34
:10B1200017D00134002CF3DD10BD114B4FF4236216
:10B1300002FB04335B6813F0040FF2D0E0B2FFF7B8
:10B14000C1FF0B4B4FF4236202FB04330120187242
:10B15000E7E7074B4FF4236202FB04335B6813F00D
:10B16000040FDED1024B02FB043300221A72D8E72F
:10B17000E81100202DE9F0438BB0804689464FF45A
:10B18000236707FB00F707F19805354E3544043572
:10B190002846FEF75DFD04463E44831D6A46316A3B
:10B1A000484603F0E9FE00283ED1019B002B3ED12A
:10B1B000009B2360002384F84730BDF80E3003F075
:10B1C0000F03284A52F82300A080C0B2FFF76CFD9D
:10B1D00084F84600069BB3F5001F2ED0002384F8A8
:10B1E00048301F4B4FF4236202FB0833DA6A013206
:10B1F000DA62012200212846FEF7D3FC38B9184B49
:10B200004FF4236202FB08331A6901321A61144BAE
:10B210004FF4236202FB0833D3F8983023B122465F
:10B22000012140469847A0B90BB0BDE8F083009BD0
:10B230002360012384F84730BFE7059BB3F5801FE7
:10B2400003D0012384F84830CBE7022384F8483048
:10B25000C7E7012200212846FEF7CDFCE4E700BF46
:10B26000E81100201CA1010801281CD810B50E4BC4
:10B270004FF4236202FB00335C6814F0010F06D127
:10B2800014F0020F07D114F0040F08D110BD0748C5
:10B2900001F0ECF9F4E7064801F0E8F9F3E70548B6
:10B2A00001F0E4F9F2E77047E8110020C89B0108BB
:10B2B000E49B0108009C010810B504465548FEF7C0
:10B2C0009FFEFCB1012C21D05348FEF799FE534B51
:10B2D0004FF4236202FB04335B78DBB15048FEF786
:10B2E0008FFE5048FEF78CFE4C4B4FF4236202FB5E
:10B2F000043393F82A30042B13D8DFE803F00F242B
:10B30000282C30004848FEF77BFEDDE74748FEF773
:10B3100077FED9E74648FEF773FEE2E74548FEF7B9
:10B320006FFE4548FEF76CFE3C4B4FF4236202FB78
:10B33000043393F82B30072B18D8DFE803F01436CA
:10B340003A3E42464A4E3D48FEF75AFEE9E73C483F
:10B35000FEF756FEE5E73A48FEF752FEE1E73948C8
:10B36000FEF74EFEDDE73348FEF74AFE3648FEF7AD
:10B3700047FE2A4B4FF4236202FB043393F8283034
:10B38000012B32D0022B34D05BB33048FEF738FEAD
:10B39000224B4FF4236202FB043393F82930012B34
:10B3A0002FD0022B31D043B310BD2448FEF728FE26
:10B3B000DCE72348FEF724FED8E72148FEF720FE0D
:10B3C000D4E72048FEF71CFED0E72148FEF718FE20
:10B3D000CCE72048FEF714FEC8E71F48FEF710FE32
:10B3E000C4E71E48FEF70CFECFE71D48FEF708FE37
:10B3F000CBE71C48FEF704FEC7E71B48FEF700FE3C
:10B40000D2E71A48FEF7FCFDCEE71948FEF7F8FD33
:10B41000CAE700BF1C9C0108489C0108E8110020F5
:10B420005C9C01086C9C0108309C01083C9C010854
:10B43000649C0108289E0108889C01083C9E010824
:10B44000809C0108789E01089C9C0108BC9C010816
:10B45000889E0108989E0108A89E01089C9D0108ED
:10B46000B09D0108B09C0108DC9D0108F49D010815
:10B47000D09C01082DE9F0479CB004460388012BBD
:10B4800019D000252388012B63D02388022B00F0DC
:10B4900097802388062B00F0B6802388022B00F0CB
:10B4A0003C812388032B00F0E081002D00F0ED8229
:10B4B0001CB0BDE8F0874369A449002098470546C1
:10B4C0000028DFD0002607E03146A148FEF798FDAE
:10B4D000A048FEF795FD0136002ED3DC9E4B4FF4BD
:10B4E000236202FB06335B78002BEDD05FFA86F80F
:10B4F0004046FFF7E1FE984F4FF4236303FB0677C6
:10B5000079789648FEF77CFD39699548FEF778FD15
:10B5100079699448FEF774FDB9699348FEF770FDA8
:10B52000F9699248FEF76CFD4046FFF793FD01462E
:10B530008F48FEF765FD4046FFF7A8FD01468D48A0
:10B54000FEF75EFD4046FFF78FFE8248FEF758FD8E
:10B55000C1E763698849002098470646002894D0CF
:10B5600000218648FEF74CFD8548FEF749FD8548D9
:10B57000FEF746FD8448FEF743FD8448FEF740FD94
:10B580008348FEF73DFD8348FEF73AFD8248FEF70B
:10B5900037FD8248FEF734FD8148FEF731FD8148D2
:10B5A000FEF72EFD8048FEF72BFD8048FEF728FDB4
:10B5B0007F48FEF725FD7F48FEF722FD354664E70C
:10B5C00063696D490020984700283FF462AF6369C2
:10B5D000794901209847064600283FF45AAF0723CF
:10B5E00000930423022211460020FFF7C1FB40B163
:10B5F00072497348FEF704FD0020FFF75DFE3546F3
:10B6000047E77049F5E763695B4900209847804642
:10B6100000283FF442AF6C4D03AB95E8070083E888
:10B62000070006AB05F10C0207CA83E8070009AE64
:10B6300018350FCD0FC695E80F0086E80F00A368F8
:10B640000120984700280DDBA368012098470028B7
:10B6500002DD4FF0000907E0A368012098475FFA78
:10B6600080F901E04FF000090026022E0CDC63692E
:10B670001CAA02EB860252F8641C0220984708B903
:10B680000136F2E7F6B200E000260027022F0CDCBC
:10B6900063691CAA02EB870252F8581C03209847E2
:10B6A00008B90137F2E7FFB200E000274FF0000AC7
:10B6B000BAF1070F0EDC63691CAA02EB8A0252F88A
:10B6C0004C1C0420984710B90AF1010AF0E75FFA10
:10B6D0008AFA01E04FF0040A0025072D0CDC6369AB
:10B6E0001CAA02EB850252F84C1C0520984708B9A9
:10B6F0000135F2E7EDB200E00425009553463A46E5
:10B7000031464846FFF734FB28B12C492C48FEF758
:10B7100077FC4546C1E62B49F8E763692B490020D1
:10B720009847074600283FF4BCAEA368012098471D
:10B7300000284DDBA36801209847002801DD002682
:10B7400047E0A36801209847C6B242E03C94010854
:10B75000689D0108009B0108E8110020DC9C01089D
:10B76000F09C0108049D0108189D01082C9D01080A
:10B77000409D0108549D0108789D0108809D0108A5
:10B78000909D0108A49D0108BC9D0108D49D01085D
:10B79000EC9D0108049E01081C9E0108309E0108D2
:10B7A000449E0108589E01086C9E01087C9E010879
:10B7B0008C9E01089C9E0108AC9E01082C940108F7
:10B7C000B49E01083494010800930108C49E010846
:10B7D00000264FF00008FEF7A1FE002843D03046B7
:10B7E000FFF792FB0028F6D009A93046FFF71EFCB0
:10B7F000B14AA2FB083292094FF47A7303FB12821A
:10B8000002F101083146AD48FEF7FAFB9DF86C30B5
:10B8100083B1AB48FEF7F4FB9DF86B3073B9A948D0
:10B82000FEF7EEFBBDF828200999A748FEF7E8FBD4
:10B83000002510E0A548FEF7E3FBEDE7A448FEF77E
:10B84000DFFBEFE705F170036B4413F8461CA148DA
:10B85000FEF7D6FB0135BDF82830AB42F2DC9E483E
:10B86000FEF7CEFBB7E73D461BE663699B49002028
:10B870009847814600283FF418AEA36801209847F6
:10B8800000280BDBA36801209847002801DD002574
:10B8900005E0A36801209847C5B200E00025636970
:10B8A0008F490220984748B14FF0000A8D4B5F68DE
:10B8B000FCF7E4F806464FF0000880E04FF0020A7B
:10B8C000F4E7FCF7DBF806468DF86CA001228DF852
:10B8D0006B2002238DF86A304FF445710991ADF861
:10B8E00028308DF82A208DF82B300A2209A9284605
:10B8F000FFF72AFB08BB2846FFF7ACFB18B9284620
:10B90000FFF7C4FB60B12846FFF7A4FB04462846B6
:10B91000FFF7BCFB0346224629467348FEF770FB3F
:10B92000724B1B68002B53D0704C2268294670481C
:10B93000FEF766FB002323604AE05F4AA2FB083261
:10B9400092094FF47A7303FB128202F1010829462F
:10B950006848FEF755FB9DF86C3083B15848FEF7F8
:10B960004FFB9DF86B3073B95648FEF749FBBDF8A5
:10B97000282009995448FEF743FB002410E053485F
:10B98000FEF73EFBEDE75248FEF73AFBEFE704F126
:10B9900070036B4413F8461C4E48FEF731FB01342C
:10B9A000BDF82830A342F2DC4B48FEF729FBA2E7A2
:10B9B000FFF7AAFB18BB2846FFF7A6FA20BBFEF745
:10B9C000ADFD00285FD0FCF759F8B0427FF479AFA5
:10B9D0002C46444B4FF4236202FB05335A68BA42AB
:10B9E000E6D029464448FEF70BFB2846FFF73CFC0F
:10B9F0003C4B4FF4236202FB05335F68D8E72146D6
:10BA00003E48FEF7FDFAD6E709A92846FFF70EFBE8
:10BA1000294AA2FB083292094FF47A7303FB12827F
:10BA200002F1010821462548FEF7EAFA9DF86C303C
:10BA300083B12348FEF7E4FA9DF86B3073B92148CF
:10BA4000FEF7DEFABDF8282009991F48FEF7D8FA5C
:10BA5000002410E01D48FEF7D3FAEDE71C48FEF77E
:10BA6000CFFAEFE704F170036B4413F8461C194852
:10BA7000FEF7C6FA0134BDF82830A342F2DC1648BE
:10BA8000FEF7BEFA9BE74D460FE51D48FEF7B8FAF4
:10BA90001C48FEF7B5FA00211B48FEF7B1FA1B4817
:10BAA000FEF7AEFA00211A48FEF7AAFA002119485B
:10BAB000FEF7A6FAFCE400BFD34D6210D09E010849
:10BAC000E89E0108F09E0108009F0108EC9E010815
:10BAD000F89E0108149F0108009B01081C9F0108A3
:10BAE00058950108E8110020409F0108E41100204A
:10BAF000589F0108289F0108689F0108809F01083E
:10BB0000989F0108A49F0108B09F0108DC9F0108CD
:10BB1000EC9F010804A0010808B50020FFF70EF80B
:10BB200008BD0000054A136801331360036E23B19A
:10BB3000034A536843F0100353607047E411002038
:10BB4000E811002008B5024803F08BFB08BD00BFD8
:10BB50001C12002010B50C4611F0010F0ED114F08C
:10BB6000020F03D0084A93690133936114F0040F64
:10BB700003D0054AD3690133D36110BD01460020CB
:10BB8000FFF7F8FAEBE700BFE811002010B598B016
:10BB90000446002113911491159116911791442296
:10BBA00002A80AF017FE22681D4B9A4201D018B075
:10BBB00010BD4FF4805302934FF080730E9302A890
:10BBC00006F062F848BB174B9A6D42F000729A6516
:10BBD0009A6D02F000720092009ADA6C42F0020252
:10BBE000DA64DB6C03F002030193019B4FF44073B2
:10BBF0001393022314930024159416930923179387
:10BC000013A9094803F07CFE22462146152002F0C4
:10BC100063FD152002F070FDC9E7FBF733FFD2E7A3
:10BC200000640040001002400004004808B50268AB
:10BC3000084B9A4200D008BD074A936D23F0007369
:10BC400093654FF44071054803F044FF152002F05E
:10BC500057FDF0E700640040001002400004004877
:10BC600008B502F059F9014B187008BD181C0020E6
:10BC700008B502F08DF908BD08B502F069F908BDF4
:10BC800008B502F06DF908BD08B502F09FF908BDCE
:10BC900008B502F077F908BD08B502F0CDF908BD86
:10BCA00000234370C160837000F12303C0F8243483
:10BCB00001230370704710B50446C06878B1D0F80E
:10BCC0008030984740B1012363700023A370FBF7D5
:10BCD000D5FE6060012010BD00236370F5E70020F1
:10BCE000F9E7F8B50446C6684778002F00F09A8057
:10BCF000D6F8883030469847002800F09580D6F86E
:10BD00009030304698470546FBF7B8FE6368C01A86
:10BD1000632801D90023A370FBF7B0FE6060A3780D
:10BD20000A2BE5D8DFE803F0060E19202731384248
:10BD300049627300022DDBD1002323760123A37017
:10BD40002576D5E7FD2D02D00023A370D0E702238E
:10BD5000A370237E2B442376CAE72574237E2B44CD
:10BD600023760323A370C3E76582237E2B442376C7
:10BD70000423A370BCE7638A43EA05236382237E1E
:10BD80002B4423760523A370B2E7A582237E2B44A0
:10BD900023760623A370ABE7A38A43EA0523A38295
:10BDA000237E2B4423760723A370A1E7E582237E1D
:10BDB0002B4423760823A3709AE7E38A43EA0523FA
:10BDC0009BB2E382227E2A44227663B1B3F5806F70
:10BDD00004D80023A3600923A37089E72023A3824A
:10BDE0000023A3701EE00A23A37081E7D4F8242463
:10BDF000A368D554237E2B442376A3680133A36024
:10BE0000E28A93427FF474AF0A23A37070E76576E9
:10BE1000237E5B42DBB22376AB4201D02123A38297
:10BE20000023A3703846F8BD0027FBE770B58446B1
:10BE3000049E059DC0689CF80140002C3ED04FF048
:10BE4000020E8CF81AE04FF0FD0E8CF81BE08CF817
:10BE50001C108CF81D20120A8CF81E208CF81F3044
:10BE60001B0A8CF820308CF821502B0A8CF82230D9
:10BE70000022092307E016F802E00CEB030181F829
:10BE80001AE001320133AA42F5D300210A4606E046
:10BE90000CEB010E9EF81AE07244D2B201319942C5
:10BEA000F6D352425D1C63449A76D0F894302A4609
:10BEB0000CF11A019847854200D00024204670BD3D
:10BEC00010B582B0049C0194009313460A460121E8
:10BED000FFF7ACFF02B010BD70B57F2817D80E4633
:10BEE0000C4B1D78A5B184B20134A4B203F036FB2B
:10BEF00031462046FCF7AAF9044603F047FB3CB163
:10BF0000072C01D0002503E00023337000E000255A
:10BF1000284670BD1A1C0020F8B504460E46FBF7F3
:10BF2000ADFD7F2C25D80546134B1F7817B3A4B25F
:10BF30000134A4B203F012FB31462046FCF760FB4B
:10BF400018B110F4807F03D1002703F01FFB11E02C
:10BF50000A4B01221A70FCF773F8084B1B78002B70
:10BF6000F3D0FBF78BFD401BB0F5FA7FF5D300272C
:10BF7000EBE700273846F8BD1A1C0020191C0020EA
:10BF800008B503F05BFA08BD014B00221A70704738
:10BF9000191C0020B0F1FF3F00D0704708B5FFF733
:10BFA000F3FF08BDC00200F1006303F2FF7C0A4406
:10BFB000013A8B4203D3934212D9002000E00020C3
:10BFC0008C4502D3944500D801208B4202D88C4581
:10BFD00000D30120934202D8944500D3012070473A
:10BFE0000120EDE72DE9F04186B005460E4600F050
:10BFF000A2FFA84207D800F09EFF044600F09EFF73
:10C000000444AC420AD803F0A9FA1E4B4FF4004294
:10C010001A6100244FF0FF3847460AE000F08BFF1A
:10C020003146281A00F06AFF044614E0A04627466D
:10C0300001343F2C0ADC32462946A0B2FFF7B2FF9A
:10C040000028F5D0002FF1DBA046F1E7002F06DA3B
:10C05000002403F09BFA204606B0BDE8F081049767
:10C06000A8EB0703013305930023029301230393F5
:10C0700001A902A803F0CEFB08B10024E9E70124DE
:10C08000E7E700BF00200240F8B506460D46174618
:10C0900000F051FFB04205D916F0070413D0002478
:10C0A0002046F8BD00F047FF044600F047FF044477
:10C0B000B442F1D900F03FFF3A462946301A00F069
:10C0C00040FF0446ECE703F049FABC4209D22B19C1
:10C0D0002A595B68A119002003F096FA28B90834A0
:10C0E000F3E7012403F052FADAE70024FAE7F8B59F
:10C0F00004460E46154600F01EFFA04201D900235B
:10C1000014E000F018FF074600F018FF0744A742AC
:10C11000F5D900F010FF2A463146201A00F094FEAF
:10C1200007E014F803C006F803C00133AB42F8D3AC
:10C130000120F8BD00B587B000230193029303935B
:10C140000493059358BB03460139042906D8DFE858
:10C1500001F003171A1D210001220392114803EB7D
:10C16000430200EB82025268019203EB430301A9F0
:10C1700050F8230003F0C4FB012007B05DF804FB76
:10C1800002220392EAE701220292E7E701220292E9
:10C190000392E3E70122029202220392DEE70020EB
:10C1A000EBE700BFA8A20108D0B908B5034659B112
:10C1B0000C4803EB430C00EB8C014A7A898850F859
:10C1C0002C0003F01CFD08BD064803EB430C00EBFC
:10C1D0008C018A7A898850F82C0003F010FDF2E770
:10C1E000704700BFA8A2010830B583B0114BDA6CCC
:10C1F00042F00102DA64DB6C03F001030193019B5E
:10C200000024002C06DD0C490C48FEF793F90120B0
:10C2100003B030BDE5B204EB44039A00084B13446D
:10C22000197A2846FFF786FF01212846FFF7BCFF51
:10C230000134E6E7001002407DC200082CA201088C
:10C24000A8A2010808B10020704770B504460A4D45
:10C25000460000EB400305EB8302918855F823006C
:10C2600003F0C6FC264405EB86056B7A984201D0A4
:10C27000002070BD0120FCE7A8A20108F8B5054622
:10C280000388012B09D000262B88022B22D02B8873
:10C29000032B3DD0002E56D0F8BD43693049002015
:10C2A0009847064680B9EFE7E0B2FFF7CBFF0146BB
:10C2B0002C48FDF7A5FE0134002CF5DD2A48FDF7DA
:10C2C0009FFE6420FBF7D6FBFEF728F90028DBD0A1
:10C2D0000024F1E76B6925490020984707460028AC
:10C2E000D5D0AB68012098470446C6B20AE0304674
:10C2F000FFF7A8FF0246E1B21D48FDF781FE64206A
:10C30000FBF7B8FBFEF70AF90028F0D13E46BEE77E
:10C310006B691849002098470028BBD0AB68012002
:10C320009847C4B2AB680220984710F0FF0514BFCD
:10C33000012100212046FFF737FF2A4621460E48FB
:10C34000FDF75EFEA8E70D48FDF75AFE00210C48F8
:10C35000FDF756FE00210B48FDF752FE9CE700BF9B
:10C36000049B01080C9B0108009B010834A20108F2
:10C370003CA2010850A2010858A201086CA20108C1
:10C3800078A201088CA201080268064B1B689A4239
:10C3900000D07047436C002BFBD0034A1368013375
:10C3A0001360F6E71C1C0020701C002008B5024832
:10C3B00003F096FF08BD00BF1C1C0020022800D916
:10C3C000704708B5044B03EBC0010122898853F87C
:10C3D000300003F014FC08BDB4A20108022800D903
:10C3E000704708B5044B03EBC0010022898853F85D
:10C3F000300003F004FC08BDB4A2010810B586B0FB
:10C400000024019402940394049405940F4BDA6C75
:10C4100042F00402DA64DB6C03F004030093009B37
:10C42000012302930DE00A4B03EBC40292880192B0
:10C4300001A953F8340003F063FAE0B2FFF7CEFF2E
:10C440000134022CEFDD012006B010BD00100240C7
:10C45000B4A20108022800D9704708B5044B03EBC9
:10C46000C002918853F8300003F0CEFB08BD00BF36
:10C47000B4A201082DE9F04106460388012B0AD039
:10C4800000273388012B23D03388012B3ED0002F87
:10C490005AD0BDE8F08143693049002098470746EB
:10C4A0000028EED02E4C21882E48FDF7A9FD61888A
