:020000040800F2
:1000000000800020792B0008191000081B10000840
:100010001D1000081F10000821100008000000003B
:10002000000000000000000000000000E1140008D3
:10003000231000080000000081150008E5150008E5
:10004000C92B0008C92B0008C92B0008C92B0008C0
:10005000C92B0008C92B0008C92B0008C92B0008B0
:10006000C92B0008C92B0008C92B0008C92B0008A0
:10007000C92B0008C92B0008C92B0008C92B000890
:10008000C92B000800000000C92B0008C92B00087C
:10009000B9540008AD430008C92B0008C92B00085B
:1000A000C92B0008C92B0008C92B0008C92B000860
:1000B000C92B0008C92B0008C92B0008C92B000850
:1000C000294C0008C92B0008C92B0008C92B0008BF
:1000D000C92B0008C92B0008C92B0008C92B000830
:1000E000C92B0008C92B0008C92B0008C92B000820
:1000F000C92B0008C92B0008C92B0008000000000C
:1001000000000000C92B000800000000C92B0008F7
:10011000C92B00080000000085110008C92B000849
:10012000C92B0008C92B0008C92B0008C92B0008DF
:10013000C92B00080000000000000000C92B0008C7
:10014000C92B0008C92B00080000000000000000B7
:10015000000000000000000000000000000000009F
:10016000000000000000000000000000C92B000893
:10017000C92B000800000000000000000000000083
:1001800000000000C92B0008000000000000000073
:10019000000000000000000000000000000000005F
:1001A0000000000000000000C92B0008C92B000857
:1001B000C92B0008C92B0008C92B0008000000004B
:1001C00000000000C92B0008000000000000000033
:0801D000C92B0008C92B00082F
:1001E00010B5054C237833B9044B13B10448AFF371
:1001F00000800123237010BD6C030020000000006C
:100200008CFE000808B5034B1BB103490348AFF34C
:10021000008008BD00000000700300208CFE000874
:1002200010F8012B11F8013B012A28BF9A42F7D0A0
:10023000D01A70470000000000000000000000001D
:1002400001F0FF01102A2BDB10F0070F08D010F887
:10025000013B013A8B422DD010F0070F42B3F6D18B
:10026000F0B441EA012141EA014122F007047FF0A4
:1002700000070023F0E80256083C85EA010586EAFB
:10028000010685FA47F5A3FA87F586FA47F6A5FA37
:1002900087F68EB9EED1F0BC01F0FF0102F0070243
:1002A00032B110F8013B013A83EA010313B1F8D1EE
:1002B0000020704701387047002D06BF35460338CF
:1002C000073815F0010F07D1013015F4807F02BF08
:1002D000013015F4C03F0130F0BC0138704700BF59
:1002E000034613F8012B002AFBD1181A0138704776
:1002F00081F0004102E000BF83F0004330B54FEAD7
:1003000041044FEA430594EA050F08BF90EA020F43
:100310001FBF54EA000C55EA020C7FEA645C7FEAD6
:10032000655C00F0E2804FEA5454D4EB5555B8BFF9
:100330006D420CDD2C4480EA020281EA030382EA6A
:10034000000083EA010180EA020281EA0303362DFC
:1003500088BF30BD11F0004F4FEA01314FF4801CCF
:100360004CEA113102D0404261EB410113F0004FE1
:100370004FEA03334CEA133302D0524263EB430398
:1003800094EA050F00F0A780A4F10104D5F1200E36
:100390000DDB02FA0EFC22FA05F2801841F1000191
:1003A00003FA0EF2801843FA05F359410EE0A5F165
:1003B00020050EF1200E012A03FA0EFC28BF4CF096
:1003C000020C43FA05F3C01851EBE37101F000454C
:1003D00007D54FF0000EDCF1000C7EEB00006EEB59
:1003E0000101B1F5801F1BD3B1F5001F0CD34908E3
:1003F0005FEA30004FEA3C0C04F101044FEA44523A
:1004000012F5800F80F09A80BCF1004F08BF5FEAC0
:10041000500C50F1000041EB045141EA050130BDA0
:100420005FEA4C0C404141EB0101013C28BFB1F5B2
:10043000801FE9D291F0000F04BF01460020B1FAFD
:1004400081F308BF2033A3F10B03B3F120020CDAD0
:100450000C3208DD02F1140CC2F10C0201FA0CF0AE
:1004600021FA02F10CE002F11402D8BFC2F1200C13
:1004700001FA02F120FA0CFCDCBF41EA0C019040C9
:10048000E41AA2BF01EB0451294330BD6FEA040412
:100490001F3C1CDA0C340EDC04F11404C4F12002FD
:1004A00020FA04F001FA02F340EA030021FA04F30F
:1004B00045EA030130BDC4F10C04C4F1200220FA66
:1004C00002F001FA04F340EA0300294630BD21FAA4
:1004D00004F0294630BD94F0000F83F4801306BF6A
:1004E00081F480110134013D4EE77FEA645C18BF5E
:1004F0007FEA655C29D094EA050F08BF90EA020FF5
:1005000005D054EA000C04BF1946104630BD91EAEC
:10051000030F1EBF0021002030BD5FEA545C05D1EF
:100520004000494128BF41F0004130BD14F580042E
:100530003CBF01F5801130BD01F0004545F0FE41A2
:1005400041F470014FF0000030BD7FEA645C1ABFD7
:10055000194610467FEA655C1CBF0B46024650EA0E
:10056000013406BF52EA033591EA030F41F400213A
:1005700030BD00BF90F0000F04BF0021704730B5C0
:100580004FF4806404F132044FF000054FF0000195
:1005900050E700BF90F0000F04BF0021704730B556
:1005A0004FF4806404F1320410F0004548BF40422B
:1005B0004FF000013EE700BF42004FEAE2014FEA80
:1005C00031014FEA02701FBF12F07F4393F07F4F5B
:1005D00081F06051704732F07F4208BF704793F05E
:1005E0007F4F04BF41F40021704730B54FF4607471
:1005F00001F0004521F000411CE700BF50EA010274
:1006000008BF704730B54FF000050AE050EA01021C
:1006100008BF704730B511F0004502D5404261EB8C
:1006200041014FF4806404F132045FEA915C3FF4CD
:10063000D8AE4FF003025FEADC0C18BF03325FEA6A
:10064000DC0C18BF033202EBDC02C2F1200300FA1B
:1006500003FC20FA02F001FA03FE40EA0E0021FA40
:1006600002F11444BDE600BF70B54FF0FF0C4CF42E
:10067000E06C1CEA11541DBF1CEA135594EA0C0FE0
:1006800095EA0C0F00F0DEF82C4481EA030621EA1B
:100690004C5123EA4C5350EA013518BF52EA033556
:1006A00041F4801143F4801338D0A0FB02CE4FF008
:1006B0000005E1FB02E506F00042E0FB03E54FF038
:1006C0000006E1FB03569CF0000F18BF4EF0010E30
:1006D000A4F1FF04B6F5007F64F5407404D25FEA2C
:1006E0004E0E6D4146EB060642EAC62141EA5551DF
:1006F0004FEAC52040EA5E504FEACE2EB4F1FD0C21
:1007000088BFBCF5E06F1ED8BEF1004F08BF5FEA9E
:10071000500E50F1000041EB045170BD06F0004650
:1007200046EA010140EA020081EA0301B4EB5C04FD
:10073000C2BFD4EB0C0541EA045170BD41F48011F5
:100740004FF0000E013C00F3AB8014F1360FDEBF1A
:10075000002001F0004170BDC4F10004203C35DAF6
:100760000C341BDC04F11404C4F1200500FA05F379
:1007700020FA04F001FA05F240EA020001F000421A
:1007800021F0004110EBD37021FA04F642EB060190
:100790005EEA430E08BF20EAD37070BDC4F10C04BA
:1007A000C4F1200500FA04F320FA05F001FA04F27E
:1007B00040EA020001F0004110EBD37041F100016A
:1007C0005EEA430E08BF20EAD37070BDC4F1200575
:1007D00000FA05F24EEA020E20FA04F301FA05F2DD
:1007E00043EA020321FA04F001F0004121FA04F285
:1007F00020EA020000EBD3705EEA430E08BF20EA55
:10080000D37070BD94F0000F0FD101F0004640008E
:1008100041EB010111F4801F08BF013CF7D041EA10
:10082000060195F0000F18BF704703F00046520014
:1008300043EB030313F4801F08BF013DF7D043EAE5
:100840000603704794EA0C0F0CEA135518BF95EA9B
:100850000C0F0CD050EA410618BF52EA4306D1D122
:1008600081EA030101F000414FF0000070BD50EA41
:10087000410606BF1046194652EA430619D094EACB
:100880000C0F02D150EA013613D195EA0C0F05D1B5
:1008900052EA03361CBF104619460AD181EA030109
:1008A00001F0004141F0FE4141F470014FF00000C1
:1008B00070BD41F0FE4141F4780170BD70B54FF05C
:1008C000FF0C4CF4E06C1CEA11541DBF1CEA1355DC
:1008D00094EA0C0F95EA0C0F00F0A7F8A4EB0504BE
:1008E00081EA030E52EA03354FEA013100F08880B5
:1008F0004FEA03334FF0805545EA131343EA12637E
:100900004FEA022245EA111545EA10654FEA002632
:100910000EF000419D4208BF964244F1FD0404F5EB
:10092000407402D25B084FEA3202B61A65EB030547
:100930005B084FEA32024FF480104FF4002CB6EB04
:10094000020E75EB030E22BFB61A754640EA0C0084
:100950005B084FEA3202B6EB020E75EB030E22BFC4
:10096000B61A754640EA5C005B084FEA3202B6EB05
:10097000020E75EB030E22BFB61A754640EA9C00C4
:100980005B084FEA3202B6EB020E75EB030E22BF94
:10099000B61A754640EADC0055EA060E18D04FEA52
:1009A000051545EA16754FEA06164FEAC30343EAF2
:1009B00052734FEAC2025FEA1C1CC0D111F4801FBF
:1009C0000BD141EA00014FF000004FF0004CB6E7B8
:1009D00011F4801F04BF01430020B4F1FD0C88BF57
:1009E000BCF5E06F3FF6AFAEB5EB030C04BFB6EB62
:1009F000020C5FEA500C50F1000041EB045170BD55
:100A00000EF0004E4EEA113114EB5C04C2BFD4EB81
:100A10000C0541EA045170BD41F480114FF0000E05
:100A2000013C90E645EA060E8DE60CEA135594EA81
:100A30000C0F08BF95EA0C0F3FF43BAF94EA0C0F84
:100A40000AD150EA01347FF434AF95EA0C0F7FF4F9
:100A500025AF104619462CE795EA0C0F06D152EA4D
:100A600003353FF4FDAE1046194622E750EA410631
:100A700018BF52EA43067FF4C5AE50EA41047FF442
:100A80000DAF52EA43057FF4EBAE12E74FF0FF3CA7
:100A900006E000BF4FF0010C02E000BF4FF0010C78
:100AA0004DF804CD4FEA410C7FEA6C5C4FEA430CF1
:100AB00018BF7FEA6C5C1BD001B050EA410C0CBF40
:100AC00052EA430C91EA030F02BF90EA020F0020A2
:100AD000704710F1000F91EA030F58BF994208BF09
:100AE00090422CBFD8176FEAE37040F001007047C6
:100AF0004FEA410C7FEA6C5C02D150EA013C07D11D
:100B00004FEA430C7FEA6C5CD6D152EA033CD3D067
:100B10005DF8040B704700BF8446104662468C4661
:100B20001946634600E000BF01B5FFF7B7FF002894
:100B300048BF10F1000F01BD4DF808EDFFF7F4FFBD
:100B40000CBF012000205DF808FB00BF4DF808ED48
:100B5000FFF7EAFF34BF012000205DF808FB00BF6B
:100B60004DF808EDFFF7E0FF94BF012000205DF88D
:100B700008FB00BF4DF808EDFFF7CEFF94BF012042
:100B800000205DF808FB00BF4DF808EDFFF7C4FF3B
:100B900034BF012000205DF808FB00BF4FEA410C84
:100BA0007FEA6C5C02D150EA013C0AD14FEA430C67
:100BB0007FEA6C5C02D152EA033C02D14FF00000A4
:100BC00070474FF0010070474FEA410212F50012E2
:100BD00015D211D56FF47873B3EB625212D94FEA84
:100BE000C12343F0004343EA505311F0004F23FA6E
:100BF00002F018BF404270474FF00000704750EAC3
:100C0000013005D111F0004008BF6FF0004070477F
:100C10004FF00000704700BF4A0011D212F50012D9
:100C200011D20DD56FF47873B3EB62520ED44FEA44
:100C3000C12343F0004343EA505323FA02F07047C4
:100C40004FF00000704750EA013002D14FF0FF3002
:100C500070474FF0000070474FEA4102B2F1E043A5
:100C600024BFB3F5001CDCF1FE5C0DD901F0004C93
:100C70004FEAC0024CEA5070B2F1004F40EB8300E3
:100C800008BF20F00100704711F0804F21D113F10F
:100C90003872BCBF01F00040704741F480114FEA48
:100CA0005252C2F11802C2F1200C10FA0CF320FAD1
:100CB00002F018BF40F001004FEAC1234FEAD323EE
:100CC00003FA0CFC40EA0C0023FA02F34FEA430358
:100CD000CCE77FEA625307D150EA01331EBF4FF0E1
:100CE000FE4040F44000704701F0004040F0FE40FC
:100CF00040F40000704700BF38B5002200230446CE
:100D00000D46FFF723FF28B920462946BDE83840A5
:100D100000F00AB8204605F1004100F005F8404215
:100D200061EB410138BD00BFD0B50C4B0022064637
:100D30000F46FFF799FCFFF76FFF0446FFF71AFC19
:100D4000074B0022FFF790FC02460B46304639461F
:100D5000FFF7D2FAFFF760FF2146D0BD0000F03D5B
:100D60000000F04138B51A4B1B78012B12D0022B32
:100D700013D14FF47A7500F0C7F80446154B1B6881
:100D8000C31AAB420CD2134B5B68E31AB3F5FA7F7C
:100D900010D238BD4FF4FA75EDE740F6B835EAE702
:100DA0000C4B18600C4A136801331360002003F0E9
:100DB000F1FFE8E7074B5C6004F07CFA18B1012012
:100DC00003F0E8FFE5E7012003F0A8FFE1E700BF3B
:100DD00099030020880300209003002008B5FFF746
:100DE000C1FF0A2000F082F8F9E710B504460020A0
:100DF00004F04DFAB0F5AF6F07D00123237004F073
:100E000059FA08B90023237010BD02232370F6E7B6
:100E100010B50D4C2046FFF7E8FF0C4B1A782378ED
:100E20009A4205D10A4B187860B100221A7008E086
:100E3000064A1370002003F071FF012003F06EFFDB
:100E4000002010BD0120FCE798030020990300203A
:100E50000000002010B588B04FF46141002002F07E
:100E600055F805230093032301220021084602F0D0
:100E700071FE0021084603F0C9FB00F0E7F900F01D
:100E8000BFF90B4B0B4A1A600DF10C0C0A4C0FCC3E
:100E9000ACE80F002368CCF80030002103A800F074
:100EA00000FA08B108B010BD044804F077F8F9E77B
:100EB00094030020110E0008A8FE0008D0FE0008D0
:100EC00008B502E0074800F0C3F9074B1B78012B77
:100ED000F8D0022B02D0FFF79BFFF6E7014800F0A5
:100EE00091F9F2E7940300209903002010B504461D
:100EF00001F01CFD012803D0204600F0ECF910BDE4
:100F0000204605F01DF8FAE708B505F013F808BD0E
:100F100072B6FEE710B5A4B03822002116A80CF076
:100F20002DFA0024119412941394149415944422CD
:100F3000214668460CF022FA204608F04DF808F0E9
:100F400043F8214AD2F8903023F01803C2F89030C9
:100F5000252316934FF480331793012218921C9285
:100F600002231D9303211E911F9228222092219378
:100F700004222292239316A808F04EF9E8B90F2311
:100F800011930323129300231393149315930421B5
:100F900011A808F0F7FB90B90C4B009300230693BF
:100FA0004FF080720C920D934FF48073109368464B
:100FB00008F01AFD28B924B010BDFFF7A9FFFFF70C
:100FC000A7FFFFF7A5FF00BF001002404030080058
:100FD00008B504F093FFFFF79DFF012008BD000056
:100FE00000B583B00B4B1A6E42F001021A661A6EFE
:100FF00002F001020092009A9A6D42F080529A65C6
:101000009B6D03F080530193019B08F06BF803B0D4
:101010005DF804FB00100240FEE7FEE7FEE7FEE796
:10102000FEE770470120704708B50CF037FA162329
:1010300003604FF0FF3008BD08B54FF0FF31FFF7F8
:10104000F3FFFEE770B50C461646002506E0AFF349
:101050000080214601F8010B01350C46B542F6DB54
:10106000304670BD70B50C461646002504E014F8F5
:10107000010BAFF300800135B542F8DB304670BD9F
:101080004FF0FF3070474FF400534B600020704723
:10109000012070470020704710B503460C4A0D49E7
:1010A0000D48006840B10C4800680344521A93424E
:1010B00006D8094A136010BD0748084C0460F2E7DF
:1010C0000CF0ECF90C2303604FF0FF30F3E700BFA6
:1010D00000800020000400009C030020D85C002059
:1010E000034AD2F8883043F47003C2F8883070475E
:1010F00000ED00E030B589B004461D4B9A6D42F01A
:1011000010029A659B6D03F010030193019B02A9E5
:1011100003A808F04BFC08F037FC164AA2FB00239A
:101120009B0C013B1448154A026040F2E732C26052
:10113000436000230361836009F028F8054610B17D
:10114000284609B030BD0C4808F080FE054600284E
:10115000F6D1362004F07EFF0F2C01D90125EFE7F0
:1011600000222146362004F065FF054B1C60E7E7AE
:101170000010024083DE1B43A0030020001000404B
:10118000A001002008B5024808F0A6FE08BD00BF77
:10119000A003002008B50268034B9A4200D008BDA6
:1011A00004F0BCFEFBE700BF0010004008B504F0EF
:1011B00059FEFFF74FFEFFF783FE08BD10B586B05E
:1011C000FFF706FF0DF1040C0C4C0FCCACE80F0040
:1011D0002368CCF80030002101A800F062F820B1AB
:1011E00000F05AF8002006B010BD03F0A7FD002063
:1011F00003F0D0FD6420FFF779FEF8E7BCFE00089D
:101200000120704710B504460D4803F0C7FE02E008
:101210000120FFF76BFE2368984768B1002004F0B7
:1012200007F80028F4D0002004F009F80246054928
:10123000002004F015F8EEE7034803F0AFFE10BD00
:1012400014FF000824FF000830FF00080120704749
:1012500010B50446084803F0A1FE04E002F09EF831
:101260000220FFF743FE236898470028F6D1034881
:1012700003F094FE10BD00BF40FF000850FF0008BF
:10128000842801D00330704700207047EFF30580B9
:10129000003818BF0120704708B501F0D5F80020CC
:1012A00008BDF0B585B00C46456806680769B0F919
:1012B0000800FFF7E5FF03AB019300902346BAB2A5
:1012C0003146284601F090F8012802D1039805B074
:1012D000F0BD0020FBE708B500B9012001F002FADB
:1012E000002008BD08B5012000F070FD08BD30B534
:1012F00083B00023019310B30C460546FFF7C6FFE9
:10130000A0B101AA0021284600F097FE012818D1BB
:10131000019BC3B14FF0E0234FF08052C3F8042D7E
:10132000BFF34F8FBFF36F8F002006E021462846A2
:1013300000F0B0FD012808D1002003B030BD8020AE
:10134000FBE7FF20F9E70020F7E7FF20F5E710B5FE
:1013500082B0044600230193FFF798FF98B101A9DA
:10136000204600F03EFD01281AD1019BD3B14FF079
:10137000E0234FF08052C3F8042DBFF34F8FBFF32B
:101380006F8F002008E000231A461946204600F01F
:101390004DFC012802D0FF2002B010BD0020FBE769
:1013A000FF20F9E70020F7E700F1080343604FF062
:1013B000FF328260C3600361002303607047002333
:1013C0000361704743684B609A688A605160996016
:1013D0000861036801330360704730B40D68B5F1EC
:1013E000FF3F11D000F108031C465B681A68AA424F
:1013F000FAD963684B6099608C606160086103682A
:101400000133036030BC70470469F2E70369416847
:1014100082688A60416851605A68824206D0002220
:1014200002611A68013A1A601868704782685A6047
:10143000F5E7000082B0002301930D4B1B68B3F168
:10144000FF3F08D04FF0500383F31188BFF36F8F35
:10145000BFF34F8FFEE74FF0500383F31188BFF3C4
:101460006F8FBFF34F8F019B002BFCD002B07047F2
:101470000800002008480068006880F308884FF0E2
:10148000000080F3148862B661B6BFF34F8FBFF3DC
:101490006F8F00DF00BF000008ED00E0DFF80C00F8
:1014A000016841F4700101607047000088ED00E0C0
:1014B0004FF0807340F8043C21F0010140F8081C13
:1014C000054B40F80C3C40F8202C6FF0020340F82C
:1014D000243C4438704700BF351400080000000069
:1014E000074B19680868B0E8F04F80F30988BFF32C
:1014F0006F8F4FF0000080F311887047AFF30080CA
:101500003C2500204FF0500383F31188BFF36F8F09
:10151000BFF34F8F0B4A136801331360012B00D0C8
:1015200070474FF0E023D3F8043D13F0FF0FF7D0DE
:101530004FF0500383F31188BFF36F8FBFF34F8FCA
:10154000FEE700BF08000020094B1B6843B94FF0BD
:10155000500383F31188BFF36F8FBFF34F8FFEE704
:10156000013B034A13600BB983F31188704700BF36
:101570000800002000000000000000000000000043
:10158000EFF30980BFF36F8F154B1A681EF0100F31
:1015900008BF20ED108A20E9F04F10602DE9090006
:1015A0004FF0500080F31188BFF34F8FBFF36F8F60
:1015B00001F0BEF84FF0000080F3118809BC1968F3
:1015C0000868B0E8F04F1EF0100F08BFB0EC108AAA
:1015D00080F30988BFF36F8F704700BFAFF30080BF
:1015E0003C25002008B54FF0500383F31188BFF36A
:1015F0006F8FBFF34F8F00F06DFF28B14FF0E023E6
:101600004FF08052C3F8042D002383F3118808BDE6
:101610004FF0E022002313619361054B1B680549DD
:10162000A1FB03139B09013B53610723136170471F
:1016300004000020D34D62104FF0E023D3F8002DBA
:101640003D4B9A421CD04FF0E023D3F8002D3B4B8A
:101650009A421ED030B583B0394B1A78D2B201927B
:10166000FF221A701B78DBB28DF803309DF803302F
:1016700003F05003334A1370334B07221A601BE008
:101680004FF0500383F31188BFF36F8FBFF34F8F79
:10169000FEE74FF0500383F31188BFF36F8FBFF362
:1016A0004F8FFEE7284A1368013B13609DF8033013
:1016B0005B00DBB28DF803309DF8033013F0800F30
:1016C000F0D1214B1B68032B08D04FF0500383F35C
:1016D0001188BFF36F8FBFF34F8FFEE71B021A4ACB
:1016E000136003F4E0631360019BDBB2144A1370D0
:1016F0004FF0E024D4F8203D43F47003C4F8203DBB
:10170000D4F8203D43F07043C4F8203DFFF780FF3C
:1017100000250E4B1D60FFF7C1FED4F8343F43F0A7
:101720004043C4F8343FFFF7A5FE01F001F8FFF78E
:1017300081FE284603B030BD71C20F4170C20F4117
:1017400000E400E0F0030020EC030020080000208B
:10175000EFF305830F2B0FD9114A9B5CDBB2114AC3
:1017600012789A4208D94FF0500383F31188BFF3DF
:101770006F8FBFF34F8FFEE74FF0E023D3F80C3DA0
:1017800003F4E063084A1268934208D94FF050030B
:1017900083F31188BFF36F8FBFF34F8FFEE770475E
:1017A000F0E300E0F0030020EC030020124A12F006
:1017B000070F1ED0D11D21F00701C1F500531344BE
:1017C0000A460E480260002141601344083B23F0A2
:1017D00007030B48036059601960991A5160136040
:1017E000084B1960084B1960084B4FF000421A6013
:1017F00070474FF40053E4E7140400200C04002069
:10180000080400200004002004040020F403002049
:10181000164B1A461B688342FBD3516802EB010C3E
:10182000844509D0416800EB010C634509D0036091
:10183000904219D0106070474068014451601046D2
:10184000F0E710B40A4C2468A3420BD05B6819443B
:10185000416013681B680360904200D010605DF81F
:10186000044B70470460F7E7704700BF0C0400208A
:101870000804002038B5044600F024FE384B1B68ED
:10188000B3B1384B1B681C4250D1002C50D004F12E
:10189000080214F0070F02D022F007020832002AD3
:1018A00055D0314B1B68934253D330490C6804E048
:1018B000FFF77CFFE5E721461C466368934202D2AE
:1018C0002368002BF7D1264B1B68A34243D00D6839
:1018D000083523680B6063689B1A102B10D9A01879
:1018E00010F0070F08D04FF0500383F31188BFF3B7
:1018F0006F8FBFF34F8FFEE743606260FFF788FF93
:10190000626819490B689B1A0B60194909688B4278
:1019100001D217490B60134B1B681343636000230C
:101920002360144A13680133136002E0002500E0CD
:10193000002500F05BFE15F0070F0ED04FF05003AE
:1019400083F31188BFF36F8FBFF34F8FFEE700253E
:10195000EFE70025EDE70025EBE7284638BD00BF9F
:1019600008040020F4030020040400200C040020DC
:1019700000040020FC030020002834D038B50446C1
:10198000A0F1080550F8043C174A1268134208D128
:101990004FF0500383F31188BFF36F8FBFF34F8F66
:1019A000FEE750F8081C41B14FF0500383F3118853
:1019B000BFF36F8FBFF34F8FFEE723EA020340F8B8
:1019C000043C00F07FFD54F8041C084A13680B44E3
:1019D00013602846FFF71CFF054A136801331360A4
:1019E00000F004FE38BD7047F4030020040400201A
:1019F000F80300200346406A18B11B6B1868C0F159
:101A00000700704710B50446FFF77CFDA26BE36B3F
:101A10009A4204D00024FFF797FD204610BD012410
:101A2000F9E710B50446FFF76DFDA36B23B9012458
:101A3000FFF78AFD204610BD0024F9E770B5044683
:101A40001546866B026C5AB903681BB1002001363B
:101A5000A66370BD806800F0CFFF0023A360F6E7A7
:101A60006DB940680BF04FFD6368226C13446360EE
:101A7000A268934219D3236863602846E7E7C068E9
:101A80000BF041FDE368226C51429B1AE36022682F
:101A9000934202D2A3680B44E360022D01D00020E0
:101AA000D5E726B1013E0020D1E72846CFE7002048
:101AB000CDE70346026C6AB110B50846D9681144F7
:101AC000D9609C68A14201D31968D960D9680BF02C
:101AD0001AFD10BD704738B50546FFF713FD95F8A0
:101AE000454064B201E0013C64B2002C0ADD6B6A3F
:101AF00043B105F1240000F07FFE0028F3D000F090
:101B00000FFFF0E7FF2385F84530FFF71DFDFFF7D6
:101B1000F9FC95F8444064B201E0013C64B2002C49
:101B20000ADD2B6943B105F1100000F065FE0028C5
:101B3000F3D000F0F5FEF0E7FF2385F84430FFF71F
:101B400003FD38BD38B5E0B10D460446FFF7DAFCB9
:101B50002368E26B216C01FB0230A0600020A063CF
:101B60006360013A02FB0133E360FF2384F84430F1
:101B700084F84530FDB9236963B9FFF7E5FC01201E
:101B800038BD4FF0500383F31188BFF36F8FBFF35D
:101B90004F8FFEE704F1100000F02EFE0028ECD07D
:101BA0004FF0E0234FF08052C3F8042DBFF34F8F66
:101BB000BFF36F8FE1E704F11000FFF7F5FB04F1CD
:101BC0002400FFF7F1FBD8E738B51D46049C0B460F
:101BD00049B92460E063236401212046FFF7B2FF86
:101BE00084F84C5038BD2260F4E740B94FF0500300
:101BF00083F31188BFF36F8FBFF34F8FFEE7F0B50C
:101C000083B00C461546064601FB00F05030FFF746
:101C100031FE074638B100902B4600F150022146B4
:101C20003046FFF7D1FF384603B0F0BDF0B585B0C0
:101C3000019288B10F461D460446B1B1022D20D154
:101C4000E36B012B1DD04FF0500383F31188BFF3DA
:101C50006F8FBFF34F8FFEE74FF0500383F3118870
:101C6000BFF36F8FBFF34F8FFEE7036C002BE5D000
:101C70004FF0500383F31188BFF36F8FBFF34F8F83
:101C8000FEE700F053FE064658B9019B002B48D0F2
:101C90004FF0500383F31188BFF36F8FBFF34F8F63
:101CA000FEE700263DE02A4639462046FFF7C6FEFD
:101CB000636A7BB948B14FF0E0234FF08052C3F81C
:101CC000042DBFF34F8FBFF36F8FFFF73DFC012053
:101CD00005B0F0BD04F1240000F08EFD0028F4D022
:101CE0004FF0E0234FF08052C3F8042DBFF34F8F25
:101CF000BFF36F8FE9E7FFF727FC0020E8E702A8B2
:101D000000F0C0FD012619E0002384F8443021E0F2
:101D1000002384F8453023E02046FFF7DCFE00F086
:101D200065FCFFF7EFFBA26BE36B9A42BBD3022D7E
:101D3000B9D0019B002BDED0002EE0D0FFF704FCD1
:101D400000F0C0FBFFF7DEFB94F8442052B2B2F182
:101D5000FF3FD9D094F8452052B2B2F1FF3FD7D01F
:101D6000FFF7F2FB01A902A800F098FDD8B92046C0
:101D7000FFF748FE0028CFD0019904F1100000F0D1
:101D800023FD2046FFF7A7FE00F030FC0028C8D155
:101D90004FF0E0234FF08052C3F8042DBFF34F8F74
:101DA000BFF36F8FBDE72046FFF795FE00F01EFCE6
:101DB00000208DE748B108B5002181600160C16055
:101DC0000B460A46FFF732FF08BD704710B50246C2
:101DD00000210120FFF709FF0446FFF7EBFF204633
:101DE00010BD68B170B50C460546036C8BB14FF061
:101DF000500383F31188BFF36F8FBFF34F8FFEE75C
:101E00004FF0500383F31188BFF36F8FBFF34F8FF1
:101E1000FEE70368EBB1FFF79BFCEFF311864FF091
:101E2000500383F31188BFF36F8FBFF34F8FAA6BFB
:101E3000EB6B934226D995F845305BB20132AA6329
:101E4000B3F1FF3F11D001335BB285F8453001207B
:101E500019E08368002BDED04FF0500383F3118824
:101E6000BFF36F8FBFF34F8FFEE76B6A0BB9012093
:101E700009E005F1240000F0BFFC38B144B10120B5
:101E8000206000E0002086F3118870BD0120FAE791
:101E90000120F8E770B584B0019158B10446036C95
:101EA0008BB14FF0500383F31188BFF36F8FBFF3F3
:101EB0004F8FFEE74FF0500383F31188BFF36F8F0E
:101EC000BFF34F8FFEE700F031FD054650B9019B8F
:101ED0005BB14FF0500383F31188BFF36F8FBFF3F3
:101EE0004F8FFEE70026354655E0064653E0013B9E
:101EF000A36323683BB123694BB9FFF725FB012698
:101F0000304604B070BD00F029FEA060F3E704F194
:101F1000100000F071FC0028EFD04FF0E0234FF0EC
:101F20008052C3F8042DBFF34F8FBFF36F8FE4E7E8
:101F300046B14FF0500383F31188BFF36F8FBFF3A7
:101F40004F8FFEE7FFF700FBDAE702A800F09AFCEC
:101F500001252AE0002384F8443032E0002384F88D
:101F6000453034E0FFF7CEFAA06800F0EFFC0646FB
:101F7000FFF7EAFA3BE02046FFF7ADFD00F036FB45
:101F800009E02046FFF7A7FD00F030FB2046FFF7F1
:101F900048FD002842D1FFF7B5FAA36B002BA6D16C
:101FA000019B002BC4D0002DCFD0FFF7CDFA00F05D
:101FB00089FAFFF7A7FA94F844305BB2B3F1FF3F18
:101FC000C8D094F845305BB2B3F1FF3FC6D0FFF7FD
:101FD000BBFA01A902A800F061FC0028D1D120467B
:101FE000FFF71FFD0028C6D02368002BBAD0019947
:101FF00004F1240000F0E8FB2046FFF76CFD00F040
:10200000F5FA0028C7D14FF0E0234FF08052C3F813
:10201000042DBFF34F8FBFF36F8FBCE70EB90026BF
:102020006EE7FFF76FFA2046FFF7E4FC0146A06871
:1020300000F03AFDFFF788FAF1E72DE9F843B0B177
:102040000D4690460446D9B1FFF782FBEFF31187A6
:102050004FF0500383F31188BFF36F8FBFF34F8F9F
:10206000A66BCEB9002087F31188BDE8F8834FF046
:10207000500383F31188BFF36F8FBFF34F8FFEE7D9
:10208000036C002BE0D04FF0500383F31188BFF3B3
:102090006F8FBFF34F8FFEE794F844904FFA89F9A2
:1020A00029462046FFF705FD731EA363B9F1FF3FE4
:1020B00006D009F101035BB284F844300120D2E775
:1020C00023690BB90120CEE704F1100000F094FB66
:1020D00030B1B8F1000F05D00120C8F80000C2E708
:1020E0000120C0E70120BEE7084B1B681B6823B92D
:1020F000074B4FF0FF321A607047044B1B68DB68D8
:10210000DB685A68024B1A60704700BF84240020C5
:102110001C24002010B50446006BFFF72DFC204660
:10212000FFF72AFC10BD2DE9F04780460D46174603
:102130009946089EDDF824A00A9C9200A521206BF8
:102140000BF01CF9236B07F18042013A03EB820785
:1021500027F00707A5B34FF0000CBCF10F0F09D80B
:1021600015F80C3004EB0C0282F8343013B10CF18A
:10217000010CF2E7002384F84330062E00D906262E
:10218000E662E66400252565201DFFF718F904F1D5
:102190001800FFF714F92461C6F10706A66164620E
:1021A000656584F858504A4641463846FFF780F93D
:1021B0002060BAF1000F01D0CAF80040BDE8F087F6
:1021C000002384F83430D8E738B5002407E004EB66
:1021D000840293000E481844FFF7E6F80134062CF9
:1021E000F5D90C4D2846FFF7DFF80B4C2046FFF7DA
:1021F000DBF80A48FFF7D8F80948FFF7D5F809488F
:10220000FFF7D2F8084B1D60084B1C6038BD00BFBB
:10221000B02400209C240020882400206C2400206E
:102220005824002040240020842400208024002002
:1022300010B50446FFF766F9224A136801331360AC
:10224000214B1B685BB1214B1B686BB91E4B1B6894
:10225000DA6AE36A9A4207D81B4B1C6004E01A4B07
:102260001C601368012B29D0194A136801331360CD
:102270006364E06A01238340164A11680B431360CC
:1022800000EB8000211D144B03EB8000FFF79AF850
:10229000FFF75AF90D4B1B687BB10B4B1B68DA6AD1
:1022A000E36A9A4209D24FF0E0234FF08052C3F81C
:1022B000042DBFF34F8FBFF36F8F10BDFFF784FF67
:1022C000D2E700BF3C2400203C2500203024002021
:1022D0002024002034240020B02400200F4B1B6851
:1022E000D3B110B5FFF70EF90D4BDB68DC68201D8C
:1022F000FFF78CF80B4A1368013B1360074A136819
:10230000013B1360FFF720F92046FFF703FF034B63
:102310001B68002BE6D110BD704700BF542400207D
:10232000582400203C24002008B5FFF7D7FF074BB6
:102330001B68012BF9D94FF0E0234FF08052C3F80E
:10234000042DBFF34F8FBFF36F8FEEE7B024002053
:1023500070B504460D461D4B1E681D4B18680430B1
:10236000FFF754F848B91A4B1B68DB6A01229A4000
:1023700018490B6823EA02030B60B4F1FF3F0DD04C
:102380003444134B1B685C60A64210D9124B18688A
:102390000F4B19680431FFF720F870BD002DEFD006
:1023A0000B4B196804310D48FFF70CF8F5E70C4B9F
:1023B0001868074B19680431FFF70FF8094B1B68C1
:1023C000A342EAD9074B1C60E7E700BF382400208E
:1023D0003C250020342400208024002040240020BC
:1023E000842400201C2400202DE9F04385B00746FA
:1023F0000E4614461D469000FFF73CFAF8B18146A0
:102400005C20FFF737FA804698B1C0F8309000237F
:10241000039302900D9B01930C9B00932B46224645
:1024200031463846FFF77FFE4046FFF701FF0120A7
:1024300007E04846FFF7A0FA4FF0FF3001E04FF009
:10244000FF3005B0BDE8F08300B583B0174B0193B2
:1024500000230093802216491648FFF7C5FF012884
:1024600005D0B0F1FF3F17D003B05DF804FB4FF08B
:10247000500383F31188BFF36F8FBFF34F8F0E4B61
:102480004FF0FF321A600D4B01221A600C4B0022F4
:102490001A60FFF7D1F8E7E74FF0500383F3118894
:1024A000BFF36F8FBFF34F8FFEE700BF18240020EC
:1024B00060FF0008292300081C240020302400208D
:1024C00038240020024A136801331360704700BFAC
:1024D00014240020F8B53A4B1B68002B69D1394B06
:1024E0001D6801351D60C5B9374B1B681B6843B1BA
:1024F0004FF0500383F31188BFF36F8FBFF34F8FFB
:10250000FEE7314A1168314B186810601960304A93
:10251000136801331360FFF7E7FD2E4B1B68AB42D6
:102520003DD900272C4B1B68DB6A03EB83039A0021
:102530002A4B9B58012B00D90127294B1B68002BE4
:102540003CD001273AE001271F4B1B681B6843B3AF
:102550001D4B1B68DB68DC6863689D4226D3261D23
:102560003046FEF753FFA36A1BB104F11800FEF7D3
:102570004DFFE36A01229A401A49086802430A6043
:1025800003EB83039A00314614481044FEF71AFF08
:10259000E26A114B1B68DB6A9A42D4D2D4E7002767
:1025A000D2E70C4B4FF0FF321A60BBE7094A1360C9
:1025B000B8E70D4A13680133136000273846F8BDA9
:1025C00014240020382400208424002080240020AB
:1025D000242400201C2400203C250020B0240020BE
:1025E00028240020342400202C24002038B5354B2A
:1025F0001B6843B94FF0500383F31188BFF36F8F0B
:10260000BFF34F8FFEE7FEF77DFF2E4B1A68013AAE
:102610001A601B68002B4FD12B4B1B680BB9002491
:102620004BE00024294B1B681BB3284BDB68DC689C
:1026300004F11800FEF7EAFE251D2846FEF7E6FE27
:10264000E06A01238340224A11680B43136000EBC8
:10265000800029461F4B03EB8000FEF7B3FEE26AC1
:102660001D4B1B68DB6A9A42DCD31C4B01221A60AB
:10267000D8E70CB1FFF738FD194B1C6884B9174B2C
:102680001C68D4B14FF0E0234FF08052C3F8042D02
:10269000BFF34F8FBFF36F8F01240EE0013C07D0D3
:1026A000FFF718FF0028F9D00C4B01221A60F5E75C
:1026B0000B4B00221A60E2E70024FEF745FF20469C
:1026C00038BD00BF142400203C2400206C240020CE
:1026D00034240020B02400203C25002028240020A1
:1026E0002C24002010B5A8B10446104B1B6843B140
:1026F0004FF0500383F31188BFF36F8FBFF34F8FF9
:10270000FEE7FFF7DFFE00212046FFF721FEFFF77F
:102710006DFF48B94FF0E0234FF08052C3F8042D0D
:10272000BFF34F8FBFF36F8F10BD00BF1424002085
:10273000204B1B681BB1204B01221A6070471E4BB7
:1027400000221A601D4B1B68B3FA83F3DBB2C3F19E
:102750001F0303EB83018A0019498A5842B94FF0DD
:10276000500383F31188BFF36F8FBFF34F8FFEE7E2
:10277000134803EB83018A000244516849685160A1
:1027800003EB830C4FEA8C0208320244914209D0D9
:1027900003EB83039A000A4B13445B68DA68094B26
:1027A0001A607047486862469100054A0A445060C2
:1027B000EEE700BF14240020282400203424002049
:1027C000B02400203C25002058B110B50C46094A21
:1027D00011681831FEF701FE01212046FFF7B8FD10
:1027E00010BD4FF0500383F31188BFF36F8FBFF319
:1027F0004F8FFEE73C25002038B5C368DC6824B362
:1028000004F118052846FEF701FE184B1B682BBB88
:10281000251D2846FEF7FAFDE06A01238340144A8D
:1028200011680B43136000EB80002946114B03EB4A
:102830008000FEF7C7FDE26A0F4B1B68DB6A9A4215
:1028400011D901200D4B186038BD4FF0500383F3B0
:102850001188BFF36F8FBFF34F8FFEE729460848FB
:10286000FEF7B0FDE7E70020EEE700BF14240020EC
:1028700034240020B02400203C25002028240020FF
:102880006C240020034B1B680360034B1B684360F0
:10289000704700BF2424002038240020F8B5C8B1B8
:1028A0000C460546F9B1FEF72DFE1B4B19686B6807
:1028B000C81A2268B2F1FF3F26D0184E36682F683A
:1028C000B74201D08B4224D9824215D8002323601D
:1028D00001241AE04FF0500383F31188BFF36F8F88
:1028E000BFF34F8FFEE74FF0500383F31188BFF320
:1028F0006F8FBFF34F8FFEE75B1A134423602846A8
:10290000FFF7C0FF002400E00024FEF71DFE204674
:10291000F8BD0124F9E700BF38240020242400205A
:10292000014B01221A60704728240020054B1B68C8
:1029300033B1054B1B680BB1002070470220704774
:10294000012070473024002014240020002848D0A3
:1029500038B50446C36A254A1268D26A934238D20F
:102960008269002A05DB214A1268D26AC2F1070295
:102970008261616903EB83031D4A02EB8303994281
:1029800005D01A4B1B68DB6AE362012038BD251DA8
:102990002846FEF73BFD38B9E36A01229A40154903
:1029A0000B6823EA02030B60104B1B68D86AE062D5
:1029B000012404FA00F30F4A11680B43136000EB83
:1029C000800029460A4B03EB8000FEF7FBFC204603
:1029D000DCE7C26C054B1B68DB6A9A4203D300201C
:1029E000D4E7002070470120D0E700BF3C2500203D
:1029F000B02400203424002000284BD038B50446F1
:102A0000264B1B68834208D04FF0500383F3118894
:102A1000BFF36F8FBFF34F8FFEE7036D43B94FF0E6
:102A2000500383F31188BFF36F8FBFF34F8FFEE71F
:102A3000013B0365C16AC26C91422DD00BB10020ED
:102A400038BD051D2846FEF7E1FC68B9E36A03EBD3
:102A50008302920012498A5832B901229A401149E0
:102A60000B6823EA02030B60E06CE062C0F107032D
:102A7000A361012404FA00F30A4A11680B431360AE
:102A800000EB80002946064B03EB8000FEF79AFC22
:102A90002046D5E7002070470020D1E73C250020E4
:102AA000B02400203424002000284FD038B504463C
:102AB000036D43B94FF0500383F31188BFF36F8F59
:102AC000BFF34F8FFEE7C26C8A4200D20A46E16A2A
:102AD000914201D0012B00D038BD1D4B1B68A34291
:102AE0002BD0E262A369002B02DBC2F10702A261D4
:102AF000626901EB8101174B03EB81039A42EBD131
:102B0000251D2846FEF782FC38B9E36A01229A4067
:102B100011490B6823EA02030B60E06A012383403A
:102B20000D4A11680B43136000EB80002946094BE6
:102B300003EB8000FEF746FCCEE74FF0500383F333
:102B40001188BFF36F8FBFF34F8FFEE7704700BF51
:102B50003C250020B024002034240020054B1B68B5
:102B600023B1044B1A68136D01331365014B1868C8
:102B7000704700BF3C2500200D488546FEF7B0FA9F
:102B80000C480D490D4A002302E0D458C4500433C8
:102B9000C4188C42F9D30A4A0A4C002301E013609E
:102BA0000432A242FBD30AF07FFCFEF707FBFEE7EC
:102BB00000800020000000206C030020700D010840
:102BC0006C030020D45C0020FEE703460020186060
:102BD00058609A600120D8601961704710B40024D1
:102BE000046044608360C260016101205DF8044BB1
:102BF0007047F0B500270CE00CEB030511F803E07B
:102C000006F805E00133C5689D42F5D82944046003
:102C10000137974213D205686B1C8468B3FBF4F646
:102C200004FB16344368A3420BD00669002EEED095
:102C30000029ECD0C36803FB05FC0023E3E7012077
:102C4000F0BD0020FCE770B50C461646002516E0E6
:102C500001EB0E0C1CF803C004F803C00133C2687A
:102C60009A42F5D8144443680268934216D001335F
:102C70008268B3FBF2F102FB113343600135B542C8
:102C80000AD201690029EED0002CECD04368C2685A
:102C900002FB03FE0023E2E7012070BD0020FCE7F9
:102CA00003690268C06800FB02307047036842682D
:102CB0009B1A8268B3FBF2F002FB103070470023CE
:102CC00080F8E63280F8E5323F2280F8E42280F88E
:102CD000A432704738B5054690F8964104EB44108D
:102CE00004EB40002844432205F5297100F5CC701F
:102CF0000AF009FC95F89731032B02D8013385F8C7
:102D0000973185F895410134634204F0030403F0E0
:102D1000030358BF5C4285F89641012385F894313E
:102D200038BD002303E08CF8002001339BB20F2B49
:102D30000BD800EB030CC25C3AB1A2F16101C9B23D
:102D40001929F0D8203AD2B2EDE7102B00D0704705
:102D5000013B0022C254FAE7064BB3F82C349842E8
:102D600005D2044BD3F8303453F8200070470020CC
:102D7000704700BF4025002008B50346094AB2F855
:102D80002C2490420AD20846064AD2F8302452F83F
:102D90002310FDF745FA18B1002000E0002008BD1F
:102DA0000120FCE74025002008B5084BB3F82C347F
:102DB000984202D39FED060A08BD044BD3F8303485
:102DC000002153F8200009F033FCF5E740250020EE
:102DD0000000000008B5084BB3F82C34984201D32A
:102DE000002008BD044BD3F830340022114653F8BC
:102DF000200009F0EFFCF4E74025002010B5044660
:102E00000449007802F02CFA0349207802F028FAED
:102E100010BD00BF1005010868FF000838B590F824
:102E2000973143B304460D4690F8E52222BB94F84F
:102E3000E62232BB012D29D094F99511013194F885
:102E4000973191FBF3F203FB121184F89511C9B28B
:102E500001EB411301EB43012144432201F5CC7105
:102E600004F529700AF04FFB94F8E63284F8E53255
:102E7000002384F8943138BD0F49007802F0F0F94E
:102E8000D5E70E49207802F0EBF9D3E794F89431B6
:102E90001BB194F9963184F8953194F9951194F811
:102EA00097311944013991FBF3F203FB121184F8B5
:102EB0009511C9B2CCE700BF70FF000878FF000889
:102EC00070B582B006460024A0F8124100F58A755C
:102ED000C0F8144101AA0C4900F529700AF090FAD3
:102EE000234609E05C1CA4B245F8230001AA064968
:102EF00000200AF085FA23460028F3D1A6F8123103
:102F000003B1012002B070BD80FF000810B5034C72
:102F10002070616002F078F9207210BD4025002019
:102F200038B5234B5B7A03B938BD054690F8E522E6
:102F30002049807A02F094F995F8E6221E49A87A91
:102F400002F08EF995F8E4221C49A87A02F088F97B
:102F500005F529721A49A87A02F082F995F99521A6
:102F60001849A87A02F07CF995F896211649A87AB2
:102F700002F076F995F897211449A87A02F070F9D1
:102F800000240CE004EB441304EB430303F5CC737F
:102F90002B4422460E49A87A02F062F9013495F8D2
:102FA0009731A342EEDC0B49A87A02F059F9BBE74E
:102FB0004025002088FF000898FF0008A8FF0008AF
:102FC000B8FF0008C8FF0008D8FF0008E8FF0008A5
:102FD000F8FF00081005010808B50A460146024B33
:102FE000187802F033F908BD402500200FB410B561
:102FF00082B004AB53F8042B0193084C4FF480715A
:1030000020460AF0ADF90246214614F8110C02F0F0
:103010001DF902B0BDE8104004B0704751250020F2
:1030200038B50546FFF74CFF08B9002038BD1648F3
:10303000FFF7DCFFD5F81401FFF773FE0024B5F8A5
:10304000E832A342F1DD04EB8401890001F53A7115
:1030500029440431D5F81401FDF7E2F808B1013430
:10306000EDE7B5F81231013BA5F82C3405F58C736A
:10307000C5F8303404EB840405EB8404D4F8FC3246
:1030800005F22C409847D0E71005010830B585B00F
:1030900004468DF80710037CABB9CBB21B2B30D0A4
:1030A0001CD8082B4BD00D2B40F0848090F8E632D2
:1030B0000BBB002384F8E63284F8E53284F8A432AE
:1030C0002046FFF79BFE237C013B032B00F2C880C8
:1030D000DFE813F0C400CC00CF0056017F2B69D18C
:1030E00090F8E5C290F8E6E2F445ECD2AEEB0C05C0
:1030F000EDB2012212E0FFF7EDFD2046FFF790FF51
:10310000D7E701230374DEE70CEB0203591E2344C7
:1031100093F8A402631883F8A40201329542F3DC09
:103120000EF1FF3E5FFA8EFE84F8E6E2A64400232D
:103130008EF8A4329449207802F092F8C3E790F810
:10314000E6325BB390F8E50240B3834209D094F8CD
:10315000E6C2604522D2ACEB000E5FFA8EFE002282
:1031600011E0013BDBB284F8E6322344002283F80D
:10317000A422ECE78318591E234493F8A452631841
:1031800083F8A45201329645F4DC0CF1FF33DBB234
:1031900084F8E6322344002283F8A42294F8E5322E
:1031A000002B90D0013B84F8E5327849207802F07A
:1031B00057F888E794F8E632591C94F8E4229142D3
:1031C00081DA94F8E522934216D094F8E5C294F897
:1031D000E6028445BFF477AFA0EB0C05EDB2002208
:1031E000954224DD831A591E214491F8A4122344E8
:1031F00083F8A4120132F3E701220DF107012078D0
:1032000002F024F894F8E522A3189DF8071083F83B
:10321000A41294F8E6320133DBB284F8E6320132CC
:1032200084F8E5222344002283F8A422CDE79DF808
:10323000072004EB0C0383F8A4220130C0B284F809
:10324000E6020CF1010C84F8E5C22044002380F86A
:10325000A4324F49207802F003F834E702232374A4
:103260002046FFF75DFE002005B030BD0323237428
:10327000F6E7002323749DF80730442B26D09DF8F1
:103280000730432B37D09DF80730412B4AD09DF8AB
:103290000730422B50D09DF80730312B56D09DF887
:1032A0000730342BDCD194F8E53294F8E6229342CF
:1032B00058D394F8E52294F8E6329A4259D894F813
:1032C000E63284F8E53204232374C9E794F8E52252
:1032D000002AD4D0013A84F8E5221B228DF8082078
:1032E0005B228DF809208DF80A30032202A920788C
:1032F00001F0ACFFC3E794F8E52294F8E6128A42A5
:10330000C1D2013284F8E5221B228DF808205B220D
:103310008DF809208DF80A30032202A9207801F0E7
:1033200095FFB0E701212046FFF778FD04F52971EC
:10333000207801F095FFAAE700212046FFF76EFDF7
:1033400004F52971207801F08BFFA4E794F8E522B9
:103350001049207801F084FF002384F8E53204232B
:1033600023749CE7D21A92B20B49207801F078FFBF
:103370009FE7D21A92B20749207801F071FF9EE7C9
:10338000002323746CE700BF080001081000010847
:103390001800010870FF00082400010838B5094B27
:1033A0001C7A0CB9204638BD187801F041FF00287E
:1033B000F8D0044D287801F042FF01462846FFF777
:1033C00065FEEFE74025002010B50F48FFF70EFE21
:1033D0000E48FFF70BFE00240DE004EB8403980079
:1033E00000F53A700A4B18440430FFF7FFFD064819
:1033F000FFF7FCFD0134064BB3F8E832A342ECDCE6
:103400000448FFF7F3FD10BD100501082C0001086A
:10341000402500204C0001082DE9F04383B00388CB
:10342000446873B1012B12D810270022114620687E
:1034300009F0D0F906462B48FFF7D8FDB046002426
:103440001BE02948FFF7D2FD03B0BDE8F08300225E
:103450001146606809F0BEF90746E6E7316823487F
:10346000FFF7C4FD624204F0030302F0030258BFF9
:103470005342032B0BD004360134BC42E4DA14F07F
:10348000030FEBD131461A48FFF7B0FDE6E71948C4
:10349000FFF7ACFD4FF0000917E01748FFF7A6FD56
:1034A0000135032D0DDC05F108036B4413F8041CF2
:1034B000A1F12003DBB25E2BEFD81048FFF796FD99
:1034C000EEE708F1040809F10109B9F1030F04DC82
:1034D000D8F8003001930025E3E70948FFF786FD9F
:1034E000C9E700BF840001086C00010898000108CA
:1034F0008C000108A0000108A8000108A400010830
:10350000AC00010808B5044B187801F091FE08B929
:10351000012008BD0020FCE7402500202DE9F041F6
:10352000124BB3F8E8520F2D02D90020BDE8F0810C
:103530000E46AF0005EB8504A40004F53A749846E6
:103540001C4404340146204609F0D5FF2F4408EB03
:103550008707C7F8FC622046FFF7E3FBB8F8E832BC
:103560000133A8F8E8320120E0E700BF4025002041
:1035700008B51248002303724372037480F8953132
:1035800080F8963180F8973180F894310C4BC0F870
:1035900034340C4BC0F838340B4BC0F83C340B4B74
:1035A000C0F84034FFF78BFB09490A48FFF7B6FF24
:1035B00009490A48FFF7B2FF012008BD4025002055
:1035C000D52D0008A92D0008592D0008792D0008D7
:1035D000C9330008B400010819340008BC00010810
:1035E000032801D90020704770B504460A4D4600F3
:1035F00000EB400305EB8302918855F8230003F0AC
:1036000083FB264405EB86052B7A984201D00020E7
:1036100070BD0120FCE700BFA001010838B50024FF
:103620002EE02C2303FB042501236B70FDF76CFCBB
:103630006860002203E023440021D97001324C4B22
:103640001B8893422ADD4B4B53F8223059780529C9
:10365000F1D823440121D970F0E7012932D0464A3C
:103660002C2000FB0422926A934231D2FDF74CFCDD
:10367000414B2C2202FB0433986000221A73013460
:10368000032C73DCE0B2FFF7ABFF00283DD02C2306
:1036900004FB03F3384AD35C002BC2D036492C23F9
:1036A00004FB03F3CA180120C854538803449BB297
:1036B0005380D1690029D0D12F4A2C2000FB04224D
:1036C000126AD1E72C4A2C2000FB0422526ACBE775
:1036D000294B2C2202FB043300225A800131D9618C
:1036E0000121197603E023440021D9720132204BD5
:1036F0001B889342BADD1F4B53F8223059780529B5
:10370000F1D823440121D972F0E72C2304FB03F301
:10371000194AD35C73B918492C2304FB03F3CD1861
:103720000022CA5401232B73EA612A76FDF7ECFBD1
:103730006861A4E72C2303FB042501236B73FDF7C9
:10374000E3FB2861002203E023440021D971013208
:10375000074B1B889342DEDD064B53F82230597825
:103760000529F1D823440121D971F0E738BD00BF04
:10377000A429002084290020A829002010B588B0A1
:103780000024039404940594069407942A4BDA6C5D
:1037900042F00202DA64DB6C03F002030293029B44
:1037A00001230593032C0DDC244B04EB440203EBB3
:1037B00082014968039103A953F8220003F02CF910
:1037C0000134EFE70020032813DC1D4C2C2100FB03
:1037D00001F1631800225A8062541A735A73DA6135
:1037E0003C211962FA215962C82199621A76013086
:1037F000E9E7002304E0134A002142F823100133D3
:10380000072BF8DD01F0D8FC041E11DB0023009328
:103810000D4B02220A21204601F0A2FC204601F0B5
:10382000B9FC0A490A48FFF779FE012008B010BD2B
:10383000084801F0B3FBF4E700100240A0010108C2
:10384000A8290020842900201D360008C53800085A
:10385000EC000108C00001080346032808D8054A07
:10386000107830B12C2202FB03F3034AD05C70477E
:10387000002070470C000020A8290020042828BF41
:103880000420024B53F82000704700BF8C01010850
:1038900003280ED8094B1B786BB182B0084B2C2241
:1038A00002FB00339A685B68D31A0193019802B057
:1038B0007047002070470020704700BF0C000020B8
:1038C000A8290020F8B505460388012B09D0002659
:1038D0002B88012B1FD02B88012B3AD0002E63D0D0
:1038E000F8BD436936490020984706460028EFD0C6
:1038F00000240DE0E0B2FFF7C1FF014604EB4402F3
:10390000304B03EB82035A682F48FFF76FFB0134FB
:10391000032CEFDDDCE76B692C4900209847074654
:1039200080B9D8E7E0B2FFF797FF01462848FFF7D4
:103930005DFB0134032CF5DD3220FDF7D7FA254875
:10394000FFF754FBFFF7DEFD08B10024F2E73E4627
:10395000C1E76B6920490020984707460028BDD081
:10396000AB680120984718E00134032C12DCE5B263
:103970002846FFF771FF0028F6D02846FFF77EFFA4
:1039800006462846FFF784FF024631461348FFF7F4
:103990002DFBE9E70A20FDF7A9FAFFF7B3FD08B10F
:1039A0000024E2E73E4699E70D48FFF71FFB0D486C
:1039B000FFF71CFB04210C48FFF718FB90E700BF42
:1039C000F4000108A0010108FC0001080C01010835
:1039D00014010108180101081C0101082401010853
:1039E0003C0101084C0101085C01010810B58CB0D4
:1039F00004464FF4AD6300FB03F32833234A13441A
:103A000001A9181D02F07EFE049B03B31F4B4FF467
:103A1000AD6202FB04335A6842F001025A60059B12
:103A2000FBB11A4B4FF4AD6202FB04335A6842F00B
:103A300002025A60069BF3B1144B4FF4AD6202FBD5
:103A400004335A6842F004025A600CB010BD0F4BA8
:103A50004FF4AD6202FB04335A6822F001025A604F
:103A6000DDE70A4B4FF4AD6202FB04335A6822F0E3
:103A700002025A60DEE7054B4FF4AD6202FB0433ED
:103A80005A6822F004025A60DFE700BF5C2A002077
:103A900010B500242CB112491248FFF73FFD012058
:103AA00010BD11494FF4AD6004FB00F00B1801226A
:103AB0000A5400225A705A601A72DA601A615A6106
:103AC0009A61DA6100F1A80C9030084410234C226E
:103AD00061440430FFF782F80134E4B2DAE700BF52
:103AE00045400008D00101085C2A002058BB00B501
:103AF00087B0844602BB0092154A4FF4AD6000FBCC
:103B00000C22126A402A1BD0022203920191022247
:103B100002920493089B05934FF4AD6303FB0CF0F2
:103B200028300B4B18446946043002F03FFC60B16A
:103B3000002007B05DF804FB4FF080420092DBE705
:103B400001220392E2E7002070470120F1E700BF65
:103B50005C2A00202DE9F04182B09DF820E018B1E8
:103B6000002002B0BDE8F08105464FF4AD6005FBD2
:103B700000F000F12804534E3444043406EB000CEA
:103B80005148CCF82C000026CCF830604F4850F853
:103B90002200CCF834004E4850F82100CCF8380010
:103BA00001208CF83C008CF83D008CF83E004FEA78
:103BB00003184848006800EB031750F80800CCF8D9
:103BC00040007868CCF84400B868CCF84800F86841
:103BD000CCF84C004FEA0E183F48006800EB0E1777
:103BE00050F80800CCF850007868CCF85400B86859
:103BF000CCF85800F868CCF85C001C20CCF86000C9
:103C00000820CCF86400CCF868608CF828108CF898
:103C100029208CF82A308CF82BE04023CCF8203077
:103C20002E4BCCF82430204602F0D6FA08B1002002
:103C300097E700963346324631462846FFF756FF4F
:103C400000963346012231462846FFF74FFF009683
:103C5000334602221146204602F0DBFB08B1002069
:103C60007FE7184B4FF4AD6202FB05333246596AC9
:103C7000204602F081FD08B1002072E7114B4FF49D
:103C8000AD6202FB0533196D9B6D324603FB01F1FA
:103C9000204602F0DFFB08B1002062E7204602F078
:103CA000EAFB08B100205CE7204602F0F6FB38B9D9
:103CB000044B4FF4AD6202FB05330120587050E70E
:103CC00000204EE75C2A00200064004074030108D5
:103CD00068030108140000201000002007000E00F7
:103CE000012801D90020704708B54FF4AD6303FBEC
:103CF00000F09030024B18440430FEF7D7FF08BDA7
:103D00005C2A0020012860D8F0B58BB00D4616461D
:103D1000304B4FF4AD6202FB00335B6813F0040FCD
:103D200055D102FB00F428342A4B1C44043491F88A
:103D30004730DBB1012B1CD095F84830012B1FD048
:103D4000022B23D0CBB12B68019300230993089356
:103D50000593039395F846201F4B53F822300493A4
:103D6000204602F003FDC0B9002031E00023029399
:103D7000E2E74FF080430293DEE707930693E2E722
:103D80004FF40013079300230693DCE74FF400136E
:103D900007934FF480130693D5E7FDF7B5F8074670
:103DA000AA1D01A9204602F0D4FB08B100200FE0B3
:103DB000204602F0DBFC30B9FDF7A6F8C01BB0428C
:103DC000F6D3002004E0012002E00020704700202C
:103DD0000BB0F0BD5C2A002080030108012801D946
:103DE0000020704708B54FF4AD6303FB00F090303E
:103DF000034B184401220430FEF725FF08BD00BF25
:103E00005C2A0020012801D90020704700B585B048
:103E10004FF4AD6303FB00F02830074B18446946AC
:103E2000043002F094FC20B9BDF8040005B05DF840
:103E300004FB0020FAE700BF5C2A0020012801D91A
:103E40000020704700B585B04FF4AD6303FB00F070
:103E50002830074B18446946043002F078FC20B93A
:103E6000BDF8000005B05DF804FB0020FAE700BFD4
:103E70005C2A002001281BD838B50E4B4FF4AD62E8
:103E800002FB00335B7803B938BD0A4C02FB00F03B
:103E9000251800226A60283004440434204602F0C9
:103EA00013FB204602F0F9FAEB680133EB60EBE715
:103EB000704700BF5C2A002010B50024204609E0AE
:103EC000174B4FF4AD6202FB04331B7A2BB1012B6D
:103ED00017D00134002CF3DD10BD114B4FF4AD624F
:103EE00002FB04335B6813F0040FF2D0E0B2FFF77B
:103EF000C1FF0B4B4FF4AD6202FB0433012018727B
:103F0000E7E7074B4FF4AD6202FB04335B6813F045
:103F1000040FDED1024B02FB043300221A72D8E7F1
:103F20005C2A00202DE9F0438BB0074688464FF409
:103F3000AD6600FB06F606F190042C4D2C440434CB
:103F40002046FEF7ADFE81463544831D6A46296A48
:103F5000404602F027FB68BB019B73BB009BC9F87E
:103F60000030002389F84730039A214B53F8223060
:103F7000A9F80430069BB3F5001F25D0002389F86B
:103F80004830012200212046FEF733FE38B9174B96
:103F90004FF4AD6202FB07331A6901321A61134B09
:103FA0004FF4AD6202FB0733D3F8903013B14846AB
:103FB0009847A8B90BB0BDE8F083009BC9F8003062
:103FC000012389F84730CFE7059BB3F5801F03D065
:103FD000012389F84830D4E7022389F84830D0E734
:103FE000012200212046FEF72EFEE3E75C2A002096
:103FF000C003010801281CD810B50E4B4FF4AD6268
:1040000002FB00335C6814F0010F06D114F0020FBC
:1040100007D114F0040F08D110BD074800F0BEFF0F
:10402000F4E7064800F0BAFFF3E7054800F0B6FFF2
:10403000F2E770475C2A0020D4010108F001010872
:104040000C0201082DE9F04194B004460388012BCD
:104050000CD000252388012B31D02388012B74D06C
:10406000002D00F0508114B0BDE8F0814369AB49E8
:104070000020984705460028ECD000271CE0A84EF9
:104080004FF4AD6303FB07667178A648FEF7AEFFF9
:104090003169A548FEF7AAFF7169A448FEF7A6FF9B
:1040A000B169A348FEF7A2FFF169A248FEF79EFF9F
:1040B000F8B2FFF79FFF0137002FE0DDCAE7636921
:1040C0009D490020984706460028C6D00027FFF7E4
:1040D00019FA002837D00020FFF702FE0028F6D09A
:1040E00001A90020FFF77AFE9449A1FB0731890955
:1040F0004FF47A7303FB11714F1C9148FEF776FF62
:104100009DF84B3053B98F48FEF770FFBDF808207B
:1041100001998D48FEF76AFF00250CE08B48FEF7F9
:1041200065FFF3E705F150036B4413F8461C88481C
:10413000FEF75CFF0135BDF80830AB42F2DC854884
:10414000FEF754FFC3E7354687E7636982490020DD
:1041500098478046002883D0714B5E6800273D4613
:1041600080E0FCF7D1FE054601228DF84C208DF849
:104170004B2008238DF84A304FF445710191ADF87A
:1041800008308DF80A2002228DF80B2003228DF8CA
:104190000C2004228DF80D2005228DF80E20062219
:1041A0008DF80F2007228DF810208DF811300A228B
:1041B00001A90020FFF7A6FDF0B90020FFF722FEBD
:1041C00010B9FFF73BFE58B10020FFF71BFE044675
:1041D0000020FFF733FE024621466048FEF706FF47
:1041E0005F4B1B68002B48D05D4C21685D48FEF793
:1041F000FDFE0023236040E05049A1FB07318909FF
:104200004FF47A7303FB11714F1C5748FEF7EEFE13
:104210009DF84B3053B94B48FEF7E8FEBDF8082037
:1042200001994948FEF7E2FE00240CE04748FEF7FA
:10423000DDFEF3E704F150036B4413F8461C4448D9
:10424000FEF7D4FE0134BDF80830A342F2DC414849
:10425000FEF7CCFEB1E7FFF72FFED8B90020FFF73D
:104260003FFDD8B9FFF74EF900284AD0FCF74CFEC5
:10427000431BB3F57A7FBFF474AF294B5968B14241
:10428000E9D03A48FEF7B2FE0020FFF7B3FE244B18
:104290005E68E0E73648FEF7A9FEDFE701A90020E7
:1042A000FFF79CFD2549A1FB073189094FF47A737B
:1042B00003FB11714F1C2248FEF798FE9DF84B300E
:1042C00053B92048FEF792FEBDF8082001991E4818
:1042D000FEF78CFE00240CE01C48FEF787FEF3E797
:1042E00004F150036B4413F8461C1948FEF77EFE98
:1042F0000134BDF80830A342F2DC1648FEF776FE22
:10430000B0E74546ACE61B48FEF770FE1A48FEF7DC
:104310006DFE1A48FEF76AFEA5E600BFF40001082C
:104320005C2A002028020108400201085802010806
:104330007002010888020108A0020108D34D621032
:10434000A8020108B8020108C8020108C002010859
:10435000DC02010810050108E4020108FC02010862
:10436000582A002010030108EC0201081C03010870
:104370003003010844030108500301085C030108ED
:1043800008B50020FFF732FB08BD0000054A13689E
:1043900001331360036E23B1034A536843F01003E3
:1043A00053607047582A00205C2A002008B5024854
:1043B00002F06DFA08BD00BF882A002010B50C4637
:1043C00011F0010F0ED114F0020F03D0084A9369C7
:1043D0000133936114F0040F03D0054AD36901330C
:1043E000D36110BD01460020FFF79CFDEBE700BF45
:1043F0005C2A002000B589B0002303930493059341
:10440000069307930268174B9A4202D009B05DF8F1
:1044100004FB03F5D6339A6D42F000729A659A6DEB
:1044200002F000720192019ADA6C42F00202DA6440
:10443000DB6C03F002030293029B4FF4407303937F
:10444000022304930923079303A9074802F0E4FA1F
:1044500000221146152001F0EDFD152001F0FAFDB6
:10446000D4E700BF006400400004004808B501F034
:104470005BFA014B187008BDC42F002008B501F08D
:104480008FFA08BD08B501F06BFA08BD08B501F058
:104490006FFA08BD08B501F09FFA08BD08B501F034
:1044A00079FA08BD82B00023019302E0019B013339
:1044B00001934FF47A7300FB03F3019A9342F5D80A
:1044C00002B0704710B500243CB10C490C48FFF70E
:1044D00025F801200B4B187010BD00230A4A42F842
:1044E00024300A4A13550A4800EB8400FCF7FAFE10
:1044F000084B43F824000134E6E700BF39490008BF
:10450000D004010821300020283000202030002075
:10451000040701081C3000202DE9F04786B005464D
:1045200000EB8003384E06EB8306D6F80890CDF8F2
:1045300004904FF0110ACDF808A00024039403233F
:104540000493D6F8048001A9404602F065FA80275A
:104550000197CDF808A00394F66801A9304602F04F
:104560005BFA01221FFA89F1404602F0D4FB0122D6
:104570003946304602F0CFFB0520FFF793FF17E0E6
:1045800005EB8502204B03EB82031F895E68002246
:104590003946304602F0BFFB0520FFF783FF0122BA
:1045A0003946304602F0B7FB0520FFF77BFF0134A8
:1045B000082CE5DD144E05EB850406EB8404B4F805
:1045C0000890D4F8048000224946404602F0A3FB3C
:1045D0000520FFF767FF00228021E06802F09BFBC7
:1045E0000520FFF75FFF01224946404602F093FB9A
:1045F0000520FFF757FF01228021E06802F08BFBC6
:1046000006B0BDE8F08700BFF006010838B500EB42
:104610008002184B53F8225008B1002038BD0446E0
:10462000154B19540023154A1354154A2A60154A8C
:1046300052F821206A60AB600122EA602B616B6155
:10464000EB612B62FFF768FF284602F0DEFD28468B
:1046500002F077FD08B10020E0E70021284603F0D2
:1046600065FC0021284603F08FFC0120034B185500
:10467000D4E700BFF00601082430002020300020DD
:1046800000540040E806010870B504460D4600EBF2
:1046900080020C4B53F8226064210B4B53F820002E
:1046A000FCF725FE0A231A466900304603F044F859
:1046B00008B9012070BD044B53F82400FCF747FEF5
:1046C0000020F7E7F00601081C3000202DE9F0413A
:1046D00084B0044600EB800C144850F82C8024B1C0
:1046E0000025284604B0BDE8F0810F4616461D4659
:1046F0004FF0FF310E4B53F82400FCF7F8FD790022
:1047000089B20B9B0293BDF82830019300950123D9
:104710003246404602F038FF30B90125044B53F8C9
:104720002400FCF714FEDCE70025F7E7F00601089B
:104730001C30002010B582B0049C01940124009428
:10474000FFF7C4FF02B010BD2DE9F04184B004466C
:1047500000EB800C144850F82C8024B1002528462A
:1047600004B0BDE8F0810F4616461D464FF0FF31FC
:104770000E4B53F82400FCF7BAFD790089B20B9B6D
:104780000293BDF82830019300950223324640463B
:1047900002F0FAFE30B90125044B53F82400FCF76F
:1047A000D6FDDCE70025F7E7F00601081C30002005
:1047B00010B582B0049C019401240094FFF7C4FF5B
:1047C00002B010BD2DE9F04184B0044600EB800C2E
:1047D000144850F82C8024B10025284604B0BDE8C8
:1047E000F0810F4616461D464FF0FF310E4B53F831
:1047F0002400FCF77CFD790089B20B9B0293BDF885
:1048000028300193009501233246404602F0E8FD2E
:1048100030B90125044B53F82400FCF798FDDCE780
:104820000025F7E7F00601081C30002000B585B030
:104830008DF80F30069B0193012300930DF10F03B8
:10484000FFF7C0FF05B05DF804FB00002DE9F04163
:1048500084B0044600EB800C144850F82C8024B13E
:104860000025284604B0BDE8F0810F4616461D46D7
:104870004FF0FF310E4B53F82400FCF738FD790060
:1048800089B20B9B0293BDF8283001930095022357
:104890003246404602F0A4FD30B90125044B53F8DE
:1048A0002400FCF754FDDCE70025F7E7F0060108DB
:1048B0001C30002000B585B08DF80F30069B0193A9
:1048C000012300930DF10F03FFF7C0FF05B05DF862
:1048D00004FB00002DE9F04182B0044600EB800C9F
:1048E000134850F82C5024B10025284602B0BDE8EA
:1048F000F0810F46164698464FF0FF310D4B53F8A6
:104900002400FCF7F4FC790089B2089B00931FFA9D
:1049100088F33246284602F091FC30B90125054B58
:1049200053F82400FCF713FDDFE70025F7E700BF8D
:10493000F00601081C3000202DE9F047A4B0044621
:104940000388022B5AD0052B3ED18368012098475B
:1049500010F0FF0500F08A80012D28BF0125A36813
:10496000022098471FFA80F9A3680320984706465B
:104970001FFA80FAA36804209847074605F1FF381C
:104980005FFA88F863698A4900209847002874D143
:104990006369884900209847002840F0888063694F
:1049A000854900209847002840F0BB80636983490F
:1049B00000209847002840F0B680636980490020B5
:1049C0009847002840F0CB8001217E48FEF70EFB7F
:1049D00001217D48FEF70AFB7C48FEF707FB7C4877
:1049E000FEF704FB7B48FEF701FB7B48FEF7FEFA6F
:1049F0007A48FEF7FBFA24B0BDE8F087836801200F
:104A0000984710F0FF0519D0012D28BF0125013D61
:104A1000EDB2636972490020984700BB6369714930
:104A2000002098470028E6D001212846FFF7EEFD38
:104A3000B8B1691C6C48FEF7D9FADCE70125E6E756
:104A400001347F2CD7D8E1B22846FFF71DFE00289D
:104A5000F6D02246691C6548FEF7C8FAF0E7002444
:104A6000EFE7691C6248FEF7C1FAC4E7012576E763
:104A700029466048FEF7BAFABDE70024BBB2A3425C
:104A8000B9D90AEB04026423009304AB92B24946FD
:104A90004046FFF74FFE0028EAD09DF8103014FA88
:104AA00086F229465448FEF7A1FA0134E6E7FCF7FE
:104AB0002BFA044664230093FBB252464946404613
:104AC000FFF7B4FE50B1FCF71FFA001B0090BBB219
:104AD000B2B229464948FEF789FA8CE7294645488B
:104AE000FEF784FA87E79DF8103014FA86F229461B
:104AF0004148FEF77BFA0134BBB2A3427FF67BAF9D
:104B00000AEB04026423009304AB92B24946404688
:104B1000FFF74EFE0028E6D129463648FEF766FA32
:104B200069E70024E8E7FCF7EFF904466423009303
:104B3000FBB2524649464046FFF7BCFE50B1FCF777
:104B4000E3F9001B0090BBB2B2B229462C48FEF735
:104B50004DFA50E729462748FEF748FA4BE7FCF79D
:104B6000D3F904464FEA1A2A8DF808A08DF8096097
:104B7000FBB28DF80A305B428DF80B306423009352
:104B8000032302AA49464046FFF7A4FE50B1FCF7B2
:104B9000BBF9001B0090BBB2B2B229461848FEF721
:104BA00025FA28E729461348FEF720FA23E700BF35
:104BB000A00201085C0501088805010890050108AC
:104BC000BC050108C8050108E40501080006010844
:104BD0002C0601085806010888060108B8060108D5
:104BE000D4040108F804010800050108DC040108E8
:104BF00014050108480501082C0501086405010891
:104C0000980501080268064B1B689A4200D070475D
:104C1000436C002BFBD0034A136801331360F6E7A3
:104C2000C82F00202830002008B5024803F03CF9C6
:104C300008BD00BFC82F0020F0B589B00023039342
:104C400004930593069307930268214B9A4201D07F
:104C500009B0F0BD1F4CE36C43F00103E364E36C67
:104C600003F001030093009BE36C43F00203E36451
:104C7000E36C03F002030193019B4FF400430393A1
:104C800012270497012505950426079603A94FF0DE
:104C9000904001F0C1FE8023039304970595002501
:104CA0000695079603A90C4801F0B6FEA36D43F4E0
:104CB0000013A365A36D03F400130293029B2A461D
:104CC0000521202001F0B6F9202001F0C3F9BFE74B
:104CD00000540040001002400004004808B502687B
:104CE0000B4B9A4200D008BD0A4A936D23F400137F
:104CF00093654FF400414FF0904001F077FF802121
:104D0000054801F073FF202001F0A8F9EBE700BF90
:104D1000005400400010024000040048012800D95F
:104D2000704708B5044B03EBC0010022898853F893
:104D3000300001F0F0FF08BD0807010810B586B08B
:104D40000024019402940394049405940F4BDA6CAC
:104D500042F00402DA64DB6C03F004030093009B6E
:104D6000012302930DE00A4B03EBC40292880192E7
:104D700001A953F8340001F04FFEE0B2FFF7CEFF77
:104D80000134012CEFDD012006B010BD00100240FF
:104D900008070108012800D9704708B5044B03EB48
:104DA000C002918853F8300001F0BAFF08BD00BF7F
:104DB000080701082DE9F04106460388012B0AD0B7
:104DC00000273388012B23D03388012B3ED0002FBE
:104DD0005AD0BDE8F0814369304900209847074622
:104DE0000028EED02E4C21882E48FEF7FFF861886F
:104DF0002D48FEF7FBF82D48FEF7F8F82C4C2188DB
:104E00002C48FEF7F3F861882B48FEF7EFF8D8E757
:104E100073692A490020984780460028D4D000258D
:104E200006E01F4B986821462844FEF7D5F8254434
:104E3000FEF768FB074638B1194B5C88641BC3D08A
:104E4000402CEED94024ECE74746BDE773691C4986
:104E50000020984706460028B9D0002506E0144BEC
:104E6000986821462844FEF7B7F82544FEF74AFB28
:104E7000074638B10E4B5C88641BA8D0402CEED995
:104E80004024ECE73746A2E70E48FEF7AFF80E489D
:104E9000FEF7ACF80D48FEF7A9F89AE7F400010810
:104EA0003C3D0020180701083007010810050108E3
:104EB000303D002048070108600701087807010815
:104EC000800701088807010894070108A007010866
:104ED00010B50E4A0023138053804FF480619180F7
:104EE000D3800B4991600B4A138053804FF40061CB
:104EF0009180D380084B93600124084B1C700849B3
:104F00000848FEF70BFB204610BD00BF3C3D0020CB
:104F100030390020303D0020303100202E3100207B
:104F2000B54D0008AC070108003818BF0120014B3F
:104F3000187070471900002030B583B004469446BD
:104F4000C3881344083382889A4205D20023C38061
:104F50000CF108039A4219D3E088009123880E4A85
:104F60000CF10801A568284408F058F9238801339A
:104F70002380E38882B21344E38063881844A188C5
:104F8000884205DC1A446280012002E0002000E033
:104F9000012003B030BD00BFB00701080FB410B549
:104FA00082B0164B1B7823B902B0BDE8104004B0A4
:104FB000704705AB0193049A4FF48071104808F0D4
:104FC000CFF904460F4B1B7813B10F4B1B7843B935
:104FD0000E4B1B7863B9224609490D48FFF7ACFF19
:104FE000E2E7024606490B4B187800F02FF9EFE78D
:104FF000224603490848FFF79FFFECE72E310020C7
:105000002C3000202D310020180000201900002035
:10501000303D00202C3100203C3D002008B5134BD2
:10502000D3F8F03013F0010F0DD10022104BD3F85C
:10503000943013F0806F00D03AB10021012000F0CD
:1050400073F8012008BD0122F0E7012000F064F8A8
:10505000411C012000F068F84FF4FA70FBF746FF9E
:10506000012000F059F8034B1860E6E700ED00E07E
:1050700000100240483D0020014B1868704700BFF7
:10508000483D002000B583B0134B019304F05EF857
:105090004FF0E02200231361536193610FE00F4A48
:1050A00003F120004FF0FF3142F8201003F16000BF
:1050B00042F82010BFF34F8FBFF36F8F0133072BE0
:1050C000EDDD019B5B68019A126882F308889847BE
:1050D00003B05DF804FB00BF0000FF1F00E100E02B
:1050E00008B50B480B4B0360002343607F228260AE
:1050F000FF22C2600361436183614FF08042C2615D
:10510000036204F043FE08B9012008BD0020FCE75B
:105110004C3D00200028004008B50146014804F03D
:105120008DFE08BD4C3D002008B50A4601460248E8
:1051300004F07DFE08BD00BF4C3D00200268064B18
:105140009A4200D07047054AD2F8903043F40043A9
:10515000C2F89030F6E700BF00280040001002407F
:10516000002813DB10B40A4C00EB800C04EB8C0C11
:105170008CF80120CCF80C30019BCCF81030CCF826
:105180000410CCF808105DF8044B7047704700BF5E
:10519000743D002000280BDB064A00EB800302EB85
:1051A00083039968596000EB8000012302F82030E6
:1051B000704700BF743D0020074B188800B20028DC
:1051C00006DC1A461B889BB201339BB213807047E2
:1051D0004FF0FF30704700BF883D00200023002BB8
:1051E00001DD0120704707494FF4856203FB02F29D
:1051F00088184FF0000C01F802C04FF46142426081
:105200000133ECE78C3D0020034668B9074A4FF4B0
:10521000856000FB03F302EB030C01208CF808000F
:10522000CCF80410D0547047002070478C3D00200B
:1052300008B10020704708B5FFF724F908BD08B190
:105240000020704708B5FFF721F908BD08B100201C
:10525000704708B50B4611461846FFF71BF908BD05
:105260000EB410B5C3B0044645AB53F8042B0193FC
:105270004FF4807102A808F073F8024602A9204694
:10528000FFF7E4FF43B0BDE8104003B0704708B13A
:105290000020704708B5FFF701F908BD08B50349BC
:1052A0000348FEF73BF9012008BD00BFED5200089E
:1052B000B807010808B5FFF7E1F808BD0A4BD3F8B5
:1052C000BC3253B1084B93F89C32DBB2032B06D1AE
:1052D000054B5B682BB10120704700207047002010
:1052E00070470020704700BFB4410020F8B5044665
:1052F0000388012B09D000252388012B28D023887F
:10530000012B4ED0002D79D0F8BD436940490020D3
:105310009847054698B9EFE7FFF7D0FF01463D48AB
:10532000FDF764FEFFF7C6FF01463B48FDF75EFE52
:1053300002213A48FDF75AFE6420FBF7D7FDFEF73D
:10534000E1F80028E8D102213548FDF74FFED3E708
:10535000636934490020984707460028CFD0FBF7FF
:10536000D3FD0646002504E01F212F48FFF792F8E1
:105370001F35FEF7C7F870B1FBF7C6FD831BB3F509
:105380007A7FF1D3FBF7C0FD0646A90A2748FFF74D
:1053900005FE0025E8E702212148FDF727FE3D46EE
:1053A000ADE763692249002098470028AAD0FBF79F
:1053B000ABFD074600260EE0FBF7A6FD0746B10A47
:1053C0001C48FFF7EBFD00260EE0FFF75FF8013405
:1053D000AC42FAD32E44FEF795F850B1FBF794FD9A
:1053E000C31BB3F57A7FE7D2FFF74CF805460024DC
:1053F000EEE702210A48FDF7F9FD85E70E48FDF7C3
:10540000F5FD0E48FDF7F2FD0D48FDF7EFFD7BE7DA
:10541000F4000108BC070108D0070108E4070108EF
:10542000EC070108F407010808080108F80701085B
:105430002C08010830080108400801084C08010840
:105440005808010808B5012803D00020134B187034
:1054500008BD00221249134805F0DFFD08B1002005
:10546000F6E711490F4805F0EFFD08B10020EFE71E
:105470000E490C4800F096F908B10020E8E7094809
:1054800005F0F9FD08B10020E2E7FEF7EFFF08485C
:10549000FFF784FD0120074B1870D7E785440020F3
:1054A0007C010020B4410020E800002034010020ED
:1054B000640801088444002008B5024803F03AFB60
:1054C00008BD00BFA458002010B5D0F8BC42D0F8E9
:1054D000C0325BB194F80002FF2807D09B6894F8B3
:1054E000012221469847FF2384F80032002010BD96
:1054F000432303800048704760000020432303805B
:1055000000487047A40000204323038000487047F0
:105510001C0000200A23038000487047200100205F
:1055200038B5D0F8BC5275B1044600F08FFCC5F810
:105530000C02D4F8C032DB6805F50371D5F804021B
:105540009847002038BD0320FCE710B5D0F8C442CE
:10555000D0F8BC3253B301EB810200EB82029269B6
:105560004AB101EB810C04EBCC04246AB2FBF4FCDD
:1055700004FB1C2272B10022C3F81422D0F8C0220E
:105580001469ACB10A4603F50471D3F80802A047C8
:10559000002010BD01EB810300EB830300249C611C
:1055A0002346224600F042FC2046F2E70320F0E7C3
:1055B0000020EEE7F0B583B006460C46D0F8BC728A
:1055C00000238DF80730ADF804300B7813F0600538
:1055D00027D0202D5BD1CA88DAB113F0800F0CD010
:1055E000D0F8C0329B68394660789847E2883946DF
:1055F000304606F0D9F900254CE04B7887F80032A8
:105600008B7987F80132CA88394606F0E2F900251D
:1056100040E0D0F8C0329B680022487898470025C7
:1056200038E04F780B2F2ED8DFE807F006342D2D09
:105630002D2D2D2D2D2D152490F89C32DBB2032B12
:1056400003D005F077FE032524E0022201A906F02D
:10565000ABF93D461EE090F89C32DBB2032B03D041
:1056600005F068FE032515E001220DF1070106F0A3
:105670009BF90FE090F89C32DBB2032B0AD005F0C7
:1056800059FE032506E005F055FE032502E005F06E
:1056900051FE0325284603B0F0BD38B504468121EC
:1056A00000F087FB002525870121204600F081FBC3
:1056B000A4F878518221204600F07BFBA4F84C50DE
:1056C000A4F84E50D4F8BC324BB1D4F8C0325B6869
:1056D0009847D4F8BC0200F0C3FBC4F8BC520020C9
:1056E00038BD70B504464FF4077000F0B5FBB8B391
:1056F0000646C4F8BC02237CBBBB4FF400730222F5
:105700008121204600F04AFB012525874FF40073D4
:1057100002222946204600F041FBA4F878511023CC
:10572000A4F84E30082303228221204600F036FBE5
:105730000123A4F84C30D4F8C0321B6898470023EA
:10574000C6F81432C6F81832257C15BB4FF4007326
:10575000D6F804220121204600F070FB284670BDD7
:105760000023C4F8BC320225F8E74023022281213D
:10577000204600F013FB01252587402302222946FD
:10578000204600F00BFBA4F878511023A4F84E300B
:10579000C8E74023D6F804220121204600F04EFB42
:1057A0000025DBE719B1C0F8C012002070470320C4
:1057B0007047D0F8BC32C3F80812C3F8102200209A
:1057C0007047D0F8BC32C3F8041200207047D0F8FC
:1057D000BC2292B108B5D2F814320BB1012008BD39
:1057E0000123C2F81432D2F81032C362D2F8082270
:1057F000812100F01BFB0020F1E70320704710B56A
:10580000D0F8BC2292B1047C44B94FF40073D2F8B2
:105810000422012100F012FB204610BD4023D2F8E3
:105820000422012100F00AFB0024F5E70324F3E73A
:105830000020014B187070478744002021281BD09E
:10584000222829D0202801D0002070470B78154A43
:105850001360487843EA00231360887843EA0043E2
:105860001360C87843EA006313600B7913714B79B6
:1058700053718B799371E7E70A4B1A780A705A785B
:105880004A709A788A70DA78CA701A790A715A79E5
:105890004A719B798B71D7E74B8803F00103024A69
:1058A0001370D1E72C0100208744002000207047AE
:1058B00070B505460D4E0A6801463046FDF799F968
:1058C000B4683046FDF7F2F9241A013C3F2C04D8A5
:1058D000074B01221A70002070BD064C2946204655
:1058E000FFF76FFF2046FFF78AFFF4E79C4C00208C
:1058F00086440020B441002010B5074C002207491F
:105900002046FFF756FF06492046FFF75AFF0020C2
:10591000044B187010BD00BFB4410020B04C0020F3
:10592000985000208744002008B5084B00221A70C8
:105930004FF4806206490748FDF747F94FF480624B
:1059400005490648FDF741F9012008BD87440020BC
:10595000884800209C4C002088440020884C00206F
:1059600008B50248FDF7A2F908BD00BF9C4C002015
:1059700000B583B000238DF8073001220DF1070137
:105980000348FDF760F99DF8070003B05DF804FBDC
:105990009C4C0020014B1868704700BF2C01002070
:1059A0000B4BD3F8BC3263B10A4B187840B1084BAB
:1059B00093F89C32DBB2032B05D1054B5B6823B116
:1059C000704700207047002070470020F8E700BFB4
:1059D000B4410020874400202DE9F04107460D46E0
:1059E000FFF7DEFF18B900263046BDE8F081FBF76F
:1059F0008BFA804600260AE0ACB9FFF7D1FF0028F9
:105A0000F2D0FBF781FAA0EB0803632BECD8AE428F
:105A1000EAD209488468FDF749F9241A013CA542F5
:105A2000EAD82C46E8E7224639460348FDF7E1F874
:105A300027442644E1E700BF884C002070B51C4B8A
:105A40001B788BB91B48FDF731F9044610F03F0F66
:105A500002D138B1441E05D0174BD3F8BC32D3F86D
:105A60001432ABB1002070BD14488468FDF71EF9F4
:105A7000241A013C3F2CE5D90F4C11492046FFF771
:105A8000A0FE2046FFF7BBFE094B00221A70D9E7A3
:105A90000C4E224631460748FDF7D5F8064D224602
:105AA00031462846FFF785FE2846FFF790FED9E7E6
:105AB00086440020884C0020B44100209C4C0020EB
:105AC00098500020B04C002012230B8000487047F3
:105AD0006801002004230B80004870476401002007
